{
  "contractName": "FreelanceMarketplace",
  "abi": [
    {
      "inputs": [],
      "stateMutability": "nonpayable",
      "type": "constructor"
    },
    {
      "anonymous": false,
      "inputs": [
        {
          "indexed": true,
          "internalType": "uint256",
          "name": "jobId",
          "type": "uint256"
        },
        {
          "indexed": true,
          "internalType": "address",
          "name": "freelancer",
          "type": "address"
        },
        {
          "indexed": false,
          "internalType": "uint256",
          "name": "amountWei",
          "type": "uint256"
        }
      ],
      "name": "BidPlaced",
      "type": "event"
    },
    {
      "anonymous": false,
      "inputs": [
        {
          "indexed": true,
          "internalType": "uint256",
          "name": "jobId",
          "type": "uint256"
        }
      ],
      "name": "DisputeRaised",
      "type": "event"
    },
    {
      "anonymous": false,
      "inputs": [
        {
          "indexed": true,
          "internalType": "uint256",
          "name": "jobId",
          "type": "uint256"
        },
        {
          "indexed": false,
          "internalType": "bool",
          "name": "freelancerPaid",
          "type": "bool"
        },
        {
          "indexed": false,
          "internalType": "uint256",
          "name": "feeWei",
          "type": "uint256"
        }
      ],
      "name": "DisputeResolved",
      "type": "event"
    },
    {
      "anonymous": false,
      "inputs": [
        {
          "indexed": true,
          "internalType": "address",
          "name": "to",
          "type": "address"
        },
        {
          "indexed": false,
          "internalType": "uint256",
          "name": "amountWei",
          "type": "uint256"
        }
      ],
      "name": "FeesWithdrawn",
      "type": "event"
    },
    {
      "anonymous": false,
      "inputs": [
        {
          "indexed": true,
          "internalType": "uint256",
          "name": "jobId",
          "type": "uint256"
        },
        {
          "indexed": true,
          "internalType": "address",
          "name": "freelancer",
          "type": "address"
        },
        {
          "indexed": false,
          "internalType": "uint256",
          "name": "amountWei",
          "type": "uint256"
        }
      ],
      "name": "FreelancerHired",
      "type": "event"
    },
    {
      "anonymous": false,
      "inputs": [
        {
          "indexed": true,
          "internalType": "uint256",
          "name": "jobId",
          "type": "uint256"
        },
        {
          "indexed": true,
          "internalType": "address",
          "name": "client",
          "type": "address"
        },
        {
          "indexed": false,
          "internalType": "string",
          "name": "title",
          "type": "string"
        },
        {
          "indexed": false,
          "internalType": "uint256",
          "name": "budgetWei",
          "type": "uint256"
        }
      ],
      "name": "JobPosted",
      "type": "event"
    },
    {
      "anonymous": false,
      "inputs": [
        {
          "indexed": true,
          "internalType": "address",
          "name": "user",
          "type": "address"
        },
        {
          "indexed": false,
          "internalType": "string",
          "name": "name",
          "type": "string"
        },
        {
          "indexed": false,
          "internalType": "enum FreelanceMarketplace.Role",
          "name": "role",
          "type": "uint8"
        }
      ],
      "name": "UserRegistered",
      "type": "event"
    },
    {
      "anonymous": false,
      "inputs": [
        {
          "indexed": true,
          "internalType": "uint256",
          "name": "jobId",
          "type": "uint256"
        },
        {
          "indexed": false,
          "internalType": "uint256",
          "name": "paidToFreelancerWei",
          "type": "uint256"
        },
        {
          "indexed": false,
          "internalType": "uint256",
          "name": "feeWei",
          "type": "uint256"
        }
      ],
      "name": "WorkApproved",
      "type": "event"
    },
    {
      "anonymous": false,
      "inputs": [
        {
          "indexed": true,
          "internalType": "uint256",
          "name": "jobId",
          "type": "uint256"
        }
      ],
      "name": "WorkMarkedCompleted",
      "type": "event"
    },
    {
      "inputs": [],
      "name": "arbiter",
      "outputs": [
        {
          "internalType": "address",
          "name": "",
          "type": "address"
        }
      ],
      "stateMutability": "view",
      "type": "function",
      "constant": true
    },
    {
      "inputs": [
        {
          "internalType": "uint256",
          "name": "",
          "type": "uint256"
        }
      ],
      "name": "escrow",
      "outputs": [
        {
          "internalType": "uint256",
          "name": "",
          "type": "uint256"
        }
      ],
      "stateMutability": "view",
      "type": "function",
      "constant": true
    },
    {
      "inputs": [],
      "name": "jobCounter",
      "outputs": [
        {
          "internalType": "uint256",
          "name": "",
          "type": "uint256"
        }
      ],
      "stateMutability": "view",
      "type": "function",
      "constant": true
    },
    {
      "inputs": [
        {
          "internalType": "uint256",
          "name": "",
          "type": "uint256"
        }
      ],
      "name": "jobs",
      "outputs": [
        {
          "internalType": "uint256",
          "name": "id",
          "type": "uint256"
        },
        {
          "internalType": "address",
          "name": "client",
          "type": "address"
        },
        {
          "internalType": "string",
          "name": "title",
          "type": "string"
        },
        {
          "internalType": "string",
          "name": "category",
          "type": "string"
        },
        {
          "internalType": "uint256",
          "name": "budget",
          "type": "uint256"
        },
        {
          "internalType": "uint256",
          "name": "deadline",
          "type": "uint256"
        },
        {
          "internalType": "enum FreelanceMarketplace.JobStatus",
          "name": "status",
          "type": "uint8"
        },
        {
          "internalType": "address",
          "name": "hiredFreelancer",
          "type": "address"
        },
        {
          "internalType": "uint256",
          "name": "acceptedBidAmount",
          "type": "uint256"
        },
        {
          "internalType": "bool",
          "name": "freelancerMarkedDone",
          "type": "bool"
        },
        {
          "internalType": "bool",
          "name": "clientApproved",
          "type": "bool"
        },
        {
          "internalType": "bool",
          "name": "disputed",
          "type": "bool"
        }
      ],
      "stateMutability": "view",
      "type": "function",
      "constant": true
    },
    {
      "inputs": [],
      "name": "totalEscrowLocked",
      "outputs": [
        {
          "internalType": "uint256",
          "name": "",
          "type": "uint256"
        }
      ],
      "stateMutability": "view",
      "type": "function",
      "constant": true
    },
    {
      "inputs": [
        {
          "internalType": "address",
          "name": "",
          "type": "address"
        }
      ],
      "name": "users",
      "outputs": [
        {
          "internalType": "string",
          "name": "name",
          "type": "string"
        },
        {
          "internalType": "enum FreelanceMarketplace.Role",
          "name": "role",
          "type": "uint8"
        },
        {
          "internalType": "uint256",
          "name": "reputation",
          "type": "uint256"
        },
        {
          "internalType": "address payable",
          "name": "wallet",
          "type": "address"
        },
        {
          "internalType": "bool",
          "name": "registered",
          "type": "bool"
        }
      ],
      "stateMutability": "view",
      "type": "function",
      "constant": true
    },
    {
      "inputs": [
        {
          "internalType": "uint256",
          "name": "jobId",
          "type": "uint256"
        }
      ],
      "name": "getBidCount",
      "outputs": [
        {
          "internalType": "uint256",
          "name": "",
          "type": "uint256"
        }
      ],
      "stateMutability": "view",
      "type": "function",
      "constant": true
    },
    {
      "inputs": [
        {
          "internalType": "uint256",
          "name": "jobId",
          "type": "uint256"
        },
        {
          "internalType": "uint256",
          "name": "index",
          "type": "uint256"
        }
      ],
      "name": "getBid",
      "outputs": [
        {
          "components": [
            {
              "internalType": "address",
              "name": "freelancer",
              "type": "address"
            },
            {
              "internalType": "uint256",
              "name": "amount",
              "type": "uint256"
            },
            {
              "internalType": "uint256",
              "name": "proposedTime",
              "type": "uint256"
            },
            {
              "internalType": "bool",
              "name": "exists",
              "type": "bool"
            }
          ],
          "internalType": "struct FreelanceMarketplace.Bid",
          "name": "",
          "type": "tuple"
        }
      ],
      "stateMutability": "view",
      "type": "function",
      "constant": true
    },
    {
      "inputs": [],
      "name": "availableFees",
      "outputs": [
        {
          "internalType": "uint256",
          "name": "",
          "type": "uint256"
        }
      ],
      "stateMutability": "view",
      "type": "function",
      "constant": true
    },
    {
      "inputs": [
        {
          "internalType": "string",
          "name": "_name",
          "type": "string"
        },
        {
          "internalType": "enum FreelanceMarketplace.Role",
          "name": "_role",
          "type": "uint8"
        }
      ],
      "name": "registerUser",
      "outputs": [],
      "stateMutability": "nonpayable",
      "type": "function"
    },
    {
      "inputs": [
        {
          "internalType": "string",
          "name": "_title",
          "type": "string"
        },
        {
          "internalType": "string",
          "name": "_category",
          "type": "string"
        },
        {
          "internalType": "uint256",
          "name": "_budgetWei",
          "type": "uint256"
        },
        {
          "internalType": "uint256",
          "name": "_deadline",
          "type": "uint256"
        }
      ],
      "name": "postJob",
      "outputs": [],
      "stateMutability": "nonpayable",
      "type": "function"
    },
    {
      "inputs": [
        {
          "internalType": "uint256",
          "name": "_jobId",
          "type": "uint256"
        },
        {
          "internalType": "uint256",
          "name": "_amountWei",
          "type": "uint256"
        },
        {
          "internalType": "uint256",
          "name": "_proposedTime",
          "type": "uint256"
        }
      ],
      "name": "placeBid",
      "outputs": [],
      "stateMutability": "nonpayable",
      "type": "function"
    },
    {
      "inputs": [
        {
          "internalType": "uint256",
          "name": "_jobId",
          "type": "uint256"
        },
        {
          "internalType": "uint256",
          "name": "_bidIndex",
          "type": "uint256"
        }
      ],
      "name": "hireFreelancer",
      "outputs": [],
      "stateMutability": "payable",
      "type": "function",
      "payable": true
    },
    {
      "inputs": [
        {
          "internalType": "uint256",
          "name": "_jobId",
          "type": "uint256"
        }
      ],
      "name": "markCompleted",
      "outputs": [],
      "stateMutability": "nonpayable",
      "type": "function"
    },
    {
      "inputs": [
        {
          "internalType": "uint256",
          "name": "_jobId",
          "type": "uint256"
        }
      ],
      "name": "approveWork",
      "outputs": [],
      "stateMutability": "nonpayable",
      "type": "function"
    },
    {
      "inputs": [
        {
          "internalType": "address payable",
          "name": "to",
          "type": "address"
        },
        {
          "internalType": "uint256",
          "name": "amountWei",
          "type": "uint256"
        }
      ],
      "name": "withdrawFees",
      "outputs": [],
      "stateMutability": "nonpayable",
      "type": "function"
    },
    {
      "inputs": [
        {
          "internalType": "uint256",
          "name": "_jobId",
          "type": "uint256"
        }
      ],
      "name": "raiseDispute",
      "outputs": [],
      "stateMutability": "nonpayable",
      "type": "function"
    },
    {
      "inputs": [
        {
          "internalType": "uint256",
          "name": "_jobId",
          "type": "uint256"
        },
        {
          "internalType": "bool",
          "name": "_payFreelancer",
          "type": "bool"
        }
      ],
      "name": "resolveDispute",
      "outputs": [],
      "stateMutability": "nonpayable",
      "type": "function"
    }
  ],
  "bytecode": "0x60a06040526001600655348015601457600080fd5b50336080526080516128d5610049600039600081816103ae0152818161061b0152818161082d0152611a4401526128d56000f3fe6080604052600436106101095760003560e01c806371bf6bed11610095578063ad3b1b4711610064578063ad3b1b471461031c578063cac5c5121461033c578063d68ff1911461035c578063f73b60a914610389578063fe25e00a1461039c57600080fd5b806371bf6bed1461027e578063744d34111461029e578063a5c1674e146102cb578063a87430ba146102eb57600080fd5b80633d01e0fa116100dc5780633d01e0fa146101b457806350355d76146101d4578063582c7ffd146101ea5780635e62be25146102485780636e331b681461026857600080fd5b8063180aedf31461010e578063289a74c91461014f578063338e12eb1461017257806334b25ee214610194575b600080fd5b34801561011a57600080fd5b5061012e6101293660046121f1565b6103e8565b6040516101469c9b9a99989796959493929190612266565b60405180910390f35b34801561015b57600080fd5b50610164610573565b604051908152602001610146565b34801561017e57600080fd5b5061019261018d3660046123b9565b610588565b005b3480156101a057600080fd5b506101926101af36600461240f565b610822565b3480156101c057600080fd5b506101926101cf3660046121f1565b610cd2565b3480156101e057600080fd5b5061016460005481565b3480156101f657600080fd5b5061020a610205366004612439565b6110d0565b604051610146919081516001600160a01b03168152602080830151908201526040808301519082015260609182015115159181019190915260800190565b34801561025457600080fd5b5061019261026336600461245b565b6111b5565b34801561027457600080fd5b5061016460055481565b34801561028a57600080fd5b50610192610299366004612487565b611483565b3480156102aa57600080fd5b506101646102b93660046121f1565b60009081526003602052604090205490565b3480156102d757600080fd5b506101926102e63660046121f1565b611774565b3480156102f757600080fd5b5061030b610306366004612518565b611970565b604051610146959493929190612550565b34801561032857600080fd5b50610192610337366004612599565b611a39565b34801561034857600080fd5b506101926103573660046121f1565b611c94565b34801561036857600080fd5b506101646103773660046121f1565b60046020526000908152604090205481565b610192610397366004612439565b611e5f565b3480156103a857600080fd5b506103d07f000000000000000000000000000000000000000000000000000000000000000081565b6040516001600160a01b039091168152602001610146565b600260208190526000918252604090912080546001820154928201805491936001600160a01b0316929161041b906125c5565b80601f0160208091040260200160405190810160405280929190818152602001828054610447906125c5565b80156104945780601f1061046957610100808354040283529160200191610494565b820191906000526020600020905b81548152906001019060200180831161047757829003601f168201915b5050505050908060030180546104a9906125c5565b80601f01602080910402602001604051908101604052809291908181526020018280546104d5906125c5565b80156105225780601f106104f757610100808354040283529160200191610522565b820191906000526020600020905b81548152906001019060200180831161050557829003601f168201915b50505060048401546005850154600686015460078701546008909701549596929591945060ff80821694506001600160a01b036101009283900416939280821692810482169162010000909104168c565b6000600554476105839190612615565b905090565b33600090815260016020526040902060030154600160a01b900460ff16156105f75760405162461bcd60e51b815260206004820152601760248201527f5573657220616c7265616479207265676973746572656400000000000000000060448201526064015b60405180910390fd5b600081600281111561060b5761060b612250565b0361068d57336001600160a01b037f000000000000000000000000000000000000000000000000000000000000000016146106885760405162461bcd60e51b815260206004820152601c60248201527f4f6e6c79206465706c6f7965722063616e20626520417262697465720000000060448201526064016105ee565b6106f9565b60018160028111156106a1576106a1612250565b14806106be575060028160028111156106bc576106bc612250565b145b6106f95760405162461bcd60e51b815260206004820152600c60248201526b496e76616c696420726f6c6560a01b60448201526064016105ee565b6000600282600281111561070f5761070f612250565b03610718575060645b6040518060a0016040528084815260200183600281111561073b5761073b612250565b815260208082018490523360408084018290526001606090940184905260009182529290915220815181906107709082612677565b50602082015160018083018054909160ff199091169083600281111561079857610798612250565b021790555060408281015160028301556060830151600390920180546080909401511515600160a01b026001600160a81b03199094166001600160a01b03909316929092179290921790555133907fc2e5d5da58bd71d1a2d14cdef02a4256d971b728088f8190d067ccfbae3bd73e906108159086908690612736565b60405180910390a2505050565b336001600160a01b037f000000000000000000000000000000000000000000000000000000000000000016146108895760405162461bcd60e51b815260206004820152600c60248201526b27b7363c9030b93134ba32b960a11b60448201526064016105ee565b33600090815260016020526040902060030154600160a01b900460ff1680156108d657503360009081526001602081905260408220015460ff1660028111156108d4576108d4612250565b145b61091b5760405162461bcd60e51b8152602060048201526016602482015275105c989a5d195c881b9bdd081c9959da5cdd195c995960521b60448201526064016105ee565b60065460011461093d5760405162461bcd60e51b81526004016105ee90612758565b6002600681905560008381526020919091526040812080549091036109745760405162461bcd60e51b81526004016105ee9061277c565b6004600682015460ff16600581111561098f5761098f612250565b146109cf5760405162461bcd60e51b815260206004820152601060248201526f129bd8881b9bdd08191a5cdc1d5d195960821b60448201526064016105ee565b60078101546000848152600460205260409020548114610a245760405162461bcd60e51b815260206004820152601060248201526f115cd8dc9bddc81b9bdd08199bdd5b9960821b60448201526064016105ee565b6001828101546006840180546001600160a01b03610100820481166000818152602087905260408120600301549583169691959092169391926005929160ff1990911690830217905550600088815260046020526040812081905560058054879290610a91908490612615565b90915550508615610b9b57610aa5856121ac565b90506000610ab38287612615565b90506000836001600160a01b03168260405160006040518083038185875af1925050503d8060008114610b02576040519150601f19603f3d011682016040523d82523d6000602084013e610b07565b606091505b5050905080610b585760405162461bcd60e51b815260206004820152601c60248201527f5061796d656e7420746f20667265656c616e636572206661696c65640000000060448201526064016105ee565b6040805160018152602081018590528b917f5add0b1fc2a3dfd95be33d1d5feb6709087e50213b7a73c3c3b2c387001221e7910160405180910390a25050610cc3565b6000846001600160a01b03168660405160006040518083038185875af1925050503d8060008114610be8576040519150601f19603f3d011682016040523d82523d6000602084013e610bed565b606091505b5050905080610c2e5760405162461bcd60e51b815260206004820152600d60248201526c1499599d5b990819985a5b1959609a1b60448201526064016105ee565b6001600160a01b0384166000908152600160205260409020600201546014811015610c5a576000610c65565b610c65601482612615565b6001600160a01b0386166000908152600160209081526040808320600201939093558251828152908101919091528b917f5add0b1fc2a3dfd95be33d1d5feb6709087e50213b7a73c3c3b2c387001221e7910160405180910390a250505b50506001600655505050505050565b33600090815260016020526040902060030154600160a01b900460ff16610d0b5760405162461bcd60e51b81526004016105ee906127a8565b6001336000908152600160208190526040909120015460ff166002811115610d3557610d35612250565b14610d525760405162461bcd60e51b81526004016105ee906127d0565b600654600114610d745760405162461bcd60e51b81526004016105ee90612758565b600260068190556000828152602091909152604081208054909103610dab5760405162461bcd60e51b81526004016105ee9061277c565b60018101546001600160a01b03163314610dd75760405162461bcd60e51b81526004016105ee906127f5565b6002600682015460ff166005811115610df257610df2612250565b14610e335760405162461bcd60e51b8152602060048201526011602482015270129bd8881b9bdd0818dbdb5c1b195d1959607a1b60448201526064016105ee565b600881015462010000900460ff1615610e7d5760405162461bcd60e51b815260206004820152600c60248201526b129bd888191a5cdc1d5d195960a21b60448201526064016105ee565b600881015460ff16610ed15760405162461bcd60e51b815260206004820152601a60248201527f467265656c616e636572206e6f74206d61726b656420646f6e6500000000000060448201526064016105ee565b60078101546000838152600460205260409020548114610f265760405162461bcd60e51b815260206004820152601060248201526f115cd8dc9bddc81b9bdd08199bdd5b9960821b60448201526064016105ee565b6000610f31826121ac565b90506000610f3f8284612615565b60088501805461010061ff001990911617905560068501805460ff191660031790556000868152600460205260408120819055600580549293508592909190610f89908490612615565b9091555050600684015461010090046001600160a01b03908116600090815260016020526040808220600301549051921691829084908381818185875af1925050503d8060008114610ff7576040519150601f19603f3d011682016040523d82523d6000602084013e610ffc565b606091505b505090508061104d5760405162461bcd60e51b815260206004820152601c60248201527f5061796d656e7420746f20667265656c616e636572206661696c65640000000060448201526064016105ee565b600686015461010090046001600160a01b031660009081526001602052604081206002018054600a929061108290849061281b565b9091555050604080518481526020810186905288917f4ecfa7abb1768ddb7f787b2da365d7269fc2d6b38c3bfcf05525b41bd5a35cb9910160405180910390a2505060016006555050505050565b604080516080810182526000808252602082018190529181018290526060810191909152600083815260036020526040902054821061113d5760405162461bcd60e51b8152602060048201526009602482015268084c2c840d2dcc8caf60bb1b60448201526064016105ee565b600083815260036020526040902080548390811061115d5761115d61282e565b600091825260209182902060408051608081018252600490930290910180546001600160a01b0316835260018101549383019390935260028301549082015260039091015460ff161515606082015290505b92915050565b33600090815260016020526040902060030154600160a01b900460ff166111ee5760405162461bcd60e51b81526004016105ee906127a8565b6002336000908152600160208190526040909120015460ff16600281111561121857611218612250565b146112575760405162461bcd60e51b815260206004820152600f60248201526e27b7363c90333932b2b630b731b2b960891b60448201526064016105ee565b600083815260026020526040812080549091036112865760405162461bcd60e51b81526004016105ee9061277c565b6000600682015460ff1660058111156112a1576112a1612250565b146112dd5760405162461bcd60e51b815260206004820152600c60248201526b2537b1103737ba1037b832b760a11b60448201526064016105ee565b6000831161131f5760405162461bcd60e51b815260206004820152600f60248201526e0426964206d757374206265203e203608c1b60448201526064016105ee565b80600401548311156113685760405162461bcd60e51b8152602060048201526012602482015271109a5908195e18d959591cc8189d5919d95d60721b60448201526064016105ee565b33600090815260016020526040902060020154603211156113c05760405162461bcd60e51b815260206004820152601260248201527152657075746174696f6e20746f6f206c6f7760701b60448201526064016105ee565b60008481526003602081815260408084208151608081018352338082528185018a81528285018a815260016060850181815286548083018855968b52998890209451600490960290940180546001600160a01b0319166001600160a01b039096169590951785559051928401929092559051600283015594519301805460ff191693151593909317909255905185815286917f0e54eff26401bf69b81b26f60bd85ef47f5d85275c1d268d84f68d6897431c47910160405180910390a350505050565b33600090815260016020526040902060030154600160a01b900460ff166114bc5760405162461bcd60e51b81526004016105ee906127a8565b6001336000908152600160208190526040909120015460ff1660028111156114e6576114e6612250565b146115035760405162461bcd60e51b81526004016105ee906127d0565b600082116115485760405162461bcd60e51b81526020600482015260126024820152710427564676574206d757374206265203e20360741b60448201526064016105ee565b4281116115975760405162461bcd60e51b815260206004820152601760248201527f446561646c696e65206d7573742062652066757475726500000000000000000060448201526064016105ee565b60016000808282546115a9919061281b565b9091555050600080546040805161018081018252828152336020820152908101879052606081018690526080810185905260a08101849052909160c08201908152600060208083018290526040808401839052606084018390526080840183905260a090930182905284825260028082529183902084518155908401516001820180546001600160a01b0319166001600160a01b0390921691909117905591830151908201906116599082612677565b506060820151600382019061166e9082612677565b506080820151816004015560a0820151816005015560c08201518160060160006101000a81548160ff021916908360058111156116ad576116ad612250565b021790555060e0820151600682018054610100600160a81b0319166101006001600160a01b039093168302179055808301516007830155610120830151600890920180546101408501516101609095015161ffff1990911693151561ff001916939093179315159091029290921762ff000019166201000091151591909102179055604051339082907fd347156c0e050f531434f3eac5fc2137040ab077ca656f465275ebe566aaf115906117659089908890612844565b60405180910390a35050505050565b33600090815260016020526040902060030154600160a01b900460ff166117ad5760405162461bcd60e51b81526004016105ee906127a8565b6001336000908152600160208190526040909120015460ff1660028111156117d7576117d7612250565b146117f45760405162461bcd60e51b81526004016105ee906127d0565b600081815260026020526040812080549091036118235760405162461bcd60e51b81526004016105ee9061277c565b60018101546001600160a01b0316331461184f5760405162461bcd60e51b81526004016105ee906127f5565b6001600682015460ff16600581111561186a5761186a612250565b148061188e57506002600682015460ff16600581111561188c5761188c612250565b145b6118cf5760405162461bcd60e51b815260206004820152601260248201527143616e6e6f742064697370757465206e6f7760701b60448201526064016105ee565b600881015462010000900460ff161561191d5760405162461bcd60e51b815260206004820152601060248201526f105b1c9958591e48191a5cdc1d5d195960821b60448201526064016105ee565b6008810180546201000062ff00001990911617905560068101805460ff1916600417905560405182907f04901f83201c8724eadf084436db8aa391820bae6d11f9f78a17edb6f2eef3cf90600090a25050565b60016020526000908152604090208054819061198b906125c5565b80601f01602080910402602001604051908101604052809291908181526020018280546119b7906125c5565b8015611a045780601f106119d957610100808354040283529160200191611a04565b820191906000526020600020905b8154815290600101906020018083116119e757829003601f168201915b50505060018401546002850154600390950154939460ff918216949093506001600160a01b0381169250600160a01b90041685565b336001600160a01b037f00000000000000000000000000000000000000000000000000000000000000001614611aa05760405162461bcd60e51b815260206004820152600c60248201526b27b7363c9030b93134ba32b960a11b60448201526064016105ee565b33600090815260016020526040902060030154600160a01b900460ff168015611aed57503360009081526001602081905260408220015460ff166002811115611aeb57611aeb612250565b145b611b325760405162461bcd60e51b8152602060048201526016602482015275105c989a5d195c881b9bdd081c9959da5cdd195c995960521b60448201526064016105ee565b600654600114611b545760405162461bcd60e51b81526004016105ee90612758565b6002600655600554600090611b699047612615565b905080821115611bb15760405162461bcd60e51b8152602060048201526013602482015272416d6f756e742065786365656473206665657360681b60448201526064016105ee565b6000836001600160a01b03168360405160006040518083038185875af1925050503d8060008114611bfe576040519150601f19603f3d011682016040523d82523d6000602084013e611c03565b606091505b5050905080611c465760405162461bcd60e51b815260206004820152600f60248201526e15da5d1a191c985dc819985a5b1959608a1b60448201526064016105ee565b836001600160a01b03167fc0819c13be868895eb93e40eaceb96de976442fa1d404e5c55f14bb65a8c489a84604051611c8191815260200190565b60405180910390a2505060016006555050565b33600090815260016020526040902060030154600160a01b900460ff16611ccd5760405162461bcd60e51b81526004016105ee906127a8565b6002336000908152600160208190526040909120015460ff166002811115611cf757611cf7612250565b14611d365760405162461bcd60e51b815260206004820152600f60248201526e27b7363c90333932b2b630b731b2b960891b60448201526064016105ee565b60008181526002602052604081208054909103611d655760405162461bcd60e51b81526004016105ee9061277c565b6001600682015460ff166005811115611d8057611d80612250565b14611dc35760405162461bcd60e51b81526020600482015260136024820152724a6f62206e6f7420696e2070726f677265737360681b60448201526064016105ee565b600681015461010090046001600160a01b03163314611e105760405162461bcd60e51b8152602060048201526009602482015268139bdd081a1a5c995960ba1b60448201526064016105ee565b60088101805460ff19908116600117909155600682018054909116600217905560405182907f0466a00f04756a82a8ee2bda04f121772f1d4a5720bbf92edaa7846b48c889d490600090a25050565b33600090815260016020526040902060030154600160a01b900460ff16611e985760405162461bcd60e51b81526004016105ee906127a8565b6001336000908152600160208190526040909120015460ff166002811115611ec257611ec2612250565b14611edf5760405162461bcd60e51b81526004016105ee906127d0565b600654600114611f015760405162461bcd60e51b81526004016105ee90612758565b600260068190556000838152602091909152604081208054909103611f385760405162461bcd60e51b81526004016105ee9061277c565b60018101546001600160a01b03163314611f645760405162461bcd60e51b81526004016105ee906127f5565b6000600682015460ff166005811115611f7f57611f7f612250565b14611fbb5760405162461bcd60e51b815260206004820152600c60248201526b2537b1103737ba1037b832b760a11b60448201526064016105ee565b600083815260036020526040902054821061200c5760405162461bcd60e51b8152602060048201526011602482015270092dcecc2d8d2c840c4d2c840d2dcc8caf607b1b60448201526064016105ee565b600083815260036020526040812080548490811061202c5761202c61282e565b600091825260209182902060408051608081018252600490930290910180546001600160a01b0316835260018101549383019390935260028301549082015260039091015460ff161515606082018190529091506120bc5760405162461bcd60e51b815260206004820152600d60248201526c109a59081b9bdd08199bdd5b99609a1b60448201526064016105ee565b806020015134146121065760405162461bcd60e51b8152602060048201526014602482015273115d1a195c881b5d5cdd081b585d18da08189a5960621b60448201526064016105ee565b60008481526004602052604081203490819055600580549192909161212c90849061281b565b90915550508051600683018054602080850151600787018190556001600160a81b031990921660ff196101006001600160a01b03909616958602161760011790925560405190815286917f56df0a8471265defbc5fc12acd0d3697af77b77a7c9ba0137e81a1ce6d44bf52910160405180910390a3505060016006555050565b600060646121b9836121cd565b6121c39084612866565b6111af919061287d565b6000670de0b6b3a764000082106121e55760016121e8565b60025b60ff1692915050565b60006020828403121561220357600080fd5b5035919050565b6000815180845260005b8181101561223057602081850181015186830182015201612214565b506000602082860101526020601f19601f83011685010191505092915050565b634e487b7160e01b600052602160045260246000fd5b8c81526001600160a01b038c166020820152610180604082018190526000906122919083018d61220a565b82810360608401526122a3818d61220a565b9150508960808301528860a0830152600688106122c2576122c2612250565b8760c08301526122dd60e08301886001600160a01b03169052565b856101008301526122f361012083018615159052565b921515610140820152901515610160909101529a9950505050505050505050565b634e487b7160e01b600052604160045260246000fd5b600082601f83011261233b57600080fd5b813567ffffffffffffffff81111561235557612355612314565b604051601f8201601f19908116603f0116810167ffffffffffffffff8111828210171561238457612384612314565b60405281815283820160200185101561239c57600080fd5b816020850160208301376000918101602001919091529392505050565b600080604083850312156123cc57600080fd5b823567ffffffffffffffff8111156123e357600080fd5b6123ef8582860161232a565b92505060208301356003811061240457600080fd5b809150509250929050565b6000806040838503121561242257600080fd5b823591506020830135801515811461240457600080fd5b6000806040838503121561244c57600080fd5b50508035926020909101359150565b60008060006060848603121561247057600080fd5b505081359360208301359350604090920135919050565b6000806000806080858703121561249d57600080fd5b843567ffffffffffffffff8111156124b457600080fd5b6124c08782880161232a565b945050602085013567ffffffffffffffff8111156124dd57600080fd5b6124e98782880161232a565b949794965050505060408301359260600135919050565b6001600160a01b038116811461251557600080fd5b50565b60006020828403121561252a57600080fd5b813561253581612500565b9392505050565b6003811061254c5761254c612250565b9052565b60a08152600061256360a083018861220a565b9050612572602083018761253c565b60408201949094526001600160a01b03929092166060830152151560809091015292915050565b600080604083850312156125ac57600080fd5b82356125b781612500565b946020939093013593505050565b600181811c908216806125d957607f821691505b6020821081036125f957634e487b7160e01b600052602260045260246000fd5b50919050565b634e487b7160e01b600052601160045260246000fd5b818103818111156111af576111af6125ff565b601f82111561267257806000526020600020601f840160051c8101602085101561264f5750805b601f840160051c820191505b8181101561266f576000815560010161265b565b50505b505050565b815167ffffffffffffffff81111561269157612691612314565b6126a58161269f84546125c5565b84612628565b6020601f8211600181146126d957600083156126c15750848201515b600019600385901b1c1916600184901b17845561266f565b600084815260208120601f198516915b8281101561270957878501518255602094850194600190920191016126e9565b50848210156127275786840151600019600387901b60f8161c191681555b50505050600190811b01905550565b604081526000612749604083018561220a565b9050612535602083018461253c565b6020808252600a90820152695265656e7472616e637960b01b604082015260600190565b602080825260129082015271129bd888191bd95cc81b9bdd08195e1a5cdd60721b604082015260600190565b6020808252600e908201526d139bdd081c9959da5cdd195c995960921b604082015260600190565b6020808252600b908201526a13db9b1e4818db1a595b9d60aa1b604082015260600190565b6020808252600c908201526b2737ba103cb7bab9103537b160a11b604082015260600190565b808201808211156111af576111af6125ff565b634e487b7160e01b600052603260045260246000fd5b604081526000612857604083018561220a565b90508260208301529392505050565b80820281158282048414176111af576111af6125ff565b60008261289a57634e487b7160e01b600052601260045260246000fd5b50049056fea2646970667358221220f6db8ba5a32869804f5c8b5f14b657741f4231d0b2b35dae15e43fa72813a9a564736f6c634300081c0033",
  "immutableReferences": {
    "61": [
      {
        "length": 32,
        "start": 942
      },
      {
        "length": 32,
        "start": 1563
      },
      {
        "length": 32,
        "start": 2093
      },
      {
        "length": 32,
        "start": 6724
      }
    ]
  },
  "source": "// SPDX-License-Identifier: MIT\npragma solidity ^0.8.28;\n\ncontract FreelanceMarketplace {\n    enum Role { Arbiter, Client, Freelancer }\n    enum JobStatus { Open, InProgress, Completed, Closed, Disputed, Resolved }\n\n    struct User {\n        string name;\n        Role role;\n        uint256 reputation;\n        address payable wallet;\n        bool registered;\n    }\n\n    struct Job {\n        uint256 id;\n        address client;\n        string title;\n        string category;\n        uint256 budget;\n        uint256 deadline;\n        JobStatus status;\n        address hiredFreelancer;\n        uint256 acceptedBidAmount;\n        bool freelancerMarkedDone;\n        bool clientApproved;\n        bool disputed;\n    }\n\n    struct Bid {\n        address freelancer;\n        uint256 amount;\n        uint256 proposedTime;\n        bool exists;\n    }\n\n    address public immutable arbiter;\n    uint256 public jobCounter;\n\n    mapping(address => User) public users;\n    mapping(uint256 => Job) public jobs;\n    mapping(uint256 => Bid[]) private jobBids; // made private; use getters below\n    mapping(uint256 => uint256) public escrow;\n\n    uint256 public totalEscrowLocked;\n\n    uint256 private _locked = 1;\n    modifier nonReentrant() {\n        require(_locked == 1, \"Reentrancy\");\n        _locked = 2;\n        _;\n        _locked = 1;\n    }\n\n    event UserRegistered(address indexed user, string name, Role role);\n    event JobPosted(uint256 indexed jobId, address indexed client, string title, uint256 budgetWei);\n    event BidPlaced(uint256 indexed jobId, address indexed freelancer, uint256 amountWei);\n    event FreelancerHired(uint256 indexed jobId, address indexed freelancer, uint256 amountWei);\n    event WorkMarkedCompleted(uint256 indexed jobId);\n    event WorkApproved(uint256 indexed jobId, uint256 paidToFreelancerWei, uint256 feeWei);\n    event DisputeRaised(uint256 indexed jobId);\n    event DisputeResolved(uint256 indexed jobId, bool freelancerPaid, uint256 feeWei);\n    event FeesWithdrawn(address indexed to, uint256 amountWei);\n\n    constructor() {\n        arbiter = msg.sender;\n    }\n\n    modifier onlyClient() {\n        require(users[msg.sender].registered, \"Not registered\");\n        require(users[msg.sender].role == Role.Client, \"Only client\");\n        _;\n    }\n\n    modifier onlyFreelancer() {\n        require(users[msg.sender].registered, \"Not registered\");\n        require(users[msg.sender].role == Role.Freelancer, \"Only freelancer\");\n        _;\n    }\n\n    modifier onlyArbiter() {\n        require(msg.sender == arbiter, \"Only arbiter\");\n        require(users[msg.sender].registered && users[msg.sender].role == Role.Arbiter, \"Arbiter not registered\");\n        _;\n    }\n\n    // -----------------------\n    // Fee helpers\n    // -----------------------\n    function _feePercent(uint256 amountWei) internal pure returns (uint256) {\n        return (amountWei < 1 ether) ? 2 : 1;\n    }\n\n    function _calculateFee(uint256 amountWei) internal pure returns (uint256) {\n        return (amountWei * _feePercent(amountWei)) / 100;\n    }\n\n    // -----------------------\n    // UI-friendly getters (NEW)\n    // -----------------------\n    function getBidCount(uint256 jobId) external view returns (uint256) {\n        return jobBids[jobId].length;\n    }\n\n    function getBid(uint256 jobId, uint256 index) external view returns (Bid memory) {\n        require(index < jobBids[jobId].length, \"Bad index\");\n        return jobBids[jobId][index];\n    }\n\n    // Fees available to withdraw (contract balance minus locked escrow)\n    function availableFees() external view returns (uint256) {\n        return address(this).balance - totalEscrowLocked;\n    }\n\n    // -----------------------\n    // Core functions\n    // -----------------------\n    function registerUser(string memory _name, Role _role) external {\n        require(!users[msg.sender].registered, \"User already registered\");\n\n        if (_role == Role.Arbiter) {\n            require(msg.sender == arbiter, \"Only deployer can be Arbiter\");\n        } else {\n            require(_role == Role.Client || _role == Role.Freelancer, \"Invalid role\");\n        }\n\n        uint256 rep = 0;\n        if (_role == Role.Freelancer) rep = 100;\n\n        users[msg.sender] = User(_name, _role, rep, payable(msg.sender), true);\n        emit UserRegistered(msg.sender, _name, _role);\n    }\n\n    function postJob(\n        string memory _title,\n        string memory _category,\n        uint256 _budgetWei,\n        uint256 _deadline\n    ) external onlyClient {\n        require(_budgetWei > 0, \"Budget must be > 0\");\n        require(_deadline > block.timestamp, \"Deadline must be future\");\n\n        jobCounter += 1;\n        uint256 jobId = jobCounter;\n\n        jobs[jobId] = Job({\n            id: jobId,\n            client: msg.sender,\n            title: _title,\n            category: _category,\n            budget: _budgetWei,\n            deadline: _deadline,\n            status: JobStatus.Open,\n            hiredFreelancer: address(0),\n            acceptedBidAmount: 0,\n            freelancerMarkedDone: false,\n            clientApproved: false,\n            disputed: false\n        });\n\n        emit JobPosted(jobId, msg.sender, _title, _budgetWei);\n    }\n\n    function placeBid(uint256 _jobId, uint256 _amountWei, uint256 _proposedTime) external onlyFreelancer {\n        Job storage j = jobs[_jobId];\n        require(j.id != 0, \"Job does not exist\");\n        require(j.status == JobStatus.Open, \"Job not open\");\n        require(_amountWei > 0, \"Bid must be > 0\");\n        require(_amountWei <= j.budget, \"Bid exceeds budget\");\n        require(users[msg.sender].reputation >= 50, \"Reputation too low\");\n\n        jobBids[_jobId].push(Bid({\n            freelancer: msg.sender,\n            amount: _amountWei,\n            proposedTime: _proposedTime,\n            exists: true\n        }));\n\n        emit BidPlaced(_jobId, msg.sender, _amountWei);\n    }\n\n    function hireFreelancer(uint256 _jobId, uint256 _bidIndex) external payable onlyClient nonReentrant {\n        Job storage j = jobs[_jobId];\n        require(j.id != 0, \"Job does not exist\");\n        require(j.client == msg.sender, \"Not your job\");\n        require(j.status == JobStatus.Open, \"Job not open\");\n        require(_bidIndex < jobBids[_jobId].length, \"Invalid bid index\");\n\n        Bid memory chosen = jobBids[_jobId][_bidIndex];\n        require(chosen.exists, \"Bid not found\");\n        require(msg.value == chosen.amount, \"Ether must match bid\");\n\n        escrow[_jobId] = msg.value;\n        totalEscrowLocked += msg.value;\n\n        j.hiredFreelancer = chosen.freelancer;\n        j.acceptedBidAmount = chosen.amount;\n        j.status = JobStatus.InProgress;\n\n        emit FreelancerHired(_jobId, chosen.freelancer, chosen.amount);\n    }\n\n    function markCompleted(uint256 _jobId) external onlyFreelancer {\n        Job storage j = jobs[_jobId];\n        require(j.id != 0, \"Job does not exist\");\n        require(j.status == JobStatus.InProgress, \"Job not in progress\");\n        require(j.hiredFreelancer == msg.sender, \"Not hired\");\n\n        j.freelancerMarkedDone = true;\n        j.status = JobStatus.Completed;\n\n        emit WorkMarkedCompleted(_jobId);\n    }\n\n    function approveWork(uint256 _jobId) external onlyClient nonReentrant {\n        Job storage j = jobs[_jobId];\n        require(j.id != 0, \"Job does not exist\");\n        require(j.client == msg.sender, \"Not your job\");\n        require(j.status == JobStatus.Completed, \"Job not completed\");\n        require(!j.disputed, \"Job disputed\");\n        require(j.freelancerMarkedDone, \"Freelancer not marked done\");\n\n        uint256 amount = j.acceptedBidAmount;\n        require(escrow[_jobId] == amount, \"Escrow not found\");\n\n        uint256 fee = _calculateFee(amount);\n        uint256 payToFreelancer = amount - fee;\n\n        j.clientApproved = true;\n        j.status = JobStatus.Closed;\n\n        escrow[_jobId] = 0;\n        totalEscrowLocked -= amount;\n\n        address payable freelancerWallet = users[j.hiredFreelancer].wallet;\n        (bool sent, ) = freelancerWallet.call{value: payToFreelancer}(\"\");\n        require(sent, \"Payment to freelancer failed\");\n\n        users[j.hiredFreelancer].reputation += 10;\n\n        emit WorkApproved(_jobId, payToFreelancer, fee);\n    }\n\n    function withdrawFees(address payable to, uint256 amountWei) external onlyArbiter nonReentrant {\n        uint256 fees = address(this).balance - totalEscrowLocked;\n        require(amountWei <= fees, \"Amount exceeds fees\");\n\n        (bool ok, ) = to.call{value: amountWei}(\"\");\n        require(ok, \"Withdraw failed\");\n\n        emit FeesWithdrawn(to, amountWei);\n    }\n\n    function raiseDispute(uint256 _jobId) external onlyClient {\n        Job storage j = jobs[_jobId];\n        require(j.id != 0, \"Job does not exist\");\n        require(j.client == msg.sender, \"Not your job\");\n        require(j.status == JobStatus.InProgress || j.status == JobStatus.Completed, \"Cannot dispute now\");\n        require(!j.disputed, \"Already disputed\");\n\n        j.disputed = true;\n        j.status = JobStatus.Disputed;\n\n        emit DisputeRaised(_jobId);\n    }\n\n    function resolveDispute(uint256 _jobId, bool _payFreelancer) external onlyArbiter nonReentrant {\n        Job storage j = jobs[_jobId];\n        require(j.id != 0, \"Job does not exist\");\n        require(j.status == JobStatus.Disputed, \"Job not disputed\");\n\n        uint256 amount = j.acceptedBidAmount;\n        require(escrow[_jobId] == amount, \"Escrow not found\");\n\n        address payable clientWallet = payable(j.client);\n        address hired = j.hiredFreelancer;\n        address payable freelancerWallet = users[hired].wallet;\n\n        uint256 fee = 0;\n\n        j.status = JobStatus.Resolved;\n        escrow[_jobId] = 0;\n        totalEscrowLocked -= amount;\n\n        if (_payFreelancer) {\n            fee = _calculateFee(amount);\n            uint256 payToFreelancer = amount - fee;\n\n            (bool sent, ) = freelancerWallet.call{value: payToFreelancer}(\"\");\n            require(sent, \"Payment to freelancer failed\");\n\n            emit DisputeResolved(_jobId, true, fee);\n        } else {\n            (bool refunded, ) = clientWallet.call{value: amount}(\"\");\n            require(refunded, \"Refund failed\");\n\n            uint256 rep = users[hired].reputation;\n            users[hired].reputation = (rep >= 20) ? (rep - 20) : 0;\n\n            emit DisputeResolved(_jobId, false, 0);\n        }\n    }\n}\n\n\n",
  "sourcePath": "/home/wasef/freelance-marketplace/contracts/FreelanceMarketplace.sol",
  "compiler": {
    "name": "solc",
    "version": "0.8.28+commit.7893614a.Emscripten.clang"
  },
  "schemaVersion": "3.4.16",
  "updatedAt": "2025-12-29T12:01:53.471Z",
  "networkType": "ethereum",
  "devdoc": {
    "kind": "dev",
    "methods": {},
    "version": 1
  },
  "userdoc": {
    "kind": "user",
    "methods": {},
    "version": 1
  }
}