{
	"FreelanceMarketplace.sol": {
		"FreelanceMarketplace": {
			"abi": [
				{
					"inputs": [],
					"stateMutability": "nonpayable",
					"type": "constructor"
				},
				{
					"anonymous": false,
					"inputs": [
						{
							"indexed": true,
							"internalType": "uint256",
							"name": "jobId",
							"type": "uint256"
						},
						{
							"indexed": true,
							"internalType": "address",
							"name": "freelancer",
							"type": "address"
						},
						{
							"indexed": false,
							"internalType": "uint256",
							"name": "amountWei",
							"type": "uint256"
						}
					],
					"name": "BidPlaced",
					"type": "event"
				},
				{
					"anonymous": false,
					"inputs": [
						{
							"indexed": true,
							"internalType": "uint256",
							"name": "jobId",
							"type": "uint256"
						}
					],
					"name": "DisputeRaised",
					"type": "event"
				},
				{
					"anonymous": false,
					"inputs": [
						{
							"indexed": true,
							"internalType": "uint256",
							"name": "jobId",
							"type": "uint256"
						},
						{
							"indexed": false,
							"internalType": "bool",
							"name": "freelancerPaid",
							"type": "bool"
						},
						{
							"indexed": false,
							"internalType": "uint256",
							"name": "feeWei",
							"type": "uint256"
						}
					],
					"name": "DisputeResolved",
					"type": "event"
				},
				{
					"anonymous": false,
					"inputs": [
						{
							"indexed": true,
							"internalType": "address",
							"name": "to",
							"type": "address"
						},
						{
							"indexed": false,
							"internalType": "uint256",
							"name": "amountWei",
							"type": "uint256"
						}
					],
					"name": "FeesWithdrawn",
					"type": "event"
				},
				{
					"anonymous": false,
					"inputs": [
						{
							"indexed": true,
							"internalType": "uint256",
							"name": "jobId",
							"type": "uint256"
						},
						{
							"indexed": true,
							"internalType": "address",
							"name": "freelancer",
							"type": "address"
						},
						{
							"indexed": false,
							"internalType": "uint256",
							"name": "amountWei",
							"type": "uint256"
						}
					],
					"name": "FreelancerHired",
					"type": "event"
				},
				{
					"anonymous": false,
					"inputs": [
						{
							"indexed": true,
							"internalType": "uint256",
							"name": "jobId",
							"type": "uint256"
						},
						{
							"indexed": true,
							"internalType": "address",
							"name": "client",
							"type": "address"
						},
						{
							"indexed": false,
							"internalType": "string",
							"name": "title",
							"type": "string"
						},
						{
							"indexed": false,
							"internalType": "uint256",
							"name": "budgetWei",
							"type": "uint256"
						}
					],
					"name": "JobPosted",
					"type": "event"
				},
				{
					"anonymous": false,
					"inputs": [
						{
							"indexed": true,
							"internalType": "address",
							"name": "user",
							"type": "address"
						},
						{
							"indexed": false,
							"internalType": "string",
							"name": "name",
							"type": "string"
						},
						{
							"indexed": false,
							"internalType": "enum FreelanceMarketplace.Role",
							"name": "role",
							"type": "uint8"
						}
					],
					"name": "UserRegistered",
					"type": "event"
				},
				{
					"anonymous": false,
					"inputs": [
						{
							"indexed": true,
							"internalType": "uint256",
							"name": "jobId",
							"type": "uint256"
						},
						{
							"indexed": false,
							"internalType": "uint256",
							"name": "paidToFreelancerWei",
							"type": "uint256"
						},
						{
							"indexed": false,
							"internalType": "uint256",
							"name": "feeWei",
							"type": "uint256"
						}
					],
					"name": "WorkApproved",
					"type": "event"
				},
				{
					"anonymous": false,
					"inputs": [
						{
							"indexed": true,
							"internalType": "uint256",
							"name": "jobId",
							"type": "uint256"
						}
					],
					"name": "WorkMarkedCompleted",
					"type": "event"
				},
				{
					"inputs": [
						{
							"internalType": "uint256",
							"name": "_jobId",
							"type": "uint256"
						}
					],
					"name": "approveWork",
					"outputs": [],
					"stateMutability": "nonpayable",
					"type": "function"
				},
				{
					"inputs": [],
					"name": "arbiter",
					"outputs": [
						{
							"internalType": "address",
							"name": "",
							"type": "address"
						}
					],
					"stateMutability": "view",
					"type": "function"
				},
				{
					"inputs": [],
					"name": "availableFees",
					"outputs": [
						{
							"internalType": "uint256",
							"name": "",
							"type": "uint256"
						}
					],
					"stateMutability": "view",
					"type": "function"
				},
				{
					"inputs": [
						{
							"internalType": "uint256",
							"name": "",
							"type": "uint256"
						}
					],
					"name": "escrow",
					"outputs": [
						{
							"internalType": "uint256",
							"name": "",
							"type": "uint256"
						}
					],
					"stateMutability": "view",
					"type": "function"
				},
				{
					"inputs": [
						{
							"internalType": "uint256",
							"name": "jobId",
							"type": "uint256"
						},
						{
							"internalType": "uint256",
							"name": "index",
							"type": "uint256"
						}
					],
					"name": "getBid",
					"outputs": [
						{
							"components": [
								{
									"internalType": "address",
									"name": "freelancer",
									"type": "address"
								},
								{
									"internalType": "uint256",
									"name": "amount",
									"type": "uint256"
								},
								{
									"internalType": "uint256",
									"name": "proposedTime",
									"type": "uint256"
								},
								{
									"internalType": "bool",
									"name": "exists",
									"type": "bool"
								}
							],
							"internalType": "struct FreelanceMarketplace.Bid",
							"name": "",
							"type": "tuple"
						}
					],
					"stateMutability": "view",
					"type": "function"
				},
				{
					"inputs": [
						{
							"internalType": "uint256",
							"name": "jobId",
							"type": "uint256"
						}
					],
					"name": "getBidCount",
					"outputs": [
						{
							"internalType": "uint256",
							"name": "",
							"type": "uint256"
						}
					],
					"stateMutability": "view",
					"type": "function"
				},
				{
					"inputs": [
						{
							"internalType": "uint256",
							"name": "_jobId",
							"type": "uint256"
						},
						{
							"internalType": "uint256",
							"name": "_bidIndex",
							"type": "uint256"
						}
					],
					"name": "hireFreelancer",
					"outputs": [],
					"stateMutability": "payable",
					"type": "function"
				},
				{
					"inputs": [],
					"name": "jobCounter",
					"outputs": [
						{
							"internalType": "uint256",
							"name": "",
							"type": "uint256"
						}
					],
					"stateMutability": "view",
					"type": "function"
				},
				{
					"inputs": [
						{
							"internalType": "uint256",
							"name": "",
							"type": "uint256"
						}
					],
					"name": "jobs",
					"outputs": [
						{
							"internalType": "uint256",
							"name": "id",
							"type": "uint256"
						},
						{
							"internalType": "address",
							"name": "client",
							"type": "address"
						},
						{
							"internalType": "string",
							"name": "title",
							"type": "string"
						},
						{
							"internalType": "string",
							"name": "category",
							"type": "string"
						},
						{
							"internalType": "uint256",
							"name": "budget",
							"type": "uint256"
						},
						{
							"internalType": "uint256",
							"name": "deadline",
							"type": "uint256"
						},
						{
							"internalType": "enum FreelanceMarketplace.JobStatus",
							"name": "status",
							"type": "uint8"
						},
						{
							"internalType": "address",
							"name": "hiredFreelancer",
							"type": "address"
						},
						{
							"internalType": "uint256",
							"name": "acceptedBidAmount",
							"type": "uint256"
						},
						{
							"internalType": "bool",
							"name": "freelancerMarkedDone",
							"type": "bool"
						},
						{
							"internalType": "bool",
							"name": "clientApproved",
							"type": "bool"
						},
						{
							"internalType": "bool",
							"name": "disputed",
							"type": "bool"
						}
					],
					"stateMutability": "view",
					"type": "function"
				},
				{
					"inputs": [
						{
							"internalType": "uint256",
							"name": "_jobId",
							"type": "uint256"
						}
					],
					"name": "markCompleted",
					"outputs": [],
					"stateMutability": "nonpayable",
					"type": "function"
				},
				{
					"inputs": [
						{
							"internalType": "uint256",
							"name": "_jobId",
							"type": "uint256"
						},
						{
							"internalType": "uint256",
							"name": "_amountWei",
							"type": "uint256"
						},
						{
							"internalType": "uint256",
							"name": "_proposedTime",
							"type": "uint256"
						}
					],
					"name": "placeBid",
					"outputs": [],
					"stateMutability": "nonpayable",
					"type": "function"
				},
				{
					"inputs": [
						{
							"internalType": "string",
							"name": "_title",
							"type": "string"
						},
						{
							"internalType": "string",
							"name": "_category",
							"type": "string"
						},
						{
							"internalType": "uint256",
							"name": "_budgetWei",
							"type": "uint256"
						},
						{
							"internalType": "uint256",
							"name": "_deadline",
							"type": "uint256"
						}
					],
					"name": "postJob",
					"outputs": [],
					"stateMutability": "nonpayable",
					"type": "function"
				},
				{
					"inputs": [
						{
							"internalType": "uint256",
							"name": "_jobId",
							"type": "uint256"
						}
					],
					"name": "raiseDispute",
					"outputs": [],
					"stateMutability": "nonpayable",
					"type": "function"
				},
				{
					"inputs": [
						{
							"internalType": "string",
							"name": "_name",
							"type": "string"
						},
						{
							"internalType": "enum FreelanceMarketplace.Role",
							"name": "_role",
							"type": "uint8"
						}
					],
					"name": "registerUser",
					"outputs": [],
					"stateMutability": "nonpayable",
					"type": "function"
				},
				{
					"inputs": [
						{
							"internalType": "uint256",
							"name": "_jobId",
							"type": "uint256"
						},
						{
							"internalType": "bool",
							"name": "_payFreelancer",
							"type": "bool"
						}
					],
					"name": "resolveDispute",
					"outputs": [],
					"stateMutability": "nonpayable",
					"type": "function"
				},
				{
					"inputs": [],
					"name": "totalEscrowLocked",
					"outputs": [
						{
							"internalType": "uint256",
							"name": "",
							"type": "uint256"
						}
					],
					"stateMutability": "view",
					"type": "function"
				},
				{
					"inputs": [
						{
							"internalType": "address",
							"name": "",
							"type": "address"
						}
					],
					"name": "users",
					"outputs": [
						{
							"internalType": "string",
							"name": "name",
							"type": "string"
						},
						{
							"internalType": "enum FreelanceMarketplace.Role",
							"name": "role",
							"type": "uint8"
						},
						{
							"internalType": "uint256",
							"name": "reputation",
							"type": "uint256"
						},
						{
							"internalType": "address payable",
							"name": "wallet",
							"type": "address"
						},
						{
							"internalType": "bool",
							"name": "registered",
							"type": "bool"
						}
					],
					"stateMutability": "view",
					"type": "function"
				},
				{
					"inputs": [
						{
							"internalType": "address payable",
							"name": "to",
							"type": "address"
						},
						{
							"internalType": "uint256",
							"name": "amountWei",
							"type": "uint256"
						}
					],
					"name": "withdrawFees",
					"outputs": [],
					"stateMutability": "nonpayable",
					"type": "function"
				}
			],
			"devdoc": {
				"kind": "dev",
				"methods": {},
				"version": 1
			},
			"evm": {
				"assembly": "    /* \"FreelanceMarketplace.sol\":61:10695  contract FreelanceMarketplace {... */\n  mstore(0x40, 0xa0)\n    /* \"FreelanceMarketplace.sol\":1239:1240  1 */\n  0x01\n    /* \"FreelanceMarketplace.sol\":1213:1240  uint256 private _locked = 1 */\n  0x06\n  sstore\n    /* \"FreelanceMarketplace.sol\":2106:2159  constructor() {... */\n  callvalue\n  dup1\n  iszero\n  tag_1\n  jumpi\n  0x00\n  dup1\n  revert\ntag_1:\n  pop\n    /* \"FreelanceMarketplace.sol\":2141:2151  msg.sender */\n  caller\n    /* \"FreelanceMarketplace.sol\":2131:2151  arbiter = msg.sender */\n  0xffffffffffffffffffffffffffffffffffffffff\n  and\n  0x80\n  dup2\n  0xffffffffffffffffffffffffffffffffffffffff\n  and\n  dup2\n  mstore\n  pop\n  pop\n    /* \"FreelanceMarketplace.sol\":61:10695  contract FreelanceMarketplace {... */\n  mload(0x80)\n  codecopy(0x00, dataOffset(sub_0), dataSize(sub_0))\n  0x00\n  assignImmutable(\"0x5ae62207e7adee0b793bf869601474e77943fa4d9e3e0420f34d788e59bc19bd\")\n  return(0x00, dataSize(sub_0))\nstop\n\nsub_0: assembly {\n        /* \"FreelanceMarketplace.sol\":61:10695  contract FreelanceMarketplace {... */\n      mstore(0x40, 0x80)\n      jumpi(tag_1, lt(calldatasize, 0x04))\n      shr(0xe0, calldataload(0x00))\n      dup1\n      0x71bf6bed\n      gt\n      tag_20\n      jumpi\n      dup1\n      0xad3b1b47\n      gt\n      tag_21\n      jumpi\n      dup1\n      0xad3b1b47\n      eq\n      tag_15\n      jumpi\n      dup1\n      0xcac5c512\n      eq\n      tag_16\n      jumpi\n      dup1\n      0xd68ff191\n      eq\n      tag_17\n      jumpi\n      dup1\n      0xf73b60a9\n      eq\n      tag_18\n      jumpi\n      dup1\n      0xfe25e00a\n      eq\n      tag_19\n      jumpi\n      jump(tag_1)\n    tag_21:\n      dup1\n      0x71bf6bed\n      eq\n      tag_11\n      jumpi\n      dup1\n      0x744d3411\n      eq\n      tag_12\n      jumpi\n      dup1\n      0xa5c1674e\n      eq\n      tag_13\n      jumpi\n      dup1\n      0xa87430ba\n      eq\n      tag_14\n      jumpi\n      jump(tag_1)\n    tag_20:\n      dup1\n      0x3d01e0fa\n      gt\n      tag_22\n      jumpi\n      dup1\n      0x3d01e0fa\n      eq\n      tag_6\n      jumpi\n      dup1\n      0x50355d76\n      eq\n      tag_7\n      jumpi\n      dup1\n      0x582c7ffd\n      eq\n      tag_8\n      jumpi\n      dup1\n      0x5e62be25\n      eq\n      tag_9\n      jumpi\n      dup1\n      0x6e331b68\n      eq\n      tag_10\n      jumpi\n      jump(tag_1)\n    tag_22:\n      dup1\n      0x180aedf3\n      eq\n      tag_2\n      jumpi\n      dup1\n      0x289a74c9\n      eq\n      tag_3\n      jumpi\n      dup1\n      0x338e12eb\n      eq\n      tag_4\n      jumpi\n      dup1\n      0x34b25ee2\n      eq\n      tag_5\n      jumpi\n    tag_1:\n      0x00\n      dup1\n      revert\n        /* \"FreelanceMarketplace.sol\":997:1032  mapping(uint256 => Job) public jobs */\n    tag_2:\n      callvalue\n      dup1\n      iszero\n      tag_23\n      jumpi\n      0x00\n      dup1\n      revert\n    tag_23:\n      pop\n      tag_24\n      0x04\n      dup1\n      calldatasize\n      sub\n      dup2\n      add\n      swap1\n      tag_25\n      swap2\n      swap1\n      tag_26\n      jump\t// in\n    tag_25:\n      tag_27\n      jump\t// in\n    tag_24:\n      mload(0x40)\n      tag_28\n      swap13\n      swap12\n      swap11\n      swap10\n      swap9\n      swap8\n      swap7\n      swap6\n      swap5\n      swap4\n      swap3\n      swap2\n      swap1\n      tag_29\n      jump\t// in\n    tag_28:\n      mload(0x40)\n      dup1\n      swap2\n      sub\n      swap1\n      return\n        /* \"FreelanceMarketplace.sol\":3641:3765  function availableFees() external view returns (uint256) {... */\n    tag_3:\n      callvalue\n      dup1\n      iszero\n      tag_30\n      jumpi\n      0x00\n      dup1\n      revert\n    tag_30:\n      pop\n      tag_31\n      tag_32\n      jump\t// in\n    tag_31:\n      mload(0x40)\n      tag_33\n      swap2\n      swap1\n      tag_34\n      jump\t// in\n    tag_33:\n      mload(0x40)\n      dup1\n      swap2\n      sub\n      swap1\n      return\n        /* \"FreelanceMarketplace.sol\":3860:4459  function registerUser(string memory _name, Role _role) external {... */\n    tag_4:\n      callvalue\n      dup1\n      iszero\n      tag_35\n      jumpi\n      0x00\n      dup1\n      revert\n    tag_35:\n      pop\n      tag_36\n      0x04\n      dup1\n      calldatasize\n      sub\n      dup2\n      add\n      swap1\n      tag_37\n      swap2\n      swap1\n      tag_38\n      jump\t// in\n    tag_37:\n      tag_39\n      jump\t// in\n    tag_36:\n      stop\n        /* \"FreelanceMarketplace.sol\":9356:10692  function resolveDispute(uint256 _jobId, bool _payFreelancer) external onlyArbiter nonReentrant {... */\n    tag_5:\n      callvalue\n      dup1\n      iszero\n      tag_40\n      jumpi\n      0x00\n      dup1\n      revert\n    tag_40:\n      pop\n      tag_41\n      0x04\n      dup1\n      calldatasize\n      sub\n      dup2\n      add\n      swap1\n      tag_42\n      swap2\n      swap1\n      tag_43\n      jump\t// in\n    tag_42:\n      tag_44\n      jump\t// in\n    tag_41:\n      stop\n        /* \"FreelanceMarketplace.sol\":7381:8476  function approveWork(uint256 _jobId) external onlyClient nonReentrant {... */\n    tag_6:\n      callvalue\n      dup1\n      iszero\n      tag_45\n      jumpi\n      0x00\n      dup1\n      revert\n    tag_45:\n      pop\n      tag_46\n      0x04\n      dup1\n      calldatasize\n      sub\n      dup2\n      add\n      swap1\n      tag_47\n      swap2\n      swap1\n      tag_26\n      jump\t// in\n    tag_47:\n      tag_48\n      jump\t// in\n    tag_46:\n      stop\n        /* \"FreelanceMarketplace.sol\":919:944  uint256 public jobCounter */\n    tag_7:\n      callvalue\n      dup1\n      iszero\n      tag_49\n      jumpi\n      0x00\n      dup1\n      revert\n    tag_49:\n      pop\n      tag_50\n      tag_51\n      jump\t// in\n    tag_50:\n      mload(0x40)\n      tag_52\n      swap2\n      swap1\n      tag_34\n      jump\t// in\n    tag_52:\n      mload(0x40)\n      dup1\n      swap2\n      sub\n      swap1\n      return\n        /* \"FreelanceMarketplace.sol\":3369:3559  function getBid(uint256 jobId, uint256 index) external view returns (Bid memory) {... */\n    tag_8:\n      callvalue\n      dup1\n      iszero\n      tag_53\n      jumpi\n      0x00\n      dup1\n      revert\n    tag_53:\n      pop\n      tag_54\n      0x04\n      dup1\n      calldatasize\n      sub\n      dup2\n      add\n      swap1\n      tag_55\n      swap2\n      swap1\n      tag_56\n      jump\t// in\n    tag_55:\n      tag_57\n      jump\t// in\n    tag_54:\n      mload(0x40)\n      tag_58\n      swap2\n      swap1\n      tag_59\n      jump\t// in\n    tag_58:\n      mload(0x40)\n      dup1\n      swap2\n      sub\n      swap1\n      return\n        /* \"FreelanceMarketplace.sol\":5361:6064  function placeBid(uint256 _jobId, uint256 _amountWei, uint256 _proposedTime) external onlyFreelancer {... */\n    tag_9:\n      callvalue\n      dup1\n      iszero\n      tag_60\n      jumpi\n      0x00\n      dup1\n      revert\n    tag_60:\n      pop\n      tag_61\n      0x04\n      dup1\n      calldatasize\n      sub\n      dup2\n      add\n      swap1\n      tag_62\n      swap2\n      swap1\n      tag_63\n      jump\t// in\n    tag_62:\n      tag_64\n      jump\t// in\n    tag_61:\n      stop\n        /* \"FreelanceMarketplace.sol\":1172:1204  uint256 public totalEscrowLocked */\n    tag_10:\n      callvalue\n      dup1\n      iszero\n      tag_65\n      jumpi\n      0x00\n      dup1\n      revert\n    tag_65:\n      pop\n      tag_66\n      tag_67\n      jump\t// in\n    tag_66:\n      mload(0x40)\n      tag_68\n      swap2\n      swap1\n      tag_34\n      jump\t// in\n    tag_68:\n      mload(0x40)\n      dup1\n      swap2\n      sub\n      swap1\n      return\n        /* \"FreelanceMarketplace.sol\":4467:5353  function postJob(... */\n    tag_11:\n      callvalue\n      dup1\n      iszero\n      tag_69\n      jumpi\n      0x00\n      dup1\n      revert\n    tag_69:\n      pop\n      tag_70\n      0x04\n      dup1\n      calldatasize\n      sub\n      dup2\n      add\n      swap1\n      tag_71\n      swap2\n      swap1\n      tag_72\n      jump\t// in\n    tag_71:\n      tag_73\n      jump\t// in\n    tag_70:\n      stop\n        /* \"FreelanceMarketplace.sol\":3246:3361  function getBidCount(uint256 jobId) external view returns (uint256) {... */\n    tag_12:\n      callvalue\n      dup1\n      iszero\n      tag_74\n      jumpi\n      0x00\n      dup1\n      revert\n    tag_74:\n      pop\n      tag_75\n      0x04\n      dup1\n      calldatasize\n      sub\n      dup2\n      add\n      swap1\n      tag_76\n      swap2\n      swap1\n      tag_26\n      jump\t// in\n    tag_76:\n      tag_77\n      jump\t// in\n    tag_75:\n      mload(0x40)\n      tag_78\n      swap2\n      swap1\n      tag_34\n      jump\t// in\n    tag_78:\n      mload(0x40)\n      dup1\n      swap2\n      sub\n      swap1\n      return\n        /* \"FreelanceMarketplace.sol\":8865:9348  function raiseDispute(uint256 _jobId) external onlyClient {... */\n    tag_13:\n      callvalue\n      dup1\n      iszero\n      tag_79\n      jumpi\n      0x00\n      dup1\n      revert\n    tag_79:\n      pop\n      tag_80\n      0x04\n      dup1\n      calldatasize\n      sub\n      dup2\n      add\n      swap1\n      tag_81\n      swap2\n      swap1\n      tag_26\n      jump\t// in\n    tag_81:\n      tag_82\n      jump\t// in\n    tag_80:\n      stop\n        /* \"FreelanceMarketplace.sol\":953:990  mapping(address => User) public users */\n    tag_14:\n      callvalue\n      dup1\n      iszero\n      tag_83\n      jumpi\n      0x00\n      dup1\n      revert\n    tag_83:\n      pop\n      tag_84\n      0x04\n      dup1\n      calldatasize\n      sub\n      dup2\n      add\n      swap1\n      tag_85\n      swap2\n      swap1\n      tag_86\n      jump\t// in\n    tag_85:\n      tag_87\n      jump\t// in\n    tag_84:\n      mload(0x40)\n      tag_88\n      swap6\n      swap5\n      swap4\n      swap3\n      swap2\n      swap1\n      tag_89\n      jump\t// in\n    tag_88:\n      mload(0x40)\n      dup1\n      swap2\n      sub\n      swap1\n      return\n        /* \"FreelanceMarketplace.sol\":8484:8857  function withdrawFees(address payable to, uint256 amountWei) external onlyArbiter nonReentrant {... */\n    tag_15:\n      callvalue\n      dup1\n      iszero\n      tag_90\n      jumpi\n      0x00\n      dup1\n      revert\n    tag_90:\n      pop\n      tag_91\n      0x04\n      dup1\n      calldatasize\n      sub\n      dup2\n      add\n      swap1\n      tag_92\n      swap2\n      swap1\n      tag_93\n      jump\t// in\n    tag_92:\n      tag_94\n      jump\t// in\n    tag_91:\n      stop\n        /* \"FreelanceMarketplace.sol\":6945:7373  function markCompleted(uint256 _jobId) external onlyFreelancer {... */\n    tag_16:\n      callvalue\n      dup1\n      iszero\n      tag_95\n      jumpi\n      0x00\n      dup1\n      revert\n    tag_95:\n      pop\n      tag_96\n      0x04\n      dup1\n      calldatasize\n      sub\n      dup2\n      add\n      swap1\n      tag_97\n      swap2\n      swap1\n      tag_26\n      jump\t// in\n    tag_97:\n      tag_98\n      jump\t// in\n    tag_96:\n      stop\n        /* \"FreelanceMarketplace.sol\":1122:1163  mapping(uint256 => uint256) public escrow */\n    tag_17:\n      callvalue\n      dup1\n      iszero\n      tag_99\n      jumpi\n      0x00\n      dup1\n      revert\n    tag_99:\n      pop\n      tag_100\n      0x04\n      dup1\n      calldatasize\n      sub\n      dup2\n      add\n      swap1\n      tag_101\n      swap2\n      swap1\n      tag_26\n      jump\t// in\n    tag_101:\n      tag_102\n      jump\t// in\n    tag_100:\n      mload(0x40)\n      tag_103\n      swap2\n      swap1\n      tag_34\n      jump\t// in\n    tag_103:\n      mload(0x40)\n      dup1\n      swap2\n      sub\n      swap1\n      return\n        /* \"FreelanceMarketplace.sol\":6072:6937  function hireFreelancer(uint256 _jobId, uint256 _bidIndex) external payable onlyClient nonReentrant {... */\n    tag_18:\n      tag_104\n      0x04\n      dup1\n      calldatasize\n      sub\n      dup2\n      add\n      swap1\n      tag_105\n      swap2\n      swap1\n      tag_56\n      jump\t// in\n    tag_105:\n      tag_106\n      jump\t// in\n    tag_104:\n      stop\n        /* \"FreelanceMarketplace.sol\":880:912  address public immutable arbiter */\n    tag_19:\n      callvalue\n      dup1\n      iszero\n      tag_107\n      jumpi\n      0x00\n      dup1\n      revert\n    tag_107:\n      pop\n      tag_108\n      tag_109\n      jump\t// in\n    tag_108:\n      mload(0x40)\n      tag_110\n      swap2\n      swap1\n      tag_111\n      jump\t// in\n    tag_110:\n      mload(0x40)\n      dup1\n      swap2\n      sub\n      swap1\n      return\n        /* \"FreelanceMarketplace.sol\":997:1032  mapping(uint256 => Job) public jobs */\n    tag_27:\n      mstore(0x20, 0x02)\n      dup1\n      0x00\n      mstore\n      keccak256(0x00, 0x40)\n      0x00\n      swap2\n      pop\n      swap1\n      pop\n      dup1\n      0x00\n      add\n      sload\n      swap1\n      dup1\n      0x01\n      add\n      0x00\n      swap1\n      sload\n      swap1\n      0x0100\n      exp\n      swap1\n      div\n      0xffffffffffffffffffffffffffffffffffffffff\n      and\n      swap1\n      dup1\n      0x02\n      add\n      dup1\n      sload\n      tag_112\n      swap1\n      tag_113\n      jump\t// in\n    tag_112:\n      dup1\n      0x1f\n      add\n      0x20\n      dup1\n      swap2\n      div\n      mul\n      0x20\n      add\n      mload(0x40)\n      swap1\n      dup2\n      add\n      0x40\n      mstore\n      dup1\n      swap3\n      swap2\n      swap1\n      dup2\n      dup2\n      mstore\n      0x20\n      add\n      dup3\n      dup1\n      sload\n      tag_114\n      swap1\n      tag_113\n      jump\t// in\n    tag_114:\n      dup1\n      iszero\n      tag_115\n      jumpi\n      dup1\n      0x1f\n      lt\n      tag_116\n      jumpi\n      0x0100\n      dup1\n      dup4\n      sload\n      div\n      mul\n      dup4\n      mstore\n      swap2\n      0x20\n      add\n      swap2\n      jump(tag_115)\n    tag_116:\n      dup3\n      add\n      swap2\n      swap1\n      0x00\n      mstore\n      keccak256(0x00, 0x20)\n      swap1\n    tag_117:\n      dup2\n      sload\n      dup2\n      mstore\n      swap1\n      0x01\n      add\n      swap1\n      0x20\n      add\n      dup1\n      dup4\n      gt\n      tag_117\n      jumpi\n      dup3\n      swap1\n      sub\n      0x1f\n      and\n      dup3\n      add\n      swap2\n    tag_115:\n      pop\n      pop\n      pop\n      pop\n      pop\n      swap1\n      dup1\n      0x03\n      add\n      dup1\n      sload\n      tag_118\n      swap1\n      tag_113\n      jump\t// in\n    tag_118:\n      dup1\n      0x1f\n      add\n      0x20\n      dup1\n      swap2\n      div\n      mul\n      0x20\n      add\n      mload(0x40)\n      swap1\n      dup2\n      add\n      0x40\n      mstore\n      dup1\n      swap3\n      swap2\n      swap1\n      dup2\n      dup2\n      mstore\n      0x20\n      add\n      dup3\n      dup1\n      sload\n      tag_119\n      swap1\n      tag_113\n      jump\t// in\n    tag_119:\n      dup1\n      iszero\n      tag_120\n      jumpi\n      dup1\n      0x1f\n      lt\n      tag_121\n      jumpi\n      0x0100\n      dup1\n      dup4\n      sload\n      div\n      mul\n      dup4\n      mstore\n      swap2\n      0x20\n      add\n      swap2\n      jump(tag_120)\n    tag_121:\n      dup3\n      add\n      swap2\n      swap1\n      0x00\n      mstore\n      keccak256(0x00, 0x20)\n      swap1\n    tag_122:\n      dup2\n      sload\n      dup2\n      mstore\n      swap1\n      0x01\n      add\n      swap1\n      0x20\n      add\n      dup1\n      dup4\n      gt\n      tag_122\n      jumpi\n      dup3\n      swap1\n      sub\n      0x1f\n      and\n      dup3\n      add\n      swap2\n    tag_120:\n      pop\n      pop\n      pop\n      pop\n      pop\n      swap1\n      dup1\n      0x04\n      add\n      sload\n      swap1\n      dup1\n      0x05\n      add\n      sload\n      swap1\n      dup1\n      0x06\n      add\n      0x00\n      swap1\n      sload\n      swap1\n      0x0100\n      exp\n      swap1\n      div\n      0xff\n      and\n      swap1\n      dup1\n      0x06\n      add\n      0x01\n      swap1\n      sload\n      swap1\n      0x0100\n      exp\n      swap1\n      div\n      0xffffffffffffffffffffffffffffffffffffffff\n      and\n      swap1\n      dup1\n      0x07\n      add\n      sload\n      swap1\n      dup1\n      0x08\n      add\n      0x00\n      swap1\n      sload\n      swap1\n      0x0100\n      exp\n      swap1\n      div\n      0xff\n      and\n      swap1\n      dup1\n      0x08\n      add\n      0x01\n      swap1\n      sload\n      swap1\n      0x0100\n      exp\n      swap1\n      div\n      0xff\n      and\n      swap1\n      dup1\n      0x08\n      add\n      0x02\n      swap1\n      sload\n      swap1\n      0x0100\n      exp\n      swap1\n      div\n      0xff\n      and\n      swap1\n      pop\n      dup13\n      jump\t// out\n        /* \"FreelanceMarketplace.sol\":3641:3765  function availableFees() external view returns (uint256) {... */\n    tag_32:\n        /* \"FreelanceMarketplace.sol\":3689:3696  uint256 */\n      0x00\n        /* \"FreelanceMarketplace.sol\":3740:3757  totalEscrowLocked */\n      sload(0x05)\n        /* \"FreelanceMarketplace.sol\":3716:3737  address(this).balance */\n      selfbalance\n        /* \"FreelanceMarketplace.sol\":3716:3757  address(this).balance - totalEscrowLocked */\n      tag_124\n      swap2\n      swap1\n      tag_125\n      jump\t// in\n    tag_124:\n        /* \"FreelanceMarketplace.sol\":3709:3757  return address(this).balance - totalEscrowLocked */\n      swap1\n      pop\n        /* \"FreelanceMarketplace.sol\":3641:3765  function availableFees() external view returns (uint256) {... */\n      swap1\n      jump\t// out\n        /* \"FreelanceMarketplace.sol\":3860:4459  function registerUser(string memory _name, Role _role) external {... */\n    tag_39:\n        /* \"FreelanceMarketplace.sol\":3944:3949  users */\n      0x01\n        /* \"FreelanceMarketplace.sol\":3944:3961  users[msg.sender] */\n      0x00\n        /* \"FreelanceMarketplace.sol\":3950:3960  msg.sender */\n      caller\n        /* \"FreelanceMarketplace.sol\":3944:3961  users[msg.sender] */\n      0xffffffffffffffffffffffffffffffffffffffff\n      and\n      0xffffffffffffffffffffffffffffffffffffffff\n      and\n      dup2\n      mstore\n      0x20\n      add\n      swap1\n      dup2\n      mstore\n      0x20\n      add\n      0x00\n      keccak256\n        /* \"FreelanceMarketplace.sol\":3944:3972  users[msg.sender].registered */\n      0x03\n      add\n      0x14\n      swap1\n      sload\n      swap1\n      0x0100\n      exp\n      swap1\n      div\n      0xff\n      and\n        /* \"FreelanceMarketplace.sol\":3943:3972  !users[msg.sender].registered */\n      iszero\n        /* \"FreelanceMarketplace.sol\":3935:4000  require(!users[msg.sender].registered, \"User already registered\") */\n      tag_127\n      jumpi\n      mload(0x40)\n      0x08c379a000000000000000000000000000000000000000000000000000000000\n      dup2\n      mstore\n      0x04\n      add\n      tag_128\n      swap1\n      tag_129\n      jump\t// in\n    tag_128:\n      mload(0x40)\n      dup1\n      swap2\n      sub\n      swap1\n      revert\n    tag_127:\n        /* \"FreelanceMarketplace.sol\":4026:4038  Role.Arbiter */\n      0x00\n        /* \"FreelanceMarketplace.sol\":4017:4038  _role == Role.Arbiter */\n      0x02\n      dup2\n      gt\n      iszero\n      tag_130\n      jumpi\n      tag_131\n      tag_132\n      jump\t// in\n    tag_131:\n    tag_130:\n        /* \"FreelanceMarketplace.sol\":4017:4022  _role */\n      dup2\n        /* \"FreelanceMarketplace.sol\":4017:4038  _role == Role.Arbiter */\n      0x02\n      dup2\n      gt\n      iszero\n      tag_133\n      jumpi\n      tag_134\n      tag_132\n      jump\t// in\n    tag_134:\n    tag_133:\n      sub\n        /* \"FreelanceMarketplace.sol\":4013:4235  if (_role == Role.Arbiter) {... */\n      tag_135\n      jumpi\n        /* \"FreelanceMarketplace.sol\":4077:4084  arbiter */\n      immutable(\"0x5ae62207e7adee0b793bf869601474e77943fa4d9e3e0420f34d788e59bc19bd\")\n        /* \"FreelanceMarketplace.sol\":4063:4084  msg.sender == arbiter */\n      0xffffffffffffffffffffffffffffffffffffffff\n      and\n        /* \"FreelanceMarketplace.sol\":4063:4073  msg.sender */\n      caller\n        /* \"FreelanceMarketplace.sol\":4063:4084  msg.sender == arbiter */\n      0xffffffffffffffffffffffffffffffffffffffff\n      and\n      eq\n        /* \"FreelanceMarketplace.sol\":4055:4117  require(msg.sender == arbiter, \"Only deployer can be Arbiter\") */\n      tag_136\n      jumpi\n      mload(0x40)\n      0x08c379a000000000000000000000000000000000000000000000000000000000\n      dup2\n      mstore\n      0x04\n      add\n      tag_137\n      swap1\n      tag_138\n      jump\t// in\n    tag_137:\n      mload(0x40)\n      dup1\n      swap2\n      sub\n      swap1\n      revert\n    tag_136:\n        /* \"FreelanceMarketplace.sol\":4013:4235  if (_role == Role.Arbiter) {... */\n      jump(tag_139)\n    tag_135:\n        /* \"FreelanceMarketplace.sol\":4167:4178  Role.Client */\n      0x01\n        /* \"FreelanceMarketplace.sol\":4158:4178  _role == Role.Client */\n      0x02\n      dup2\n      gt\n      iszero\n      tag_140\n      jumpi\n      tag_141\n      tag_132\n      jump\t// in\n    tag_141:\n    tag_140:\n        /* \"FreelanceMarketplace.sol\":4158:4163  _role */\n      dup2\n        /* \"FreelanceMarketplace.sol\":4158:4178  _role == Role.Client */\n      0x02\n      dup2\n      gt\n      iszero\n      tag_142\n      jumpi\n      tag_143\n      tag_132\n      jump\t// in\n    tag_143:\n    tag_142:\n      eq\n        /* \"FreelanceMarketplace.sol\":4158:4206  _role == Role.Client || _role == Role.Freelancer */\n      dup1\n      tag_144\n      jumpi\n      pop\n        /* \"FreelanceMarketplace.sol\":4191:4206  Role.Freelancer */\n      0x02\n        /* \"FreelanceMarketplace.sol\":4182:4206  _role == Role.Freelancer */\n      dup1\n      dup2\n      gt\n      iszero\n      tag_145\n      jumpi\n      tag_146\n      tag_132\n      jump\t// in\n    tag_146:\n    tag_145:\n        /* \"FreelanceMarketplace.sol\":4182:4187  _role */\n      dup2\n        /* \"FreelanceMarketplace.sol\":4182:4206  _role == Role.Freelancer */\n      0x02\n      dup2\n      gt\n      iszero\n      tag_147\n      jumpi\n      tag_148\n      tag_132\n      jump\t// in\n    tag_148:\n    tag_147:\n      eq\n        /* \"FreelanceMarketplace.sol\":4158:4206  _role == Role.Client || _role == Role.Freelancer */\n    tag_144:\n        /* \"FreelanceMarketplace.sol\":4150:4223  require(_role == Role.Client || _role == Role.Freelancer, \"Invalid role\") */\n      tag_149\n      jumpi\n      mload(0x40)\n      0x08c379a000000000000000000000000000000000000000000000000000000000\n      dup2\n      mstore\n      0x04\n      add\n      tag_150\n      swap1\n      tag_151\n      jump\t// in\n    tag_150:\n      mload(0x40)\n      dup1\n      swap2\n      sub\n      swap1\n      revert\n    tag_149:\n        /* \"FreelanceMarketplace.sol\":4013:4235  if (_role == Role.Arbiter) {... */\n    tag_139:\n        /* \"FreelanceMarketplace.sol\":4247:4258  uint256 rep */\n      0x00\n        /* \"FreelanceMarketplace.sol\":4286:4301  Role.Freelancer */\n      0x02\n        /* \"FreelanceMarketplace.sol\":4277:4301  _role == Role.Freelancer */\n      dup1\n      dup2\n      gt\n      iszero\n      tag_152\n      jumpi\n      tag_153\n      tag_132\n      jump\t// in\n    tag_153:\n    tag_152:\n        /* \"FreelanceMarketplace.sol\":4277:4282  _role */\n      dup3\n        /* \"FreelanceMarketplace.sol\":4277:4301  _role == Role.Freelancer */\n      0x02\n      dup2\n      gt\n      iszero\n      tag_154\n      jumpi\n      tag_155\n      tag_132\n      jump\t// in\n    tag_155:\n    tag_154:\n      sub\n        /* \"FreelanceMarketplace.sol\":4273:4312  if (_role == Role.Freelancer) rep = 100 */\n      tag_156\n      jumpi\n        /* \"FreelanceMarketplace.sol\":4309:4312  100 */\n      0x64\n        /* \"FreelanceMarketplace.sol\":4303:4312  rep = 100 */\n      swap1\n      pop\n        /* \"FreelanceMarketplace.sol\":4273:4312  if (_role == Role.Freelancer) rep = 100 */\n    tag_156:\n        /* \"FreelanceMarketplace.sol\":4345:4395  User(_name, _role, rep, payable(msg.sender), true) */\n      mload(0x40)\n      dup1\n      0xa0\n      add\n      0x40\n      mstore\n      dup1\n        /* \"FreelanceMarketplace.sol\":4350:4355  _name */\n      dup5\n        /* \"FreelanceMarketplace.sol\":4345:4395  User(_name, _role, rep, payable(msg.sender), true) */\n      dup2\n      mstore\n      0x20\n      add\n        /* \"FreelanceMarketplace.sol\":4357:4362  _role */\n      dup4\n        /* \"FreelanceMarketplace.sol\":4345:4395  User(_name, _role, rep, payable(msg.sender), true) */\n      0x02\n      dup2\n      gt\n      iszero\n      tag_157\n      jumpi\n      tag_158\n      tag_132\n      jump\t// in\n    tag_158:\n    tag_157:\n      dup2\n      mstore\n      0x20\n      add\n        /* \"FreelanceMarketplace.sol\":4364:4367  rep */\n      dup3\n        /* \"FreelanceMarketplace.sol\":4345:4395  User(_name, _role, rep, payable(msg.sender), true) */\n      dup2\n      mstore\n      0x20\n      add\n        /* \"FreelanceMarketplace.sol\":4377:4387  msg.sender */\n      caller\n        /* \"FreelanceMarketplace.sol\":4345:4395  User(_name, _role, rep, payable(msg.sender), true) */\n      0xffffffffffffffffffffffffffffffffffffffff\n      and\n      dup2\n      mstore\n      0x20\n      add\n        /* \"FreelanceMarketplace.sol\":4390:4394  true */\n      0x01\n        /* \"FreelanceMarketplace.sol\":4345:4395  User(_name, _role, rep, payable(msg.sender), true) */\n      iszero\n      iszero\n      dup2\n      mstore\n      pop\n        /* \"FreelanceMarketplace.sol\":4325:4330  users */\n      0x01\n        /* \"FreelanceMarketplace.sol\":4325:4342  users[msg.sender] */\n      0x00\n        /* \"FreelanceMarketplace.sol\":4331:4341  msg.sender */\n      caller\n        /* \"FreelanceMarketplace.sol\":4325:4342  users[msg.sender] */\n      0xffffffffffffffffffffffffffffffffffffffff\n      and\n      0xffffffffffffffffffffffffffffffffffffffff\n      and\n      dup2\n      mstore\n      0x20\n      add\n      swap1\n      dup2\n      mstore\n      0x20\n      add\n      0x00\n      keccak256\n        /* \"FreelanceMarketplace.sol\":4325:4395  users[msg.sender] = User(_name, _role, rep, payable(msg.sender), true) */\n      0x00\n      dup3\n      add\n      mload\n      dup2\n      0x00\n      add\n      swap1\n      dup2\n      tag_159\n      swap2\n      swap1\n      tag_160\n      jump\t// in\n    tag_159:\n      pop\n      0x20\n      dup3\n      add\n      mload\n      dup2\n      0x01\n      add\n      exp(0x0100, 0x00)\n      dup2\n      sload\n      dup2\n      0xff\n      mul\n      not\n      and\n      swap1\n      dup4\n      0x02\n      dup2\n      gt\n      iszero\n      tag_161\n      jumpi\n      tag_162\n      tag_132\n      jump\t// in\n    tag_162:\n    tag_161:\n      mul\n      or\n      swap1\n      sstore\n      pop\n      0x40\n      dup3\n      add\n      mload\n      dup2\n      0x02\n      add\n      sstore\n      0x60\n      dup3\n      add\n      mload\n      dup2\n      0x03\n      add\n      exp(0x0100, 0x00)\n      dup2\n      sload\n      dup2\n      0xffffffffffffffffffffffffffffffffffffffff\n      mul\n      not\n      and\n      swap1\n      dup4\n      0xffffffffffffffffffffffffffffffffffffffff\n      and\n      mul\n      or\n      swap1\n      sstore\n      pop\n      0x80\n      dup3\n      add\n      mload\n      dup2\n      0x03\n      add\n      exp(0x0100, 0x14)\n      dup2\n      sload\n      dup2\n      0xff\n      mul\n      not\n      and\n      swap1\n      dup4\n      iszero\n      iszero\n      mul\n      or\n      swap1\n      sstore\n      pop\n      swap1\n      pop\n      pop\n        /* \"FreelanceMarketplace.sol\":4426:4436  msg.sender */\n      caller\n        /* \"FreelanceMarketplace.sol\":4411:4451  UserRegistered(msg.sender, _name, _role) */\n      0xffffffffffffffffffffffffffffffffffffffff\n      and\n      0xc2e5d5da58bd71d1a2d14cdef02a4256d971b728088f8190d067ccfbae3bd73e\n        /* \"FreelanceMarketplace.sol\":4438:4443  _name */\n      dup5\n        /* \"FreelanceMarketplace.sol\":4445:4450  _role */\n      dup5\n        /* \"FreelanceMarketplace.sol\":4411:4451  UserRegistered(msg.sender, _name, _role) */\n      mload(0x40)\n      tag_163\n      swap3\n      swap2\n      swap1\n      tag_164\n      jump\t// in\n    tag_163:\n      mload(0x40)\n      dup1\n      swap2\n      sub\n      swap1\n      log2\n        /* \"FreelanceMarketplace.sol\":3924:4459  {... */\n      pop\n        /* \"FreelanceMarketplace.sol\":3860:4459  function registerUser(string memory _name, Role _role) external {... */\n      pop\n      pop\n      jump\t// out\n        /* \"FreelanceMarketplace.sol\":9356:10692  function resolveDispute(uint256 _jobId, bool _payFreelancer) external onlyArbiter nonReentrant {... */\n    tag_44:\n        /* \"FreelanceMarketplace.sol\":2611:2618  arbiter */\n      immutable(\"0x5ae62207e7adee0b793bf869601474e77943fa4d9e3e0420f34d788e59bc19bd\")\n        /* \"FreelanceMarketplace.sol\":2597:2618  msg.sender == arbiter */\n      0xffffffffffffffffffffffffffffffffffffffff\n      and\n        /* \"FreelanceMarketplace.sol\":2597:2607  msg.sender */\n      caller\n        /* \"FreelanceMarketplace.sol\":2597:2618  msg.sender == arbiter */\n      0xffffffffffffffffffffffffffffffffffffffff\n      and\n      eq\n        /* \"FreelanceMarketplace.sol\":2589:2635  require(msg.sender == arbiter, \"Only arbiter\") */\n      tag_166\n      jumpi\n      mload(0x40)\n      0x08c379a000000000000000000000000000000000000000000000000000000000\n      dup2\n      mstore\n      0x04\n      add\n      tag_167\n      swap1\n      tag_168\n      jump\t// in\n    tag_167:\n      mload(0x40)\n      dup1\n      swap2\n      sub\n      swap1\n      revert\n    tag_166:\n        /* \"FreelanceMarketplace.sol\":2654:2659  users */\n      0x01\n        /* \"FreelanceMarketplace.sol\":2654:2671  users[msg.sender] */\n      0x00\n        /* \"FreelanceMarketplace.sol\":2660:2670  msg.sender */\n      caller\n        /* \"FreelanceMarketplace.sol\":2654:2671  users[msg.sender] */\n      0xffffffffffffffffffffffffffffffffffffffff\n      and\n      0xffffffffffffffffffffffffffffffffffffffff\n      and\n      dup2\n      mstore\n      0x20\n      add\n      swap1\n      dup2\n      mstore\n      0x20\n      add\n      0x00\n      keccak256\n        /* \"FreelanceMarketplace.sol\":2654:2682  users[msg.sender].registered */\n      0x03\n      add\n      0x14\n      swap1\n      sload\n      swap1\n      0x0100\n      exp\n      swap1\n      div\n      0xff\n      and\n        /* \"FreelanceMarketplace.sol\":2654:2724  users[msg.sender].registered && users[msg.sender].role == Role.Arbiter */\n      dup1\n      iszero\n      tag_169\n      jumpi\n      pop\n        /* \"FreelanceMarketplace.sol\":2712:2724  Role.Arbiter */\n      0x00\n        /* \"FreelanceMarketplace.sol\":2686:2724  users[msg.sender].role == Role.Arbiter */\n      0x02\n      dup2\n      gt\n      iszero\n      tag_170\n      jumpi\n      tag_171\n      tag_132\n      jump\t// in\n    tag_171:\n    tag_170:\n        /* \"FreelanceMarketplace.sol\":2686:2691  users */\n      0x01\n        /* \"FreelanceMarketplace.sol\":2686:2703  users[msg.sender] */\n      0x00\n        /* \"FreelanceMarketplace.sol\":2692:2702  msg.sender */\n      caller\n        /* \"FreelanceMarketplace.sol\":2686:2703  users[msg.sender] */\n      0xffffffffffffffffffffffffffffffffffffffff\n      and\n      0xffffffffffffffffffffffffffffffffffffffff\n      and\n      dup2\n      mstore\n      0x20\n      add\n      swap1\n      dup2\n      mstore\n      0x20\n      add\n      0x00\n      keccak256\n        /* \"FreelanceMarketplace.sol\":2686:2708  users[msg.sender].role */\n      0x01\n      add\n      0x00\n      swap1\n      sload\n      swap1\n      0x0100\n      exp\n      swap1\n      div\n      0xff\n      and\n        /* \"FreelanceMarketplace.sol\":2686:2724  users[msg.sender].role == Role.Arbiter */\n      0x02\n      dup2\n      gt\n      iszero\n      tag_172\n      jumpi\n      tag_173\n      tag_132\n      jump\t// in\n    tag_173:\n    tag_172:\n      eq\n        /* \"FreelanceMarketplace.sol\":2654:2724  users[msg.sender].registered && users[msg.sender].role == Role.Arbiter */\n    tag_169:\n        /* \"FreelanceMarketplace.sol\":2646:2751  require(users[msg.sender].registered && users[msg.sender].role == Role.Arbiter, \"Arbiter not registered\") */\n      tag_174\n      jumpi\n      mload(0x40)\n      0x08c379a000000000000000000000000000000000000000000000000000000000\n      dup2\n      mstore\n      0x04\n      add\n      tag_175\n      swap1\n      tag_176\n      jump\t// in\n    tag_175:\n      mload(0x40)\n      dup1\n      swap2\n      sub\n      swap1\n      revert\n    tag_174:\n        /* \"FreelanceMarketplace.sol\":1301:1302  1 */\n      0x01\n        /* \"FreelanceMarketplace.sol\":1290:1297  _locked */\n      sload(0x06)\n        /* \"FreelanceMarketplace.sol\":1290:1302  _locked == 1 */\n      eq\n        /* \"FreelanceMarketplace.sol\":1282:1317  require(_locked == 1, \"Reentrancy\") */\n      tag_178\n      jumpi\n      mload(0x40)\n      0x08c379a000000000000000000000000000000000000000000000000000000000\n      dup2\n      mstore\n      0x04\n      add\n      tag_179\n      swap1\n      tag_180\n      jump\t// in\n    tag_179:\n      mload(0x40)\n      dup1\n      swap2\n      sub\n      swap1\n      revert\n    tag_178:\n        /* \"FreelanceMarketplace.sol\":1338:1339  2 */\n      0x02\n        /* \"FreelanceMarketplace.sol\":1328:1335  _locked */\n      0x06\n        /* \"FreelanceMarketplace.sol\":1328:1339  _locked = 2 */\n      dup2\n      swap1\n      sstore\n      pop\n        /* \"FreelanceMarketplace.sol\":9462:9475  Job storage j */\n      0x00\n        /* \"FreelanceMarketplace.sol\":9478:9482  jobs */\n      0x02\n        /* \"FreelanceMarketplace.sol\":9478:9490  jobs[_jobId] */\n      0x00\n        /* \"FreelanceMarketplace.sol\":9483:9489  _jobId */\n      dup5\n        /* \"FreelanceMarketplace.sol\":9478:9490  jobs[_jobId] */\n      dup2\n      mstore\n      0x20\n      add\n      swap1\n      dup2\n      mstore\n      0x20\n      add\n      0x00\n      keccak256\n        /* \"FreelanceMarketplace.sol\":9462:9490  Job storage j = jobs[_jobId] */\n      swap1\n      pop\n        /* \"FreelanceMarketplace.sol\":9517:9518  0 */\n      0x00\n        /* \"FreelanceMarketplace.sol\":9509:9510  j */\n      dup2\n        /* \"FreelanceMarketplace.sol\":9509:9513  j.id */\n      0x00\n      add\n      sload\n        /* \"FreelanceMarketplace.sol\":9509:9518  j.id != 0 */\n      sub\n        /* \"FreelanceMarketplace.sol\":9501:9541  require(j.id != 0, \"Job does not exist\") */\n      tag_182\n      jumpi\n      mload(0x40)\n      0x08c379a000000000000000000000000000000000000000000000000000000000\n      dup2\n      mstore\n      0x04\n      add\n      tag_183\n      swap1\n      tag_184\n      jump\t// in\n    tag_183:\n      mload(0x40)\n      dup1\n      swap2\n      sub\n      swap1\n      revert\n    tag_182:\n        /* \"FreelanceMarketplace.sol\":9572:9590  JobStatus.Disputed */\n      0x04\n        /* \"FreelanceMarketplace.sol\":9560:9590  j.status == JobStatus.Disputed */\n      0x05\n      dup2\n      gt\n      iszero\n      tag_185\n      jumpi\n      tag_186\n      tag_132\n      jump\t// in\n    tag_186:\n    tag_185:\n        /* \"FreelanceMarketplace.sol\":9560:9561  j */\n      dup2\n        /* \"FreelanceMarketplace.sol\":9560:9568  j.status */\n      0x06\n      add\n      0x00\n      swap1\n      sload\n      swap1\n      0x0100\n      exp\n      swap1\n      div\n      0xff\n      and\n        /* \"FreelanceMarketplace.sol\":9560:9590  j.status == JobStatus.Disputed */\n      0x05\n      dup2\n      gt\n      iszero\n      tag_187\n      jumpi\n      tag_188\n      tag_132\n      jump\t// in\n    tag_188:\n    tag_187:\n      eq\n        /* \"FreelanceMarketplace.sol\":9552:9611  require(j.status == JobStatus.Disputed, \"Job not disputed\") */\n      tag_189\n      jumpi\n      mload(0x40)\n      0x08c379a000000000000000000000000000000000000000000000000000000000\n      dup2\n      mstore\n      0x04\n      add\n      tag_190\n      swap1\n      tag_191\n      jump\t// in\n    tag_190:\n      mload(0x40)\n      dup1\n      swap2\n      sub\n      swap1\n      revert\n    tag_189:\n        /* \"FreelanceMarketplace.sol\":9624:9638  uint256 amount */\n      0x00\n        /* \"FreelanceMarketplace.sol\":9641:9642  j */\n      dup2\n        /* \"FreelanceMarketplace.sol\":9641:9660  j.acceptedBidAmount */\n      0x07\n      add\n      sload\n        /* \"FreelanceMarketplace.sol\":9624:9660  uint256 amount = j.acceptedBidAmount */\n      swap1\n      pop\n        /* \"FreelanceMarketplace.sol\":9697:9703  amount */\n      dup1\n        /* \"FreelanceMarketplace.sol\":9679:9685  escrow */\n      0x04\n        /* \"FreelanceMarketplace.sol\":9679:9693  escrow[_jobId] */\n      0x00\n        /* \"FreelanceMarketplace.sol\":9686:9692  _jobId */\n      dup7\n        /* \"FreelanceMarketplace.sol\":9679:9693  escrow[_jobId] */\n      dup2\n      mstore\n      0x20\n      add\n      swap1\n      dup2\n      mstore\n      0x20\n      add\n      0x00\n      keccak256\n      sload\n        /* \"FreelanceMarketplace.sol\":9679:9703  escrow[_jobId] == amount */\n      eq\n        /* \"FreelanceMarketplace.sol\":9671:9724  require(escrow[_jobId] == amount, \"Escrow not found\") */\n      tag_192\n      jumpi\n      mload(0x40)\n      0x08c379a000000000000000000000000000000000000000000000000000000000\n      dup2\n      mstore\n      0x04\n      add\n      tag_193\n      swap1\n      tag_194\n      jump\t// in\n    tag_193:\n      mload(0x40)\n      dup1\n      swap2\n      sub\n      swap1\n      revert\n    tag_192:\n        /* \"FreelanceMarketplace.sol\":9737:9765  address payable clientWallet */\n      0x00\n        /* \"FreelanceMarketplace.sol\":9776:9777  j */\n      dup3\n        /* \"FreelanceMarketplace.sol\":9776:9784  j.client */\n      0x01\n      add\n      0x00\n      swap1\n      sload\n      swap1\n      0x0100\n      exp\n      swap1\n      div\n      0xffffffffffffffffffffffffffffffffffffffff\n      and\n        /* \"FreelanceMarketplace.sol\":9737:9785  address payable clientWallet = payable(j.client) */\n      swap1\n      pop\n        /* \"FreelanceMarketplace.sol\":9796:9809  address hired */\n      0x00\n        /* \"FreelanceMarketplace.sol\":9812:9813  j */\n      dup4\n        /* \"FreelanceMarketplace.sol\":9812:9829  j.hiredFreelancer */\n      0x06\n      add\n      0x01\n      swap1\n      sload\n      swap1\n      0x0100\n      exp\n      swap1\n      div\n      0xffffffffffffffffffffffffffffffffffffffff\n      and\n        /* \"FreelanceMarketplace.sol\":9796:9829  address hired = j.hiredFreelancer */\n      swap1\n      pop\n        /* \"FreelanceMarketplace.sol\":9840:9872  address payable freelancerWallet */\n      0x00\n        /* \"FreelanceMarketplace.sol\":9875:9880  users */\n      0x01\n        /* \"FreelanceMarketplace.sol\":9875:9887  users[hired] */\n      0x00\n        /* \"FreelanceMarketplace.sol\":9881:9886  hired */\n      dup4\n        /* \"FreelanceMarketplace.sol\":9875:9887  users[hired] */\n      0xffffffffffffffffffffffffffffffffffffffff\n      and\n      0xffffffffffffffffffffffffffffffffffffffff\n      and\n      dup2\n      mstore\n      0x20\n      add\n      swap1\n      dup2\n      mstore\n      0x20\n      add\n      0x00\n      keccak256\n        /* \"FreelanceMarketplace.sol\":9875:9894  users[hired].wallet */\n      0x03\n      add\n      0x00\n      swap1\n      sload\n      swap1\n      0x0100\n      exp\n      swap1\n      div\n      0xffffffffffffffffffffffffffffffffffffffff\n      and\n        /* \"FreelanceMarketplace.sol\":9840:9894  address payable freelancerWallet = users[hired].wallet */\n      swap1\n      pop\n        /* \"FreelanceMarketplace.sol\":9907:9918  uint256 fee */\n      0x00\n        /* \"FreelanceMarketplace.sol\":9946:9964  JobStatus.Resolved */\n      0x05\n        /* \"FreelanceMarketplace.sol\":9935:9936  j */\n      dup7\n        /* \"FreelanceMarketplace.sol\":9935:9943  j.status */\n      0x06\n      add\n      0x00\n        /* \"FreelanceMarketplace.sol\":9935:9964  j.status = JobStatus.Resolved */\n      0x0100\n      exp\n      dup2\n      sload\n      dup2\n      0xff\n      mul\n      not\n      and\n      swap1\n      dup4\n      0x05\n      dup2\n      gt\n      iszero\n      tag_195\n      jumpi\n      tag_196\n      tag_132\n      jump\t// in\n    tag_196:\n    tag_195:\n      mul\n      or\n      swap1\n      sstore\n      pop\n        /* \"FreelanceMarketplace.sol\":9992:9993  0 */\n      0x00\n        /* \"FreelanceMarketplace.sol\":9975:9981  escrow */\n      0x04\n        /* \"FreelanceMarketplace.sol\":9975:9989  escrow[_jobId] */\n      0x00\n        /* \"FreelanceMarketplace.sol\":9982:9988  _jobId */\n      dup11\n        /* \"FreelanceMarketplace.sol\":9975:9989  escrow[_jobId] */\n      dup2\n      mstore\n      0x20\n      add\n      swap1\n      dup2\n      mstore\n      0x20\n      add\n      0x00\n      keccak256\n        /* \"FreelanceMarketplace.sol\":9975:9993  escrow[_jobId] = 0 */\n      dup2\n      swap1\n      sstore\n      pop\n        /* \"FreelanceMarketplace.sol\":10025:10031  amount */\n      dup5\n        /* \"FreelanceMarketplace.sol\":10004:10021  totalEscrowLocked */\n      0x05\n      0x00\n        /* \"FreelanceMarketplace.sol\":10004:10031  totalEscrowLocked -= amount */\n      dup3\n      dup3\n      sload\n      tag_197\n      swap2\n      swap1\n      tag_125\n      jump\t// in\n    tag_197:\n      swap3\n      pop\n      pop\n      dup2\n      swap1\n      sstore\n      pop\n        /* \"FreelanceMarketplace.sol\":10048:10062  _payFreelancer */\n      dup7\n        /* \"FreelanceMarketplace.sol\":10044:10685  if (_payFreelancer) {... */\n      iszero\n      tag_198\n      jumpi\n        /* \"FreelanceMarketplace.sol\":10085:10106  _calculateFee(amount) */\n      tag_199\n        /* \"FreelanceMarketplace.sol\":10099:10105  amount */\n      dup6\n        /* \"FreelanceMarketplace.sol\":10085:10098  _calculateFee */\n      tag_200\n        /* \"FreelanceMarketplace.sol\":10085:10106  _calculateFee(amount) */\n      jump\t// in\n    tag_199:\n        /* \"FreelanceMarketplace.sol\":10079:10106  fee = _calculateFee(amount) */\n      swap1\n      pop\n        /* \"FreelanceMarketplace.sol\":10121:10144  uint256 payToFreelancer */\n      0x00\n        /* \"FreelanceMarketplace.sol\":10156:10159  fee */\n      dup2\n        /* \"FreelanceMarketplace.sol\":10147:10153  amount */\n      dup7\n        /* \"FreelanceMarketplace.sol\":10147:10159  amount - fee */\n      tag_201\n      swap2\n      swap1\n      tag_125\n      jump\t// in\n    tag_201:\n        /* \"FreelanceMarketplace.sol\":10121:10159  uint256 payToFreelancer = amount - fee */\n      swap1\n      pop\n        /* \"FreelanceMarketplace.sol\":10177:10186  bool sent */\n      0x00\n        /* \"FreelanceMarketplace.sol\":10192:10208  freelancerWallet */\n      dup4\n        /* \"FreelanceMarketplace.sol\":10192:10213  freelancerWallet.call */\n      0xffffffffffffffffffffffffffffffffffffffff\n      and\n        /* \"FreelanceMarketplace.sol\":10221:10236  payToFreelancer */\n      dup3\n        /* \"FreelanceMarketplace.sol\":10192:10241  freelancerWallet.call{value: payToFreelancer}(\"\") */\n      mload(0x40)\n      tag_202\n      swap1\n      tag_203\n      jump\t// in\n    tag_202:\n      0x00\n      mload(0x40)\n      dup1\n      dup4\n      sub\n      dup2\n      dup6\n      dup8\n      gas\n      call\n      swap3\n      pop\n      pop\n      pop\n      returndatasize\n      dup1\n      0x00\n      dup2\n      eq\n      tag_206\n      jumpi\n      mload(0x40)\n      swap2\n      pop\n      and(add(returndatasize, 0x3f), not(0x1f))\n      dup3\n      add\n      0x40\n      mstore\n      returndatasize\n      dup3\n      mstore\n      returndatasize\n      0x00\n      0x20\n      dup5\n      add\n      returndatacopy\n      jump(tag_205)\n    tag_206:\n      0x60\n      swap2\n      pop\n    tag_205:\n      pop\n        /* \"FreelanceMarketplace.sol\":10176:10241  (bool sent, ) = freelancerWallet.call{value: payToFreelancer}(\"\") */\n      pop\n      swap1\n      pop\n        /* \"FreelanceMarketplace.sol\":10264:10268  sent */\n      dup1\n        /* \"FreelanceMarketplace.sol\":10256:10301  require(sent, \"Payment to freelancer failed\") */\n      tag_207\n      jumpi\n      mload(0x40)\n      0x08c379a000000000000000000000000000000000000000000000000000000000\n      dup2\n      mstore\n      0x04\n      add\n      tag_208\n      swap1\n      tag_209\n      jump\t// in\n    tag_208:\n      mload(0x40)\n      dup1\n      swap2\n      sub\n      swap1\n      revert\n    tag_207:\n        /* \"FreelanceMarketplace.sol\":10339:10345  _jobId */\n      dup10\n        /* \"FreelanceMarketplace.sol\":10323:10357  DisputeResolved(_jobId, true, fee) */\n      0x5add0b1fc2a3dfd95be33d1d5feb6709087e50213b7a73c3c3b2c387001221e7\n        /* \"FreelanceMarketplace.sol\":10347:10351  true */\n      0x01\n        /* \"FreelanceMarketplace.sol\":10353:10356  fee */\n      dup6\n        /* \"FreelanceMarketplace.sol\":10323:10357  DisputeResolved(_jobId, true, fee) */\n      mload(0x40)\n      tag_210\n      swap3\n      swap2\n      swap1\n      tag_211\n      jump\t// in\n    tag_210:\n      mload(0x40)\n      dup1\n      swap2\n      sub\n      swap1\n      log2\n        /* \"FreelanceMarketplace.sol\":10064:10369  {... */\n      pop\n      pop\n        /* \"FreelanceMarketplace.sol\":10044:10685  if (_payFreelancer) {... */\n      jump(tag_212)\n    tag_198:\n        /* \"FreelanceMarketplace.sol\":10391:10404  bool refunded */\n      0x00\n        /* \"FreelanceMarketplace.sol\":10410:10422  clientWallet */\n      dup5\n        /* \"FreelanceMarketplace.sol\":10410:10427  clientWallet.call */\n      0xffffffffffffffffffffffffffffffffffffffff\n      and\n        /* \"FreelanceMarketplace.sol\":10435:10441  amount */\n      dup7\n        /* \"FreelanceMarketplace.sol\":10410:10446  clientWallet.call{value: amount}(\"\") */\n      mload(0x40)\n      tag_213\n      swap1\n      tag_203\n      jump\t// in\n    tag_213:\n      0x00\n      mload(0x40)\n      dup1\n      dup4\n      sub\n      dup2\n      dup6\n      dup8\n      gas\n      call\n      swap3\n      pop\n      pop\n      pop\n      returndatasize\n      dup1\n      0x00\n      dup2\n      eq\n      tag_216\n      jumpi\n      mload(0x40)\n      swap2\n      pop\n      and(add(returndatasize, 0x3f), not(0x1f))\n      dup3\n      add\n      0x40\n      mstore\n      returndatasize\n      dup3\n      mstore\n      returndatasize\n      0x00\n      0x20\n      dup5\n      add\n      returndatacopy\n      jump(tag_215)\n    tag_216:\n      0x60\n      swap2\n      pop\n    tag_215:\n      pop\n        /* \"FreelanceMarketplace.sol\":10390:10446  (bool refunded, ) = clientWallet.call{value: amount}(\"\") */\n      pop\n      swap1\n      pop\n        /* \"FreelanceMarketplace.sol\":10469:10477  refunded */\n      dup1\n        /* \"FreelanceMarketplace.sol\":10461:10495  require(refunded, \"Refund failed\") */\n      tag_217\n      jumpi\n      mload(0x40)\n      0x08c379a000000000000000000000000000000000000000000000000000000000\n      dup2\n      mstore\n      0x04\n      add\n      tag_218\n      swap1\n      tag_219\n      jump\t// in\n    tag_218:\n      mload(0x40)\n      dup1\n      swap2\n      sub\n      swap1\n      revert\n    tag_217:\n        /* \"FreelanceMarketplace.sol\":10512:10523  uint256 rep */\n      0x00\n        /* \"FreelanceMarketplace.sol\":10526:10531  users */\n      0x01\n        /* \"FreelanceMarketplace.sol\":10526:10538  users[hired] */\n      0x00\n        /* \"FreelanceMarketplace.sol\":10532:10537  hired */\n      dup7\n        /* \"FreelanceMarketplace.sol\":10526:10538  users[hired] */\n      0xffffffffffffffffffffffffffffffffffffffff\n      and\n      0xffffffffffffffffffffffffffffffffffffffff\n      and\n      dup2\n      mstore\n      0x20\n      add\n      swap1\n      dup2\n      mstore\n      0x20\n      add\n      0x00\n      keccak256\n        /* \"FreelanceMarketplace.sol\":10526:10549  users[hired].reputation */\n      0x02\n      add\n      sload\n        /* \"FreelanceMarketplace.sol\":10512:10549  uint256 rep = users[hired].reputation */\n      swap1\n      pop\n        /* \"FreelanceMarketplace.sol\":10598:10600  20 */\n      0x14\n        /* \"FreelanceMarketplace.sol\":10591:10594  rep */\n      dup2\n        /* \"FreelanceMarketplace.sol\":10591:10600  rep >= 20 */\n      lt\n      iszero\n        /* \"FreelanceMarketplace.sol\":10590:10618  (rep >= 20) ? (rep - 20) : 0 */\n      tag_220\n      jumpi\n        /* \"FreelanceMarketplace.sol\":10617:10618  0 */\n      0x00\n        /* \"FreelanceMarketplace.sol\":10590:10618  (rep >= 20) ? (rep - 20) : 0 */\n      jump(tag_221)\n    tag_220:\n        /* \"FreelanceMarketplace.sol\":10611:10613  20 */\n      0x14\n        /* \"FreelanceMarketplace.sol\":10605:10608  rep */\n      dup2\n        /* \"FreelanceMarketplace.sol\":10605:10613  rep - 20 */\n      tag_222\n      swap2\n      swap1\n      tag_125\n      jump\t// in\n    tag_222:\n        /* \"FreelanceMarketplace.sol\":10590:10618  (rep >= 20) ? (rep - 20) : 0 */\n    tag_221:\n        /* \"FreelanceMarketplace.sol\":10564:10569  users */\n      0x01\n        /* \"FreelanceMarketplace.sol\":10564:10576  users[hired] */\n      0x00\n        /* \"FreelanceMarketplace.sol\":10570:10575  hired */\n      dup8\n        /* \"FreelanceMarketplace.sol\":10564:10576  users[hired] */\n      0xffffffffffffffffffffffffffffffffffffffff\n      and\n      0xffffffffffffffffffffffffffffffffffffffff\n      and\n      dup2\n      mstore\n      0x20\n      add\n      swap1\n      dup2\n      mstore\n      0x20\n      add\n      0x00\n      keccak256\n        /* \"FreelanceMarketplace.sol\":10564:10587  users[hired].reputation */\n      0x02\n      add\n        /* \"FreelanceMarketplace.sol\":10564:10618  users[hired].reputation = (rep >= 20) ? (rep - 20) : 0 */\n      dup2\n      swap1\n      sstore\n      pop\n        /* \"FreelanceMarketplace.sol\":10656:10662  _jobId */\n      dup10\n        /* \"FreelanceMarketplace.sol\":10640:10673  DisputeResolved(_jobId, false, 0) */\n      0x5add0b1fc2a3dfd95be33d1d5feb6709087e50213b7a73c3c3b2c387001221e7\n        /* \"FreelanceMarketplace.sol\":10664:10669  false */\n      0x00\n        /* \"FreelanceMarketplace.sol\":10671:10672  0 */\n      dup1\n        /* \"FreelanceMarketplace.sol\":10640:10673  DisputeResolved(_jobId, false, 0) */\n      mload(0x40)\n      tag_223\n      swap3\n      swap2\n      swap1\n      tag_224\n      jump\t// in\n    tag_223:\n      mload(0x40)\n      dup1\n      swap2\n      sub\n      swap1\n      log2\n        /* \"FreelanceMarketplace.sol\":10375:10685  {... */\n      pop\n      pop\n        /* \"FreelanceMarketplace.sol\":10044:10685  if (_payFreelancer) {... */\n    tag_212:\n        /* \"FreelanceMarketplace.sol\":9451:10692  {... */\n      pop\n      pop\n      pop\n      pop\n      pop\n      pop\n        /* \"FreelanceMarketplace.sol\":1372:1373  1 */\n      0x01\n        /* \"FreelanceMarketplace.sol\":1362:1369  _locked */\n      0x06\n        /* \"FreelanceMarketplace.sol\":1362:1373  _locked = 1 */\n      dup2\n      swap1\n      sstore\n      pop\n        /* \"FreelanceMarketplace.sol\":9356:10692  function resolveDispute(uint256 _jobId, bool _payFreelancer) external onlyArbiter nonReentrant {... */\n      pop\n      pop\n      jump\t// out\n        /* \"FreelanceMarketplace.sol\":7381:8476  function approveWork(uint256 _jobId) external onlyClient nonReentrant {... */\n    tag_48:\n        /* \"FreelanceMarketplace.sol\":2208:2213  users */\n      0x01\n        /* \"FreelanceMarketplace.sol\":2208:2225  users[msg.sender] */\n      0x00\n        /* \"FreelanceMarketplace.sol\":2214:2224  msg.sender */\n      caller\n        /* \"FreelanceMarketplace.sol\":2208:2225  users[msg.sender] */\n      0xffffffffffffffffffffffffffffffffffffffff\n      and\n      0xffffffffffffffffffffffffffffffffffffffff\n      and\n      dup2\n      mstore\n      0x20\n      add\n      swap1\n      dup2\n      mstore\n      0x20\n      add\n      0x00\n      keccak256\n        /* \"FreelanceMarketplace.sol\":2208:2236  users[msg.sender].registered */\n      0x03\n      add\n      0x14\n      swap1\n      sload\n      swap1\n      0x0100\n      exp\n      swap1\n      div\n      0xff\n      and\n        /* \"FreelanceMarketplace.sol\":2200:2255  require(users[msg.sender].registered, \"Not registered\") */\n      tag_226\n      jumpi\n      mload(0x40)\n      0x08c379a000000000000000000000000000000000000000000000000000000000\n      dup2\n      mstore\n      0x04\n      add\n      tag_227\n      swap1\n      tag_228\n      jump\t// in\n    tag_227:\n      mload(0x40)\n      dup1\n      swap2\n      sub\n      swap1\n      revert\n    tag_226:\n        /* \"FreelanceMarketplace.sol\":2300:2311  Role.Client */\n      0x01\n        /* \"FreelanceMarketplace.sol\":2274:2311  users[msg.sender].role == Role.Client */\n      0x02\n      dup2\n      gt\n      iszero\n      tag_229\n      jumpi\n      tag_230\n      tag_132\n      jump\t// in\n    tag_230:\n    tag_229:\n        /* \"FreelanceMarketplace.sol\":2274:2279  users */\n      0x01\n        /* \"FreelanceMarketplace.sol\":2274:2291  users[msg.sender] */\n      0x00\n        /* \"FreelanceMarketplace.sol\":2280:2290  msg.sender */\n      caller\n        /* \"FreelanceMarketplace.sol\":2274:2291  users[msg.sender] */\n      0xffffffffffffffffffffffffffffffffffffffff\n      and\n      0xffffffffffffffffffffffffffffffffffffffff\n      and\n      dup2\n      mstore\n      0x20\n      add\n      swap1\n      dup2\n      mstore\n      0x20\n      add\n      0x00\n      keccak256\n        /* \"FreelanceMarketplace.sol\":2274:2296  users[msg.sender].role */\n      0x01\n      add\n      0x00\n      swap1\n      sload\n      swap1\n      0x0100\n      exp\n      swap1\n      div\n      0xff\n      and\n        /* \"FreelanceMarketplace.sol\":2274:2311  users[msg.sender].role == Role.Client */\n      0x02\n      dup2\n      gt\n      iszero\n      tag_231\n      jumpi\n      tag_232\n      tag_132\n      jump\t// in\n    tag_232:\n    tag_231:\n      eq\n        /* \"FreelanceMarketplace.sol\":2266:2327  require(users[msg.sender].role == Role.Client, \"Only client\") */\n      tag_233\n      jumpi\n      mload(0x40)\n      0x08c379a000000000000000000000000000000000000000000000000000000000\n      dup2\n      mstore\n      0x04\n      add\n      tag_234\n      swap1\n      tag_235\n      jump\t// in\n    tag_234:\n      mload(0x40)\n      dup1\n      swap2\n      sub\n      swap1\n      revert\n    tag_233:\n        /* \"FreelanceMarketplace.sol\":1301:1302  1 */\n      0x01\n        /* \"FreelanceMarketplace.sol\":1290:1297  _locked */\n      sload(0x06)\n        /* \"FreelanceMarketplace.sol\":1290:1302  _locked == 1 */\n      eq\n        /* \"FreelanceMarketplace.sol\":1282:1317  require(_locked == 1, \"Reentrancy\") */\n      tag_237\n      jumpi\n      mload(0x40)\n      0x08c379a000000000000000000000000000000000000000000000000000000000\n      dup2\n      mstore\n      0x04\n      add\n      tag_238\n      swap1\n      tag_180\n      jump\t// in\n    tag_238:\n      mload(0x40)\n      dup1\n      swap2\n      sub\n      swap1\n      revert\n    tag_237:\n        /* \"FreelanceMarketplace.sol\":1338:1339  2 */\n      0x02\n        /* \"FreelanceMarketplace.sol\":1328:1335  _locked */\n      0x06\n        /* \"FreelanceMarketplace.sol\":1328:1339  _locked = 2 */\n      dup2\n      swap1\n      sstore\n      pop\n        /* \"FreelanceMarketplace.sol\":7462:7475  Job storage j */\n      0x00\n        /* \"FreelanceMarketplace.sol\":7478:7482  jobs */\n      0x02\n        /* \"FreelanceMarketplace.sol\":7478:7490  jobs[_jobId] */\n      0x00\n        /* \"FreelanceMarketplace.sol\":7483:7489  _jobId */\n      dup4\n        /* \"FreelanceMarketplace.sol\":7478:7490  jobs[_jobId] */\n      dup2\n      mstore\n      0x20\n      add\n      swap1\n      dup2\n      mstore\n      0x20\n      add\n      0x00\n      keccak256\n        /* \"FreelanceMarketplace.sol\":7462:7490  Job storage j = jobs[_jobId] */\n      swap1\n      pop\n        /* \"FreelanceMarketplace.sol\":7517:7518  0 */\n      0x00\n        /* \"FreelanceMarketplace.sol\":7509:7510  j */\n      dup2\n        /* \"FreelanceMarketplace.sol\":7509:7513  j.id */\n      0x00\n      add\n      sload\n        /* \"FreelanceMarketplace.sol\":7509:7518  j.id != 0 */\n      sub\n        /* \"FreelanceMarketplace.sol\":7501:7541  require(j.id != 0, \"Job does not exist\") */\n      tag_240\n      jumpi\n      mload(0x40)\n      0x08c379a000000000000000000000000000000000000000000000000000000000\n      dup2\n      mstore\n      0x04\n      add\n      tag_241\n      swap1\n      tag_184\n      jump\t// in\n    tag_241:\n      mload(0x40)\n      dup1\n      swap2\n      sub\n      swap1\n      revert\n    tag_240:\n        /* \"FreelanceMarketplace.sol\":7572:7582  msg.sender */\n      caller\n        /* \"FreelanceMarketplace.sol\":7560:7582  j.client == msg.sender */\n      0xffffffffffffffffffffffffffffffffffffffff\n      and\n        /* \"FreelanceMarketplace.sol\":7560:7561  j */\n      dup2\n        /* \"FreelanceMarketplace.sol\":7560:7568  j.client */\n      0x01\n      add\n      0x00\n      swap1\n      sload\n      swap1\n      0x0100\n      exp\n      swap1\n      div\n      0xffffffffffffffffffffffffffffffffffffffff\n      and\n        /* \"FreelanceMarketplace.sol\":7560:7582  j.client == msg.sender */\n      0xffffffffffffffffffffffffffffffffffffffff\n      and\n      eq\n        /* \"FreelanceMarketplace.sol\":7552:7599  require(j.client == msg.sender, \"Not your job\") */\n      tag_242\n      jumpi\n      mload(0x40)\n      0x08c379a000000000000000000000000000000000000000000000000000000000\n      dup2\n      mstore\n      0x04\n      add\n      tag_243\n      swap1\n      tag_244\n      jump\t// in\n    tag_243:\n      mload(0x40)\n      dup1\n      swap2\n      sub\n      swap1\n      revert\n    tag_242:\n        /* \"FreelanceMarketplace.sol\":7630:7649  JobStatus.Completed */\n      0x02\n        /* \"FreelanceMarketplace.sol\":7618:7649  j.status == JobStatus.Completed */\n      0x05\n      dup2\n      gt\n      iszero\n      tag_245\n      jumpi\n      tag_246\n      tag_132\n      jump\t// in\n    tag_246:\n    tag_245:\n        /* \"FreelanceMarketplace.sol\":7618:7619  j */\n      dup2\n        /* \"FreelanceMarketplace.sol\":7618:7626  j.status */\n      0x06\n      add\n      0x00\n      swap1\n      sload\n      swap1\n      0x0100\n      exp\n      swap1\n      div\n      0xff\n      and\n        /* \"FreelanceMarketplace.sol\":7618:7649  j.status == JobStatus.Completed */\n      0x05\n      dup2\n      gt\n      iszero\n      tag_247\n      jumpi\n      tag_248\n      tag_132\n      jump\t// in\n    tag_248:\n    tag_247:\n      eq\n        /* \"FreelanceMarketplace.sol\":7610:7671  require(j.status == JobStatus.Completed, \"Job not completed\") */\n      tag_249\n      jumpi\n      mload(0x40)\n      0x08c379a000000000000000000000000000000000000000000000000000000000\n      dup2\n      mstore\n      0x04\n      add\n      tag_250\n      swap1\n      tag_251\n      jump\t// in\n    tag_250:\n      mload(0x40)\n      dup1\n      swap2\n      sub\n      swap1\n      revert\n    tag_249:\n        /* \"FreelanceMarketplace.sol\":7691:7692  j */\n      dup1\n        /* \"FreelanceMarketplace.sol\":7691:7701  j.disputed */\n      0x08\n      add\n      0x02\n      swap1\n      sload\n      swap1\n      0x0100\n      exp\n      swap1\n      div\n      0xff\n      and\n        /* \"FreelanceMarketplace.sol\":7690:7701  !j.disputed */\n      iszero\n        /* \"FreelanceMarketplace.sol\":7682:7718  require(!j.disputed, \"Job disputed\") */\n      tag_252\n      jumpi\n      mload(0x40)\n      0x08c379a000000000000000000000000000000000000000000000000000000000\n      dup2\n      mstore\n      0x04\n      add\n      tag_253\n      swap1\n      tag_254\n      jump\t// in\n    tag_253:\n      mload(0x40)\n      dup1\n      swap2\n      sub\n      swap1\n      revert\n    tag_252:\n        /* \"FreelanceMarketplace.sol\":7737:7738  j */\n      dup1\n        /* \"FreelanceMarketplace.sol\":7737:7759  j.freelancerMarkedDone */\n      0x08\n      add\n      0x00\n      swap1\n      sload\n      swap1\n      0x0100\n      exp\n      swap1\n      div\n      0xff\n      and\n        /* \"FreelanceMarketplace.sol\":7729:7790  require(j.freelancerMarkedDone, \"Freelancer not marked done\") */\n      tag_255\n      jumpi\n      mload(0x40)\n      0x08c379a000000000000000000000000000000000000000000000000000000000\n      dup2\n      mstore\n      0x04\n      add\n      tag_256\n      swap1\n      tag_257\n      jump\t// in\n    tag_256:\n      mload(0x40)\n      dup1\n      swap2\n      sub\n      swap1\n      revert\n    tag_255:\n        /* \"FreelanceMarketplace.sol\":7803:7817  uint256 amount */\n      0x00\n        /* \"FreelanceMarketplace.sol\":7820:7821  j */\n      dup2\n        /* \"FreelanceMarketplace.sol\":7820:7839  j.acceptedBidAmount */\n      0x07\n      add\n      sload\n        /* \"FreelanceMarketplace.sol\":7803:7839  uint256 amount = j.acceptedBidAmount */\n      swap1\n      pop\n        /* \"FreelanceMarketplace.sol\":7876:7882  amount */\n      dup1\n        /* \"FreelanceMarketplace.sol\":7858:7864  escrow */\n      0x04\n        /* \"FreelanceMarketplace.sol\":7858:7872  escrow[_jobId] */\n      0x00\n        /* \"FreelanceMarketplace.sol\":7865:7871  _jobId */\n      dup6\n        /* \"FreelanceMarketplace.sol\":7858:7872  escrow[_jobId] */\n      dup2\n      mstore\n      0x20\n      add\n      swap1\n      dup2\n      mstore\n      0x20\n      add\n      0x00\n      keccak256\n      sload\n        /* \"FreelanceMarketplace.sol\":7858:7882  escrow[_jobId] == amount */\n      eq\n        /* \"FreelanceMarketplace.sol\":7850:7903  require(escrow[_jobId] == amount, \"Escrow not found\") */\n      tag_258\n      jumpi\n      mload(0x40)\n      0x08c379a000000000000000000000000000000000000000000000000000000000\n      dup2\n      mstore\n      0x04\n      add\n      tag_259\n      swap1\n      tag_194\n      jump\t// in\n    tag_259:\n      mload(0x40)\n      dup1\n      swap2\n      sub\n      swap1\n      revert\n    tag_258:\n        /* \"FreelanceMarketplace.sol\":7916:7927  uint256 fee */\n      0x00\n        /* \"FreelanceMarketplace.sol\":7930:7951  _calculateFee(amount) */\n      tag_260\n        /* \"FreelanceMarketplace.sol\":7944:7950  amount */\n      dup3\n        /* \"FreelanceMarketplace.sol\":7930:7943  _calculateFee */\n      tag_200\n        /* \"FreelanceMarketplace.sol\":7930:7951  _calculateFee(amount) */\n      jump\t// in\n    tag_260:\n        /* \"FreelanceMarketplace.sol\":7916:7951  uint256 fee = _calculateFee(amount) */\n      swap1\n      pop\n        /* \"FreelanceMarketplace.sol\":7962:7985  uint256 payToFreelancer */\n      0x00\n        /* \"FreelanceMarketplace.sol\":7997:8000  fee */\n      dup2\n        /* \"FreelanceMarketplace.sol\":7988:7994  amount */\n      dup4\n        /* \"FreelanceMarketplace.sol\":7988:8000  amount - fee */\n      tag_261\n      swap2\n      swap1\n      tag_125\n      jump\t// in\n    tag_261:\n        /* \"FreelanceMarketplace.sol\":7962:8000  uint256 payToFreelancer = amount - fee */\n      swap1\n      pop\n        /* \"FreelanceMarketplace.sol\":8032:8036  true */\n      0x01\n        /* \"FreelanceMarketplace.sol\":8013:8014  j */\n      dup5\n        /* \"FreelanceMarketplace.sol\":8013:8029  j.clientApproved */\n      0x08\n      add\n      0x01\n        /* \"FreelanceMarketplace.sol\":8013:8036  j.clientApproved = true */\n      0x0100\n      exp\n      dup2\n      sload\n      dup2\n      0xff\n      mul\n      not\n      and\n      swap1\n      dup4\n      iszero\n      iszero\n      mul\n      or\n      swap1\n      sstore\n      pop\n        /* \"FreelanceMarketplace.sol\":8058:8074  JobStatus.Closed */\n      0x03\n        /* \"FreelanceMarketplace.sol\":8047:8048  j */\n      dup5\n        /* \"FreelanceMarketplace.sol\":8047:8055  j.status */\n      0x06\n      add\n      0x00\n        /* \"FreelanceMarketplace.sol\":8047:8074  j.status = JobStatus.Closed */\n      0x0100\n      exp\n      dup2\n      sload\n      dup2\n      0xff\n      mul\n      not\n      and\n      swap1\n      dup4\n      0x05\n      dup2\n      gt\n      iszero\n      tag_262\n      jumpi\n      tag_263\n      tag_132\n      jump\t// in\n    tag_263:\n    tag_262:\n      mul\n      or\n      swap1\n      sstore\n      pop\n        /* \"FreelanceMarketplace.sol\":8104:8105  0 */\n      0x00\n        /* \"FreelanceMarketplace.sol\":8087:8093  escrow */\n      0x04\n        /* \"FreelanceMarketplace.sol\":8087:8101  escrow[_jobId] */\n      0x00\n        /* \"FreelanceMarketplace.sol\":8094:8100  _jobId */\n      dup8\n        /* \"FreelanceMarketplace.sol\":8087:8101  escrow[_jobId] */\n      dup2\n      mstore\n      0x20\n      add\n      swap1\n      dup2\n      mstore\n      0x20\n      add\n      0x00\n      keccak256\n        /* \"FreelanceMarketplace.sol\":8087:8105  escrow[_jobId] = 0 */\n      dup2\n      swap1\n      sstore\n      pop\n        /* \"FreelanceMarketplace.sol\":8137:8143  amount */\n      dup3\n        /* \"FreelanceMarketplace.sol\":8116:8133  totalEscrowLocked */\n      0x05\n      0x00\n        /* \"FreelanceMarketplace.sol\":8116:8143  totalEscrowLocked -= amount */\n      dup3\n      dup3\n      sload\n      tag_264\n      swap2\n      swap1\n      tag_125\n      jump\t// in\n    tag_264:\n      swap3\n      pop\n      pop\n      dup2\n      swap1\n      sstore\n      pop\n        /* \"FreelanceMarketplace.sol\":8156:8188  address payable freelancerWallet */\n      0x00\n        /* \"FreelanceMarketplace.sol\":8191:8196  users */\n      0x01\n        /* \"FreelanceMarketplace.sol\":8191:8215  users[j.hiredFreelancer] */\n      0x00\n        /* \"FreelanceMarketplace.sol\":8197:8198  j */\n      dup7\n        /* \"FreelanceMarketplace.sol\":8197:8214  j.hiredFreelancer */\n      0x06\n      add\n      0x01\n      swap1\n      sload\n      swap1\n      0x0100\n      exp\n      swap1\n      div\n      0xffffffffffffffffffffffffffffffffffffffff\n      and\n        /* \"FreelanceMarketplace.sol\":8191:8215  users[j.hiredFreelancer] */\n      0xffffffffffffffffffffffffffffffffffffffff\n      and\n      0xffffffffffffffffffffffffffffffffffffffff\n      and\n      dup2\n      mstore\n      0x20\n      add\n      swap1\n      dup2\n      mstore\n      0x20\n      add\n      0x00\n      keccak256\n        /* \"FreelanceMarketplace.sol\":8191:8222  users[j.hiredFreelancer].wallet */\n      0x03\n      add\n      0x00\n      swap1\n      sload\n      swap1\n      0x0100\n      exp\n      swap1\n      div\n      0xffffffffffffffffffffffffffffffffffffffff\n      and\n        /* \"FreelanceMarketplace.sol\":8156:8222  address payable freelancerWallet = users[j.hiredFreelancer].wallet */\n      swap1\n      pop\n        /* \"FreelanceMarketplace.sol\":8234:8243  bool sent */\n      0x00\n        /* \"FreelanceMarketplace.sol\":8249:8265  freelancerWallet */\n      dup2\n        /* \"FreelanceMarketplace.sol\":8249:8270  freelancerWallet.call */\n      0xffffffffffffffffffffffffffffffffffffffff\n      and\n        /* \"FreelanceMarketplace.sol\":8278:8293  payToFreelancer */\n      dup4\n        /* \"FreelanceMarketplace.sol\":8249:8298  freelancerWallet.call{value: payToFreelancer}(\"\") */\n      mload(0x40)\n      tag_265\n      swap1\n      tag_203\n      jump\t// in\n    tag_265:\n      0x00\n      mload(0x40)\n      dup1\n      dup4\n      sub\n      dup2\n      dup6\n      dup8\n      gas\n      call\n      swap3\n      pop\n      pop\n      pop\n      returndatasize\n      dup1\n      0x00\n      dup2\n      eq\n      tag_268\n      jumpi\n      mload(0x40)\n      swap2\n      pop\n      and(add(returndatasize, 0x3f), not(0x1f))\n      dup3\n      add\n      0x40\n      mstore\n      returndatasize\n      dup3\n      mstore\n      returndatasize\n      0x00\n      0x20\n      dup5\n      add\n      returndatacopy\n      jump(tag_267)\n    tag_268:\n      0x60\n      swap2\n      pop\n    tag_267:\n      pop\n        /* \"FreelanceMarketplace.sol\":8233:8298  (bool sent, ) = freelancerWallet.call{value: payToFreelancer}(\"\") */\n      pop\n      swap1\n      pop\n        /* \"FreelanceMarketplace.sol\":8317:8321  sent */\n      dup1\n        /* \"FreelanceMarketplace.sol\":8309:8354  require(sent, \"Payment to freelancer failed\") */\n      tag_269\n      jumpi\n      mload(0x40)\n      0x08c379a000000000000000000000000000000000000000000000000000000000\n      dup2\n      mstore\n      0x04\n      add\n      tag_270\n      swap1\n      tag_209\n      jump\t// in\n    tag_270:\n      mload(0x40)\n      dup1\n      swap2\n      sub\n      swap1\n      revert\n    tag_269:\n        /* \"FreelanceMarketplace.sol\":8406:8408  10 */\n      0x0a\n        /* \"FreelanceMarketplace.sol\":8367:8372  users */\n      0x01\n        /* \"FreelanceMarketplace.sol\":8367:8391  users[j.hiredFreelancer] */\n      0x00\n        /* \"FreelanceMarketplace.sol\":8373:8374  j */\n      dup9\n        /* \"FreelanceMarketplace.sol\":8373:8390  j.hiredFreelancer */\n      0x06\n      add\n      0x01\n      swap1\n      sload\n      swap1\n      0x0100\n      exp\n      swap1\n      div\n      0xffffffffffffffffffffffffffffffffffffffff\n      and\n        /* \"FreelanceMarketplace.sol\":8367:8391  users[j.hiredFreelancer] */\n      0xffffffffffffffffffffffffffffffffffffffff\n      and\n      0xffffffffffffffffffffffffffffffffffffffff\n      and\n      dup2\n      mstore\n      0x20\n      add\n      swap1\n      dup2\n      mstore\n      0x20\n      add\n      0x00\n      keccak256\n        /* \"FreelanceMarketplace.sol\":8367:8402  users[j.hiredFreelancer].reputation */\n      0x02\n      add\n      0x00\n        /* \"FreelanceMarketplace.sol\":8367:8408  users[j.hiredFreelancer].reputation += 10 */\n      dup3\n      dup3\n      sload\n      tag_271\n      swap2\n      swap1\n      tag_272\n      jump\t// in\n    tag_271:\n      swap3\n      pop\n      pop\n      dup2\n      swap1\n      sstore\n      pop\n        /* \"FreelanceMarketplace.sol\":8439:8445  _jobId */\n      dup7\n        /* \"FreelanceMarketplace.sol\":8426:8468  WorkApproved(_jobId, payToFreelancer, fee) */\n      0x4ecfa7abb1768ddb7f787b2da365d7269fc2d6b38c3bfcf05525b41bd5a35cb9\n        /* \"FreelanceMarketplace.sol\":8447:8462  payToFreelancer */\n      dup5\n        /* \"FreelanceMarketplace.sol\":8464:8467  fee */\n      dup7\n        /* \"FreelanceMarketplace.sol\":8426:8468  WorkApproved(_jobId, payToFreelancer, fee) */\n      mload(0x40)\n      tag_273\n      swap3\n      swap2\n      swap1\n      tag_274\n      jump\t// in\n    tag_273:\n      mload(0x40)\n      dup1\n      swap2\n      sub\n      swap1\n      log2\n        /* \"FreelanceMarketplace.sol\":7451:8476  {... */\n      pop\n      pop\n      pop\n      pop\n      pop\n      pop\n        /* \"FreelanceMarketplace.sol\":1372:1373  1 */\n      0x01\n        /* \"FreelanceMarketplace.sol\":1362:1369  _locked */\n      0x06\n        /* \"FreelanceMarketplace.sol\":1362:1373  _locked = 1 */\n      dup2\n      swap1\n      sstore\n      pop\n        /* \"FreelanceMarketplace.sol\":7381:8476  function approveWork(uint256 _jobId) external onlyClient nonReentrant {... */\n      pop\n      jump\t// out\n        /* \"FreelanceMarketplace.sol\":919:944  uint256 public jobCounter */\n    tag_51:\n      sload(0x00)\n      dup2\n      jump\t// out\n        /* \"FreelanceMarketplace.sol\":3369:3559  function getBid(uint256 jobId, uint256 index) external view returns (Bid memory) {... */\n    tag_57:\n        /* \"FreelanceMarketplace.sol\":3438:3448  Bid memory */\n      tag_275\n      tag_276\n      jump\t// in\n    tag_275:\n        /* \"FreelanceMarketplace.sol\":3477:3484  jobBids */\n      0x03\n        /* \"FreelanceMarketplace.sol\":3477:3491  jobBids[jobId] */\n      0x00\n        /* \"FreelanceMarketplace.sol\":3485:3490  jobId */\n      dup5\n        /* \"FreelanceMarketplace.sol\":3477:3491  jobBids[jobId] */\n      dup2\n      mstore\n      0x20\n      add\n      swap1\n      dup2\n      mstore\n      0x20\n      add\n      0x00\n      keccak256\n        /* \"FreelanceMarketplace.sol\":3477:3498  jobBids[jobId].length */\n      dup1\n      sload\n      swap1\n      pop\n        /* \"FreelanceMarketplace.sol\":3469:3474  index */\n      dup3\n        /* \"FreelanceMarketplace.sol\":3469:3498  index < jobBids[jobId].length */\n      lt\n        /* \"FreelanceMarketplace.sol\":3461:3512  require(index < jobBids[jobId].length, \"Bad index\") */\n      tag_278\n      jumpi\n      mload(0x40)\n      0x08c379a000000000000000000000000000000000000000000000000000000000\n      dup2\n      mstore\n      0x04\n      add\n      tag_279\n      swap1\n      tag_280\n      jump\t// in\n    tag_279:\n      mload(0x40)\n      dup1\n      swap2\n      sub\n      swap1\n      revert\n    tag_278:\n        /* \"FreelanceMarketplace.sol\":3530:3537  jobBids */\n      0x03\n        /* \"FreelanceMarketplace.sol\":3530:3544  jobBids[jobId] */\n      0x00\n        /* \"FreelanceMarketplace.sol\":3538:3543  jobId */\n      dup5\n        /* \"FreelanceMarketplace.sol\":3530:3544  jobBids[jobId] */\n      dup2\n      mstore\n      0x20\n      add\n      swap1\n      dup2\n      mstore\n      0x20\n      add\n      0x00\n      keccak256\n        /* \"FreelanceMarketplace.sol\":3545:3550  index */\n      dup3\n        /* \"FreelanceMarketplace.sol\":3530:3551  jobBids[jobId][index] */\n      dup2\n      sload\n      dup2\n      lt\n      tag_281\n      jumpi\n      tag_282\n      tag_283\n      jump\t// in\n    tag_282:\n    tag_281:\n      swap1\n      0x00\n      mstore\n      keccak256(0x00, 0x20)\n      swap1\n      0x04\n      mul\n      add\n        /* \"FreelanceMarketplace.sol\":3523:3551  return jobBids[jobId][index] */\n      mload(0x40)\n      dup1\n      0x80\n      add\n      0x40\n      mstore\n      swap1\n      dup2\n      0x00\n      dup3\n      add\n      0x00\n      swap1\n      sload\n      swap1\n      0x0100\n      exp\n      swap1\n      div\n      0xffffffffffffffffffffffffffffffffffffffff\n      and\n      0xffffffffffffffffffffffffffffffffffffffff\n      and\n      0xffffffffffffffffffffffffffffffffffffffff\n      and\n      dup2\n      mstore\n      0x20\n      add\n      0x01\n      dup3\n      add\n      sload\n      dup2\n      mstore\n      0x20\n      add\n      0x02\n      dup3\n      add\n      sload\n      dup2\n      mstore\n      0x20\n      add\n      0x03\n      dup3\n      add\n      0x00\n      swap1\n      sload\n      swap1\n      0x0100\n      exp\n      swap1\n      div\n      0xff\n      and\n      iszero\n      iszero\n      iszero\n      iszero\n      dup2\n      mstore\n      pop\n      pop\n      swap1\n      pop\n        /* \"FreelanceMarketplace.sol\":3369:3559  function getBid(uint256 jobId, uint256 index) external view returns (Bid memory) {... */\n      swap3\n      swap2\n      pop\n      pop\n      jump\t// out\n        /* \"FreelanceMarketplace.sol\":5361:6064  function placeBid(uint256 _jobId, uint256 _amountWei, uint256 _proposedTime) external onlyFreelancer {... */\n    tag_64:\n        /* \"FreelanceMarketplace.sol\":2400:2405  users */\n      0x01\n        /* \"FreelanceMarketplace.sol\":2400:2417  users[msg.sender] */\n      0x00\n        /* \"FreelanceMarketplace.sol\":2406:2416  msg.sender */\n      caller\n        /* \"FreelanceMarketplace.sol\":2400:2417  users[msg.sender] */\n      0xffffffffffffffffffffffffffffffffffffffff\n      and\n      0xffffffffffffffffffffffffffffffffffffffff\n      and\n      dup2\n      mstore\n      0x20\n      add\n      swap1\n      dup2\n      mstore\n      0x20\n      add\n      0x00\n      keccak256\n        /* \"FreelanceMarketplace.sol\":2400:2428  users[msg.sender].registered */\n      0x03\n      add\n      0x14\n      swap1\n      sload\n      swap1\n      0x0100\n      exp\n      swap1\n      div\n      0xff\n      and\n        /* \"FreelanceMarketplace.sol\":2392:2447  require(users[msg.sender].registered, \"Not registered\") */\n      tag_286\n      jumpi\n      mload(0x40)\n      0x08c379a000000000000000000000000000000000000000000000000000000000\n      dup2\n      mstore\n      0x04\n      add\n      tag_287\n      swap1\n      tag_228\n      jump\t// in\n    tag_287:\n      mload(0x40)\n      dup1\n      swap2\n      sub\n      swap1\n      revert\n    tag_286:\n        /* \"FreelanceMarketplace.sol\":2492:2507  Role.Freelancer */\n      0x02\n        /* \"FreelanceMarketplace.sol\":2466:2507  users[msg.sender].role == Role.Freelancer */\n      dup1\n      dup2\n      gt\n      iszero\n      tag_288\n      jumpi\n      tag_289\n      tag_132\n      jump\t// in\n    tag_289:\n    tag_288:\n        /* \"FreelanceMarketplace.sol\":2466:2471  users */\n      0x01\n        /* \"FreelanceMarketplace.sol\":2466:2483  users[msg.sender] */\n      0x00\n        /* \"FreelanceMarketplace.sol\":2472:2482  msg.sender */\n      caller\n        /* \"FreelanceMarketplace.sol\":2466:2483  users[msg.sender] */\n      0xffffffffffffffffffffffffffffffffffffffff\n      and\n      0xffffffffffffffffffffffffffffffffffffffff\n      and\n      dup2\n      mstore\n      0x20\n      add\n      swap1\n      dup2\n      mstore\n      0x20\n      add\n      0x00\n      keccak256\n        /* \"FreelanceMarketplace.sol\":2466:2488  users[msg.sender].role */\n      0x01\n      add\n      0x00\n      swap1\n      sload\n      swap1\n      0x0100\n      exp\n      swap1\n      div\n      0xff\n      and\n        /* \"FreelanceMarketplace.sol\":2466:2507  users[msg.sender].role == Role.Freelancer */\n      0x02\n      dup2\n      gt\n      iszero\n      tag_290\n      jumpi\n      tag_291\n      tag_132\n      jump\t// in\n    tag_291:\n    tag_290:\n      eq\n        /* \"FreelanceMarketplace.sol\":2458:2527  require(users[msg.sender].role == Role.Freelancer, \"Only freelancer\") */\n      tag_292\n      jumpi\n      mload(0x40)\n      0x08c379a000000000000000000000000000000000000000000000000000000000\n      dup2\n      mstore\n      0x04\n      add\n      tag_293\n      swap1\n      tag_294\n      jump\t// in\n    tag_293:\n      mload(0x40)\n      dup1\n      swap2\n      sub\n      swap1\n      revert\n    tag_292:\n        /* \"FreelanceMarketplace.sol\":5473:5486  Job storage j */\n      0x00\n        /* \"FreelanceMarketplace.sol\":5489:5493  jobs */\n      0x02\n        /* \"FreelanceMarketplace.sol\":5489:5501  jobs[_jobId] */\n      0x00\n        /* \"FreelanceMarketplace.sol\":5494:5500  _jobId */\n      dup6\n        /* \"FreelanceMarketplace.sol\":5489:5501  jobs[_jobId] */\n      dup2\n      mstore\n      0x20\n      add\n      swap1\n      dup2\n      mstore\n      0x20\n      add\n      0x00\n      keccak256\n        /* \"FreelanceMarketplace.sol\":5473:5501  Job storage j = jobs[_jobId] */\n      swap1\n      pop\n        /* \"FreelanceMarketplace.sol\":5528:5529  0 */\n      0x00\n        /* \"FreelanceMarketplace.sol\":5520:5521  j */\n      dup2\n        /* \"FreelanceMarketplace.sol\":5520:5524  j.id */\n      0x00\n      add\n      sload\n        /* \"FreelanceMarketplace.sol\":5520:5529  j.id != 0 */\n      sub\n        /* \"FreelanceMarketplace.sol\":5512:5552  require(j.id != 0, \"Job does not exist\") */\n      tag_296\n      jumpi\n      mload(0x40)\n      0x08c379a000000000000000000000000000000000000000000000000000000000\n      dup2\n      mstore\n      0x04\n      add\n      tag_297\n      swap1\n      tag_184\n      jump\t// in\n    tag_297:\n      mload(0x40)\n      dup1\n      swap2\n      sub\n      swap1\n      revert\n    tag_296:\n        /* \"FreelanceMarketplace.sol\":5583:5597  JobStatus.Open */\n      0x00\n        /* \"FreelanceMarketplace.sol\":5571:5597  j.status == JobStatus.Open */\n      0x05\n      dup2\n      gt\n      iszero\n      tag_298\n      jumpi\n      tag_299\n      tag_132\n      jump\t// in\n    tag_299:\n    tag_298:\n        /* \"FreelanceMarketplace.sol\":5571:5572  j */\n      dup2\n        /* \"FreelanceMarketplace.sol\":5571:5579  j.status */\n      0x06\n      add\n      0x00\n      swap1\n      sload\n      swap1\n      0x0100\n      exp\n      swap1\n      div\n      0xff\n      and\n        /* \"FreelanceMarketplace.sol\":5571:5597  j.status == JobStatus.Open */\n      0x05\n      dup2\n      gt\n      iszero\n      tag_300\n      jumpi\n      tag_301\n      tag_132\n      jump\t// in\n    tag_301:\n    tag_300:\n      eq\n        /* \"FreelanceMarketplace.sol\":5563:5614  require(j.status == JobStatus.Open, \"Job not open\") */\n      tag_302\n      jumpi\n      mload(0x40)\n      0x08c379a000000000000000000000000000000000000000000000000000000000\n      dup2\n      mstore\n      0x04\n      add\n      tag_303\n      swap1\n      tag_304\n      jump\t// in\n    tag_303:\n      mload(0x40)\n      dup1\n      swap2\n      sub\n      swap1\n      revert\n    tag_302:\n        /* \"FreelanceMarketplace.sol\":5646:5647  0 */\n      0x00\n        /* \"FreelanceMarketplace.sol\":5633:5643  _amountWei */\n      dup4\n        /* \"FreelanceMarketplace.sol\":5633:5647  _amountWei > 0 */\n      gt\n        /* \"FreelanceMarketplace.sol\":5625:5667  require(_amountWei > 0, \"Bid must be > 0\") */\n      tag_305\n      jumpi\n      mload(0x40)\n      0x08c379a000000000000000000000000000000000000000000000000000000000\n      dup2\n      mstore\n      0x04\n      add\n      tag_306\n      swap1\n      tag_307\n      jump\t// in\n    tag_306:\n      mload(0x40)\n      dup1\n      swap2\n      sub\n      swap1\n      revert\n    tag_305:\n        /* \"FreelanceMarketplace.sol\":5700:5701  j */\n      dup1\n        /* \"FreelanceMarketplace.sol\":5700:5708  j.budget */\n      0x04\n      add\n      sload\n        /* \"FreelanceMarketplace.sol\":5686:5696  _amountWei */\n      dup4\n        /* \"FreelanceMarketplace.sol\":5686:5708  _amountWei <= j.budget */\n      gt\n      iszero\n        /* \"FreelanceMarketplace.sol\":5678:5731  require(_amountWei <= j.budget, \"Bid exceeds budget\") */\n      tag_308\n      jumpi\n      mload(0x40)\n      0x08c379a000000000000000000000000000000000000000000000000000000000\n      dup2\n      mstore\n      0x04\n      add\n      tag_309\n      swap1\n      tag_310\n      jump\t// in\n    tag_309:\n      mload(0x40)\n      dup1\n      swap2\n      sub\n      swap1\n      revert\n    tag_308:\n        /* \"FreelanceMarketplace.sol\":5782:5784  50 */\n      0x32\n        /* \"FreelanceMarketplace.sol\":5750:5755  users */\n      0x01\n        /* \"FreelanceMarketplace.sol\":5750:5767  users[msg.sender] */\n      0x00\n        /* \"FreelanceMarketplace.sol\":5756:5766  msg.sender */\n      caller\n        /* \"FreelanceMarketplace.sol\":5750:5767  users[msg.sender] */\n      0xffffffffffffffffffffffffffffffffffffffff\n      and\n      0xffffffffffffffffffffffffffffffffffffffff\n      and\n      dup2\n      mstore\n      0x20\n      add\n      swap1\n      dup2\n      mstore\n      0x20\n      add\n      0x00\n      keccak256\n        /* \"FreelanceMarketplace.sol\":5750:5778  users[msg.sender].reputation */\n      0x02\n      add\n      sload\n        /* \"FreelanceMarketplace.sol\":5750:5784  users[msg.sender].reputation >= 50 */\n      lt\n      iszero\n        /* \"FreelanceMarketplace.sol\":5742:5807  require(users[msg.sender].reputation >= 50, \"Reputation too low\") */\n      tag_311\n      jumpi\n      mload(0x40)\n      0x08c379a000000000000000000000000000000000000000000000000000000000\n      dup2\n      mstore\n      0x04\n      add\n      tag_312\n      swap1\n      tag_313\n      jump\t// in\n    tag_312:\n      mload(0x40)\n      dup1\n      swap2\n      sub\n      swap1\n      revert\n    tag_311:\n        /* \"FreelanceMarketplace.sol\":5820:5827  jobBids */\n      0x03\n        /* \"FreelanceMarketplace.sol\":5820:5835  jobBids[_jobId] */\n      0x00\n        /* \"FreelanceMarketplace.sol\":5828:5834  _jobId */\n      dup6\n        /* \"FreelanceMarketplace.sol\":5820:5835  jobBids[_jobId] */\n      dup2\n      mstore\n      0x20\n      add\n      swap1\n      dup2\n      mstore\n      0x20\n      add\n      0x00\n      keccak256\n        /* \"FreelanceMarketplace.sol\":5841:5996  Bid({... */\n      mload(0x40)\n      dup1\n      0x80\n      add\n      0x40\n      mstore\n      dup1\n        /* \"FreelanceMarketplace.sol\":5872:5882  msg.sender */\n      caller\n        /* \"FreelanceMarketplace.sol\":5841:5996  Bid({... */\n      0xffffffffffffffffffffffffffffffffffffffff\n      and\n      dup2\n      mstore\n      0x20\n      add\n        /* \"FreelanceMarketplace.sol\":5905:5915  _amountWei */\n      dup6\n        /* \"FreelanceMarketplace.sol\":5841:5996  Bid({... */\n      dup2\n      mstore\n      0x20\n      add\n        /* \"FreelanceMarketplace.sol\":5944:5957  _proposedTime */\n      dup5\n        /* \"FreelanceMarketplace.sol\":5841:5996  Bid({... */\n      dup2\n      mstore\n      0x20\n      add\n        /* \"FreelanceMarketplace.sol\":5980:5984  true */\n      0x01\n        /* \"FreelanceMarketplace.sol\":5841:5996  Bid({... */\n      iszero\n      iszero\n      dup2\n      mstore\n      pop\n        /* \"FreelanceMarketplace.sol\":5820:5997  jobBids[_jobId].push(Bid({... */\n      swap1\n      dup1\n      0x01\n      dup2\n      sload\n      add\n      dup1\n      dup3\n      sstore\n      dup1\n      swap2\n      pop\n      pop\n      0x01\n      swap1\n      sub\n      swap1\n      0x00\n      mstore\n      keccak256(0x00, 0x20)\n      swap1\n      0x04\n      mul\n      add\n      0x00\n      swap1\n      swap2\n      swap1\n      swap2\n      swap1\n      swap2\n      pop\n      0x00\n      dup3\n      add\n      mload\n      dup2\n      0x00\n      add\n      exp(0x0100, 0x00)\n      dup2\n      sload\n      dup2\n      0xffffffffffffffffffffffffffffffffffffffff\n      mul\n      not\n      and\n      swap1\n      dup4\n      0xffffffffffffffffffffffffffffffffffffffff\n      and\n      mul\n      or\n      swap1\n      sstore\n      pop\n      0x20\n      dup3\n      add\n      mload\n      dup2\n      0x01\n      add\n      sstore\n      0x40\n      dup3\n      add\n      mload\n      dup2\n      0x02\n      add\n      sstore\n      0x60\n      dup3\n      add\n      mload\n      dup2\n      0x03\n      add\n      exp(0x0100, 0x00)\n      dup2\n      sload\n      dup2\n      0xff\n      mul\n      not\n      and\n      swap1\n      dup4\n      iszero\n      iszero\n      mul\n      or\n      swap1\n      sstore\n      pop\n      pop\n      pop\n        /* \"FreelanceMarketplace.sol\":6033:6043  msg.sender */\n      caller\n        /* \"FreelanceMarketplace.sol\":6015:6056  BidPlaced(_jobId, msg.sender, _amountWei) */\n      0xffffffffffffffffffffffffffffffffffffffff\n      and\n        /* \"FreelanceMarketplace.sol\":6025:6031  _jobId */\n      dup5\n        /* \"FreelanceMarketplace.sol\":6015:6056  BidPlaced(_jobId, msg.sender, _amountWei) */\n      0x0e54eff26401bf69b81b26f60bd85ef47f5d85275c1d268d84f68d6897431c47\n        /* \"FreelanceMarketplace.sol\":6045:6055  _amountWei */\n      dup6\n        /* \"FreelanceMarketplace.sol\":6015:6056  BidPlaced(_jobId, msg.sender, _amountWei) */\n      mload(0x40)\n      tag_315\n      swap2\n      swap1\n      tag_34\n      jump\t// in\n    tag_315:\n      mload(0x40)\n      dup1\n      swap2\n      sub\n      swap1\n      log3\n        /* \"FreelanceMarketplace.sol\":5462:6064  {... */\n      pop\n        /* \"FreelanceMarketplace.sol\":5361:6064  function placeBid(uint256 _jobId, uint256 _amountWei, uint256 _proposedTime) external onlyFreelancer {... */\n      pop\n      pop\n      pop\n      jump\t// out\n        /* \"FreelanceMarketplace.sol\":1172:1204  uint256 public totalEscrowLocked */\n    tag_67:\n      sload(0x05)\n      dup2\n      jump\t// out\n        /* \"FreelanceMarketplace.sol\":4467:5353  function postJob(... */\n    tag_73:\n        /* \"FreelanceMarketplace.sol\":2208:2213  users */\n      0x01\n        /* \"FreelanceMarketplace.sol\":2208:2225  users[msg.sender] */\n      0x00\n        /* \"FreelanceMarketplace.sol\":2214:2224  msg.sender */\n      caller\n        /* \"FreelanceMarketplace.sol\":2208:2225  users[msg.sender] */\n      0xffffffffffffffffffffffffffffffffffffffff\n      and\n      0xffffffffffffffffffffffffffffffffffffffff\n      and\n      dup2\n      mstore\n      0x20\n      add\n      swap1\n      dup2\n      mstore\n      0x20\n      add\n      0x00\n      keccak256\n        /* \"FreelanceMarketplace.sol\":2208:2236  users[msg.sender].registered */\n      0x03\n      add\n      0x14\n      swap1\n      sload\n      swap1\n      0x0100\n      exp\n      swap1\n      div\n      0xff\n      and\n        /* \"FreelanceMarketplace.sol\":2200:2255  require(users[msg.sender].registered, \"Not registered\") */\n      tag_317\n      jumpi\n      mload(0x40)\n      0x08c379a000000000000000000000000000000000000000000000000000000000\n      dup2\n      mstore\n      0x04\n      add\n      tag_318\n      swap1\n      tag_228\n      jump\t// in\n    tag_318:\n      mload(0x40)\n      dup1\n      swap2\n      sub\n      swap1\n      revert\n    tag_317:\n        /* \"FreelanceMarketplace.sol\":2300:2311  Role.Client */\n      0x01\n        /* \"FreelanceMarketplace.sol\":2274:2311  users[msg.sender].role == Role.Client */\n      0x02\n      dup2\n      gt\n      iszero\n      tag_319\n      jumpi\n      tag_320\n      tag_132\n      jump\t// in\n    tag_320:\n    tag_319:\n        /* \"FreelanceMarketplace.sol\":2274:2279  users */\n      0x01\n        /* \"FreelanceMarketplace.sol\":2274:2291  users[msg.sender] */\n      0x00\n        /* \"FreelanceMarketplace.sol\":2280:2290  msg.sender */\n      caller\n        /* \"FreelanceMarketplace.sol\":2274:2291  users[msg.sender] */\n      0xffffffffffffffffffffffffffffffffffffffff\n      and\n      0xffffffffffffffffffffffffffffffffffffffff\n      and\n      dup2\n      mstore\n      0x20\n      add\n      swap1\n      dup2\n      mstore\n      0x20\n      add\n      0x00\n      keccak256\n        /* \"FreelanceMarketplace.sol\":2274:2296  users[msg.sender].role */\n      0x01\n      add\n      0x00\n      swap1\n      sload\n      swap1\n      0x0100\n      exp\n      swap1\n      div\n      0xff\n      and\n        /* \"FreelanceMarketplace.sol\":2274:2311  users[msg.sender].role == Role.Client */\n      0x02\n      dup2\n      gt\n      iszero\n      tag_321\n      jumpi\n      tag_322\n      tag_132\n      jump\t// in\n    tag_322:\n    tag_321:\n      eq\n        /* \"FreelanceMarketplace.sol\":2266:2327  require(users[msg.sender].role == Role.Client, \"Only client\") */\n      tag_323\n      jumpi\n      mload(0x40)\n      0x08c379a000000000000000000000000000000000000000000000000000000000\n      dup2\n      mstore\n      0x04\n      add\n      tag_324\n      swap1\n      tag_235\n      jump\t// in\n    tag_324:\n      mload(0x40)\n      dup1\n      swap2\n      sub\n      swap1\n      revert\n    tag_323:\n        /* \"FreelanceMarketplace.sol\":4665:4666  0 */\n      0x00\n        /* \"FreelanceMarketplace.sol\":4652:4662  _budgetWei */\n      dup3\n        /* \"FreelanceMarketplace.sol\":4652:4666  _budgetWei > 0 */\n      gt\n        /* \"FreelanceMarketplace.sol\":4644:4689  require(_budgetWei > 0, \"Budget must be > 0\") */\n      tag_326\n      jumpi\n      mload(0x40)\n      0x08c379a000000000000000000000000000000000000000000000000000000000\n      dup2\n      mstore\n      0x04\n      add\n      tag_327\n      swap1\n      tag_328\n      jump\t// in\n    tag_327:\n      mload(0x40)\n      dup1\n      swap2\n      sub\n      swap1\n      revert\n    tag_326:\n        /* \"FreelanceMarketplace.sol\":4720:4735  block.timestamp */\n      timestamp\n        /* \"FreelanceMarketplace.sol\":4708:4717  _deadline */\n      dup2\n        /* \"FreelanceMarketplace.sol\":4708:4735  _deadline > block.timestamp */\n      gt\n        /* \"FreelanceMarketplace.sol\":4700:4763  require(_deadline > block.timestamp, \"Deadline must be future\") */\n      tag_329\n      jumpi\n      mload(0x40)\n      0x08c379a000000000000000000000000000000000000000000000000000000000\n      dup2\n      mstore\n      0x04\n      add\n      tag_330\n      swap1\n      tag_331\n      jump\t// in\n    tag_330:\n      mload(0x40)\n      dup1\n      swap2\n      sub\n      swap1\n      revert\n    tag_329:\n        /* \"FreelanceMarketplace.sol\":4790:4791  1 */\n      0x01\n        /* \"FreelanceMarketplace.sol\":4776:4786  jobCounter */\n      0x00\n      dup1\n        /* \"FreelanceMarketplace.sol\":4776:4791  jobCounter += 1 */\n      dup3\n      dup3\n      sload\n      tag_332\n      swap2\n      swap1\n      tag_272\n      jump\t// in\n    tag_332:\n      swap3\n      pop\n      pop\n      dup2\n      swap1\n      sstore\n      pop\n        /* \"FreelanceMarketplace.sol\":4802:4815  uint256 jobId */\n      0x00\n        /* \"FreelanceMarketplace.sol\":4818:4828  jobCounter */\n      dup1\n      sload\n        /* \"FreelanceMarketplace.sol\":4802:4828  uint256 jobId = jobCounter */\n      swap1\n      pop\n        /* \"FreelanceMarketplace.sol\":4855:5279  Job({... */\n      mload(0x40)\n      dup1\n      0x0180\n      add\n      0x40\n      mstore\n      dup1\n        /* \"FreelanceMarketplace.sol\":4878:4883  jobId */\n      dup3\n        /* \"FreelanceMarketplace.sol\":4855:5279  Job({... */\n      dup2\n      mstore\n      0x20\n      add\n        /* \"FreelanceMarketplace.sol\":4906:4916  msg.sender */\n      caller\n        /* \"FreelanceMarketplace.sol\":4855:5279  Job({... */\n      0xffffffffffffffffffffffffffffffffffffffff\n      and\n      dup2\n      mstore\n      0x20\n      add\n        /* \"FreelanceMarketplace.sol\":4938:4944  _title */\n      dup7\n        /* \"FreelanceMarketplace.sol\":4855:5279  Job({... */\n      dup2\n      mstore\n      0x20\n      add\n        /* \"FreelanceMarketplace.sol\":4969:4978  _category */\n      dup6\n        /* \"FreelanceMarketplace.sol\":4855:5279  Job({... */\n      dup2\n      mstore\n      0x20\n      add\n        /* \"FreelanceMarketplace.sol\":5001:5011  _budgetWei */\n      dup5\n        /* \"FreelanceMarketplace.sol\":4855:5279  Job({... */\n      dup2\n      mstore\n      0x20\n      add\n        /* \"FreelanceMarketplace.sol\":5036:5045  _deadline */\n      dup4\n        /* \"FreelanceMarketplace.sol\":4855:5279  Job({... */\n      dup2\n      mstore\n      0x20\n      add\n        /* \"FreelanceMarketplace.sol\":5068:5082  JobStatus.Open */\n      0x00\n        /* \"FreelanceMarketplace.sol\":4855:5279  Job({... */\n      0x05\n      dup2\n      gt\n      iszero\n      tag_333\n      jumpi\n      tag_334\n      tag_132\n      jump\t// in\n    tag_334:\n    tag_333:\n      dup2\n      mstore\n      0x20\n      add\n        /* \"FreelanceMarketplace.sol\":5122:5123  0 */\n      0x00\n        /* \"FreelanceMarketplace.sol\":4855:5279  Job({... */\n      0xffffffffffffffffffffffffffffffffffffffff\n      and\n      dup2\n      mstore\n      0x20\n      add\n        /* \"FreelanceMarketplace.sol\":5158:5159  0 */\n      0x00\n        /* \"FreelanceMarketplace.sol\":4855:5279  Job({... */\n      dup2\n      mstore\n      0x20\n      add\n        /* \"FreelanceMarketplace.sol\":5196:5201  false */\n      0x00\n        /* \"FreelanceMarketplace.sol\":4855:5279  Job({... */\n      iszero\n      iszero\n      dup2\n      mstore\n      0x20\n      add\n        /* \"FreelanceMarketplace.sol\":5232:5237  false */\n      0x00\n        /* \"FreelanceMarketplace.sol\":4855:5279  Job({... */\n      iszero\n      iszero\n      dup2\n      mstore\n      0x20\n      add\n        /* \"FreelanceMarketplace.sol\":5262:5267  false */\n      0x00\n        /* \"FreelanceMarketplace.sol\":4855:5279  Job({... */\n      iszero\n      iszero\n      dup2\n      mstore\n      pop\n        /* \"FreelanceMarketplace.sol\":4841:4845  jobs */\n      0x02\n        /* \"FreelanceMarketplace.sol\":4841:4852  jobs[jobId] */\n      0x00\n        /* \"FreelanceMarketplace.sol\":4846:4851  jobId */\n      dup4\n        /* \"FreelanceMarketplace.sol\":4841:4852  jobs[jobId] */\n      dup2\n      mstore\n      0x20\n      add\n      swap1\n      dup2\n      mstore\n      0x20\n      add\n      0x00\n      keccak256\n        /* \"FreelanceMarketplace.sol\":4841:5279  jobs[jobId] = Job({... */\n      0x00\n      dup3\n      add\n      mload\n      dup2\n      0x00\n      add\n      sstore\n      0x20\n      dup3\n      add\n      mload\n      dup2\n      0x01\n      add\n      exp(0x0100, 0x00)\n      dup2\n      sload\n      dup2\n      0xffffffffffffffffffffffffffffffffffffffff\n      mul\n      not\n      and\n      swap1\n      dup4\n      0xffffffffffffffffffffffffffffffffffffffff\n      and\n      mul\n      or\n      swap1\n      sstore\n      pop\n      0x40\n      dup3\n      add\n      mload\n      dup2\n      0x02\n      add\n      swap1\n      dup2\n      tag_335\n      swap2\n      swap1\n      tag_160\n      jump\t// in\n    tag_335:\n      pop\n      0x60\n      dup3\n      add\n      mload\n      dup2\n      0x03\n      add\n      swap1\n      dup2\n      tag_336\n      swap2\n      swap1\n      tag_160\n      jump\t// in\n    tag_336:\n      pop\n      0x80\n      dup3\n      add\n      mload\n      dup2\n      0x04\n      add\n      sstore\n      0xa0\n      dup3\n      add\n      mload\n      dup2\n      0x05\n      add\n      sstore\n      0xc0\n      dup3\n      add\n      mload\n      dup2\n      0x06\n      add\n      exp(0x0100, 0x00)\n      dup2\n      sload\n      dup2\n      0xff\n      mul\n      not\n      and\n      swap1\n      dup4\n      0x05\n      dup2\n      gt\n      iszero\n      tag_337\n      jumpi\n      tag_338\n      tag_132\n      jump\t// in\n    tag_338:\n    tag_337:\n      mul\n      or\n      swap1\n      sstore\n      pop\n      0xe0\n      dup3\n      add\n      mload\n      dup2\n      0x06\n      add\n      exp(0x0100, 0x01)\n      dup2\n      sload\n      dup2\n      0xffffffffffffffffffffffffffffffffffffffff\n      mul\n      not\n      and\n      swap1\n      dup4\n      0xffffffffffffffffffffffffffffffffffffffff\n      and\n      mul\n      or\n      swap1\n      sstore\n      pop\n      0x0100\n      dup3\n      add\n      mload\n      dup2\n      0x07\n      add\n      sstore\n      0x0120\n      dup3\n      add\n      mload\n      dup2\n      0x08\n      add\n      exp(0x0100, 0x00)\n      dup2\n      sload\n      dup2\n      0xff\n      mul\n      not\n      and\n      swap1\n      dup4\n      iszero\n      iszero\n      mul\n      or\n      swap1\n      sstore\n      pop\n      0x0140\n      dup3\n      add\n      mload\n      dup2\n      0x08\n      add\n      exp(0x0100, 0x01)\n      dup2\n      sload\n      dup2\n      0xff\n      mul\n      not\n      and\n      swap1\n      dup4\n      iszero\n      iszero\n      mul\n      or\n      swap1\n      sstore\n      pop\n      0x0160\n      dup3\n      add\n      mload\n      dup2\n      0x08\n      add\n      exp(0x0100, 0x02)\n      dup2\n      sload\n      dup2\n      0xff\n      mul\n      not\n      and\n      swap1\n      dup4\n      iszero\n      iszero\n      mul\n      or\n      swap1\n      sstore\n      pop\n      swap1\n      pop\n      pop\n        /* \"FreelanceMarketplace.sol\":5314:5324  msg.sender */\n      caller\n        /* \"FreelanceMarketplace.sol\":5297:5345  JobPosted(jobId, msg.sender, _title, _budgetWei) */\n      0xffffffffffffffffffffffffffffffffffffffff\n      and\n        /* \"FreelanceMarketplace.sol\":5307:5312  jobId */\n      dup2\n        /* \"FreelanceMarketplace.sol\":5297:5345  JobPosted(jobId, msg.sender, _title, _budgetWei) */\n      0xd347156c0e050f531434f3eac5fc2137040ab077ca656f465275ebe566aaf115\n        /* \"FreelanceMarketplace.sol\":5326:5332  _title */\n      dup8\n        /* \"FreelanceMarketplace.sol\":5334:5344  _budgetWei */\n      dup7\n        /* \"FreelanceMarketplace.sol\":5297:5345  JobPosted(jobId, msg.sender, _title, _budgetWei) */\n      mload(0x40)\n      tag_339\n      swap3\n      swap2\n      swap1\n      tag_340\n      jump\t// in\n    tag_339:\n      mload(0x40)\n      dup1\n      swap2\n      sub\n      swap1\n      log3\n        /* \"FreelanceMarketplace.sol\":4633:5353  {... */\n      pop\n        /* \"FreelanceMarketplace.sol\":4467:5353  function postJob(... */\n      pop\n      pop\n      pop\n      pop\n      jump\t// out\n        /* \"FreelanceMarketplace.sol\":3246:3361  function getBidCount(uint256 jobId) external view returns (uint256) {... */\n    tag_77:\n        /* \"FreelanceMarketplace.sol\":3305:3312  uint256 */\n      0x00\n        /* \"FreelanceMarketplace.sol\":3332:3339  jobBids */\n      0x03\n        /* \"FreelanceMarketplace.sol\":3332:3346  jobBids[jobId] */\n      0x00\n        /* \"FreelanceMarketplace.sol\":3340:3345  jobId */\n      dup4\n        /* \"FreelanceMarketplace.sol\":3332:3346  jobBids[jobId] */\n      dup2\n      mstore\n      0x20\n      add\n      swap1\n      dup2\n      mstore\n      0x20\n      add\n      0x00\n      keccak256\n        /* \"FreelanceMarketplace.sol\":3332:3353  jobBids[jobId].length */\n      dup1\n      sload\n      swap1\n      pop\n        /* \"FreelanceMarketplace.sol\":3325:3353  return jobBids[jobId].length */\n      swap1\n      pop\n        /* \"FreelanceMarketplace.sol\":3246:3361  function getBidCount(uint256 jobId) external view returns (uint256) {... */\n      swap2\n      swap1\n      pop\n      jump\t// out\n        /* \"FreelanceMarketplace.sol\":8865:9348  function raiseDispute(uint256 _jobId) external onlyClient {... */\n    tag_82:\n        /* \"FreelanceMarketplace.sol\":2208:2213  users */\n      0x01\n        /* \"FreelanceMarketplace.sol\":2208:2225  users[msg.sender] */\n      0x00\n        /* \"FreelanceMarketplace.sol\":2214:2224  msg.sender */\n      caller\n        /* \"FreelanceMarketplace.sol\":2208:2225  users[msg.sender] */\n      0xffffffffffffffffffffffffffffffffffffffff\n      and\n      0xffffffffffffffffffffffffffffffffffffffff\n      and\n      dup2\n      mstore\n      0x20\n      add\n      swap1\n      dup2\n      mstore\n      0x20\n      add\n      0x00\n      keccak256\n        /* \"FreelanceMarketplace.sol\":2208:2236  users[msg.sender].registered */\n      0x03\n      add\n      0x14\n      swap1\n      sload\n      swap1\n      0x0100\n      exp\n      swap1\n      div\n      0xff\n      and\n        /* \"FreelanceMarketplace.sol\":2200:2255  require(users[msg.sender].registered, \"Not registered\") */\n      tag_343\n      jumpi\n      mload(0x40)\n      0x08c379a000000000000000000000000000000000000000000000000000000000\n      dup2\n      mstore\n      0x04\n      add\n      tag_344\n      swap1\n      tag_228\n      jump\t// in\n    tag_344:\n      mload(0x40)\n      dup1\n      swap2\n      sub\n      swap1\n      revert\n    tag_343:\n        /* \"FreelanceMarketplace.sol\":2300:2311  Role.Client */\n      0x01\n        /* \"FreelanceMarketplace.sol\":2274:2311  users[msg.sender].role == Role.Client */\n      0x02\n      dup2\n      gt\n      iszero\n      tag_345\n      jumpi\n      tag_346\n      tag_132\n      jump\t// in\n    tag_346:\n    tag_345:\n        /* \"FreelanceMarketplace.sol\":2274:2279  users */\n      0x01\n        /* \"FreelanceMarketplace.sol\":2274:2291  users[msg.sender] */\n      0x00\n        /* \"FreelanceMarketplace.sol\":2280:2290  msg.sender */\n      caller\n        /* \"FreelanceMarketplace.sol\":2274:2291  users[msg.sender] */\n      0xffffffffffffffffffffffffffffffffffffffff\n      and\n      0xffffffffffffffffffffffffffffffffffffffff\n      and\n      dup2\n      mstore\n      0x20\n      add\n      swap1\n      dup2\n      mstore\n      0x20\n      add\n      0x00\n      keccak256\n        /* \"FreelanceMarketplace.sol\":2274:2296  users[msg.sender].role */\n      0x01\n      add\n      0x00\n      swap1\n      sload\n      swap1\n      0x0100\n      exp\n      swap1\n      div\n      0xff\n      and\n        /* \"FreelanceMarketplace.sol\":2274:2311  users[msg.sender].role == Role.Client */\n      0x02\n      dup2\n      gt\n      iszero\n      tag_347\n      jumpi\n      tag_348\n      tag_132\n      jump\t// in\n    tag_348:\n    tag_347:\n      eq\n        /* \"FreelanceMarketplace.sol\":2266:2327  require(users[msg.sender].role == Role.Client, \"Only client\") */\n      tag_349\n      jumpi\n      mload(0x40)\n      0x08c379a000000000000000000000000000000000000000000000000000000000\n      dup2\n      mstore\n      0x04\n      add\n      tag_350\n      swap1\n      tag_235\n      jump\t// in\n    tag_350:\n      mload(0x40)\n      dup1\n      swap2\n      sub\n      swap1\n      revert\n    tag_349:\n        /* \"FreelanceMarketplace.sol\":8934:8947  Job storage j */\n      0x00\n        /* \"FreelanceMarketplace.sol\":8950:8954  jobs */\n      0x02\n        /* \"FreelanceMarketplace.sol\":8950:8962  jobs[_jobId] */\n      0x00\n        /* \"FreelanceMarketplace.sol\":8955:8961  _jobId */\n      dup4\n        /* \"FreelanceMarketplace.sol\":8950:8962  jobs[_jobId] */\n      dup2\n      mstore\n      0x20\n      add\n      swap1\n      dup2\n      mstore\n      0x20\n      add\n      0x00\n      keccak256\n        /* \"FreelanceMarketplace.sol\":8934:8962  Job storage j = jobs[_jobId] */\n      swap1\n      pop\n        /* \"FreelanceMarketplace.sol\":8989:8990  0 */\n      0x00\n        /* \"FreelanceMarketplace.sol\":8981:8982  j */\n      dup2\n        /* \"FreelanceMarketplace.sol\":8981:8985  j.id */\n      0x00\n      add\n      sload\n        /* \"FreelanceMarketplace.sol\":8981:8990  j.id != 0 */\n      sub\n        /* \"FreelanceMarketplace.sol\":8973:9013  require(j.id != 0, \"Job does not exist\") */\n      tag_352\n      jumpi\n      mload(0x40)\n      0x08c379a000000000000000000000000000000000000000000000000000000000\n      dup2\n      mstore\n      0x04\n      add\n      tag_353\n      swap1\n      tag_184\n      jump\t// in\n    tag_353:\n      mload(0x40)\n      dup1\n      swap2\n      sub\n      swap1\n      revert\n    tag_352:\n        /* \"FreelanceMarketplace.sol\":9044:9054  msg.sender */\n      caller\n        /* \"FreelanceMarketplace.sol\":9032:9054  j.client == msg.sender */\n      0xffffffffffffffffffffffffffffffffffffffff\n      and\n        /* \"FreelanceMarketplace.sol\":9032:9033  j */\n      dup2\n        /* \"FreelanceMarketplace.sol\":9032:9040  j.client */\n      0x01\n      add\n      0x00\n      swap1\n      sload\n      swap1\n      0x0100\n      exp\n      swap1\n      div\n      0xffffffffffffffffffffffffffffffffffffffff\n      and\n        /* \"FreelanceMarketplace.sol\":9032:9054  j.client == msg.sender */\n      0xffffffffffffffffffffffffffffffffffffffff\n      and\n      eq\n        /* \"FreelanceMarketplace.sol\":9024:9071  require(j.client == msg.sender, \"Not your job\") */\n      tag_354\n      jumpi\n      mload(0x40)\n      0x08c379a000000000000000000000000000000000000000000000000000000000\n      dup2\n      mstore\n      0x04\n      add\n      tag_355\n      swap1\n      tag_244\n      jump\t// in\n    tag_355:\n      mload(0x40)\n      dup1\n      swap2\n      sub\n      swap1\n      revert\n    tag_354:\n        /* \"FreelanceMarketplace.sol\":9102:9122  JobStatus.InProgress */\n      0x01\n        /* \"FreelanceMarketplace.sol\":9090:9122  j.status == JobStatus.InProgress */\n      0x05\n      dup2\n      gt\n      iszero\n      tag_356\n      jumpi\n      tag_357\n      tag_132\n      jump\t// in\n    tag_357:\n    tag_356:\n        /* \"FreelanceMarketplace.sol\":9090:9091  j */\n      dup2\n        /* \"FreelanceMarketplace.sol\":9090:9098  j.status */\n      0x06\n      add\n      0x00\n      swap1\n      sload\n      swap1\n      0x0100\n      exp\n      swap1\n      div\n      0xff\n      and\n        /* \"FreelanceMarketplace.sol\":9090:9122  j.status == JobStatus.InProgress */\n      0x05\n      dup2\n      gt\n      iszero\n      tag_358\n      jumpi\n      tag_359\n      tag_132\n      jump\t// in\n    tag_359:\n    tag_358:\n      eq\n        /* \"FreelanceMarketplace.sol\":9090:9157  j.status == JobStatus.InProgress || j.status == JobStatus.Completed */\n      dup1\n      tag_360\n      jumpi\n      pop\n        /* \"FreelanceMarketplace.sol\":9138:9157  JobStatus.Completed */\n      0x02\n        /* \"FreelanceMarketplace.sol\":9126:9157  j.status == JobStatus.Completed */\n      0x05\n      dup2\n      gt\n      iszero\n      tag_361\n      jumpi\n      tag_362\n      tag_132\n      jump\t// in\n    tag_362:\n    tag_361:\n        /* \"FreelanceMarketplace.sol\":9126:9127  j */\n      dup2\n        /* \"FreelanceMarketplace.sol\":9126:9134  j.status */\n      0x06\n      add\n      0x00\n      swap1\n      sload\n      swap1\n      0x0100\n      exp\n      swap1\n      div\n      0xff\n      and\n        /* \"FreelanceMarketplace.sol\":9126:9157  j.status == JobStatus.Completed */\n      0x05\n      dup2\n      gt\n      iszero\n      tag_363\n      jumpi\n      tag_364\n      tag_132\n      jump\t// in\n    tag_364:\n    tag_363:\n      eq\n        /* \"FreelanceMarketplace.sol\":9090:9157  j.status == JobStatus.InProgress || j.status == JobStatus.Completed */\n    tag_360:\n        /* \"FreelanceMarketplace.sol\":9082:9180  require(j.status == JobStatus.InProgress || j.status == JobStatus.Completed, \"Cannot dispute now\") */\n      tag_365\n      jumpi\n      mload(0x40)\n      0x08c379a000000000000000000000000000000000000000000000000000000000\n      dup2\n      mstore\n      0x04\n      add\n      tag_366\n      swap1\n      tag_367\n      jump\t// in\n    tag_366:\n      mload(0x40)\n      dup1\n      swap2\n      sub\n      swap1\n      revert\n    tag_365:\n        /* \"FreelanceMarketplace.sol\":9200:9201  j */\n      dup1\n        /* \"FreelanceMarketplace.sol\":9200:9210  j.disputed */\n      0x08\n      add\n      0x02\n      swap1\n      sload\n      swap1\n      0x0100\n      exp\n      swap1\n      div\n      0xff\n      and\n        /* \"FreelanceMarketplace.sol\":9199:9210  !j.disputed */\n      iszero\n        /* \"FreelanceMarketplace.sol\":9191:9231  require(!j.disputed, \"Already disputed\") */\n      tag_368\n      jumpi\n      mload(0x40)\n      0x08c379a000000000000000000000000000000000000000000000000000000000\n      dup2\n      mstore\n      0x04\n      add\n      tag_369\n      swap1\n      tag_370\n      jump\t// in\n    tag_369:\n      mload(0x40)\n      dup1\n      swap2\n      sub\n      swap1\n      revert\n    tag_368:\n        /* \"FreelanceMarketplace.sol\":9257:9261  true */\n      0x01\n        /* \"FreelanceMarketplace.sol\":9244:9245  j */\n      dup2\n        /* \"FreelanceMarketplace.sol\":9244:9254  j.disputed */\n      0x08\n      add\n      0x02\n        /* \"FreelanceMarketplace.sol\":9244:9261  j.disputed = true */\n      0x0100\n      exp\n      dup2\n      sload\n      dup2\n      0xff\n      mul\n      not\n      and\n      swap1\n      dup4\n      iszero\n      iszero\n      mul\n      or\n      swap1\n      sstore\n      pop\n        /* \"FreelanceMarketplace.sol\":9283:9301  JobStatus.Disputed */\n      0x04\n        /* \"FreelanceMarketplace.sol\":9272:9273  j */\n      dup2\n        /* \"FreelanceMarketplace.sol\":9272:9280  j.status */\n      0x06\n      add\n      0x00\n        /* \"FreelanceMarketplace.sol\":9272:9301  j.status = JobStatus.Disputed */\n      0x0100\n      exp\n      dup2\n      sload\n      dup2\n      0xff\n      mul\n      not\n      and\n      swap1\n      dup4\n      0x05\n      dup2\n      gt\n      iszero\n      tag_371\n      jumpi\n      tag_372\n      tag_132\n      jump\t// in\n    tag_372:\n    tag_371:\n      mul\n      or\n      swap1\n      sstore\n      pop\n        /* \"FreelanceMarketplace.sol\":9333:9339  _jobId */\n      dup2\n        /* \"FreelanceMarketplace.sol\":9319:9340  DisputeRaised(_jobId) */\n      0x04901f83201c8724eadf084436db8aa391820bae6d11f9f78a17edb6f2eef3cf\n      mload(0x40)\n      mload(0x40)\n      dup1\n      swap2\n      sub\n      swap1\n      log2\n        /* \"FreelanceMarketplace.sol\":8923:9348  {... */\n      pop\n        /* \"FreelanceMarketplace.sol\":8865:9348  function raiseDispute(uint256 _jobId) external onlyClient {... */\n      pop\n      jump\t// out\n        /* \"FreelanceMarketplace.sol\":953:990  mapping(address => User) public users */\n    tag_87:\n      mstore(0x20, 0x01)\n      dup1\n      0x00\n      mstore\n      keccak256(0x00, 0x40)\n      0x00\n      swap2\n      pop\n      swap1\n      pop\n      dup1\n      0x00\n      add\n      dup1\n      sload\n      tag_373\n      swap1\n      tag_113\n      jump\t// in\n    tag_373:\n      dup1\n      0x1f\n      add\n      0x20\n      dup1\n      swap2\n      div\n      mul\n      0x20\n      add\n      mload(0x40)\n      swap1\n      dup2\n      add\n      0x40\n      mstore\n      dup1\n      swap3\n      swap2\n      swap1\n      dup2\n      dup2\n      mstore\n      0x20\n      add\n      dup3\n      dup1\n      sload\n      tag_374\n      swap1\n      tag_113\n      jump\t// in\n    tag_374:\n      dup1\n      iszero\n      tag_375\n      jumpi\n      dup1\n      0x1f\n      lt\n      tag_376\n      jumpi\n      0x0100\n      dup1\n      dup4\n      sload\n      div\n      mul\n      dup4\n      mstore\n      swap2\n      0x20\n      add\n      swap2\n      jump(tag_375)\n    tag_376:\n      dup3\n      add\n      swap2\n      swap1\n      0x00\n      mstore\n      keccak256(0x00, 0x20)\n      swap1\n    tag_377:\n      dup2\n      sload\n      dup2\n      mstore\n      swap1\n      0x01\n      add\n      swap1\n      0x20\n      add\n      dup1\n      dup4\n      gt\n      tag_377\n      jumpi\n      dup3\n      swap1\n      sub\n      0x1f\n      and\n      dup3\n      add\n      swap2\n    tag_375:\n      pop\n      pop\n      pop\n      pop\n      pop\n      swap1\n      dup1\n      0x01\n      add\n      0x00\n      swap1\n      sload\n      swap1\n      0x0100\n      exp\n      swap1\n      div\n      0xff\n      and\n      swap1\n      dup1\n      0x02\n      add\n      sload\n      swap1\n      dup1\n      0x03\n      add\n      0x00\n      swap1\n      sload\n      swap1\n      0x0100\n      exp\n      swap1\n      div\n      0xffffffffffffffffffffffffffffffffffffffff\n      and\n      swap1\n      dup1\n      0x03\n      add\n      0x14\n      swap1\n      sload\n      swap1\n      0x0100\n      exp\n      swap1\n      div\n      0xff\n      and\n      swap1\n      pop\n      dup6\n      jump\t// out\n        /* \"FreelanceMarketplace.sol\":8484:8857  function withdrawFees(address payable to, uint256 amountWei) external onlyArbiter nonReentrant {... */\n    tag_94:\n        /* \"FreelanceMarketplace.sol\":2611:2618  arbiter */\n      immutable(\"0x5ae62207e7adee0b793bf869601474e77943fa4d9e3e0420f34d788e59bc19bd\")\n        /* \"FreelanceMarketplace.sol\":2597:2618  msg.sender == arbiter */\n      0xffffffffffffffffffffffffffffffffffffffff\n      and\n        /* \"FreelanceMarketplace.sol\":2597:2607  msg.sender */\n      caller\n        /* \"FreelanceMarketplace.sol\":2597:2618  msg.sender == arbiter */\n      0xffffffffffffffffffffffffffffffffffffffff\n      and\n      eq\n        /* \"FreelanceMarketplace.sol\":2589:2635  require(msg.sender == arbiter, \"Only arbiter\") */\n      tag_379\n      jumpi\n      mload(0x40)\n      0x08c379a000000000000000000000000000000000000000000000000000000000\n      dup2\n      mstore\n      0x04\n      add\n      tag_380\n      swap1\n      tag_168\n      jump\t// in\n    tag_380:\n      mload(0x40)\n      dup1\n      swap2\n      sub\n      swap1\n      revert\n    tag_379:\n        /* \"FreelanceMarketplace.sol\":2654:2659  users */\n      0x01\n        /* \"FreelanceMarketplace.sol\":2654:2671  users[msg.sender] */\n      0x00\n        /* \"FreelanceMarketplace.sol\":2660:2670  msg.sender */\n      caller\n        /* \"FreelanceMarketplace.sol\":2654:2671  users[msg.sender] */\n      0xffffffffffffffffffffffffffffffffffffffff\n      and\n      0xffffffffffffffffffffffffffffffffffffffff\n      and\n      dup2\n      mstore\n      0x20\n      add\n      swap1\n      dup2\n      mstore\n      0x20\n      add\n      0x00\n      keccak256\n        /* \"FreelanceMarketplace.sol\":2654:2682  users[msg.sender].registered */\n      0x03\n      add\n      0x14\n      swap1\n      sload\n      swap1\n      0x0100\n      exp\n      swap1\n      div\n      0xff\n      and\n        /* \"FreelanceMarketplace.sol\":2654:2724  users[msg.sender].registered && users[msg.sender].role == Role.Arbiter */\n      dup1\n      iszero\n      tag_381\n      jumpi\n      pop\n        /* \"FreelanceMarketplace.sol\":2712:2724  Role.Arbiter */\n      0x00\n        /* \"FreelanceMarketplace.sol\":2686:2724  users[msg.sender].role == Role.Arbiter */\n      0x02\n      dup2\n      gt\n      iszero\n      tag_382\n      jumpi\n      tag_383\n      tag_132\n      jump\t// in\n    tag_383:\n    tag_382:\n        /* \"FreelanceMarketplace.sol\":2686:2691  users */\n      0x01\n        /* \"FreelanceMarketplace.sol\":2686:2703  users[msg.sender] */\n      0x00\n        /* \"FreelanceMarketplace.sol\":2692:2702  msg.sender */\n      caller\n        /* \"FreelanceMarketplace.sol\":2686:2703  users[msg.sender] */\n      0xffffffffffffffffffffffffffffffffffffffff\n      and\n      0xffffffffffffffffffffffffffffffffffffffff\n      and\n      dup2\n      mstore\n      0x20\n      add\n      swap1\n      dup2\n      mstore\n      0x20\n      add\n      0x00\n      keccak256\n        /* \"FreelanceMarketplace.sol\":2686:2708  users[msg.sender].role */\n      0x01\n      add\n      0x00\n      swap1\n      sload\n      swap1\n      0x0100\n      exp\n      swap1\n      div\n      0xff\n      and\n        /* \"FreelanceMarketplace.sol\":2686:2724  users[msg.sender].role == Role.Arbiter */\n      0x02\n      dup2\n      gt\n      iszero\n      tag_384\n      jumpi\n      tag_385\n      tag_132\n      jump\t// in\n    tag_385:\n    tag_384:\n      eq\n        /* \"FreelanceMarketplace.sol\":2654:2724  users[msg.sender].registered && users[msg.sender].role == Role.Arbiter */\n    tag_381:\n        /* \"FreelanceMarketplace.sol\":2646:2751  require(users[msg.sender].registered && users[msg.sender].role == Role.Arbiter, \"Arbiter not registered\") */\n      tag_386\n      jumpi\n      mload(0x40)\n      0x08c379a000000000000000000000000000000000000000000000000000000000\n      dup2\n      mstore\n      0x04\n      add\n      tag_387\n      swap1\n      tag_176\n      jump\t// in\n    tag_387:\n      mload(0x40)\n      dup1\n      swap2\n      sub\n      swap1\n      revert\n    tag_386:\n        /* \"FreelanceMarketplace.sol\":1301:1302  1 */\n      0x01\n        /* \"FreelanceMarketplace.sol\":1290:1297  _locked */\n      sload(0x06)\n        /* \"FreelanceMarketplace.sol\":1290:1302  _locked == 1 */\n      eq\n        /* \"FreelanceMarketplace.sol\":1282:1317  require(_locked == 1, \"Reentrancy\") */\n      tag_389\n      jumpi\n      mload(0x40)\n      0x08c379a000000000000000000000000000000000000000000000000000000000\n      dup2\n      mstore\n      0x04\n      add\n      tag_390\n      swap1\n      tag_180\n      jump\t// in\n    tag_390:\n      mload(0x40)\n      dup1\n      swap2\n      sub\n      swap1\n      revert\n    tag_389:\n        /* \"FreelanceMarketplace.sol\":1338:1339  2 */\n      0x02\n        /* \"FreelanceMarketplace.sol\":1328:1335  _locked */\n      0x06\n        /* \"FreelanceMarketplace.sol\":1328:1339  _locked = 2 */\n      dup2\n      swap1\n      sstore\n      pop\n        /* \"FreelanceMarketplace.sol\":8590:8602  uint256 fees */\n      0x00\n        /* \"FreelanceMarketplace.sol\":8629:8646  totalEscrowLocked */\n      sload(0x05)\n        /* \"FreelanceMarketplace.sol\":8605:8626  address(this).balance */\n      selfbalance\n        /* \"FreelanceMarketplace.sol\":8605:8646  address(this).balance - totalEscrowLocked */\n      tag_392\n      swap2\n      swap1\n      tag_125\n      jump\t// in\n    tag_392:\n        /* \"FreelanceMarketplace.sol\":8590:8646  uint256 fees = address(this).balance - totalEscrowLocked */\n      swap1\n      pop\n        /* \"FreelanceMarketplace.sol\":8678:8682  fees */\n      dup1\n        /* \"FreelanceMarketplace.sol\":8665:8674  amountWei */\n      dup3\n        /* \"FreelanceMarketplace.sol\":8665:8682  amountWei <= fees */\n      gt\n      iszero\n        /* \"FreelanceMarketplace.sol\":8657:8706  require(amountWei <= fees, \"Amount exceeds fees\") */\n      tag_393\n      jumpi\n      mload(0x40)\n      0x08c379a000000000000000000000000000000000000000000000000000000000\n      dup2\n      mstore\n      0x04\n      add\n      tag_394\n      swap1\n      tag_395\n      jump\t// in\n    tag_394:\n      mload(0x40)\n      dup1\n      swap2\n      sub\n      swap1\n      revert\n    tag_393:\n        /* \"FreelanceMarketplace.sol\":8720:8727  bool ok */\n      0x00\n        /* \"FreelanceMarketplace.sol\":8733:8735  to */\n      dup4\n        /* \"FreelanceMarketplace.sol\":8733:8740  to.call */\n      0xffffffffffffffffffffffffffffffffffffffff\n      and\n        /* \"FreelanceMarketplace.sol\":8748:8757  amountWei */\n      dup4\n        /* \"FreelanceMarketplace.sol\":8733:8762  to.call{value: amountWei}(\"\") */\n      mload(0x40)\n      tag_396\n      swap1\n      tag_203\n      jump\t// in\n    tag_396:\n      0x00\n      mload(0x40)\n      dup1\n      dup4\n      sub\n      dup2\n      dup6\n      dup8\n      gas\n      call\n      swap3\n      pop\n      pop\n      pop\n      returndatasize\n      dup1\n      0x00\n      dup2\n      eq\n      tag_399\n      jumpi\n      mload(0x40)\n      swap2\n      pop\n      and(add(returndatasize, 0x3f), not(0x1f))\n      dup3\n      add\n      0x40\n      mstore\n      returndatasize\n      dup3\n      mstore\n      returndatasize\n      0x00\n      0x20\n      dup5\n      add\n      returndatacopy\n      jump(tag_398)\n    tag_399:\n      0x60\n      swap2\n      pop\n    tag_398:\n      pop\n        /* \"FreelanceMarketplace.sol\":8719:8762  (bool ok, ) = to.call{value: amountWei}(\"\") */\n      pop\n      swap1\n      pop\n        /* \"FreelanceMarketplace.sol\":8781:8783  ok */\n      dup1\n        /* \"FreelanceMarketplace.sol\":8773:8803  require(ok, \"Withdraw failed\") */\n      tag_400\n      jumpi\n      mload(0x40)\n      0x08c379a000000000000000000000000000000000000000000000000000000000\n      dup2\n      mstore\n      0x04\n      add\n      tag_401\n      swap1\n      tag_402\n      jump\t// in\n    tag_401:\n      mload(0x40)\n      dup1\n      swap2\n      sub\n      swap1\n      revert\n    tag_400:\n        /* \"FreelanceMarketplace.sol\":8835:8837  to */\n      dup4\n        /* \"FreelanceMarketplace.sol\":8821:8849  FeesWithdrawn(to, amountWei) */\n      0xffffffffffffffffffffffffffffffffffffffff\n      and\n      0xc0819c13be868895eb93e40eaceb96de976442fa1d404e5c55f14bb65a8c489a\n        /* \"FreelanceMarketplace.sol\":8839:8848  amountWei */\n      dup5\n        /* \"FreelanceMarketplace.sol\":8821:8849  FeesWithdrawn(to, amountWei) */\n      mload(0x40)\n      tag_403\n      swap2\n      swap1\n      tag_34\n      jump\t// in\n    tag_403:\n      mload(0x40)\n      dup1\n      swap2\n      sub\n      swap1\n      log2\n        /* \"FreelanceMarketplace.sol\":8579:8857  {... */\n      pop\n      pop\n        /* \"FreelanceMarketplace.sol\":1372:1373  1 */\n      0x01\n        /* \"FreelanceMarketplace.sol\":1362:1369  _locked */\n      0x06\n        /* \"FreelanceMarketplace.sol\":1362:1373  _locked = 1 */\n      dup2\n      swap1\n      sstore\n      pop\n        /* \"FreelanceMarketplace.sol\":8484:8857  function withdrawFees(address payable to, uint256 amountWei) external onlyArbiter nonReentrant {... */\n      pop\n      pop\n      jump\t// out\n        /* \"FreelanceMarketplace.sol\":6945:7373  function markCompleted(uint256 _jobId) external onlyFreelancer {... */\n    tag_98:\n        /* \"FreelanceMarketplace.sol\":2400:2405  users */\n      0x01\n        /* \"FreelanceMarketplace.sol\":2400:2417  users[msg.sender] */\n      0x00\n        /* \"FreelanceMarketplace.sol\":2406:2416  msg.sender */\n      caller\n        /* \"FreelanceMarketplace.sol\":2400:2417  users[msg.sender] */\n      0xffffffffffffffffffffffffffffffffffffffff\n      and\n      0xffffffffffffffffffffffffffffffffffffffff\n      and\n      dup2\n      mstore\n      0x20\n      add\n      swap1\n      dup2\n      mstore\n      0x20\n      add\n      0x00\n      keccak256\n        /* \"FreelanceMarketplace.sol\":2400:2428  users[msg.sender].registered */\n      0x03\n      add\n      0x14\n      swap1\n      sload\n      swap1\n      0x0100\n      exp\n      swap1\n      div\n      0xff\n      and\n        /* \"FreelanceMarketplace.sol\":2392:2447  require(users[msg.sender].registered, \"Not registered\") */\n      tag_405\n      jumpi\n      mload(0x40)\n      0x08c379a000000000000000000000000000000000000000000000000000000000\n      dup2\n      mstore\n      0x04\n      add\n      tag_406\n      swap1\n      tag_228\n      jump\t// in\n    tag_406:\n      mload(0x40)\n      dup1\n      swap2\n      sub\n      swap1\n      revert\n    tag_405:\n        /* \"FreelanceMarketplace.sol\":2492:2507  Role.Freelancer */\n      0x02\n        /* \"FreelanceMarketplace.sol\":2466:2507  users[msg.sender].role == Role.Freelancer */\n      dup1\n      dup2\n      gt\n      iszero\n      tag_407\n      jumpi\n      tag_408\n      tag_132\n      jump\t// in\n    tag_408:\n    tag_407:\n        /* \"FreelanceMarketplace.sol\":2466:2471  users */\n      0x01\n        /* \"FreelanceMarketplace.sol\":2466:2483  users[msg.sender] */\n      0x00\n        /* \"FreelanceMarketplace.sol\":2472:2482  msg.sender */\n      caller\n        /* \"FreelanceMarketplace.sol\":2466:2483  users[msg.sender] */\n      0xffffffffffffffffffffffffffffffffffffffff\n      and\n      0xffffffffffffffffffffffffffffffffffffffff\n      and\n      dup2\n      mstore\n      0x20\n      add\n      swap1\n      dup2\n      mstore\n      0x20\n      add\n      0x00\n      keccak256\n        /* \"FreelanceMarketplace.sol\":2466:2488  users[msg.sender].role */\n      0x01\n      add\n      0x00\n      swap1\n      sload\n      swap1\n      0x0100\n      exp\n      swap1\n      div\n      0xff\n      and\n        /* \"FreelanceMarketplace.sol\":2466:2507  users[msg.sender].role == Role.Freelancer */\n      0x02\n      dup2\n      gt\n      iszero\n      tag_409\n      jumpi\n      tag_410\n      tag_132\n      jump\t// in\n    tag_410:\n    tag_409:\n      eq\n        /* \"FreelanceMarketplace.sol\":2458:2527  require(users[msg.sender].role == Role.Freelancer, \"Only freelancer\") */\n      tag_411\n      jumpi\n      mload(0x40)\n      0x08c379a000000000000000000000000000000000000000000000000000000000\n      dup2\n      mstore\n      0x04\n      add\n      tag_412\n      swap1\n      tag_294\n      jump\t// in\n    tag_412:\n      mload(0x40)\n      dup1\n      swap2\n      sub\n      swap1\n      revert\n    tag_411:\n        /* \"FreelanceMarketplace.sol\":7019:7032  Job storage j */\n      0x00\n        /* \"FreelanceMarketplace.sol\":7035:7039  jobs */\n      0x02\n        /* \"FreelanceMarketplace.sol\":7035:7047  jobs[_jobId] */\n      0x00\n        /* \"FreelanceMarketplace.sol\":7040:7046  _jobId */\n      dup4\n        /* \"FreelanceMarketplace.sol\":7035:7047  jobs[_jobId] */\n      dup2\n      mstore\n      0x20\n      add\n      swap1\n      dup2\n      mstore\n      0x20\n      add\n      0x00\n      keccak256\n        /* \"FreelanceMarketplace.sol\":7019:7047  Job storage j = jobs[_jobId] */\n      swap1\n      pop\n        /* \"FreelanceMarketplace.sol\":7074:7075  0 */\n      0x00\n        /* \"FreelanceMarketplace.sol\":7066:7067  j */\n      dup2\n        /* \"FreelanceMarketplace.sol\":7066:7070  j.id */\n      0x00\n      add\n      sload\n        /* \"FreelanceMarketplace.sol\":7066:7075  j.id != 0 */\n      sub\n        /* \"FreelanceMarketplace.sol\":7058:7098  require(j.id != 0, \"Job does not exist\") */\n      tag_414\n      jumpi\n      mload(0x40)\n      0x08c379a000000000000000000000000000000000000000000000000000000000\n      dup2\n      mstore\n      0x04\n      add\n      tag_415\n      swap1\n      tag_184\n      jump\t// in\n    tag_415:\n      mload(0x40)\n      dup1\n      swap2\n      sub\n      swap1\n      revert\n    tag_414:\n        /* \"FreelanceMarketplace.sol\":7129:7149  JobStatus.InProgress */\n      0x01\n        /* \"FreelanceMarketplace.sol\":7117:7149  j.status == JobStatus.InProgress */\n      0x05\n      dup2\n      gt\n      iszero\n      tag_416\n      jumpi\n      tag_417\n      tag_132\n      jump\t// in\n    tag_417:\n    tag_416:\n        /* \"FreelanceMarketplace.sol\":7117:7118  j */\n      dup2\n        /* \"FreelanceMarketplace.sol\":7117:7125  j.status */\n      0x06\n      add\n      0x00\n      swap1\n      sload\n      swap1\n      0x0100\n      exp\n      swap1\n      div\n      0xff\n      and\n        /* \"FreelanceMarketplace.sol\":7117:7149  j.status == JobStatus.InProgress */\n      0x05\n      dup2\n      gt\n      iszero\n      tag_418\n      jumpi\n      tag_419\n      tag_132\n      jump\t// in\n    tag_419:\n    tag_418:\n      eq\n        /* \"FreelanceMarketplace.sol\":7109:7173  require(j.status == JobStatus.InProgress, \"Job not in progress\") */\n      tag_420\n      jumpi\n      mload(0x40)\n      0x08c379a000000000000000000000000000000000000000000000000000000000\n      dup2\n      mstore\n      0x04\n      add\n      tag_421\n      swap1\n      tag_422\n      jump\t// in\n    tag_421:\n      mload(0x40)\n      dup1\n      swap2\n      sub\n      swap1\n      revert\n    tag_420:\n        /* \"FreelanceMarketplace.sol\":7213:7223  msg.sender */\n      caller\n        /* \"FreelanceMarketplace.sol\":7192:7223  j.hiredFreelancer == msg.sender */\n      0xffffffffffffffffffffffffffffffffffffffff\n      and\n        /* \"FreelanceMarketplace.sol\":7192:7193  j */\n      dup2\n        /* \"FreelanceMarketplace.sol\":7192:7209  j.hiredFreelancer */\n      0x06\n      add\n      0x01\n      swap1\n      sload\n      swap1\n      0x0100\n      exp\n      swap1\n      div\n      0xffffffffffffffffffffffffffffffffffffffff\n      and\n        /* \"FreelanceMarketplace.sol\":7192:7223  j.hiredFreelancer == msg.sender */\n      0xffffffffffffffffffffffffffffffffffffffff\n      and\n      eq\n        /* \"FreelanceMarketplace.sol\":7184:7237  require(j.hiredFreelancer == msg.sender, \"Not hired\") */\n      tag_423\n      jumpi\n      mload(0x40)\n      0x08c379a000000000000000000000000000000000000000000000000000000000\n      dup2\n      mstore\n      0x04\n      add\n      tag_424\n      swap1\n      tag_425\n      jump\t// in\n    tag_424:\n      mload(0x40)\n      dup1\n      swap2\n      sub\n      swap1\n      revert\n    tag_423:\n        /* \"FreelanceMarketplace.sol\":7275:7279  true */\n      0x01\n        /* \"FreelanceMarketplace.sol\":7250:7251  j */\n      dup2\n        /* \"FreelanceMarketplace.sol\":7250:7272  j.freelancerMarkedDone */\n      0x08\n      add\n      0x00\n        /* \"FreelanceMarketplace.sol\":7250:7279  j.freelancerMarkedDone = true */\n      0x0100\n      exp\n      dup2\n      sload\n      dup2\n      0xff\n      mul\n      not\n      and\n      swap1\n      dup4\n      iszero\n      iszero\n      mul\n      or\n      swap1\n      sstore\n      pop\n        /* \"FreelanceMarketplace.sol\":7301:7320  JobStatus.Completed */\n      0x02\n        /* \"FreelanceMarketplace.sol\":7290:7291  j */\n      dup2\n        /* \"FreelanceMarketplace.sol\":7290:7298  j.status */\n      0x06\n      add\n      0x00\n        /* \"FreelanceMarketplace.sol\":7290:7320  j.status = JobStatus.Completed */\n      0x0100\n      exp\n      dup2\n      sload\n      dup2\n      0xff\n      mul\n      not\n      and\n      swap1\n      dup4\n      0x05\n      dup2\n      gt\n      iszero\n      tag_426\n      jumpi\n      tag_427\n      tag_132\n      jump\t// in\n    tag_427:\n    tag_426:\n      mul\n      or\n      swap1\n      sstore\n      pop\n        /* \"FreelanceMarketplace.sol\":7358:7364  _jobId */\n      dup2\n        /* \"FreelanceMarketplace.sol\":7338:7365  WorkMarkedCompleted(_jobId) */\n      0x0466a00f04756a82a8ee2bda04f121772f1d4a5720bbf92edaa7846b48c889d4\n      mload(0x40)\n      mload(0x40)\n      dup1\n      swap2\n      sub\n      swap1\n      log2\n        /* \"FreelanceMarketplace.sol\":7008:7373  {... */\n      pop\n        /* \"FreelanceMarketplace.sol\":6945:7373  function markCompleted(uint256 _jobId) external onlyFreelancer {... */\n      pop\n      jump\t// out\n        /* \"FreelanceMarketplace.sol\":1122:1163  mapping(uint256 => uint256) public escrow */\n    tag_102:\n      mstore(0x20, 0x04)\n      dup1\n      0x00\n      mstore\n      keccak256(0x00, 0x40)\n      0x00\n      swap2\n      pop\n      swap1\n      pop\n      sload\n      dup2\n      jump\t// out\n        /* \"FreelanceMarketplace.sol\":6072:6937  function hireFreelancer(uint256 _jobId, uint256 _bidIndex) external payable onlyClient nonReentrant {... */\n    tag_106:\n        /* \"FreelanceMarketplace.sol\":2208:2213  users */\n      0x01\n        /* \"FreelanceMarketplace.sol\":2208:2225  users[msg.sender] */\n      0x00\n        /* \"FreelanceMarketplace.sol\":2214:2224  msg.sender */\n      caller\n        /* \"FreelanceMarketplace.sol\":2208:2225  users[msg.sender] */\n      0xffffffffffffffffffffffffffffffffffffffff\n      and\n      0xffffffffffffffffffffffffffffffffffffffff\n      and\n      dup2\n      mstore\n      0x20\n      add\n      swap1\n      dup2\n      mstore\n      0x20\n      add\n      0x00\n      keccak256\n        /* \"FreelanceMarketplace.sol\":2208:2236  users[msg.sender].registered */\n      0x03\n      add\n      0x14\n      swap1\n      sload\n      swap1\n      0x0100\n      exp\n      swap1\n      div\n      0xff\n      and\n        /* \"FreelanceMarketplace.sol\":2200:2255  require(users[msg.sender].registered, \"Not registered\") */\n      tag_429\n      jumpi\n      mload(0x40)\n      0x08c379a000000000000000000000000000000000000000000000000000000000\n      dup2\n      mstore\n      0x04\n      add\n      tag_430\n      swap1\n      tag_228\n      jump\t// in\n    tag_430:\n      mload(0x40)\n      dup1\n      swap2\n      sub\n      swap1\n      revert\n    tag_429:\n        /* \"FreelanceMarketplace.sol\":2300:2311  Role.Client */\n      0x01\n        /* \"FreelanceMarketplace.sol\":2274:2311  users[msg.sender].role == Role.Client */\n      0x02\n      dup2\n      gt\n      iszero\n      tag_431\n      jumpi\n      tag_432\n      tag_132\n      jump\t// in\n    tag_432:\n    tag_431:\n        /* \"FreelanceMarketplace.sol\":2274:2279  users */\n      0x01\n        /* \"FreelanceMarketplace.sol\":2274:2291  users[msg.sender] */\n      0x00\n        /* \"FreelanceMarketplace.sol\":2280:2290  msg.sender */\n      caller\n        /* \"FreelanceMarketplace.sol\":2274:2291  users[msg.sender] */\n      0xffffffffffffffffffffffffffffffffffffffff\n      and\n      0xffffffffffffffffffffffffffffffffffffffff\n      and\n      dup2\n      mstore\n      0x20\n      add\n      swap1\n      dup2\n      mstore\n      0x20\n      add\n      0x00\n      keccak256\n        /* \"FreelanceMarketplace.sol\":2274:2296  users[msg.sender].role */\n      0x01\n      add\n      0x00\n      swap1\n      sload\n      swap1\n      0x0100\n      exp\n      swap1\n      div\n      0xff\n      and\n        /* \"FreelanceMarketplace.sol\":2274:2311  users[msg.sender].role == Role.Client */\n      0x02\n      dup2\n      gt\n      iszero\n      tag_433\n      jumpi\n      tag_434\n      tag_132\n      jump\t// in\n    tag_434:\n    tag_433:\n      eq\n        /* \"FreelanceMarketplace.sol\":2266:2327  require(users[msg.sender].role == Role.Client, \"Only client\") */\n      tag_435\n      jumpi\n      mload(0x40)\n      0x08c379a000000000000000000000000000000000000000000000000000000000\n      dup2\n      mstore\n      0x04\n      add\n      tag_436\n      swap1\n      tag_235\n      jump\t// in\n    tag_436:\n      mload(0x40)\n      dup1\n      swap2\n      sub\n      swap1\n      revert\n    tag_435:\n        /* \"FreelanceMarketplace.sol\":1301:1302  1 */\n      0x01\n        /* \"FreelanceMarketplace.sol\":1290:1297  _locked */\n      sload(0x06)\n        /* \"FreelanceMarketplace.sol\":1290:1302  _locked == 1 */\n      eq\n        /* \"FreelanceMarketplace.sol\":1282:1317  require(_locked == 1, \"Reentrancy\") */\n      tag_438\n      jumpi\n      mload(0x40)\n      0x08c379a000000000000000000000000000000000000000000000000000000000\n      dup2\n      mstore\n      0x04\n      add\n      tag_439\n      swap1\n      tag_180\n      jump\t// in\n    tag_439:\n      mload(0x40)\n      dup1\n      swap2\n      sub\n      swap1\n      revert\n    tag_438:\n        /* \"FreelanceMarketplace.sol\":1338:1339  2 */\n      0x02\n        /* \"FreelanceMarketplace.sol\":1328:1335  _locked */\n      0x06\n        /* \"FreelanceMarketplace.sol\":1328:1339  _locked = 2 */\n      dup2\n      swap1\n      sstore\n      pop\n        /* \"FreelanceMarketplace.sol\":6183:6196  Job storage j */\n      0x00\n        /* \"FreelanceMarketplace.sol\":6199:6203  jobs */\n      0x02\n        /* \"FreelanceMarketplace.sol\":6199:6211  jobs[_jobId] */\n      0x00\n        /* \"FreelanceMarketplace.sol\":6204:6210  _jobId */\n      dup5\n        /* \"FreelanceMarketplace.sol\":6199:6211  jobs[_jobId] */\n      dup2\n      mstore\n      0x20\n      add\n      swap1\n      dup2\n      mstore\n      0x20\n      add\n      0x00\n      keccak256\n        /* \"FreelanceMarketplace.sol\":6183:6211  Job storage j = jobs[_jobId] */\n      swap1\n      pop\n        /* \"FreelanceMarketplace.sol\":6238:6239  0 */\n      0x00\n        /* \"FreelanceMarketplace.sol\":6230:6231  j */\n      dup2\n        /* \"FreelanceMarketplace.sol\":6230:6234  j.id */\n      0x00\n      add\n      sload\n        /* \"FreelanceMarketplace.sol\":6230:6239  j.id != 0 */\n      sub\n        /* \"FreelanceMarketplace.sol\":6222:6262  require(j.id != 0, \"Job does not exist\") */\n      tag_441\n      jumpi\n      mload(0x40)\n      0x08c379a000000000000000000000000000000000000000000000000000000000\n      dup2\n      mstore\n      0x04\n      add\n      tag_442\n      swap1\n      tag_184\n      jump\t// in\n    tag_442:\n      mload(0x40)\n      dup1\n      swap2\n      sub\n      swap1\n      revert\n    tag_441:\n        /* \"FreelanceMarketplace.sol\":6293:6303  msg.sender */\n      caller\n        /* \"FreelanceMarketplace.sol\":6281:6303  j.client == msg.sender */\n      0xffffffffffffffffffffffffffffffffffffffff\n      and\n        /* \"FreelanceMarketplace.sol\":6281:6282  j */\n      dup2\n        /* \"FreelanceMarketplace.sol\":6281:6289  j.client */\n      0x01\n      add\n      0x00\n      swap1\n      sload\n      swap1\n      0x0100\n      exp\n      swap1\n      div\n      0xffffffffffffffffffffffffffffffffffffffff\n      and\n        /* \"FreelanceMarketplace.sol\":6281:6303  j.client == msg.sender */\n      0xffffffffffffffffffffffffffffffffffffffff\n      and\n      eq\n        /* \"FreelanceMarketplace.sol\":6273:6320  require(j.client == msg.sender, \"Not your job\") */\n      tag_443\n      jumpi\n      mload(0x40)\n      0x08c379a000000000000000000000000000000000000000000000000000000000\n      dup2\n      mstore\n      0x04\n      add\n      tag_444\n      swap1\n      tag_244\n      jump\t// in\n    tag_444:\n      mload(0x40)\n      dup1\n      swap2\n      sub\n      swap1\n      revert\n    tag_443:\n        /* \"FreelanceMarketplace.sol\":6351:6365  JobStatus.Open */\n      0x00\n        /* \"FreelanceMarketplace.sol\":6339:6365  j.status == JobStatus.Open */\n      0x05\n      dup2\n      gt\n      iszero\n      tag_445\n      jumpi\n      tag_446\n      tag_132\n      jump\t// in\n    tag_446:\n    tag_445:\n        /* \"FreelanceMarketplace.sol\":6339:6340  j */\n      dup2\n        /* \"FreelanceMarketplace.sol\":6339:6347  j.status */\n      0x06\n      add\n      0x00\n      swap1\n      sload\n      swap1\n      0x0100\n      exp\n      swap1\n      div\n      0xff\n      and\n        /* \"FreelanceMarketplace.sol\":6339:6365  j.status == JobStatus.Open */\n      0x05\n      dup2\n      gt\n      iszero\n      tag_447\n      jumpi\n      tag_448\n      tag_132\n      jump\t// in\n    tag_448:\n    tag_447:\n      eq\n        /* \"FreelanceMarketplace.sol\":6331:6382  require(j.status == JobStatus.Open, \"Job not open\") */\n      tag_449\n      jumpi\n      mload(0x40)\n      0x08c379a000000000000000000000000000000000000000000000000000000000\n      dup2\n      mstore\n      0x04\n      add\n      tag_450\n      swap1\n      tag_304\n      jump\t// in\n    tag_450:\n      mload(0x40)\n      dup1\n      swap2\n      sub\n      swap1\n      revert\n    tag_449:\n        /* \"FreelanceMarketplace.sol\":6413:6420  jobBids */\n      0x03\n        /* \"FreelanceMarketplace.sol\":6413:6428  jobBids[_jobId] */\n      0x00\n        /* \"FreelanceMarketplace.sol\":6421:6427  _jobId */\n      dup5\n        /* \"FreelanceMarketplace.sol\":6413:6428  jobBids[_jobId] */\n      dup2\n      mstore\n      0x20\n      add\n      swap1\n      dup2\n      mstore\n      0x20\n      add\n      0x00\n      keccak256\n        /* \"FreelanceMarketplace.sol\":6413:6435  jobBids[_jobId].length */\n      dup1\n      sload\n      swap1\n      pop\n        /* \"FreelanceMarketplace.sol\":6401:6410  _bidIndex */\n      dup3\n        /* \"FreelanceMarketplace.sol\":6401:6435  _bidIndex < jobBids[_jobId].length */\n      lt\n        /* \"FreelanceMarketplace.sol\":6393:6457  require(_bidIndex < jobBids[_jobId].length, \"Invalid bid index\") */\n      tag_451\n      jumpi\n      mload(0x40)\n      0x08c379a000000000000000000000000000000000000000000000000000000000\n      dup2\n      mstore\n      0x04\n      add\n      tag_452\n      swap1\n      tag_453\n      jump\t// in\n    tag_452:\n      mload(0x40)\n      dup1\n      swap2\n      sub\n      swap1\n      revert\n    tag_451:\n        /* \"FreelanceMarketplace.sol\":6470:6487  Bid memory chosen */\n      0x00\n        /* \"FreelanceMarketplace.sol\":6490:6497  jobBids */\n      0x03\n        /* \"FreelanceMarketplace.sol\":6490:6505  jobBids[_jobId] */\n      0x00\n        /* \"FreelanceMarketplace.sol\":6498:6504  _jobId */\n      dup6\n        /* \"FreelanceMarketplace.sol\":6490:6505  jobBids[_jobId] */\n      dup2\n      mstore\n      0x20\n      add\n      swap1\n      dup2\n      mstore\n      0x20\n      add\n      0x00\n      keccak256\n        /* \"FreelanceMarketplace.sol\":6506:6515  _bidIndex */\n      dup4\n        /* \"FreelanceMarketplace.sol\":6490:6516  jobBids[_jobId][_bidIndex] */\n      dup2\n      sload\n      dup2\n      lt\n      tag_454\n      jumpi\n      tag_455\n      tag_283\n      jump\t// in\n    tag_455:\n    tag_454:\n      swap1\n      0x00\n      mstore\n      keccak256(0x00, 0x20)\n      swap1\n      0x04\n      mul\n      add\n        /* \"FreelanceMarketplace.sol\":6470:6516  Bid memory chosen = jobBids[_jobId][_bidIndex] */\n      mload(0x40)\n      dup1\n      0x80\n      add\n      0x40\n      mstore\n      swap1\n      dup2\n      0x00\n      dup3\n      add\n      0x00\n      swap1\n      sload\n      swap1\n      0x0100\n      exp\n      swap1\n      div\n      0xffffffffffffffffffffffffffffffffffffffff\n      and\n      0xffffffffffffffffffffffffffffffffffffffff\n      and\n      0xffffffffffffffffffffffffffffffffffffffff\n      and\n      dup2\n      mstore\n      0x20\n      add\n      0x01\n      dup3\n      add\n      sload\n      dup2\n      mstore\n      0x20\n      add\n      0x02\n      dup3\n      add\n      sload\n      dup2\n      mstore\n      0x20\n      add\n      0x03\n      dup3\n      add\n      0x00\n      swap1\n      sload\n      swap1\n      0x0100\n      exp\n      swap1\n      div\n      0xff\n      and\n      iszero\n      iszero\n      iszero\n      iszero\n      dup2\n      mstore\n      pop\n      pop\n      swap1\n      pop\n        /* \"FreelanceMarketplace.sol\":6535:6541  chosen */\n      dup1\n        /* \"FreelanceMarketplace.sol\":6535:6548  chosen.exists */\n      0x60\n      add\n      mload\n        /* \"FreelanceMarketplace.sol\":6527:6566  require(chosen.exists, \"Bid not found\") */\n      tag_457\n      jumpi\n      mload(0x40)\n      0x08c379a000000000000000000000000000000000000000000000000000000000\n      dup2\n      mstore\n      0x04\n      add\n      tag_458\n      swap1\n      tag_459\n      jump\t// in\n    tag_458:\n      mload(0x40)\n      dup1\n      swap2\n      sub\n      swap1\n      revert\n    tag_457:\n        /* \"FreelanceMarketplace.sol\":6598:6604  chosen */\n      dup1\n        /* \"FreelanceMarketplace.sol\":6598:6611  chosen.amount */\n      0x20\n      add\n      mload\n        /* \"FreelanceMarketplace.sol\":6585:6594  msg.value */\n      callvalue\n        /* \"FreelanceMarketplace.sol\":6585:6611  msg.value == chosen.amount */\n      eq\n        /* \"FreelanceMarketplace.sol\":6577:6636  require(msg.value == chosen.amount, \"Ether must match bid\") */\n      tag_460\n      jumpi\n      mload(0x40)\n      0x08c379a000000000000000000000000000000000000000000000000000000000\n      dup2\n      mstore\n      0x04\n      add\n      tag_461\n      swap1\n      tag_462\n      jump\t// in\n    tag_461:\n      mload(0x40)\n      dup1\n      swap2\n      sub\n      swap1\n      revert\n    tag_460:\n        /* \"FreelanceMarketplace.sol\":6666:6675  msg.value */\n      callvalue\n        /* \"FreelanceMarketplace.sol\":6649:6655  escrow */\n      0x04\n        /* \"FreelanceMarketplace.sol\":6649:6663  escrow[_jobId] */\n      0x00\n        /* \"FreelanceMarketplace.sol\":6656:6662  _jobId */\n      dup7\n        /* \"FreelanceMarketplace.sol\":6649:6663  escrow[_jobId] */\n      dup2\n      mstore\n      0x20\n      add\n      swap1\n      dup2\n      mstore\n      0x20\n      add\n      0x00\n      keccak256\n        /* \"FreelanceMarketplace.sol\":6649:6675  escrow[_jobId] = msg.value */\n      dup2\n      swap1\n      sstore\n      pop\n        /* \"FreelanceMarketplace.sol\":6707:6716  msg.value */\n      callvalue\n        /* \"FreelanceMarketplace.sol\":6686:6703  totalEscrowLocked */\n      0x05\n      0x00\n        /* \"FreelanceMarketplace.sol\":6686:6716  totalEscrowLocked += msg.value */\n      dup3\n      dup3\n      sload\n      tag_463\n      swap2\n      swap1\n      tag_272\n      jump\t// in\n    tag_463:\n      swap3\n      pop\n      pop\n      dup2\n      swap1\n      sstore\n      pop\n        /* \"FreelanceMarketplace.sol\":6749:6755  chosen */\n      dup1\n        /* \"FreelanceMarketplace.sol\":6749:6766  chosen.freelancer */\n      0x00\n      add\n      mload\n        /* \"FreelanceMarketplace.sol\":6729:6730  j */\n      dup3\n        /* \"FreelanceMarketplace.sol\":6729:6746  j.hiredFreelancer */\n      0x06\n      add\n      0x01\n        /* \"FreelanceMarketplace.sol\":6729:6766  j.hiredFreelancer = chosen.freelancer */\n      0x0100\n      exp\n      dup2\n      sload\n      dup2\n      0xffffffffffffffffffffffffffffffffffffffff\n      mul\n      not\n      and\n      swap1\n      dup4\n      0xffffffffffffffffffffffffffffffffffffffff\n      and\n      mul\n      or\n      swap1\n      sstore\n      pop\n        /* \"FreelanceMarketplace.sol\":6799:6805  chosen */\n      dup1\n        /* \"FreelanceMarketplace.sol\":6799:6812  chosen.amount */\n      0x20\n      add\n      mload\n        /* \"FreelanceMarketplace.sol\":6777:6778  j */\n      dup3\n        /* \"FreelanceMarketplace.sol\":6777:6796  j.acceptedBidAmount */\n      0x07\n      add\n        /* \"FreelanceMarketplace.sol\":6777:6812  j.acceptedBidAmount = chosen.amount */\n      dup2\n      swap1\n      sstore\n      pop\n        /* \"FreelanceMarketplace.sol\":6834:6854  JobStatus.InProgress */\n      0x01\n        /* \"FreelanceMarketplace.sol\":6823:6824  j */\n      dup3\n        /* \"FreelanceMarketplace.sol\":6823:6831  j.status */\n      0x06\n      add\n      0x00\n        /* \"FreelanceMarketplace.sol\":6823:6854  j.status = JobStatus.InProgress */\n      0x0100\n      exp\n      dup2\n      sload\n      dup2\n      0xff\n      mul\n      not\n      and\n      swap1\n      dup4\n      0x05\n      dup2\n      gt\n      iszero\n      tag_464\n      jumpi\n      tag_465\n      tag_132\n      jump\t// in\n    tag_465:\n    tag_464:\n      mul\n      or\n      swap1\n      sstore\n      pop\n        /* \"FreelanceMarketplace.sol\":6896:6902  chosen */\n      dup1\n        /* \"FreelanceMarketplace.sol\":6896:6913  chosen.freelancer */\n      0x00\n      add\n      mload\n        /* \"FreelanceMarketplace.sol\":6872:6929  FreelancerHired(_jobId, chosen.freelancer, chosen.amount) */\n      0xffffffffffffffffffffffffffffffffffffffff\n      and\n        /* \"FreelanceMarketplace.sol\":6888:6894  _jobId */\n      dup5\n        /* \"FreelanceMarketplace.sol\":6872:6929  FreelancerHired(_jobId, chosen.freelancer, chosen.amount) */\n      0x56df0a8471265defbc5fc12acd0d3697af77b77a7c9ba0137e81a1ce6d44bf52\n        /* \"FreelanceMarketplace.sol\":6915:6921  chosen */\n      dup4\n        /* \"FreelanceMarketplace.sol\":6915:6928  chosen.amount */\n      0x20\n      add\n      mload\n        /* \"FreelanceMarketplace.sol\":6872:6929  FreelancerHired(_jobId, chosen.freelancer, chosen.amount) */\n      mload(0x40)\n      tag_466\n      swap2\n      swap1\n      tag_34\n      jump\t// in\n    tag_466:\n      mload(0x40)\n      dup1\n      swap2\n      sub\n      swap1\n      log3\n        /* \"FreelanceMarketplace.sol\":6172:6937  {... */\n      pop\n      pop\n        /* \"FreelanceMarketplace.sol\":1372:1373  1 */\n      0x01\n        /* \"FreelanceMarketplace.sol\":1362:1369  _locked */\n      0x06\n        /* \"FreelanceMarketplace.sol\":1362:1373  _locked = 1 */\n      dup2\n      swap1\n      sstore\n      pop\n        /* \"FreelanceMarketplace.sol\":6072:6937  function hireFreelancer(uint256 _jobId, uint256 _bidIndex) external payable onlyClient nonReentrant {... */\n      pop\n      pop\n      jump\t// out\n        /* \"FreelanceMarketplace.sol\":880:912  address public immutable arbiter */\n    tag_109:\n      immutable(\"0x5ae62207e7adee0b793bf869601474e77943fa4d9e3e0420f34d788e59bc19bd\")\n      dup2\n      jump\t// out\n        /* \"FreelanceMarketplace.sol\":2998:3140  function _calculateFee(uint256 amountWei) internal pure returns (uint256) {... */\n    tag_200:\n        /* \"FreelanceMarketplace.sol\":3063:3070  uint256 */\n      0x00\n        /* \"FreelanceMarketplace.sol\":3129:3132  100 */\n      0x64\n        /* \"FreelanceMarketplace.sol\":3103:3125  _feePercent(amountWei) */\n      tag_468\n        /* \"FreelanceMarketplace.sol\":3115:3124  amountWei */\n      dup4\n        /* \"FreelanceMarketplace.sol\":3103:3114  _feePercent */\n      tag_469\n        /* \"FreelanceMarketplace.sol\":3103:3125  _feePercent(amountWei) */\n      jump\t// in\n    tag_468:\n        /* \"FreelanceMarketplace.sol\":3091:3100  amountWei */\n      dup4\n        /* \"FreelanceMarketplace.sol\":3091:3125  amountWei * _feePercent(amountWei) */\n      tag_470\n      swap2\n      swap1\n      tag_471\n      jump\t// in\n    tag_470:\n        /* \"FreelanceMarketplace.sol\":3090:3132  (amountWei * _feePercent(amountWei)) / 100 */\n      tag_472\n      swap2\n      swap1\n      tag_473\n      jump\t// in\n    tag_472:\n        /* \"FreelanceMarketplace.sol\":3083:3132  return (amountWei * _feePercent(amountWei)) / 100 */\n      swap1\n      pop\n        /* \"FreelanceMarketplace.sol\":2998:3140  function _calculateFee(uint256 amountWei) internal pure returns (uint256) {... */\n      swap2\n      swap1\n      pop\n      jump\t// out\n        /* \"FreelanceMarketplace.sol\":2863:2990  function _feePercent(uint256 amountWei) internal pure returns (uint256) {... */\n    tag_469:\n        /* \"FreelanceMarketplace.sol\":2926:2933  uint256 */\n      0x00\n        /* \"FreelanceMarketplace.sol\":2966:2973  1 ether */\n      0x0de0b6b3a7640000\n        /* \"FreelanceMarketplace.sol\":2954:2963  amountWei */\n      dup3\n        /* \"FreelanceMarketplace.sol\":2954:2973  amountWei < 1 ether */\n      lt\n        /* \"FreelanceMarketplace.sol\":2953:2982  (amountWei < 1 ether) ? 2 : 1 */\n      tag_475\n      jumpi\n        /* \"FreelanceMarketplace.sol\":2981:2982  1 */\n      0x01\n        /* \"FreelanceMarketplace.sol\":2953:2982  (amountWei < 1 ether) ? 2 : 1 */\n      jump(tag_476)\n    tag_475:\n        /* \"FreelanceMarketplace.sol\":2977:2978  2 */\n      0x02\n        /* \"FreelanceMarketplace.sol\":2953:2982  (amountWei < 1 ether) ? 2 : 1 */\n    tag_476:\n        /* \"FreelanceMarketplace.sol\":2946:2982  return (amountWei < 1 ether) ? 2 : 1 */\n      0xff\n      and\n      swap1\n      pop\n        /* \"FreelanceMarketplace.sol\":2863:2990  function _feePercent(uint256 amountWei) internal pure returns (uint256) {... */\n      swap2\n      swap1\n      pop\n      jump\t// out\n    tag_276:\n      mload(0x40)\n      dup1\n      0x80\n      add\n      0x40\n      mstore\n      dup1\n      and(0xffffffffffffffffffffffffffffffffffffffff, 0x00)\n      dup2\n      mstore\n      0x20\n      add\n      0x00\n      dup2\n      mstore\n      0x20\n      add\n      0x00\n      dup2\n      mstore\n      0x20\n      add\n      iszero(iszero(0x00))\n      dup2\n      mstore\n      pop\n      swap1\n      jump\t// out\n        /* \"#utility.yul\":7:82   */\n    tag_477:\n        /* \"#utility.yul\":40:46   */\n      0x00\n        /* \"#utility.yul\":73:75   */\n      0x40\n        /* \"#utility.yul\":67:76   */\n      mload\n        /* \"#utility.yul\":57:76   */\n      swap1\n      pop\n        /* \"#utility.yul\":7:82   */\n      swap1\n      jump\t// out\n        /* \"#utility.yul\":88:205   */\n    tag_478:\n        /* \"#utility.yul\":197:198   */\n      0x00\n        /* \"#utility.yul\":194:195   */\n      dup1\n        /* \"#utility.yul\":187:199   */\n      revert\n        /* \"#utility.yul\":211:328   */\n    tag_479:\n        /* \"#utility.yul\":320:321   */\n      0x00\n        /* \"#utility.yul\":317:318   */\n      dup1\n        /* \"#utility.yul\":310:322   */\n      revert\n        /* \"#utility.yul\":334:411   */\n    tag_480:\n        /* \"#utility.yul\":371:378   */\n      0x00\n        /* \"#utility.yul\":400:405   */\n      dup2\n        /* \"#utility.yul\":389:405   */\n      swap1\n      pop\n        /* \"#utility.yul\":334:411   */\n      swap2\n      swap1\n      pop\n      jump\t// out\n        /* \"#utility.yul\":417:539   */\n    tag_481:\n        /* \"#utility.yul\":490:514   */\n      tag_623\n        /* \"#utility.yul\":508:513   */\n      dup2\n        /* \"#utility.yul\":490:514   */\n      tag_480\n      jump\t// in\n    tag_623:\n        /* \"#utility.yul\":483:488   */\n      dup2\n        /* \"#utility.yul\":480:515   */\n      eq\n        /* \"#utility.yul\":470:533   */\n      tag_624\n      jumpi\n        /* \"#utility.yul\":529:530   */\n      0x00\n        /* \"#utility.yul\":526:527   */\n      dup1\n        /* \"#utility.yul\":519:531   */\n      revert\n        /* \"#utility.yul\":470:533   */\n    tag_624:\n        /* \"#utility.yul\":417:539   */\n      pop\n      jump\t// out\n        /* \"#utility.yul\":545:684   */\n    tag_482:\n        /* \"#utility.yul\":591:596   */\n      0x00\n        /* \"#utility.yul\":629:635   */\n      dup2\n        /* \"#utility.yul\":616:636   */\n      calldataload\n        /* \"#utility.yul\":607:636   */\n      swap1\n      pop\n        /* \"#utility.yul\":645:678   */\n      tag_626\n        /* \"#utility.yul\":672:677   */\n      dup2\n        /* \"#utility.yul\":645:678   */\n      tag_481\n      jump\t// in\n    tag_626:\n        /* \"#utility.yul\":545:684   */\n      swap3\n      swap2\n      pop\n      pop\n      jump\t// out\n        /* \"#utility.yul\":690:1019   */\n    tag_26:\n        /* \"#utility.yul\":749:755   */\n      0x00\n        /* \"#utility.yul\":798:800   */\n      0x20\n        /* \"#utility.yul\":786:795   */\n      dup3\n        /* \"#utility.yul\":777:784   */\n      dup5\n        /* \"#utility.yul\":773:796   */\n      sub\n        /* \"#utility.yul\":769:801   */\n      slt\n        /* \"#utility.yul\":766:885   */\n      iszero\n      tag_628\n      jumpi\n        /* \"#utility.yul\":804:883   */\n      tag_629\n      tag_478\n      jump\t// in\n    tag_629:\n        /* \"#utility.yul\":766:885   */\n    tag_628:\n        /* \"#utility.yul\":924:925   */\n      0x00\n        /* \"#utility.yul\":949:1002   */\n      tag_630\n        /* \"#utility.yul\":994:1001   */\n      dup5\n        /* \"#utility.yul\":985:991   */\n      dup3\n        /* \"#utility.yul\":974:983   */\n      dup6\n        /* \"#utility.yul\":970:992   */\n      add\n        /* \"#utility.yul\":949:1002   */\n      tag_482\n      jump\t// in\n    tag_630:\n        /* \"#utility.yul\":939:1002   */\n      swap2\n      pop\n        /* \"#utility.yul\":895:1012   */\n      pop\n        /* \"#utility.yul\":690:1019   */\n      swap3\n      swap2\n      pop\n      pop\n      jump\t// out\n        /* \"#utility.yul\":1025:1143   */\n    tag_483:\n        /* \"#utility.yul\":1112:1136   */\n      tag_632\n        /* \"#utility.yul\":1130:1135   */\n      dup2\n        /* \"#utility.yul\":1112:1136   */\n      tag_480\n      jump\t// in\n    tag_632:\n        /* \"#utility.yul\":1107:1110   */\n      dup3\n        /* \"#utility.yul\":1100:1137   */\n      mstore\n        /* \"#utility.yul\":1025:1143   */\n      pop\n      pop\n      jump\t// out\n        /* \"#utility.yul\":1149:1275   */\n    tag_484:\n        /* \"#utility.yul\":1186:1193   */\n      0x00\n        /* \"#utility.yul\":1226:1268   */\n      0xffffffffffffffffffffffffffffffffffffffff\n        /* \"#utility.yul\":1219:1224   */\n      dup3\n        /* \"#utility.yul\":1215:1269   */\n      and\n        /* \"#utility.yul\":1204:1269   */\n      swap1\n      pop\n        /* \"#utility.yul\":1149:1275   */\n      swap2\n      swap1\n      pop\n      jump\t// out\n        /* \"#utility.yul\":1281:1377   */\n    tag_485:\n        /* \"#utility.yul\":1318:1325   */\n      0x00\n        /* \"#utility.yul\":1347:1371   */\n      tag_635\n        /* \"#utility.yul\":1365:1370   */\n      dup3\n        /* \"#utility.yul\":1347:1371   */\n      tag_484\n      jump\t// in\n    tag_635:\n        /* \"#utility.yul\":1336:1371   */\n      swap1\n      pop\n        /* \"#utility.yul\":1281:1377   */\n      swap2\n      swap1\n      pop\n      jump\t// out\n        /* \"#utility.yul\":1383:1501   */\n    tag_486:\n        /* \"#utility.yul\":1470:1494   */\n      tag_637\n        /* \"#utility.yul\":1488:1493   */\n      dup2\n        /* \"#utility.yul\":1470:1494   */\n      tag_485\n      jump\t// in\n    tag_637:\n        /* \"#utility.yul\":1465:1468   */\n      dup3\n        /* \"#utility.yul\":1458:1495   */\n      mstore\n        /* \"#utility.yul\":1383:1501   */\n      pop\n      pop\n      jump\t// out\n        /* \"#utility.yul\":1507:1606   */\n    tag_487:\n        /* \"#utility.yul\":1559:1565   */\n      0x00\n        /* \"#utility.yul\":1593:1598   */\n      dup2\n        /* \"#utility.yul\":1587:1599   */\n      mload\n        /* \"#utility.yul\":1577:1599   */\n      swap1\n      pop\n        /* \"#utility.yul\":1507:1606   */\n      swap2\n      swap1\n      pop\n      jump\t// out\n        /* \"#utility.yul\":1612:1781   */\n    tag_488:\n        /* \"#utility.yul\":1696:1707   */\n      0x00\n        /* \"#utility.yul\":1730:1736   */\n      dup3\n        /* \"#utility.yul\":1725:1728   */\n      dup3\n        /* \"#utility.yul\":1718:1737   */\n      mstore\n        /* \"#utility.yul\":1770:1774   */\n      0x20\n        /* \"#utility.yul\":1765:1768   */\n      dup3\n        /* \"#utility.yul\":1761:1775   */\n      add\n        /* \"#utility.yul\":1746:1775   */\n      swap1\n      pop\n        /* \"#utility.yul\":1612:1781   */\n      swap3\n      swap2\n      pop\n      pop\n      jump\t// out\n        /* \"#utility.yul\":1787:2035   */\n    tag_489:\n        /* \"#utility.yul\":1869:1870   */\n      0x00\n        /* \"#utility.yul\":1879:1992   */\n    tag_641:\n        /* \"#utility.yul\":1893:1899   */\n      dup4\n        /* \"#utility.yul\":1890:1891   */\n      dup2\n        /* \"#utility.yul\":1887:1900   */\n      lt\n        /* \"#utility.yul\":1879:1992   */\n      iszero\n      tag_643\n      jumpi\n        /* \"#utility.yul\":1978:1979   */\n      dup1\n        /* \"#utility.yul\":1973:1976   */\n      dup3\n        /* \"#utility.yul\":1969:1980   */\n      add\n        /* \"#utility.yul\":1963:1981   */\n      mload\n        /* \"#utility.yul\":1959:1960   */\n      dup2\n        /* \"#utility.yul\":1954:1957   */\n      dup5\n        /* \"#utility.yul\":1950:1961   */\n      add\n        /* \"#utility.yul\":1943:1982   */\n      mstore\n        /* \"#utility.yul\":1915:1917   */\n      0x20\n        /* \"#utility.yul\":1912:1913   */\n      dup2\n        /* \"#utility.yul\":1908:1918   */\n      add\n        /* \"#utility.yul\":1903:1918   */\n      swap1\n      pop\n        /* \"#utility.yul\":1879:1992   */\n      jump(tag_641)\n    tag_643:\n        /* \"#utility.yul\":2026:2027   */\n      0x00\n        /* \"#utility.yul\":2017:2023   */\n      dup5\n        /* \"#utility.yul\":2012:2015   */\n      dup5\n        /* \"#utility.yul\":2008:2024   */\n      add\n        /* \"#utility.yul\":2001:2028   */\n      mstore\n        /* \"#utility.yul\":1849:2035   */\n      pop\n        /* \"#utility.yul\":1787:2035   */\n      pop\n      pop\n      pop\n      jump\t// out\n        /* \"#utility.yul\":2041:2143   */\n    tag_490:\n        /* \"#utility.yul\":2082:2088   */\n      0x00\n        /* \"#utility.yul\":2133:2135   */\n      0x1f\n        /* \"#utility.yul\":2129:2136   */\n      not\n        /* \"#utility.yul\":2124:2126   */\n      0x1f\n        /* \"#utility.yul\":2117:2122   */\n      dup4\n        /* \"#utility.yul\":2113:2127   */\n      add\n        /* \"#utility.yul\":2109:2137   */\n      and\n        /* \"#utility.yul\":2099:2137   */\n      swap1\n      pop\n        /* \"#utility.yul\":2041:2143   */\n      swap2\n      swap1\n      pop\n      jump\t// out\n        /* \"#utility.yul\":2149:2526   */\n    tag_491:\n        /* \"#utility.yul\":2237:2240   */\n      0x00\n        /* \"#utility.yul\":2265:2304   */\n      tag_646\n        /* \"#utility.yul\":2298:2303   */\n      dup3\n        /* \"#utility.yul\":2265:2304   */\n      tag_487\n      jump\t// in\n    tag_646:\n        /* \"#utility.yul\":2320:2391   */\n      tag_647\n        /* \"#utility.yul\":2384:2390   */\n      dup2\n        /* \"#utility.yul\":2379:2382   */\n      dup6\n        /* \"#utility.yul\":2320:2391   */\n      tag_488\n      jump\t// in\n    tag_647:\n        /* \"#utility.yul\":2313:2391   */\n      swap4\n      pop\n        /* \"#utility.yul\":2400:2465   */\n      tag_648\n        /* \"#utility.yul\":2458:2464   */\n      dup2\n        /* \"#utility.yul\":2453:2456   */\n      dup6\n        /* \"#utility.yul\":2446:2450   */\n      0x20\n        /* \"#utility.yul\":2439:2444   */\n      dup7\n        /* \"#utility.yul\":2435:2451   */\n      add\n        /* \"#utility.yul\":2400:2465   */\n      tag_489\n      jump\t// in\n    tag_648:\n        /* \"#utility.yul\":2490:2519   */\n      tag_649\n        /* \"#utility.yul\":2512:2518   */\n      dup2\n        /* \"#utility.yul\":2490:2519   */\n      tag_490\n      jump\t// in\n    tag_649:\n        /* \"#utility.yul\":2485:2488   */\n      dup5\n        /* \"#utility.yul\":2481:2520   */\n      add\n        /* \"#utility.yul\":2474:2520   */\n      swap2\n      pop\n        /* \"#utility.yul\":2241:2526   */\n      pop\n        /* \"#utility.yul\":2149:2526   */\n      swap3\n      swap2\n      pop\n      pop\n      jump\t// out\n        /* \"#utility.yul\":2532:2712   */\n    tag_132:\n        /* \"#utility.yul\":2580:2657   */\n      0x4e487b7100000000000000000000000000000000000000000000000000000000\n        /* \"#utility.yul\":2577:2578   */\n      0x00\n        /* \"#utility.yul\":2570:2658   */\n      mstore\n        /* \"#utility.yul\":2677:2681   */\n      0x21\n        /* \"#utility.yul\":2674:2675   */\n      0x04\n        /* \"#utility.yul\":2667:2682   */\n      mstore\n        /* \"#utility.yul\":2701:2705   */\n      0x24\n        /* \"#utility.yul\":2698:2699   */\n      0x00\n        /* \"#utility.yul\":2691:2706   */\n      revert\n        /* \"#utility.yul\":2718:2835   */\n    tag_492:\n        /* \"#utility.yul\":2803:2804   */\n      0x06\n        /* \"#utility.yul\":2796:2801   */\n      dup2\n        /* \"#utility.yul\":2793:2805   */\n      lt\n        /* \"#utility.yul\":2783:2829   */\n      tag_652\n      jumpi\n        /* \"#utility.yul\":2809:2827   */\n      tag_653\n      tag_132\n      jump\t// in\n    tag_653:\n        /* \"#utility.yul\":2783:2829   */\n    tag_652:\n        /* \"#utility.yul\":2718:2835   */\n      pop\n      jump\t// out\n        /* \"#utility.yul\":2841:2976   */\n    tag_493:\n        /* \"#utility.yul\":2890:2897   */\n      0x00\n        /* \"#utility.yul\":2919:2924   */\n      dup2\n        /* \"#utility.yul\":2908:2924   */\n      swap1\n      pop\n        /* \"#utility.yul\":2925:2970   */\n      tag_655\n        /* \"#utility.yul\":2964:2969   */\n      dup3\n        /* \"#utility.yul\":2925:2970   */\n      tag_492\n      jump\t// in\n    tag_655:\n        /* \"#utility.yul\":2841:2976   */\n      swap2\n      swap1\n      pop\n      jump\t// out\n        /* \"#utility.yul\":2982:3117   */\n    tag_494:\n        /* \"#utility.yul\":3042:3051   */\n      0x00\n        /* \"#utility.yul\":3075:3111   */\n      tag_657\n        /* \"#utility.yul\":3105:3110   */\n      dup3\n        /* \"#utility.yul\":3075:3111   */\n      tag_493\n      jump\t// in\n    tag_657:\n        /* \"#utility.yul\":3062:3111   */\n      swap1\n      pop\n        /* \"#utility.yul\":2982:3117   */\n      swap2\n      swap1\n      pop\n      jump\t// out\n        /* \"#utility.yul\":3123:3274   */\n    tag_495:\n        /* \"#utility.yul\":3220:3267   */\n      tag_659\n        /* \"#utility.yul\":3261:3266   */\n      dup2\n        /* \"#utility.yul\":3220:3267   */\n      tag_494\n      jump\t// in\n    tag_659:\n        /* \"#utility.yul\":3215:3218   */\n      dup3\n        /* \"#utility.yul\":3208:3268   */\n      mstore\n        /* \"#utility.yul\":3123:3274   */\n      pop\n      pop\n      jump\t// out\n        /* \"#utility.yul\":3280:3370   */\n    tag_496:\n        /* \"#utility.yul\":3314:3321   */\n      0x00\n        /* \"#utility.yul\":3357:3362   */\n      dup2\n        /* \"#utility.yul\":3350:3363   */\n      iszero\n        /* \"#utility.yul\":3343:3364   */\n      iszero\n        /* \"#utility.yul\":3332:3364   */\n      swap1\n      pop\n        /* \"#utility.yul\":3280:3370   */\n      swap2\n      swap1\n      pop\n      jump\t// out\n        /* \"#utility.yul\":3376:3485   */\n    tag_497:\n        /* \"#utility.yul\":3457:3478   */\n      tag_662\n        /* \"#utility.yul\":3472:3477   */\n      dup2\n        /* \"#utility.yul\":3457:3478   */\n      tag_496\n      jump\t// in\n    tag_662:\n        /* \"#utility.yul\":3452:3455   */\n      dup3\n        /* \"#utility.yul\":3445:3479   */\n      mstore\n        /* \"#utility.yul\":3376:3485   */\n      pop\n      pop\n      jump\t// out\n        /* \"#utility.yul\":3491:5102   */\n    tag_29:\n        /* \"#utility.yul\":3926:3930   */\n      0x00\n        /* \"#utility.yul\":3964:3967   */\n      0x0180\n        /* \"#utility.yul\":3953:3962   */\n      dup3\n        /* \"#utility.yul\":3949:3968   */\n      add\n        /* \"#utility.yul\":3941:3968   */\n      swap1\n      pop\n        /* \"#utility.yul\":3978:4049   */\n      tag_664\n        /* \"#utility.yul\":4046:4047   */\n      0x00\n        /* \"#utility.yul\":4035:4044   */\n      dup4\n        /* \"#utility.yul\":4031:4048   */\n      add\n        /* \"#utility.yul\":4022:4028   */\n      dup16\n        /* \"#utility.yul\":3978:4049   */\n      tag_483\n      jump\t// in\n    tag_664:\n        /* \"#utility.yul\":4059:4131   */\n      tag_665\n        /* \"#utility.yul\":4127:4129   */\n      0x20\n        /* \"#utility.yul\":4116:4125   */\n      dup4\n        /* \"#utility.yul\":4112:4130   */\n      add\n        /* \"#utility.yul\":4103:4109   */\n      dup15\n        /* \"#utility.yul\":4059:4131   */\n      tag_486\n      jump\t// in\n    tag_665:\n        /* \"#utility.yul\":4178:4187   */\n      dup2\n        /* \"#utility.yul\":4172:4176   */\n      dup2\n        /* \"#utility.yul\":4168:4188   */\n      sub\n        /* \"#utility.yul\":4163:4165   */\n      0x40\n        /* \"#utility.yul\":4152:4161   */\n      dup4\n        /* \"#utility.yul\":4148:4166   */\n      add\n        /* \"#utility.yul\":4141:4189   */\n      mstore\n        /* \"#utility.yul\":4206:4284   */\n      tag_666\n        /* \"#utility.yul\":4279:4283   */\n      dup2\n        /* \"#utility.yul\":4270:4276   */\n      dup14\n        /* \"#utility.yul\":4206:4284   */\n      tag_491\n      jump\t// in\n    tag_666:\n        /* \"#utility.yul\":4198:4284   */\n      swap1\n      pop\n        /* \"#utility.yul\":4331:4340   */\n      dup2\n        /* \"#utility.yul\":4325:4329   */\n      dup2\n        /* \"#utility.yul\":4321:4341   */\n      sub\n        /* \"#utility.yul\":4316:4318   */\n      0x60\n        /* \"#utility.yul\":4305:4314   */\n      dup4\n        /* \"#utility.yul\":4301:4319   */\n      add\n        /* \"#utility.yul\":4294:4342   */\n      mstore\n        /* \"#utility.yul\":4359:4437   */\n      tag_667\n        /* \"#utility.yul\":4432:4436   */\n      dup2\n        /* \"#utility.yul\":4423:4429   */\n      dup13\n        /* \"#utility.yul\":4359:4437   */\n      tag_491\n      jump\t// in\n    tag_667:\n        /* \"#utility.yul\":4351:4437   */\n      swap1\n      pop\n        /* \"#utility.yul\":4447:4520   */\n      tag_668\n        /* \"#utility.yul\":4515:4518   */\n      0x80\n        /* \"#utility.yul\":4504:4513   */\n      dup4\n        /* \"#utility.yul\":4500:4519   */\n      add\n        /* \"#utility.yul\":4491:4497   */\n      dup12\n        /* \"#utility.yul\":4447:4520   */\n      tag_483\n      jump\t// in\n    tag_668:\n        /* \"#utility.yul\":4530:4603   */\n      tag_669\n        /* \"#utility.yul\":4598:4601   */\n      0xa0\n        /* \"#utility.yul\":4587:4596   */\n      dup4\n        /* \"#utility.yul\":4583:4602   */\n      add\n        /* \"#utility.yul\":4574:4580   */\n      dup11\n        /* \"#utility.yul\":4530:4603   */\n      tag_483\n      jump\t// in\n    tag_669:\n        /* \"#utility.yul\":4613:4696   */\n      tag_670\n        /* \"#utility.yul\":4691:4694   */\n      0xc0\n        /* \"#utility.yul\":4680:4689   */\n      dup4\n        /* \"#utility.yul\":4676:4695   */\n      add\n        /* \"#utility.yul\":4667:4673   */\n      dup10\n        /* \"#utility.yul\":4613:4696   */\n      tag_495\n      jump\t// in\n    tag_670:\n        /* \"#utility.yul\":4706:4779   */\n      tag_671\n        /* \"#utility.yul\":4774:4777   */\n      0xe0\n        /* \"#utility.yul\":4763:4772   */\n      dup4\n        /* \"#utility.yul\":4759:4778   */\n      add\n        /* \"#utility.yul\":4750:4756   */\n      dup9\n        /* \"#utility.yul\":4706:4779   */\n      tag_486\n      jump\t// in\n    tag_671:\n        /* \"#utility.yul\":4789:4862   */\n      tag_672\n        /* \"#utility.yul\":4857:4860   */\n      0x0100\n        /* \"#utility.yul\":4846:4855   */\n      dup4\n        /* \"#utility.yul\":4842:4861   */\n      add\n        /* \"#utility.yul\":4833:4839   */\n      dup8\n        /* \"#utility.yul\":4789:4862   */\n      tag_483\n      jump\t// in\n    tag_672:\n        /* \"#utility.yul\":4872:4939   */\n      tag_673\n        /* \"#utility.yul\":4934:4937   */\n      0x0120\n        /* \"#utility.yul\":4923:4932   */\n      dup4\n        /* \"#utility.yul\":4919:4938   */\n      add\n        /* \"#utility.yul\":4910:4916   */\n      dup7\n        /* \"#utility.yul\":4872:4939   */\n      tag_497\n      jump\t// in\n    tag_673:\n        /* \"#utility.yul\":4949:5017   */\n      tag_674\n        /* \"#utility.yul\":5012:5015   */\n      0x0140\n        /* \"#utility.yul\":5001:5010   */\n      dup4\n        /* \"#utility.yul\":4997:5016   */\n      add\n        /* \"#utility.yul\":4987:4994   */\n      dup6\n        /* \"#utility.yul\":4949:5017   */\n      tag_497\n      jump\t// in\n    tag_674:\n        /* \"#utility.yul\":5027:5095   */\n      tag_675\n        /* \"#utility.yul\":5090:5093   */\n      0x0160\n        /* \"#utility.yul\":5079:5088   */\n      dup4\n        /* \"#utility.yul\":5075:5094   */\n      add\n        /* \"#utility.yul\":5065:5072   */\n      dup5\n        /* \"#utility.yul\":5027:5095   */\n      tag_497\n      jump\t// in\n    tag_675:\n        /* \"#utility.yul\":3491:5102   */\n      swap14\n      swap13\n      pop\n      pop\n      pop\n      pop\n      pop\n      pop\n      pop\n      pop\n      pop\n      pop\n      pop\n      pop\n      pop\n      jump\t// out\n        /* \"#utility.yul\":5108:5330   */\n    tag_34:\n        /* \"#utility.yul\":5201:5205   */\n      0x00\n        /* \"#utility.yul\":5239:5241   */\n      0x20\n        /* \"#utility.yul\":5228:5237   */\n      dup3\n        /* \"#utility.yul\":5224:5242   */\n      add\n        /* \"#utility.yul\":5216:5242   */\n      swap1\n      pop\n        /* \"#utility.yul\":5252:5323   */\n      tag_677\n        /* \"#utility.yul\":5320:5321   */\n      0x00\n        /* \"#utility.yul\":5309:5318   */\n      dup4\n        /* \"#utility.yul\":5305:5322   */\n      add\n        /* \"#utility.yul\":5296:5302   */\n      dup5\n        /* \"#utility.yul\":5252:5323   */\n      tag_483\n      jump\t// in\n    tag_677:\n        /* \"#utility.yul\":5108:5330   */\n      swap3\n      swap2\n      pop\n      pop\n      jump\t// out\n        /* \"#utility.yul\":5336:5453   */\n    tag_498:\n        /* \"#utility.yul\":5445:5446   */\n      0x00\n        /* \"#utility.yul\":5442:5443   */\n      dup1\n        /* \"#utility.yul\":5435:5447   */\n      revert\n        /* \"#utility.yul\":5459:5576   */\n    tag_499:\n        /* \"#utility.yul\":5568:5569   */\n      0x00\n        /* \"#utility.yul\":5565:5566   */\n      dup1\n        /* \"#utility.yul\":5558:5570   */\n      revert\n        /* \"#utility.yul\":5582:5762   */\n    tag_500:\n        /* \"#utility.yul\":5630:5707   */\n      0x4e487b7100000000000000000000000000000000000000000000000000000000\n        /* \"#utility.yul\":5627:5628   */\n      0x00\n        /* \"#utility.yul\":5620:5708   */\n      mstore\n        /* \"#utility.yul\":5727:5731   */\n      0x41\n        /* \"#utility.yul\":5724:5725   */\n      0x04\n        /* \"#utility.yul\":5717:5732   */\n      mstore\n        /* \"#utility.yul\":5751:5755   */\n      0x24\n        /* \"#utility.yul\":5748:5749   */\n      0x00\n        /* \"#utility.yul\":5741:5756   */\n      revert\n        /* \"#utility.yul\":5768:6049   */\n    tag_501:\n        /* \"#utility.yul\":5851:5878   */\n      tag_682\n        /* \"#utility.yul\":5873:5877   */\n      dup3\n        /* \"#utility.yul\":5851:5878   */\n      tag_490\n      jump\t// in\n    tag_682:\n        /* \"#utility.yul\":5843:5849   */\n      dup2\n        /* \"#utility.yul\":5839:5879   */\n      add\n        /* \"#utility.yul\":5981:5987   */\n      dup2\n        /* \"#utility.yul\":5969:5979   */\n      dup2\n        /* \"#utility.yul\":5966:5988   */\n      lt\n        /* \"#utility.yul\":5945:5963   */\n      0xffffffffffffffff\n        /* \"#utility.yul\":5933:5943   */\n      dup3\n        /* \"#utility.yul\":5930:5964   */\n      gt\n        /* \"#utility.yul\":5927:5989   */\n      or\n        /* \"#utility.yul\":5924:6012   */\n      iszero\n      tag_683\n      jumpi\n        /* \"#utility.yul\":5992:6010   */\n      tag_684\n      tag_500\n      jump\t// in\n    tag_684:\n        /* \"#utility.yul\":5924:6012   */\n    tag_683:\n        /* \"#utility.yul\":6032:6042   */\n      dup1\n        /* \"#utility.yul\":6028:6030   */\n      0x40\n        /* \"#utility.yul\":6021:6043   */\n      mstore\n        /* \"#utility.yul\":5811:6049   */\n      pop\n        /* \"#utility.yul\":5768:6049   */\n      pop\n      pop\n      jump\t// out\n        /* \"#utility.yul\":6055:6184   */\n    tag_502:\n        /* \"#utility.yul\":6089:6095   */\n      0x00\n        /* \"#utility.yul\":6116:6136   */\n      tag_686\n      tag_477\n      jump\t// in\n    tag_686:\n        /* \"#utility.yul\":6106:6136   */\n      swap1\n      pop\n        /* \"#utility.yul\":6145:6178   */\n      tag_687\n        /* \"#utility.yul\":6173:6177   */\n      dup3\n        /* \"#utility.yul\":6165:6171   */\n      dup3\n        /* \"#utility.yul\":6145:6178   */\n      tag_501\n      jump\t// in\n    tag_687:\n        /* \"#utility.yul\":6055:6184   */\n      swap2\n      swap1\n      pop\n      jump\t// out\n        /* \"#utility.yul\":6190:6498   */\n    tag_503:\n        /* \"#utility.yul\":6252:6256   */\n      0x00\n        /* \"#utility.yul\":6342:6360   */\n      0xffffffffffffffff\n        /* \"#utility.yul\":6334:6340   */\n      dup3\n        /* \"#utility.yul\":6331:6361   */\n      gt\n        /* \"#utility.yul\":6328:6384   */\n      iszero\n      tag_689\n      jumpi\n        /* \"#utility.yul\":6364:6382   */\n      tag_690\n      tag_500\n      jump\t// in\n    tag_690:\n        /* \"#utility.yul\":6328:6384   */\n    tag_689:\n        /* \"#utility.yul\":6402:6431   */\n      tag_691\n        /* \"#utility.yul\":6424:6430   */\n      dup3\n        /* \"#utility.yul\":6402:6431   */\n      tag_490\n      jump\t// in\n    tag_691:\n        /* \"#utility.yul\":6394:6431   */\n      swap1\n      pop\n        /* \"#utility.yul\":6486:6490   */\n      0x20\n        /* \"#utility.yul\":6480:6484   */\n      dup2\n        /* \"#utility.yul\":6476:6491   */\n      add\n        /* \"#utility.yul\":6468:6491   */\n      swap1\n      pop\n        /* \"#utility.yul\":6190:6498   */\n      swap2\n      swap1\n      pop\n      jump\t// out\n        /* \"#utility.yul\":6504:6652   */\n    tag_504:\n        /* \"#utility.yul\":6602:6608   */\n      dup3\n        /* \"#utility.yul\":6597:6600   */\n      dup2\n        /* \"#utility.yul\":6592:6595   */\n      dup4\n        /* \"#utility.yul\":6579:6609   */\n      calldatacopy\n        /* \"#utility.yul\":6643:6644   */\n      0x00\n        /* \"#utility.yul\":6634:6640   */\n      dup4\n        /* \"#utility.yul\":6629:6632   */\n      dup4\n        /* \"#utility.yul\":6625:6641   */\n      add\n        /* \"#utility.yul\":6618:6645   */\n      mstore\n        /* \"#utility.yul\":6504:6652   */\n      pop\n      pop\n      pop\n      jump\t// out\n        /* \"#utility.yul\":6658:7083   */\n    tag_505:\n        /* \"#utility.yul\":6736:6741   */\n      0x00\n        /* \"#utility.yul\":6761:6827   */\n      tag_694\n        /* \"#utility.yul\":6777:6826   */\n      tag_695\n        /* \"#utility.yul\":6819:6825   */\n      dup5\n        /* \"#utility.yul\":6777:6826   */\n      tag_503\n      jump\t// in\n    tag_695:\n        /* \"#utility.yul\":6761:6827   */\n      tag_502\n      jump\t// in\n    tag_694:\n        /* \"#utility.yul\":6752:6827   */\n      swap1\n      pop\n        /* \"#utility.yul\":6850:6856   */\n      dup3\n        /* \"#utility.yul\":6843:6848   */\n      dup2\n        /* \"#utility.yul\":6836:6857   */\n      mstore\n        /* \"#utility.yul\":6888:6892   */\n      0x20\n        /* \"#utility.yul\":6881:6886   */\n      dup2\n        /* \"#utility.yul\":6877:6893   */\n      add\n        /* \"#utility.yul\":6926:6929   */\n      dup5\n        /* \"#utility.yul\":6917:6923   */\n      dup5\n        /* \"#utility.yul\":6912:6915   */\n      dup5\n        /* \"#utility.yul\":6908:6924   */\n      add\n        /* \"#utility.yul\":6905:6930   */\n      gt\n        /* \"#utility.yul\":6902:7014   */\n      iszero\n      tag_696\n      jumpi\n        /* \"#utility.yul\":6933:7012   */\n      tag_697\n      tag_499\n      jump\t// in\n    tag_697:\n        /* \"#utility.yul\":6902:7014   */\n    tag_696:\n        /* \"#utility.yul\":7023:7077   */\n      tag_698\n        /* \"#utility.yul\":7070:7076   */\n      dup5\n        /* \"#utility.yul\":7065:7068   */\n      dup3\n        /* \"#utility.yul\":7060:7063   */\n      dup6\n        /* \"#utility.yul\":7023:7077   */\n      tag_504\n      jump\t// in\n    tag_698:\n        /* \"#utility.yul\":6742:7083   */\n      pop\n        /* \"#utility.yul\":6658:7083   */\n      swap4\n      swap3\n      pop\n      pop\n      pop\n      jump\t// out\n        /* \"#utility.yul\":7103:7443   */\n    tag_506:\n        /* \"#utility.yul\":7159:7164   */\n      0x00\n        /* \"#utility.yul\":7208:7211   */\n      dup3\n        /* \"#utility.yul\":7201:7205   */\n      0x1f\n        /* \"#utility.yul\":7193:7199   */\n      dup4\n        /* \"#utility.yul\":7189:7206   */\n      add\n        /* \"#utility.yul\":7185:7212   */\n      slt\n        /* \"#utility.yul\":7175:7297   */\n      tag_700\n      jumpi\n        /* \"#utility.yul\":7216:7295   */\n      tag_701\n      tag_498\n      jump\t// in\n    tag_701:\n        /* \"#utility.yul\":7175:7297   */\n    tag_700:\n        /* \"#utility.yul\":7333:7339   */\n      dup2\n        /* \"#utility.yul\":7320:7340   */\n      calldataload\n        /* \"#utility.yul\":7358:7437   */\n      tag_702\n        /* \"#utility.yul\":7433:7436   */\n      dup5\n        /* \"#utility.yul\":7425:7431   */\n      dup3\n        /* \"#utility.yul\":7418:7422   */\n      0x20\n        /* \"#utility.yul\":7410:7416   */\n      dup7\n        /* \"#utility.yul\":7406:7423   */\n      add\n        /* \"#utility.yul\":7358:7437   */\n      tag_505\n      jump\t// in\n    tag_702:\n        /* \"#utility.yul\":7349:7437   */\n      swap2\n      pop\n        /* \"#utility.yul\":7165:7443   */\n      pop\n        /* \"#utility.yul\":7103:7443   */\n      swap3\n      swap2\n      pop\n      pop\n      jump\t// out\n        /* \"#utility.yul\":7449:7554   */\n    tag_507:\n        /* \"#utility.yul\":7528:7529   */\n      0x03\n        /* \"#utility.yul\":7521:7526   */\n      dup2\n        /* \"#utility.yul\":7518:7530   */\n      lt\n        /* \"#utility.yul\":7508:7548   */\n      tag_704\n      jumpi\n        /* \"#utility.yul\":7544:7545   */\n      0x00\n        /* \"#utility.yul\":7541:7542   */\n      dup1\n        /* \"#utility.yul\":7534:7546   */\n      revert\n        /* \"#utility.yul\":7508:7548   */\n    tag_704:\n        /* \"#utility.yul\":7449:7554   */\n      pop\n      jump\t// out\n        /* \"#utility.yul\":7560:7711   */\n    tag_508:\n        /* \"#utility.yul\":7612:7617   */\n      0x00\n        /* \"#utility.yul\":7650:7656   */\n      dup2\n        /* \"#utility.yul\":7637:7657   */\n      calldataload\n        /* \"#utility.yul\":7628:7657   */\n      swap1\n      pop\n        /* \"#utility.yul\":7666:7705   */\n      tag_706\n        /* \"#utility.yul\":7699:7704   */\n      dup2\n        /* \"#utility.yul\":7666:7705   */\n      tag_507\n      jump\t// in\n    tag_706:\n        /* \"#utility.yul\":7560:7711   */\n      swap3\n      swap2\n      pop\n      pop\n      jump\t// out\n        /* \"#utility.yul\":7717:8383   */\n    tag_38:\n        /* \"#utility.yul\":7801:7807   */\n      0x00\n        /* \"#utility.yul\":7809:7815   */\n      dup1\n        /* \"#utility.yul\":7858:7860   */\n      0x40\n        /* \"#utility.yul\":7846:7855   */\n      dup4\n        /* \"#utility.yul\":7837:7844   */\n      dup6\n        /* \"#utility.yul\":7833:7856   */\n      sub\n        /* \"#utility.yul\":7829:7861   */\n      slt\n        /* \"#utility.yul\":7826:7945   */\n      iszero\n      tag_708\n      jumpi\n        /* \"#utility.yul\":7864:7943   */\n      tag_709\n      tag_478\n      jump\t// in\n    tag_709:\n        /* \"#utility.yul\":7826:7945   */\n    tag_708:\n        /* \"#utility.yul\":8012:8013   */\n      0x00\n        /* \"#utility.yul\":8001:8010   */\n      dup4\n        /* \"#utility.yul\":7997:8014   */\n      add\n        /* \"#utility.yul\":7984:8015   */\n      calldataload\n        /* \"#utility.yul\":8042:8060   */\n      0xffffffffffffffff\n        /* \"#utility.yul\":8034:8040   */\n      dup2\n        /* \"#utility.yul\":8031:8061   */\n      gt\n        /* \"#utility.yul\":8028:8145   */\n      iszero\n      tag_710\n      jumpi\n        /* \"#utility.yul\":8064:8143   */\n      tag_711\n      tag_479\n      jump\t// in\n    tag_711:\n        /* \"#utility.yul\":8028:8145   */\n    tag_710:\n        /* \"#utility.yul\":8169:8232   */\n      tag_712\n        /* \"#utility.yul\":8224:8231   */\n      dup6\n        /* \"#utility.yul\":8215:8221   */\n      dup3\n        /* \"#utility.yul\":8204:8213   */\n      dup7\n        /* \"#utility.yul\":8200:8222   */\n      add\n        /* \"#utility.yul\":8169:8232   */\n      tag_506\n      jump\t// in\n    tag_712:\n        /* \"#utility.yul\":8159:8232   */\n      swap3\n      pop\n        /* \"#utility.yul\":7955:8242   */\n      pop\n        /* \"#utility.yul\":8281:8283   */\n      0x20\n        /* \"#utility.yul\":8307:8366   */\n      tag_713\n        /* \"#utility.yul\":8358:8365   */\n      dup6\n        /* \"#utility.yul\":8349:8355   */\n      dup3\n        /* \"#utility.yul\":8338:8347   */\n      dup7\n        /* \"#utility.yul\":8334:8356   */\n      add\n        /* \"#utility.yul\":8307:8366   */\n      tag_508\n      jump\t// in\n    tag_713:\n        /* \"#utility.yul\":8297:8366   */\n      swap2\n      pop\n        /* \"#utility.yul\":8252:8376   */\n      pop\n        /* \"#utility.yul\":7717:8383   */\n      swap3\n      pop\n      swap3\n      swap1\n      pop\n      jump\t// out\n        /* \"#utility.yul\":8389:8505   */\n    tag_509:\n        /* \"#utility.yul\":8459:8480   */\n      tag_715\n        /* \"#utility.yul\":8474:8479   */\n      dup2\n        /* \"#utility.yul\":8459:8480   */\n      tag_496\n      jump\t// in\n    tag_715:\n        /* \"#utility.yul\":8452:8457   */\n      dup2\n        /* \"#utility.yul\":8449:8481   */\n      eq\n        /* \"#utility.yul\":8439:8499   */\n      tag_716\n      jumpi\n        /* \"#utility.yul\":8495:8496   */\n      0x00\n        /* \"#utility.yul\":8492:8493   */\n      dup1\n        /* \"#utility.yul\":8485:8497   */\n      revert\n        /* \"#utility.yul\":8439:8499   */\n    tag_716:\n        /* \"#utility.yul\":8389:8505   */\n      pop\n      jump\t// out\n        /* \"#utility.yul\":8511:8644   */\n    tag_510:\n        /* \"#utility.yul\":8554:8559   */\n      0x00\n        /* \"#utility.yul\":8592:8598   */\n      dup2\n        /* \"#utility.yul\":8579:8599   */\n      calldataload\n        /* \"#utility.yul\":8570:8599   */\n      swap1\n      pop\n        /* \"#utility.yul\":8608:8638   */\n      tag_718\n        /* \"#utility.yul\":8632:8637   */\n      dup2\n        /* \"#utility.yul\":8608:8638   */\n      tag_509\n      jump\t// in\n    tag_718:\n        /* \"#utility.yul\":8511:8644   */\n      swap3\n      swap2\n      pop\n      pop\n      jump\t// out\n        /* \"#utility.yul\":8650:9118   */\n    tag_43:\n        /* \"#utility.yul\":8715:8721   */\n      0x00\n        /* \"#utility.yul\":8723:8729   */\n      dup1\n        /* \"#utility.yul\":8772:8774   */\n      0x40\n        /* \"#utility.yul\":8760:8769   */\n      dup4\n        /* \"#utility.yul\":8751:8758   */\n      dup6\n        /* \"#utility.yul\":8747:8770   */\n      sub\n        /* \"#utility.yul\":8743:8775   */\n      slt\n        /* \"#utility.yul\":8740:8859   */\n      iszero\n      tag_720\n      jumpi\n        /* \"#utility.yul\":8778:8857   */\n      tag_721\n      tag_478\n      jump\t// in\n    tag_721:\n        /* \"#utility.yul\":8740:8859   */\n    tag_720:\n        /* \"#utility.yul\":8898:8899   */\n      0x00\n        /* \"#utility.yul\":8923:8976   */\n      tag_722\n        /* \"#utility.yul\":8968:8975   */\n      dup6\n        /* \"#utility.yul\":8959:8965   */\n      dup3\n        /* \"#utility.yul\":8948:8957   */\n      dup7\n        /* \"#utility.yul\":8944:8966   */\n      add\n        /* \"#utility.yul\":8923:8976   */\n      tag_482\n      jump\t// in\n    tag_722:\n        /* \"#utility.yul\":8913:8976   */\n      swap3\n      pop\n        /* \"#utility.yul\":8869:8986   */\n      pop\n        /* \"#utility.yul\":9025:9027   */\n      0x20\n        /* \"#utility.yul\":9051:9101   */\n      tag_723\n        /* \"#utility.yul\":9093:9100   */\n      dup6\n        /* \"#utility.yul\":9084:9090   */\n      dup3\n        /* \"#utility.yul\":9073:9082   */\n      dup7\n        /* \"#utility.yul\":9069:9091   */\n      add\n        /* \"#utility.yul\":9051:9101   */\n      tag_510\n      jump\t// in\n    tag_723:\n        /* \"#utility.yul\":9041:9101   */\n      swap2\n      pop\n        /* \"#utility.yul\":8996:9111   */\n      pop\n        /* \"#utility.yul\":8650:9118   */\n      swap3\n      pop\n      swap3\n      swap1\n      pop\n      jump\t// out\n        /* \"#utility.yul\":9124:9598   */\n    tag_56:\n        /* \"#utility.yul\":9192:9198   */\n      0x00\n        /* \"#utility.yul\":9200:9206   */\n      dup1\n        /* \"#utility.yul\":9249:9251   */\n      0x40\n        /* \"#utility.yul\":9237:9246   */\n      dup4\n        /* \"#utility.yul\":9228:9235   */\n      dup6\n        /* \"#utility.yul\":9224:9247   */\n      sub\n        /* \"#utility.yul\":9220:9252   */\n      slt\n        /* \"#utility.yul\":9217:9336   */\n      iszero\n      tag_725\n      jumpi\n        /* \"#utility.yul\":9255:9334   */\n      tag_726\n      tag_478\n      jump\t// in\n    tag_726:\n        /* \"#utility.yul\":9217:9336   */\n    tag_725:\n        /* \"#utility.yul\":9375:9376   */\n      0x00\n        /* \"#utility.yul\":9400:9453   */\n      tag_727\n        /* \"#utility.yul\":9445:9452   */\n      dup6\n        /* \"#utility.yul\":9436:9442   */\n      dup3\n        /* \"#utility.yul\":9425:9434   */\n      dup7\n        /* \"#utility.yul\":9421:9443   */\n      add\n        /* \"#utility.yul\":9400:9453   */\n      tag_482\n      jump\t// in\n    tag_727:\n        /* \"#utility.yul\":9390:9453   */\n      swap3\n      pop\n        /* \"#utility.yul\":9346:9463   */\n      pop\n        /* \"#utility.yul\":9502:9504   */\n      0x20\n        /* \"#utility.yul\":9528:9581   */\n      tag_728\n        /* \"#utility.yul\":9573:9580   */\n      dup6\n        /* \"#utility.yul\":9564:9570   */\n      dup3\n        /* \"#utility.yul\":9553:9562   */\n      dup7\n        /* \"#utility.yul\":9549:9571   */\n      add\n        /* \"#utility.yul\":9528:9581   */\n      tag_482\n      jump\t// in\n    tag_728:\n        /* \"#utility.yul\":9518:9581   */\n      swap2\n      pop\n        /* \"#utility.yul\":9473:9591   */\n      pop\n        /* \"#utility.yul\":9124:9598   */\n      swap3\n      pop\n      swap3\n      swap1\n      pop\n      jump\t// out\n        /* \"#utility.yul\":9604:9712   */\n    tag_511:\n        /* \"#utility.yul\":9681:9705   */\n      tag_730\n        /* \"#utility.yul\":9699:9704   */\n      dup2\n        /* \"#utility.yul\":9681:9705   */\n      tag_485\n      jump\t// in\n    tag_730:\n        /* \"#utility.yul\":9676:9679   */\n      dup3\n        /* \"#utility.yul\":9669:9706   */\n      mstore\n        /* \"#utility.yul\":9604:9712   */\n      pop\n      pop\n      jump\t// out\n        /* \"#utility.yul\":9718:9826   */\n    tag_512:\n        /* \"#utility.yul\":9795:9819   */\n      tag_732\n        /* \"#utility.yul\":9813:9818   */\n      dup2\n        /* \"#utility.yul\":9795:9819   */\n      tag_480\n      jump\t// in\n    tag_732:\n        /* \"#utility.yul\":9790:9793   */\n      dup3\n        /* \"#utility.yul\":9783:9820   */\n      mstore\n        /* \"#utility.yul\":9718:9826   */\n      pop\n      pop\n      jump\t// out\n        /* \"#utility.yul\":9832:9931   */\n    tag_513:\n        /* \"#utility.yul\":9903:9924   */\n      tag_734\n        /* \"#utility.yul\":9918:9923   */\n      dup2\n        /* \"#utility.yul\":9903:9924   */\n      tag_496\n      jump\t// in\n    tag_734:\n        /* \"#utility.yul\":9898:9901   */\n      dup3\n        /* \"#utility.yul\":9891:9925   */\n      mstore\n        /* \"#utility.yul\":9832:9931   */\n      pop\n      pop\n      jump\t// out\n        /* \"#utility.yul\":10011:10866   */\n    tag_514:\n        /* \"#utility.yul\":10146:10150   */\n      0x80\n        /* \"#utility.yul\":10141:10144   */\n      dup3\n        /* \"#utility.yul\":10137:10151   */\n      add\n        /* \"#utility.yul\":10239:10243   */\n      0x00\n        /* \"#utility.yul\":10232:10237   */\n      dup3\n        /* \"#utility.yul\":10228:10244   */\n      add\n        /* \"#utility.yul\":10222:10245   */\n      mload\n        /* \"#utility.yul\":10258:10321   */\n      tag_736\n        /* \"#utility.yul\":10315:10319   */\n      0x00\n        /* \"#utility.yul\":10310:10313   */\n      dup6\n        /* \"#utility.yul\":10306:10320   */\n      add\n        /* \"#utility.yul\":10292:10304   */\n      dup3\n        /* \"#utility.yul\":10258:10321   */\n      tag_511\n      jump\t// in\n    tag_736:\n        /* \"#utility.yul\":10161:10331   */\n      pop\n        /* \"#utility.yul\":10415:10419   */\n      0x20\n        /* \"#utility.yul\":10408:10413   */\n      dup3\n        /* \"#utility.yul\":10404:10420   */\n      add\n        /* \"#utility.yul\":10398:10421   */\n      mload\n        /* \"#utility.yul\":10434:10497   */\n      tag_737\n        /* \"#utility.yul\":10491:10495   */\n      0x20\n        /* \"#utility.yul\":10486:10489   */\n      dup6\n        /* \"#utility.yul\":10482:10496   */\n      add\n        /* \"#utility.yul\":10468:10480   */\n      dup3\n        /* \"#utility.yul\":10434:10497   */\n      tag_512\n      jump\t// in\n    tag_737:\n        /* \"#utility.yul\":10341:10507   */\n      pop\n        /* \"#utility.yul\":10597:10601   */\n      0x40\n        /* \"#utility.yul\":10590:10595   */\n      dup3\n        /* \"#utility.yul\":10586:10602   */\n      add\n        /* \"#utility.yul\":10580:10603   */\n      mload\n        /* \"#utility.yul\":10616:10679   */\n      tag_738\n        /* \"#utility.yul\":10673:10677   */\n      0x40\n        /* \"#utility.yul\":10668:10671   */\n      dup6\n        /* \"#utility.yul\":10664:10678   */\n      add\n        /* \"#utility.yul\":10650:10662   */\n      dup3\n        /* \"#utility.yul\":10616:10679   */\n      tag_512\n      jump\t// in\n    tag_738:\n        /* \"#utility.yul\":10517:10689   */\n      pop\n        /* \"#utility.yul\":10773:10777   */\n      0x60\n        /* \"#utility.yul\":10766:10771   */\n      dup3\n        /* \"#utility.yul\":10762:10778   */\n      add\n        /* \"#utility.yul\":10756:10779   */\n      mload\n        /* \"#utility.yul\":10792:10849   */\n      tag_739\n        /* \"#utility.yul\":10843:10847   */\n      0x60\n        /* \"#utility.yul\":10838:10841   */\n      dup6\n        /* \"#utility.yul\":10834:10848   */\n      add\n        /* \"#utility.yul\":10820:10832   */\n      dup3\n        /* \"#utility.yul\":10792:10849   */\n      tag_513\n      jump\t// in\n    tag_739:\n        /* \"#utility.yul\":10699:10859   */\n      pop\n        /* \"#utility.yul\":10115:10866   */\n      pop\n        /* \"#utility.yul\":10011:10866   */\n      pop\n      pop\n      jump\t// out\n        /* \"#utility.yul\":10872:11171   */\n    tag_59:\n        /* \"#utility.yul\":11003:11007   */\n      0x00\n        /* \"#utility.yul\":11041:11044   */\n      0x80\n        /* \"#utility.yul\":11030:11039   */\n      dup3\n        /* \"#utility.yul\":11026:11045   */\n      add\n        /* \"#utility.yul\":11018:11045   */\n      swap1\n      pop\n        /* \"#utility.yul\":11055:11164   */\n      tag_741\n        /* \"#utility.yul\":11161:11162   */\n      0x00\n        /* \"#utility.yul\":11150:11159   */\n      dup4\n        /* \"#utility.yul\":11146:11163   */\n      add\n        /* \"#utility.yul\":11137:11143   */\n      dup5\n        /* \"#utility.yul\":11055:11164   */\n      tag_514\n      jump\t// in\n    tag_741:\n        /* \"#utility.yul\":10872:11171   */\n      swap3\n      swap2\n      pop\n      pop\n      jump\t// out\n        /* \"#utility.yul\":11177:11796   */\n    tag_63:\n        /* \"#utility.yul\":11254:11260   */\n      0x00\n        /* \"#utility.yul\":11262:11268   */\n      dup1\n        /* \"#utility.yul\":11270:11276   */\n      0x00\n        /* \"#utility.yul\":11319:11321   */\n      0x60\n        /* \"#utility.yul\":11307:11316   */\n      dup5\n        /* \"#utility.yul\":11298:11305   */\n      dup7\n        /* \"#utility.yul\":11294:11317   */\n      sub\n        /* \"#utility.yul\":11290:11322   */\n      slt\n        /* \"#utility.yul\":11287:11406   */\n      iszero\n      tag_743\n      jumpi\n        /* \"#utility.yul\":11325:11404   */\n      tag_744\n      tag_478\n      jump\t// in\n    tag_744:\n        /* \"#utility.yul\":11287:11406   */\n    tag_743:\n        /* \"#utility.yul\":11445:11446   */\n      0x00\n        /* \"#utility.yul\":11470:11523   */\n      tag_745\n        /* \"#utility.yul\":11515:11522   */\n      dup7\n        /* \"#utility.yul\":11506:11512   */\n      dup3\n        /* \"#utility.yul\":11495:11504   */\n      dup8\n        /* \"#utility.yul\":11491:11513   */\n      add\n        /* \"#utility.yul\":11470:11523   */\n      tag_482\n      jump\t// in\n    tag_745:\n        /* \"#utility.yul\":11460:11523   */\n      swap4\n      pop\n        /* \"#utility.yul\":11416:11533   */\n      pop\n        /* \"#utility.yul\":11572:11574   */\n      0x20\n        /* \"#utility.yul\":11598:11651   */\n      tag_746\n        /* \"#utility.yul\":11643:11650   */\n      dup7\n        /* \"#utility.yul\":11634:11640   */\n      dup3\n        /* \"#utility.yul\":11623:11632   */\n      dup8\n        /* \"#utility.yul\":11619:11641   */\n      add\n        /* \"#utility.yul\":11598:11651   */\n      tag_482\n      jump\t// in\n    tag_746:\n        /* \"#utility.yul\":11588:11651   */\n      swap3\n      pop\n        /* \"#utility.yul\":11543:11661   */\n      pop\n        /* \"#utility.yul\":11700:11702   */\n      0x40\n        /* \"#utility.yul\":11726:11779   */\n      tag_747\n        /* \"#utility.yul\":11771:11778   */\n      dup7\n        /* \"#utility.yul\":11762:11768   */\n      dup3\n        /* \"#utility.yul\":11751:11760   */\n      dup8\n        /* \"#utility.yul\":11747:11769   */\n      add\n        /* \"#utility.yul\":11726:11779   */\n      tag_482\n      jump\t// in\n    tag_747:\n        /* \"#utility.yul\":11716:11779   */\n      swap2\n      pop\n        /* \"#utility.yul\":11671:11789   */\n      pop\n        /* \"#utility.yul\":11177:11796   */\n      swap3\n      pop\n      swap3\n      pop\n      swap3\n      jump\t// out\n        /* \"#utility.yul\":11802:12927   */\n    tag_72:\n        /* \"#utility.yul\":11908:11914   */\n      0x00\n        /* \"#utility.yul\":11916:11922   */\n      dup1\n        /* \"#utility.yul\":11924:11930   */\n      0x00\n        /* \"#utility.yul\":11932:11938   */\n      dup1\n        /* \"#utility.yul\":11981:11984   */\n      0x80\n        /* \"#utility.yul\":11969:11978   */\n      dup6\n        /* \"#utility.yul\":11960:11967   */\n      dup8\n        /* \"#utility.yul\":11956:11979   */\n      sub\n        /* \"#utility.yul\":11952:11985   */\n      slt\n        /* \"#utility.yul\":11949:12069   */\n      iszero\n      tag_749\n      jumpi\n        /* \"#utility.yul\":11988:12067   */\n      tag_750\n      tag_478\n      jump\t// in\n    tag_750:\n        /* \"#utility.yul\":11949:12069   */\n    tag_749:\n        /* \"#utility.yul\":12136:12137   */\n      0x00\n        /* \"#utility.yul\":12125:12134   */\n      dup6\n        /* \"#utility.yul\":12121:12138   */\n      add\n        /* \"#utility.yul\":12108:12139   */\n      calldataload\n        /* \"#utility.yul\":12166:12184   */\n      0xffffffffffffffff\n        /* \"#utility.yul\":12158:12164   */\n      dup2\n        /* \"#utility.yul\":12155:12185   */\n      gt\n        /* \"#utility.yul\":12152:12269   */\n      iszero\n      tag_751\n      jumpi\n        /* \"#utility.yul\":12188:12267   */\n      tag_752\n      tag_479\n      jump\t// in\n    tag_752:\n        /* \"#utility.yul\":12152:12269   */\n    tag_751:\n        /* \"#utility.yul\":12293:12356   */\n      tag_753\n        /* \"#utility.yul\":12348:12355   */\n      dup8\n        /* \"#utility.yul\":12339:12345   */\n      dup3\n        /* \"#utility.yul\":12328:12337   */\n      dup9\n        /* \"#utility.yul\":12324:12346   */\n      add\n        /* \"#utility.yul\":12293:12356   */\n      tag_506\n      jump\t// in\n    tag_753:\n        /* \"#utility.yul\":12283:12356   */\n      swap5\n      pop\n        /* \"#utility.yul\":12079:12366   */\n      pop\n        /* \"#utility.yul\":12433:12435   */\n      0x20\n        /* \"#utility.yul\":12422:12431   */\n      dup6\n        /* \"#utility.yul\":12418:12436   */\n      add\n        /* \"#utility.yul\":12405:12437   */\n      calldataload\n        /* \"#utility.yul\":12464:12482   */\n      0xffffffffffffffff\n        /* \"#utility.yul\":12456:12462   */\n      dup2\n        /* \"#utility.yul\":12453:12483   */\n      gt\n        /* \"#utility.yul\":12450:12567   */\n      iszero\n      tag_754\n      jumpi\n        /* \"#utility.yul\":12486:12565   */\n      tag_755\n      tag_479\n      jump\t// in\n    tag_755:\n        /* \"#utility.yul\":12450:12567   */\n    tag_754:\n        /* \"#utility.yul\":12591:12654   */\n      tag_756\n        /* \"#utility.yul\":12646:12653   */\n      dup8\n        /* \"#utility.yul\":12637:12643   */\n      dup3\n        /* \"#utility.yul\":12626:12635   */\n      dup9\n        /* \"#utility.yul\":12622:12644   */\n      add\n        /* \"#utility.yul\":12591:12654   */\n      tag_506\n      jump\t// in\n    tag_756:\n        /* \"#utility.yul\":12581:12654   */\n      swap4\n      pop\n        /* \"#utility.yul\":12376:12664   */\n      pop\n        /* \"#utility.yul\":12703:12705   */\n      0x40\n        /* \"#utility.yul\":12729:12782   */\n      tag_757\n        /* \"#utility.yul\":12774:12781   */\n      dup8\n        /* \"#utility.yul\":12765:12771   */\n      dup3\n        /* \"#utility.yul\":12754:12763   */\n      dup9\n        /* \"#utility.yul\":12750:12772   */\n      add\n        /* \"#utility.yul\":12729:12782   */\n      tag_482\n      jump\t// in\n    tag_757:\n        /* \"#utility.yul\":12719:12782   */\n      swap3\n      pop\n        /* \"#utility.yul\":12674:12792   */\n      pop\n        /* \"#utility.yul\":12831:12833   */\n      0x60\n        /* \"#utility.yul\":12857:12910   */\n      tag_758\n        /* \"#utility.yul\":12902:12909   */\n      dup8\n        /* \"#utility.yul\":12893:12899   */\n      dup3\n        /* \"#utility.yul\":12882:12891   */\n      dup9\n        /* \"#utility.yul\":12878:12900   */\n      add\n        /* \"#utility.yul\":12857:12910   */\n      tag_482\n      jump\t// in\n    tag_758:\n        /* \"#utility.yul\":12847:12910   */\n      swap2\n      pop\n        /* \"#utility.yul\":12802:12920   */\n      pop\n        /* \"#utility.yul\":11802:12927   */\n      swap3\n      swap6\n      swap2\n      swap5\n      pop\n      swap3\n      pop\n      jump\t// out\n        /* \"#utility.yul\":12933:13055   */\n    tag_515:\n        /* \"#utility.yul\":13006:13030   */\n      tag_760\n        /* \"#utility.yul\":13024:13029   */\n      dup2\n        /* \"#utility.yul\":13006:13030   */\n      tag_485\n      jump\t// in\n    tag_760:\n        /* \"#utility.yul\":12999:13004   */\n      dup2\n        /* \"#utility.yul\":12996:13031   */\n      eq\n        /* \"#utility.yul\":12986:13049   */\n      tag_761\n      jumpi\n        /* \"#utility.yul\":13045:13046   */\n      0x00\n        /* \"#utility.yul\":13042:13043   */\n      dup1\n        /* \"#utility.yul\":13035:13047   */\n      revert\n        /* \"#utility.yul\":12986:13049   */\n    tag_761:\n        /* \"#utility.yul\":12933:13055   */\n      pop\n      jump\t// out\n        /* \"#utility.yul\":13061:13200   */\n    tag_516:\n        /* \"#utility.yul\":13107:13112   */\n      0x00\n        /* \"#utility.yul\":13145:13151   */\n      dup2\n        /* \"#utility.yul\":13132:13152   */\n      calldataload\n        /* \"#utility.yul\":13123:13152   */\n      swap1\n      pop\n        /* \"#utility.yul\":13161:13194   */\n      tag_763\n        /* \"#utility.yul\":13188:13193   */\n      dup2\n        /* \"#utility.yul\":13161:13194   */\n      tag_515\n      jump\t// in\n    tag_763:\n        /* \"#utility.yul\":13061:13200   */\n      swap3\n      swap2\n      pop\n      pop\n      jump\t// out\n        /* \"#utility.yul\":13206:13535   */\n    tag_86:\n        /* \"#utility.yul\":13265:13271   */\n      0x00\n        /* \"#utility.yul\":13314:13316   */\n      0x20\n        /* \"#utility.yul\":13302:13311   */\n      dup3\n        /* \"#utility.yul\":13293:13300   */\n      dup5\n        /* \"#utility.yul\":13289:13312   */\n      sub\n        /* \"#utility.yul\":13285:13317   */\n      slt\n        /* \"#utility.yul\":13282:13401   */\n      iszero\n      tag_765\n      jumpi\n        /* \"#utility.yul\":13320:13399   */\n      tag_766\n      tag_478\n      jump\t// in\n    tag_766:\n        /* \"#utility.yul\":13282:13401   */\n    tag_765:\n        /* \"#utility.yul\":13440:13441   */\n      0x00\n        /* \"#utility.yul\":13465:13518   */\n      tag_767\n        /* \"#utility.yul\":13510:13517   */\n      dup5\n        /* \"#utility.yul\":13501:13507   */\n      dup3\n        /* \"#utility.yul\":13490:13499   */\n      dup6\n        /* \"#utility.yul\":13486:13508   */\n      add\n        /* \"#utility.yul\":13465:13518   */\n      tag_516\n      jump\t// in\n    tag_767:\n        /* \"#utility.yul\":13455:13518   */\n      swap2\n      pop\n        /* \"#utility.yul\":13411:13528   */\n      pop\n        /* \"#utility.yul\":13206:13535   */\n      swap3\n      swap2\n      pop\n      pop\n      jump\t// out\n        /* \"#utility.yul\":13541:13652   */\n    tag_517:\n        /* \"#utility.yul\":13620:13621   */\n      0x03\n        /* \"#utility.yul\":13613:13618   */\n      dup2\n        /* \"#utility.yul\":13610:13622   */\n      lt\n        /* \"#utility.yul\":13600:13646   */\n      tag_769\n      jumpi\n        /* \"#utility.yul\":13626:13644   */\n      tag_770\n      tag_132\n      jump\t// in\n    tag_770:\n        /* \"#utility.yul\":13600:13646   */\n    tag_769:\n        /* \"#utility.yul\":13541:13652   */\n      pop\n      jump\t// out\n        /* \"#utility.yul\":13658:13781   */\n    tag_518:\n        /* \"#utility.yul\":13701:13708   */\n      0x00\n        /* \"#utility.yul\":13730:13735   */\n      dup2\n        /* \"#utility.yul\":13719:13735   */\n      swap1\n      pop\n        /* \"#utility.yul\":13736:13775   */\n      tag_772\n        /* \"#utility.yul\":13769:13774   */\n      dup3\n        /* \"#utility.yul\":13736:13775   */\n      tag_517\n      jump\t// in\n    tag_772:\n        /* \"#utility.yul\":13658:13781   */\n      swap2\n      swap1\n      pop\n      jump\t// out\n        /* \"#utility.yul\":13787:13910   */\n    tag_519:\n        /* \"#utility.yul\":13841:13850   */\n      0x00\n        /* \"#utility.yul\":13874:13904   */\n      tag_774\n        /* \"#utility.yul\":13898:13903   */\n      dup3\n        /* \"#utility.yul\":13874:13904   */\n      tag_518\n      jump\t// in\n    tag_774:\n        /* \"#utility.yul\":13861:13904   */\n      swap1\n      pop\n        /* \"#utility.yul\":13787:13910   */\n      swap2\n      swap1\n      pop\n      jump\t// out\n        /* \"#utility.yul\":13916:14055   */\n    tag_520:\n        /* \"#utility.yul\":14007:14048   */\n      tag_776\n        /* \"#utility.yul\":14042:14047   */\n      dup2\n        /* \"#utility.yul\":14007:14048   */\n      tag_519\n      jump\t// in\n    tag_776:\n        /* \"#utility.yul\":14002:14005   */\n      dup3\n        /* \"#utility.yul\":13995:14049   */\n      mstore\n        /* \"#utility.yul\":13916:14055   */\n      pop\n      pop\n      jump\t// out\n        /* \"#utility.yul\":14061:14165   */\n    tag_521:\n        /* \"#utility.yul\":14106:14113   */\n      0x00\n        /* \"#utility.yul\":14135:14159   */\n      tag_778\n        /* \"#utility.yul\":14153:14158   */\n      dup3\n        /* \"#utility.yul\":14135:14159   */\n      tag_484\n      jump\t// in\n    tag_778:\n        /* \"#utility.yul\":14124:14159   */\n      swap1\n      pop\n        /* \"#utility.yul\":14061:14165   */\n      swap2\n      swap1\n      pop\n      jump\t// out\n        /* \"#utility.yul\":14171:14313   */\n    tag_522:\n        /* \"#utility.yul\":14274:14306   */\n      tag_780\n        /* \"#utility.yul\":14300:14305   */\n      dup2\n        /* \"#utility.yul\":14274:14306   */\n      tag_521\n      jump\t// in\n    tag_780:\n        /* \"#utility.yul\":14269:14272   */\n      dup3\n        /* \"#utility.yul\":14262:14307   */\n      mstore\n        /* \"#utility.yul\":14171:14313   */\n      pop\n      pop\n      jump\t// out\n        /* \"#utility.yul\":14319:15102   */\n    tag_89:\n        /* \"#utility.yul\":14558:14562   */\n      0x00\n        /* \"#utility.yul\":14596:14599   */\n      0xa0\n        /* \"#utility.yul\":14585:14594   */\n      dup3\n        /* \"#utility.yul\":14581:14600   */\n      add\n        /* \"#utility.yul\":14573:14600   */\n      swap1\n      pop\n        /* \"#utility.yul\":14646:14655   */\n      dup2\n        /* \"#utility.yul\":14640:14644   */\n      dup2\n        /* \"#utility.yul\":14636:14656   */\n      sub\n        /* \"#utility.yul\":14632:14633   */\n      0x00\n        /* \"#utility.yul\":14621:14630   */\n      dup4\n        /* \"#utility.yul\":14617:14634   */\n      add\n        /* \"#utility.yul\":14610:14657   */\n      mstore\n        /* \"#utility.yul\":14674:14752   */\n      tag_782\n        /* \"#utility.yul\":14747:14751   */\n      dup2\n        /* \"#utility.yul\":14738:14744   */\n      dup9\n        /* \"#utility.yul\":14674:14752   */\n      tag_491\n      jump\t// in\n    tag_782:\n        /* \"#utility.yul\":14666:14752   */\n      swap1\n      pop\n        /* \"#utility.yul\":14762:14838   */\n      tag_783\n        /* \"#utility.yul\":14834:14836   */\n      0x20\n        /* \"#utility.yul\":14823:14832   */\n      dup4\n        /* \"#utility.yul\":14819:14837   */\n      add\n        /* \"#utility.yul\":14810:14816   */\n      dup8\n        /* \"#utility.yul\":14762:14838   */\n      tag_520\n      jump\t// in\n    tag_783:\n        /* \"#utility.yul\":14848:14920   */\n      tag_784\n        /* \"#utility.yul\":14916:14918   */\n      0x40\n        /* \"#utility.yul\":14905:14914   */\n      dup4\n        /* \"#utility.yul\":14901:14919   */\n      add\n        /* \"#utility.yul\":14892:14898   */\n      dup7\n        /* \"#utility.yul\":14848:14920   */\n      tag_483\n      jump\t// in\n    tag_784:\n        /* \"#utility.yul\":14930:15018   */\n      tag_785\n        /* \"#utility.yul\":15014:15016   */\n      0x60\n        /* \"#utility.yul\":15003:15012   */\n      dup4\n        /* \"#utility.yul\":14999:15017   */\n      add\n        /* \"#utility.yul\":14990:14996   */\n      dup6\n        /* \"#utility.yul\":14930:15018   */\n      tag_522\n      jump\t// in\n    tag_785:\n        /* \"#utility.yul\":15028:15095   */\n      tag_786\n        /* \"#utility.yul\":15090:15093   */\n      0x80\n        /* \"#utility.yul\":15079:15088   */\n      dup4\n        /* \"#utility.yul\":15075:15094   */\n      add\n        /* \"#utility.yul\":15066:15072   */\n      dup5\n        /* \"#utility.yul\":15028:15095   */\n      tag_497\n      jump\t// in\n    tag_786:\n        /* \"#utility.yul\":14319:15102   */\n      swap7\n      swap6\n      pop\n      pop\n      pop\n      pop\n      pop\n      pop\n      jump\t// out\n        /* \"#utility.yul\":15108:15246   */\n    tag_523:\n        /* \"#utility.yul\":15189:15221   */\n      tag_788\n        /* \"#utility.yul\":15215:15220   */\n      dup2\n        /* \"#utility.yul\":15189:15221   */\n      tag_521\n      jump\t// in\n    tag_788:\n        /* \"#utility.yul\":15182:15187   */\n      dup2\n        /* \"#utility.yul\":15179:15222   */\n      eq\n        /* \"#utility.yul\":15169:15240   */\n      tag_789\n      jumpi\n        /* \"#utility.yul\":15236:15237   */\n      0x00\n        /* \"#utility.yul\":15233:15234   */\n      dup1\n        /* \"#utility.yul\":15226:15238   */\n      revert\n        /* \"#utility.yul\":15169:15240   */\n    tag_789:\n        /* \"#utility.yul\":15108:15246   */\n      pop\n      jump\t// out\n        /* \"#utility.yul\":15252:15407   */\n    tag_524:\n        /* \"#utility.yul\":15306:15311   */\n      0x00\n        /* \"#utility.yul\":15344:15350   */\n      dup2\n        /* \"#utility.yul\":15331:15351   */\n      calldataload\n        /* \"#utility.yul\":15322:15351   */\n      swap1\n      pop\n        /* \"#utility.yul\":15360:15401   */\n      tag_791\n        /* \"#utility.yul\":15395:15400   */\n      dup2\n        /* \"#utility.yul\":15360:15401   */\n      tag_523\n      jump\t// in\n    tag_791:\n        /* \"#utility.yul\":15252:15407   */\n      swap3\n      swap2\n      pop\n      pop\n      jump\t// out\n        /* \"#utility.yul\":15413:15903   */\n    tag_93:\n        /* \"#utility.yul\":15489:15495   */\n      0x00\n        /* \"#utility.yul\":15497:15503   */\n      dup1\n        /* \"#utility.yul\":15546:15548   */\n      0x40\n        /* \"#utility.yul\":15534:15543   */\n      dup4\n        /* \"#utility.yul\":15525:15532   */\n      dup6\n        /* \"#utility.yul\":15521:15544   */\n      sub\n        /* \"#utility.yul\":15517:15549   */\n      slt\n        /* \"#utility.yul\":15514:15633   */\n      iszero\n      tag_793\n      jumpi\n        /* \"#utility.yul\":15552:15631   */\n      tag_794\n      tag_478\n      jump\t// in\n    tag_794:\n        /* \"#utility.yul\":15514:15633   */\n    tag_793:\n        /* \"#utility.yul\":15672:15673   */\n      0x00\n        /* \"#utility.yul\":15697:15758   */\n      tag_795\n        /* \"#utility.yul\":15750:15757   */\n      dup6\n        /* \"#utility.yul\":15741:15747   */\n      dup3\n        /* \"#utility.yul\":15730:15739   */\n      dup7\n        /* \"#utility.yul\":15726:15748   */\n      add\n        /* \"#utility.yul\":15697:15758   */\n      tag_524\n      jump\t// in\n    tag_795:\n        /* \"#utility.yul\":15687:15758   */\n      swap3\n      pop\n        /* \"#utility.yul\":15643:15768   */\n      pop\n        /* \"#utility.yul\":15807:15809   */\n      0x20\n        /* \"#utility.yul\":15833:15886   */\n      tag_796\n        /* \"#utility.yul\":15878:15885   */\n      dup6\n        /* \"#utility.yul\":15869:15875   */\n      dup3\n        /* \"#utility.yul\":15858:15867   */\n      dup7\n        /* \"#utility.yul\":15854:15876   */\n      add\n        /* \"#utility.yul\":15833:15886   */\n      tag_482\n      jump\t// in\n    tag_796:\n        /* \"#utility.yul\":15823:15886   */\n      swap2\n      pop\n        /* \"#utility.yul\":15778:15896   */\n      pop\n        /* \"#utility.yul\":15413:15903   */\n      swap3\n      pop\n      swap3\n      swap1\n      pop\n      jump\t// out\n        /* \"#utility.yul\":15909:16131   */\n    tag_111:\n        /* \"#utility.yul\":16002:16006   */\n      0x00\n        /* \"#utility.yul\":16040:16042   */\n      0x20\n        /* \"#utility.yul\":16029:16038   */\n      dup3\n        /* \"#utility.yul\":16025:16043   */\n      add\n        /* \"#utility.yul\":16017:16043   */\n      swap1\n      pop\n        /* \"#utility.yul\":16053:16124   */\n      tag_798\n        /* \"#utility.yul\":16121:16122   */\n      0x00\n        /* \"#utility.yul\":16110:16119   */\n      dup4\n        /* \"#utility.yul\":16106:16123   */\n      add\n        /* \"#utility.yul\":16097:16103   */\n      dup5\n        /* \"#utility.yul\":16053:16124   */\n      tag_486\n      jump\t// in\n    tag_798:\n        /* \"#utility.yul\":15909:16131   */\n      swap3\n      swap2\n      pop\n      pop\n      jump\t// out\n        /* \"#utility.yul\":16137:16317   */\n    tag_525:\n        /* \"#utility.yul\":16185:16262   */\n      0x4e487b7100000000000000000000000000000000000000000000000000000000\n        /* \"#utility.yul\":16182:16183   */\n      0x00\n        /* \"#utility.yul\":16175:16263   */\n      mstore\n        /* \"#utility.yul\":16282:16286   */\n      0x22\n        /* \"#utility.yul\":16279:16280   */\n      0x04\n        /* \"#utility.yul\":16272:16287   */\n      mstore\n        /* \"#utility.yul\":16306:16310   */\n      0x24\n        /* \"#utility.yul\":16303:16304   */\n      0x00\n        /* \"#utility.yul\":16296:16311   */\n      revert\n        /* \"#utility.yul\":16323:16643   */\n    tag_113:\n        /* \"#utility.yul\":16367:16373   */\n      0x00\n        /* \"#utility.yul\":16404:16405   */\n      0x02\n        /* \"#utility.yul\":16398:16402   */\n      dup3\n        /* \"#utility.yul\":16394:16406   */\n      div\n        /* \"#utility.yul\":16384:16406   */\n      swap1\n      pop\n        /* \"#utility.yul\":16451:16452   */\n      0x01\n        /* \"#utility.yul\":16445:16449   */\n      dup3\n        /* \"#utility.yul\":16441:16453   */\n      and\n        /* \"#utility.yul\":16472:16490   */\n      dup1\n        /* \"#utility.yul\":16462:16543   */\n      tag_801\n      jumpi\n        /* \"#utility.yul\":16528:16532   */\n      0x7f\n        /* \"#utility.yul\":16520:16526   */\n      dup3\n        /* \"#utility.yul\":16516:16533   */\n      and\n        /* \"#utility.yul\":16506:16533   */\n      swap2\n      pop\n        /* \"#utility.yul\":16462:16543   */\n    tag_801:\n        /* \"#utility.yul\":16590:16592   */\n      0x20\n        /* \"#utility.yul\":16582:16588   */\n      dup3\n        /* \"#utility.yul\":16579:16593   */\n      lt\n        /* \"#utility.yul\":16559:16577   */\n      dup2\n        /* \"#utility.yul\":16556:16594   */\n      sub\n        /* \"#utility.yul\":16553:16637   */\n      tag_802\n      jumpi\n        /* \"#utility.yul\":16609:16627   */\n      tag_803\n      tag_525\n      jump\t// in\n    tag_803:\n        /* \"#utility.yul\":16553:16637   */\n    tag_802:\n        /* \"#utility.yul\":16374:16643   */\n      pop\n        /* \"#utility.yul\":16323:16643   */\n      swap2\n      swap1\n      pop\n      jump\t// out\n        /* \"#utility.yul\":16649:16829   */\n    tag_526:\n        /* \"#utility.yul\":16697:16774   */\n      0x4e487b7100000000000000000000000000000000000000000000000000000000\n        /* \"#utility.yul\":16694:16695   */\n      0x00\n        /* \"#utility.yul\":16687:16775   */\n      mstore\n        /* \"#utility.yul\":16794:16798   */\n      0x11\n        /* \"#utility.yul\":16791:16792   */\n      0x04\n        /* \"#utility.yul\":16784:16799   */\n      mstore\n        /* \"#utility.yul\":16818:16822   */\n      0x24\n        /* \"#utility.yul\":16815:16816   */\n      0x00\n        /* \"#utility.yul\":16808:16823   */\n      revert\n        /* \"#utility.yul\":16835:17029   */\n    tag_125:\n        /* \"#utility.yul\":16875:16879   */\n      0x00\n        /* \"#utility.yul\":16895:16915   */\n      tag_806\n        /* \"#utility.yul\":16913:16914   */\n      dup3\n        /* \"#utility.yul\":16895:16915   */\n      tag_480\n      jump\t// in\n    tag_806:\n        /* \"#utility.yul\":16890:16915   */\n      swap2\n      pop\n        /* \"#utility.yul\":16929:16949   */\n      tag_807\n        /* \"#utility.yul\":16947:16948   */\n      dup4\n        /* \"#utility.yul\":16929:16949   */\n      tag_480\n      jump\t// in\n    tag_807:\n        /* \"#utility.yul\":16924:16949   */\n      swap3\n      pop\n        /* \"#utility.yul\":16973:16974   */\n      dup3\n        /* \"#utility.yul\":16970:16971   */\n      dup3\n        /* \"#utility.yul\":16966:16975   */\n      sub\n        /* \"#utility.yul\":16958:16975   */\n      swap1\n      pop\n        /* \"#utility.yul\":16997:16998   */\n      dup2\n        /* \"#utility.yul\":16991:16995   */\n      dup2\n        /* \"#utility.yul\":16988:16999   */\n      gt\n        /* \"#utility.yul\":16985:17022   */\n      iszero\n      tag_808\n      jumpi\n        /* \"#utility.yul\":17002:17020   */\n      tag_809\n      tag_526\n      jump\t// in\n    tag_809:\n        /* \"#utility.yul\":16985:17022   */\n    tag_808:\n        /* \"#utility.yul\":16835:17029   */\n      swap3\n      swap2\n      pop\n      pop\n      jump\t// out\n        /* \"#utility.yul\":17035:17208   */\n    tag_527:\n        /* \"#utility.yul\":17175:17200   */\n      0x5573657220616c72656164792072656769737465726564000000000000000000\n        /* \"#utility.yul\":17171:17172   */\n      0x00\n        /* \"#utility.yul\":17163:17169   */\n      dup3\n        /* \"#utility.yul\":17159:17173   */\n      add\n        /* \"#utility.yul\":17152:17201   */\n      mstore\n        /* \"#utility.yul\":17035:17208   */\n      pop\n      jump\t// out\n        /* \"#utility.yul\":17214:17580   */\n    tag_528:\n        /* \"#utility.yul\":17356:17359   */\n      0x00\n        /* \"#utility.yul\":17377:17444   */\n      tag_812\n        /* \"#utility.yul\":17441:17443   */\n      0x17\n        /* \"#utility.yul\":17436:17439   */\n      dup4\n        /* \"#utility.yul\":17377:17444   */\n      tag_488\n      jump\t// in\n    tag_812:\n        /* \"#utility.yul\":17370:17444   */\n      swap2\n      pop\n        /* \"#utility.yul\":17453:17546   */\n      tag_813\n        /* \"#utility.yul\":17542:17545   */\n      dup3\n        /* \"#utility.yul\":17453:17546   */\n      tag_527\n      jump\t// in\n    tag_813:\n        /* \"#utility.yul\":17571:17573   */\n      0x20\n        /* \"#utility.yul\":17566:17569   */\n      dup3\n        /* \"#utility.yul\":17562:17574   */\n      add\n        /* \"#utility.yul\":17555:17574   */\n      swap1\n      pop\n        /* \"#utility.yul\":17214:17580   */\n      swap2\n      swap1\n      pop\n      jump\t// out\n        /* \"#utility.yul\":17586:18005   */\n    tag_129:\n        /* \"#utility.yul\":17752:17756   */\n      0x00\n        /* \"#utility.yul\":17790:17792   */\n      0x20\n        /* \"#utility.yul\":17779:17788   */\n      dup3\n        /* \"#utility.yul\":17775:17793   */\n      add\n        /* \"#utility.yul\":17767:17793   */\n      swap1\n      pop\n        /* \"#utility.yul\":17839:17848   */\n      dup2\n        /* \"#utility.yul\":17833:17837   */\n      dup2\n        /* \"#utility.yul\":17829:17849   */\n      sub\n        /* \"#utility.yul\":17825:17826   */\n      0x00\n        /* \"#utility.yul\":17814:17823   */\n      dup4\n        /* \"#utility.yul\":17810:17827   */\n      add\n        /* \"#utility.yul\":17803:17850   */\n      mstore\n        /* \"#utility.yul\":17867:17998   */\n      tag_815\n        /* \"#utility.yul\":17993:17997   */\n      dup2\n        /* \"#utility.yul\":17867:17998   */\n      tag_528\n      jump\t// in\n    tag_815:\n        /* \"#utility.yul\":17859:17998   */\n      swap1\n      pop\n        /* \"#utility.yul\":17586:18005   */\n      swap2\n      swap1\n      pop\n      jump\t// out\n        /* \"#utility.yul\":18011:18189   */\n    tag_529:\n        /* \"#utility.yul\":18151:18181   */\n      0x4f6e6c79206465706c6f7965722063616e206265204172626974657200000000\n        /* \"#utility.yul\":18147:18148   */\n      0x00\n        /* \"#utility.yul\":18139:18145   */\n      dup3\n        /* \"#utility.yul\":18135:18149   */\n      add\n        /* \"#utility.yul\":18128:18182   */\n      mstore\n        /* \"#utility.yul\":18011:18189   */\n      pop\n      jump\t// out\n        /* \"#utility.yul\":18195:18561   */\n    tag_530:\n        /* \"#utility.yul\":18337:18340   */\n      0x00\n        /* \"#utility.yul\":18358:18425   */\n      tag_818\n        /* \"#utility.yul\":18422:18424   */\n      0x1c\n        /* \"#utility.yul\":18417:18420   */\n      dup4\n        /* \"#utility.yul\":18358:18425   */\n      tag_488\n      jump\t// in\n    tag_818:\n        /* \"#utility.yul\":18351:18425   */\n      swap2\n      pop\n        /* \"#utility.yul\":18434:18527   */\n      tag_819\n        /* \"#utility.yul\":18523:18526   */\n      dup3\n        /* \"#utility.yul\":18434:18527   */\n      tag_529\n      jump\t// in\n    tag_819:\n        /* \"#utility.yul\":18552:18554   */\n      0x20\n        /* \"#utility.yul\":18547:18550   */\n      dup3\n        /* \"#utility.yul\":18543:18555   */\n      add\n        /* \"#utility.yul\":18536:18555   */\n      swap1\n      pop\n        /* \"#utility.yul\":18195:18561   */\n      swap2\n      swap1\n      pop\n      jump\t// out\n        /* \"#utility.yul\":18567:18986   */\n    tag_138:\n        /* \"#utility.yul\":18733:18737   */\n      0x00\n        /* \"#utility.yul\":18771:18773   */\n      0x20\n        /* \"#utility.yul\":18760:18769   */\n      dup3\n        /* \"#utility.yul\":18756:18774   */\n      add\n        /* \"#utility.yul\":18748:18774   */\n      swap1\n      pop\n        /* \"#utility.yul\":18820:18829   */\n      dup2\n        /* \"#utility.yul\":18814:18818   */\n      dup2\n        /* \"#utility.yul\":18810:18830   */\n      sub\n        /* \"#utility.yul\":18806:18807   */\n      0x00\n        /* \"#utility.yul\":18795:18804   */\n      dup4\n        /* \"#utility.yul\":18791:18808   */\n      add\n        /* \"#utility.yul\":18784:18831   */\n      mstore\n        /* \"#utility.yul\":18848:18979   */\n      tag_821\n        /* \"#utility.yul\":18974:18978   */\n      dup2\n        /* \"#utility.yul\":18848:18979   */\n      tag_530\n      jump\t// in\n    tag_821:\n        /* \"#utility.yul\":18840:18979   */\n      swap1\n      pop\n        /* \"#utility.yul\":18567:18986   */\n      swap2\n      swap1\n      pop\n      jump\t// out\n        /* \"#utility.yul\":18992:19154   */\n    tag_531:\n        /* \"#utility.yul\":19132:19146   */\n      0x496e76616c696420726f6c650000000000000000000000000000000000000000\n        /* \"#utility.yul\":19128:19129   */\n      0x00\n        /* \"#utility.yul\":19120:19126   */\n      dup3\n        /* \"#utility.yul\":19116:19130   */\n      add\n        /* \"#utility.yul\":19109:19147   */\n      mstore\n        /* \"#utility.yul\":18992:19154   */\n      pop\n      jump\t// out\n        /* \"#utility.yul\":19160:19526   */\n    tag_532:\n        /* \"#utility.yul\":19302:19305   */\n      0x00\n        /* \"#utility.yul\":19323:19390   */\n      tag_824\n        /* \"#utility.yul\":19387:19389   */\n      0x0c\n        /* \"#utility.yul\":19382:19385   */\n      dup4\n        /* \"#utility.yul\":19323:19390   */\n      tag_488\n      jump\t// in\n    tag_824:\n        /* \"#utility.yul\":19316:19390   */\n      swap2\n      pop\n        /* \"#utility.yul\":19399:19492   */\n      tag_825\n        /* \"#utility.yul\":19488:19491   */\n      dup3\n        /* \"#utility.yul\":19399:19492   */\n      tag_531\n      jump\t// in\n    tag_825:\n        /* \"#utility.yul\":19517:19519   */\n      0x20\n        /* \"#utility.yul\":19512:19515   */\n      dup3\n        /* \"#utility.yul\":19508:19520   */\n      add\n        /* \"#utility.yul\":19501:19520   */\n      swap1\n      pop\n        /* \"#utility.yul\":19160:19526   */\n      swap2\n      swap1\n      pop\n      jump\t// out\n        /* \"#utility.yul\":19532:19951   */\n    tag_151:\n        /* \"#utility.yul\":19698:19702   */\n      0x00\n        /* \"#utility.yul\":19736:19738   */\n      0x20\n        /* \"#utility.yul\":19725:19734   */\n      dup3\n        /* \"#utility.yul\":19721:19739   */\n      add\n        /* \"#utility.yul\":19713:19739   */\n      swap1\n      pop\n        /* \"#utility.yul\":19785:19794   */\n      dup2\n        /* \"#utility.yul\":19779:19783   */\n      dup2\n        /* \"#utility.yul\":19775:19795   */\n      sub\n        /* \"#utility.yul\":19771:19772   */\n      0x00\n        /* \"#utility.yul\":19760:19769   */\n      dup4\n        /* \"#utility.yul\":19756:19773   */\n      add\n        /* \"#utility.yul\":19749:19796   */\n      mstore\n        /* \"#utility.yul\":19813:19944   */\n      tag_827\n        /* \"#utility.yul\":19939:19943   */\n      dup2\n        /* \"#utility.yul\":19813:19944   */\n      tag_532\n      jump\t// in\n    tag_827:\n        /* \"#utility.yul\":19805:19944   */\n      swap1\n      pop\n        /* \"#utility.yul\":19532:19951   */\n      swap2\n      swap1\n      pop\n      jump\t// out\n        /* \"#utility.yul\":19957:20098   */\n    tag_533:\n        /* \"#utility.yul\":20006:20010   */\n      0x00\n        /* \"#utility.yul\":20029:20032   */\n      dup2\n        /* \"#utility.yul\":20021:20032   */\n      swap1\n      pop\n        /* \"#utility.yul\":20052:20055   */\n      dup2\n        /* \"#utility.yul\":20049:20050   */\n      0x00\n        /* \"#utility.yul\":20042:20056   */\n      mstore\n        /* \"#utility.yul\":20086:20090   */\n      0x20\n        /* \"#utility.yul\":20083:20084   */\n      0x00\n        /* \"#utility.yul\":20073:20091   */\n      keccak256\n        /* \"#utility.yul\":20065:20091   */\n      swap1\n      pop\n        /* \"#utility.yul\":19957:20098   */\n      swap2\n      swap1\n      pop\n      jump\t// out\n        /* \"#utility.yul\":20104:20197   */\n    tag_534:\n        /* \"#utility.yul\":20141:20147   */\n      0x00\n        /* \"#utility.yul\":20188:20190   */\n      0x20\n        /* \"#utility.yul\":20183:20185   */\n      0x1f\n        /* \"#utility.yul\":20176:20181   */\n      dup4\n        /* \"#utility.yul\":20172:20186   */\n      add\n        /* \"#utility.yul\":20168:20191   */\n      div\n        /* \"#utility.yul\":20158:20191   */\n      swap1\n      pop\n        /* \"#utility.yul\":20104:20197   */\n      swap2\n      swap1\n      pop\n      jump\t// out\n        /* \"#utility.yul\":20203:20310   */\n    tag_535:\n        /* \"#utility.yul\":20247:20255   */\n      0x00\n        /* \"#utility.yul\":20297:20302   */\n      dup3\n        /* \"#utility.yul\":20291:20295   */\n      dup3\n        /* \"#utility.yul\":20287:20303   */\n      shl\n        /* \"#utility.yul\":20266:20303   */\n      swap1\n      pop\n        /* \"#utility.yul\":20203:20310   */\n      swap3\n      swap2\n      pop\n      pop\n      jump\t// out\n        /* \"#utility.yul\":20316:20709   */\n    tag_536:\n        /* \"#utility.yul\":20385:20391   */\n      0x00\n        /* \"#utility.yul\":20435:20436   */\n      0x08\n        /* \"#utility.yul\":20423:20433   */\n      dup4\n        /* \"#utility.yul\":20419:20437   */\n      mul\n        /* \"#utility.yul\":20458:20555   */\n      tag_832\n        /* \"#utility.yul\":20488:20554   */\n      0xffffffffffffffffffffffffffffffffffffffffffffffffffffffffffffffff\n        /* \"#utility.yul\":20477:20486   */\n      dup3\n        /* \"#utility.yul\":20458:20555   */\n      tag_535\n      jump\t// in\n    tag_832:\n        /* \"#utility.yul\":20576:20615   */\n      tag_833\n        /* \"#utility.yul\":20606:20614   */\n      dup7\n        /* \"#utility.yul\":20595:20604   */\n      dup4\n        /* \"#utility.yul\":20576:20615   */\n      tag_535\n      jump\t// in\n    tag_833:\n        /* \"#utility.yul\":20564:20615   */\n      swap6\n      pop\n        /* \"#utility.yul\":20648:20652   */\n      dup1\n        /* \"#utility.yul\":20644:20653   */\n      not\n        /* \"#utility.yul\":20637:20642   */\n      dup5\n        /* \"#utility.yul\":20633:20654   */\n      and\n        /* \"#utility.yul\":20624:20654   */\n      swap4\n      pop\n        /* \"#utility.yul\":20697:20701   */\n      dup1\n        /* \"#utility.yul\":20687:20695   */\n      dup7\n        /* \"#utility.yul\":20683:20702   */\n      and\n        /* \"#utility.yul\":20676:20681   */\n      dup5\n        /* \"#utility.yul\":20673:20703   */\n      or\n        /* \"#utility.yul\":20663:20703   */\n      swap3\n      pop\n        /* \"#utility.yul\":20392:20709   */\n      pop\n      pop\n        /* \"#utility.yul\":20316:20709   */\n      swap4\n      swap3\n      pop\n      pop\n      pop\n      jump\t// out\n        /* \"#utility.yul\":20715:20775   */\n    tag_537:\n        /* \"#utility.yul\":20743:20746   */\n      0x00\n        /* \"#utility.yul\":20764:20769   */\n      dup2\n        /* \"#utility.yul\":20757:20769   */\n      swap1\n      pop\n        /* \"#utility.yul\":20715:20775   */\n      swap2\n      swap1\n      pop\n      jump\t// out\n        /* \"#utility.yul\":20781:20923   */\n    tag_538:\n        /* \"#utility.yul\":20831:20840   */\n      0x00\n        /* \"#utility.yul\":20864:20917   */\n      tag_836\n        /* \"#utility.yul\":20882:20916   */\n      tag_837\n        /* \"#utility.yul\":20891:20915   */\n      tag_838\n        /* \"#utility.yul\":20909:20914   */\n      dup5\n        /* \"#utility.yul\":20891:20915   */\n      tag_480\n      jump\t// in\n    tag_838:\n        /* \"#utility.yul\":20882:20916   */\n      tag_537\n      jump\t// in\n    tag_837:\n        /* \"#utility.yul\":20864:20917   */\n      tag_480\n      jump\t// in\n    tag_836:\n        /* \"#utility.yul\":20851:20917   */\n      swap1\n      pop\n        /* \"#utility.yul\":20781:20923   */\n      swap2\n      swap1\n      pop\n      jump\t// out\n        /* \"#utility.yul\":20929:21004   */\n    tag_539:\n        /* \"#utility.yul\":20972:20975   */\n      0x00\n        /* \"#utility.yul\":20993:20998   */\n      dup2\n        /* \"#utility.yul\":20986:20998   */\n      swap1\n      pop\n        /* \"#utility.yul\":20929:21004   */\n      swap2\n      swap1\n      pop\n      jump\t// out\n        /* \"#utility.yul\":21010:21279   */\n    tag_540:\n        /* \"#utility.yul\":21120:21159   */\n      tag_841\n        /* \"#utility.yul\":21151:21158   */\n      dup4\n        /* \"#utility.yul\":21120:21159   */\n      tag_538\n      jump\t// in\n    tag_841:\n        /* \"#utility.yul\":21181:21272   */\n      tag_842\n        /* \"#utility.yul\":21230:21271   */\n      tag_843\n        /* \"#utility.yul\":21254:21270   */\n      dup3\n        /* \"#utility.yul\":21230:21271   */\n      tag_539\n      jump\t// in\n    tag_843:\n        /* \"#utility.yul\":21222:21228   */\n      dup5\n        /* \"#utility.yul\":21215:21219   */\n      dup5\n        /* \"#utility.yul\":21209:21220   */\n      sload\n        /* \"#utility.yul\":21181:21272   */\n      tag_536\n      jump\t// in\n    tag_842:\n        /* \"#utility.yul\":21175:21179   */\n      dup3\n        /* \"#utility.yul\":21168:21273   */\n      sstore\n        /* \"#utility.yul\":21086:21279   */\n      pop\n        /* \"#utility.yul\":21010:21279   */\n      pop\n      pop\n      pop\n      jump\t// out\n        /* \"#utility.yul\":21285:21358   */\n    tag_541:\n        /* \"#utility.yul\":21330:21333   */\n      0x00\n        /* \"#utility.yul\":21285:21358   */\n      swap1\n      jump\t// out\n        /* \"#utility.yul\":21364:21553   */\n    tag_542:\n        /* \"#utility.yul\":21441:21473   */\n      tag_846\n      tag_541\n      jump\t// in\n    tag_846:\n        /* \"#utility.yul\":21482:21547   */\n      tag_847\n        /* \"#utility.yul\":21540:21546   */\n      dup2\n        /* \"#utility.yul\":21532:21538   */\n      dup5\n        /* \"#utility.yul\":21526:21530   */\n      dup5\n        /* \"#utility.yul\":21482:21547   */\n      tag_540\n      jump\t// in\n    tag_847:\n        /* \"#utility.yul\":21417:21553   */\n      pop\n        /* \"#utility.yul\":21364:21553   */\n      pop\n      pop\n      jump\t// out\n        /* \"#utility.yul\":21559:21745   */\n    tag_543:\n        /* \"#utility.yul\":21619:21739   */\n    tag_849:\n        /* \"#utility.yul\":21636:21639   */\n      dup2\n        /* \"#utility.yul\":21629:21634   */\n      dup2\n        /* \"#utility.yul\":21626:21640   */\n      lt\n        /* \"#utility.yul\":21619:21739   */\n      iszero\n      tag_851\n      jumpi\n        /* \"#utility.yul\":21690:21729   */\n      tag_852\n        /* \"#utility.yul\":21727:21728   */\n      0x00\n        /* \"#utility.yul\":21720:21725   */\n      dup3\n        /* \"#utility.yul\":21690:21729   */\n      tag_542\n      jump\t// in\n    tag_852:\n        /* \"#utility.yul\":21663:21664   */\n      0x01\n        /* \"#utility.yul\":21656:21661   */\n      dup2\n        /* \"#utility.yul\":21652:21665   */\n      add\n        /* \"#utility.yul\":21643:21665   */\n      swap1\n      pop\n        /* \"#utility.yul\":21619:21739   */\n      jump(tag_849)\n    tag_851:\n        /* \"#utility.yul\":21559:21745   */\n      pop\n      pop\n      jump\t// out\n        /* \"#utility.yul\":21751:22294   */\n    tag_544:\n        /* \"#utility.yul\":21852:21854   */\n      0x1f\n        /* \"#utility.yul\":21847:21850   */\n      dup3\n        /* \"#utility.yul\":21844:21855   */\n      gt\n        /* \"#utility.yul\":21841:22287   */\n      iszero\n      tag_854\n      jumpi\n        /* \"#utility.yul\":21886:21924   */\n      tag_855\n        /* \"#utility.yul\":21918:21923   */\n      dup2\n        /* \"#utility.yul\":21886:21924   */\n      tag_533\n      jump\t// in\n    tag_855:\n        /* \"#utility.yul\":21970:21999   */\n      tag_856\n        /* \"#utility.yul\":21988:21998   */\n      dup5\n        /* \"#utility.yul\":21970:21999   */\n      tag_534\n      jump\t// in\n    tag_856:\n        /* \"#utility.yul\":21960:21968   */\n      dup2\n        /* \"#utility.yul\":21956:22000   */\n      add\n        /* \"#utility.yul\":22153:22155   */\n      0x20\n        /* \"#utility.yul\":22141:22151   */\n      dup6\n        /* \"#utility.yul\":22138:22156   */\n      lt\n        /* \"#utility.yul\":22135:22184   */\n      iszero\n      tag_857\n      jumpi\n        /* \"#utility.yul\":22174:22182   */\n      dup2\n        /* \"#utility.yul\":22159:22182   */\n      swap1\n      pop\n        /* \"#utility.yul\":22135:22184   */\n    tag_857:\n        /* \"#utility.yul\":22197:22277   */\n      tag_858\n        /* \"#utility.yul\":22253:22275   */\n      tag_859\n        /* \"#utility.yul\":22271:22274   */\n      dup6\n        /* \"#utility.yul\":22253:22275   */\n      tag_534\n      jump\t// in\n    tag_859:\n        /* \"#utility.yul\":22243:22251   */\n      dup4\n        /* \"#utility.yul\":22239:22276   */\n      add\n        /* \"#utility.yul\":22226:22237   */\n      dup3\n        /* \"#utility.yul\":22197:22277   */\n      tag_543\n      jump\t// in\n    tag_858:\n        /* \"#utility.yul\":21856:22287   */\n      pop\n      pop\n        /* \"#utility.yul\":21841:22287   */\n    tag_854:\n        /* \"#utility.yul\":21751:22294   */\n      pop\n      pop\n      pop\n      jump\t// out\n        /* \"#utility.yul\":22300:22417   */\n    tag_545:\n        /* \"#utility.yul\":22354:22362   */\n      0x00\n        /* \"#utility.yul\":22404:22409   */\n      dup3\n        /* \"#utility.yul\":22398:22402   */\n      dup3\n        /* \"#utility.yul\":22394:22410   */\n      shr\n        /* \"#utility.yul\":22373:22410   */\n      swap1\n      pop\n        /* \"#utility.yul\":22300:22417   */\n      swap3\n      swap2\n      pop\n      pop\n      jump\t// out\n        /* \"#utility.yul\":22423:22592   */\n    tag_546:\n        /* \"#utility.yul\":22467:22473   */\n      0x00\n        /* \"#utility.yul\":22500:22551   */\n      tag_862\n        /* \"#utility.yul\":22548:22549   */\n      0x00\n        /* \"#utility.yul\":22544:22550   */\n      not\n        /* \"#utility.yul\":22536:22541   */\n      dup5\n        /* \"#utility.yul\":22533:22534   */\n      0x08\n        /* \"#utility.yul\":22529:22542   */\n      mul\n        /* \"#utility.yul\":22500:22551   */\n      tag_545\n      jump\t// in\n    tag_862:\n        /* \"#utility.yul\":22496:22552   */\n      not\n        /* \"#utility.yul\":22581:22585   */\n      dup1\n        /* \"#utility.yul\":22575:22579   */\n      dup4\n        /* \"#utility.yul\":22571:22586   */\n      and\n        /* \"#utility.yul\":22561:22586   */\n      swap2\n      pop\n        /* \"#utility.yul\":22474:22592   */\n      pop\n        /* \"#utility.yul\":22423:22592   */\n      swap3\n      swap2\n      pop\n      pop\n      jump\t// out\n        /* \"#utility.yul\":22597:22892   */\n    tag_547:\n        /* \"#utility.yul\":22673:22677   */\n      0x00\n        /* \"#utility.yul\":22819:22848   */\n      tag_864\n        /* \"#utility.yul\":22844:22847   */\n      dup4\n        /* \"#utility.yul\":22838:22842   */\n      dup4\n        /* \"#utility.yul\":22819:22848   */\n      tag_546\n      jump\t// in\n    tag_864:\n        /* \"#utility.yul\":22811:22848   */\n      swap2\n      pop\n        /* \"#utility.yul\":22881:22884   */\n      dup3\n        /* \"#utility.yul\":22878:22879   */\n      0x02\n        /* \"#utility.yul\":22874:22885   */\n      mul\n        /* \"#utility.yul\":22868:22872   */\n      dup3\n        /* \"#utility.yul\":22865:22886   */\n      or\n        /* \"#utility.yul\":22857:22886   */\n      swap1\n      pop\n        /* \"#utility.yul\":22597:22892   */\n      swap3\n      swap2\n      pop\n      pop\n      jump\t// out\n        /* \"#utility.yul\":22897:24292   */\n    tag_160:\n        /* \"#utility.yul\":23014:23051   */\n      tag_866\n        /* \"#utility.yul\":23047:23050   */\n      dup3\n        /* \"#utility.yul\":23014:23051   */\n      tag_487\n      jump\t// in\n    tag_866:\n        /* \"#utility.yul\":23116:23134   */\n      0xffffffffffffffff\n        /* \"#utility.yul\":23108:23114   */\n      dup2\n        /* \"#utility.yul\":23105:23135   */\n      gt\n        /* \"#utility.yul\":23102:23158   */\n      iszero\n      tag_867\n      jumpi\n        /* \"#utility.yul\":23138:23156   */\n      tag_868\n      tag_500\n      jump\t// in\n    tag_868:\n        /* \"#utility.yul\":23102:23158   */\n    tag_867:\n        /* \"#utility.yul\":23182:23220   */\n      tag_869\n        /* \"#utility.yul\":23214:23218   */\n      dup3\n        /* \"#utility.yul\":23208:23219   */\n      sload\n        /* \"#utility.yul\":23182:23220   */\n      tag_113\n      jump\t// in\n    tag_869:\n        /* \"#utility.yul\":23267:23334   */\n      tag_870\n        /* \"#utility.yul\":23327:23333   */\n      dup3\n        /* \"#utility.yul\":23319:23325   */\n      dup3\n        /* \"#utility.yul\":23313:23317   */\n      dup6\n        /* \"#utility.yul\":23267:23334   */\n      tag_544\n      jump\t// in\n    tag_870:\n        /* \"#utility.yul\":23361:23362   */\n      0x00\n        /* \"#utility.yul\":23385:23389   */\n      0x20\n        /* \"#utility.yul\":23372:23389   */\n      swap1\n      pop\n        /* \"#utility.yul\":23417:23419   */\n      0x1f\n        /* \"#utility.yul\":23409:23415   */\n      dup4\n        /* \"#utility.yul\":23406:23420   */\n      gt\n        /* \"#utility.yul\":23434:23435   */\n      0x01\n        /* \"#utility.yul\":23429:24047   */\n      dup2\n      eq\n      tag_872\n      jumpi\n        /* \"#utility.yul\":24091:24092   */\n      0x00\n        /* \"#utility.yul\":24108:24114   */\n      dup5\n        /* \"#utility.yul\":24105:24182   */\n      iszero\n      tag_873\n      jumpi\n        /* \"#utility.yul\":24157:24166   */\n      dup3\n        /* \"#utility.yul\":24152:24155   */\n      dup8\n        /* \"#utility.yul\":24148:24167   */\n      add\n        /* \"#utility.yul\":24142:24168   */\n      mload\n        /* \"#utility.yul\":24133:24168   */\n      swap1\n      pop\n        /* \"#utility.yul\":24105:24182   */\n    tag_873:\n        /* \"#utility.yul\":24208:24275   */\n      tag_874\n        /* \"#utility.yul\":24268:24274   */\n      dup6\n        /* \"#utility.yul\":24261:24266   */\n      dup3\n        /* \"#utility.yul\":24208:24275   */\n      tag_547\n      jump\t// in\n    tag_874:\n        /* \"#utility.yul\":24202:24206   */\n      dup7\n        /* \"#utility.yul\":24195:24276   */\n      sstore\n        /* \"#utility.yul\":24064:24286   */\n      pop\n        /* \"#utility.yul\":23399:24286   */\n      jump(tag_871)\n        /* \"#utility.yul\":23429:24047   */\n    tag_872:\n        /* \"#utility.yul\":23481:23485   */\n      0x1f\n        /* \"#utility.yul\":23477:23486   */\n      not\n        /* \"#utility.yul\":23469:23475   */\n      dup5\n        /* \"#utility.yul\":23465:23487   */\n      and\n        /* \"#utility.yul\":23515:23552   */\n      tag_875\n        /* \"#utility.yul\":23547:23551   */\n      dup7\n        /* \"#utility.yul\":23515:23552   */\n      tag_533\n      jump\t// in\n    tag_875:\n        /* \"#utility.yul\":23574:23575   */\n      0x00\n        /* \"#utility.yul\":23588:23796   */\n    tag_876:\n        /* \"#utility.yul\":23602:23609   */\n      dup3\n        /* \"#utility.yul\":23599:23600   */\n      dup2\n        /* \"#utility.yul\":23596:23610   */\n      lt\n        /* \"#utility.yul\":23588:23796   */\n      iszero\n      tag_878\n      jumpi\n        /* \"#utility.yul\":23681:23690   */\n      dup5\n        /* \"#utility.yul\":23676:23679   */\n      dup10\n        /* \"#utility.yul\":23672:23691   */\n      add\n        /* \"#utility.yul\":23666:23692   */\n      mload\n        /* \"#utility.yul\":23658:23664   */\n      dup3\n        /* \"#utility.yul\":23651:23693   */\n      sstore\n        /* \"#utility.yul\":23732:23733   */\n      0x01\n        /* \"#utility.yul\":23724:23730   */\n      dup3\n        /* \"#utility.yul\":23720:23734   */\n      add\n        /* \"#utility.yul\":23710:23734   */\n      swap2\n      pop\n        /* \"#utility.yul\":23779:23781   */\n      0x20\n        /* \"#utility.yul\":23768:23777   */\n      dup6\n        /* \"#utility.yul\":23764:23782   */\n      add\n        /* \"#utility.yul\":23751:23782   */\n      swap5\n      pop\n        /* \"#utility.yul\":23625:23629   */\n      0x20\n        /* \"#utility.yul\":23622:23623   */\n      dup2\n        /* \"#utility.yul\":23618:23630   */\n      add\n        /* \"#utility.yul\":23613:23630   */\n      swap1\n      pop\n        /* \"#utility.yul\":23588:23796   */\n      jump(tag_876)\n    tag_878:\n        /* \"#utility.yul\":23824:23830   */\n      dup7\n        /* \"#utility.yul\":23815:23822   */\n      dup4\n        /* \"#utility.yul\":23812:23831   */\n      lt\n        /* \"#utility.yul\":23809:23988   */\n      iszero\n      tag_879\n      jumpi\n        /* \"#utility.yul\":23882:23891   */\n      dup5\n        /* \"#utility.yul\":23877:23880   */\n      dup10\n        /* \"#utility.yul\":23873:23892   */\n      add\n        /* \"#utility.yul\":23867:23893   */\n      mload\n        /* \"#utility.yul\":23925:23973   */\n      tag_880\n        /* \"#utility.yul\":23967:23971   */\n      0x1f\n        /* \"#utility.yul\":23959:23965   */\n      dup10\n        /* \"#utility.yul\":23955:23972   */\n      and\n        /* \"#utility.yul\":23944:23953   */\n      dup3\n        /* \"#utility.yul\":23925:23973   */\n      tag_546\n      jump\t// in\n    tag_880:\n        /* \"#utility.yul\":23917:23923   */\n      dup4\n        /* \"#utility.yul\":23910:23974   */\n      sstore\n        /* \"#utility.yul\":23832:23988   */\n      pop\n        /* \"#utility.yul\":23809:23988   */\n    tag_879:\n        /* \"#utility.yul\":24034:24035   */\n      0x01\n        /* \"#utility.yul\":24030:24031   */\n      0x02\n        /* \"#utility.yul\":24022:24028   */\n      dup9\n        /* \"#utility.yul\":24018:24032   */\n      mul\n        /* \"#utility.yul\":24014:24036   */\n      add\n        /* \"#utility.yul\":24008:24012   */\n      dup9\n        /* \"#utility.yul\":24001:24037   */\n      sstore\n        /* \"#utility.yul\":23436:24047   */\n      pop\n      pop\n      pop\n        /* \"#utility.yul\":23399:24286   */\n    tag_871:\n      pop\n        /* \"#utility.yul\":22989:24292   */\n      pop\n      pop\n      pop\n        /* \"#utility.yul\":22897:24292   */\n      pop\n      pop\n      jump\t// out\n        /* \"#utility.yul\":24298:24729   */\n    tag_164:\n        /* \"#utility.yul\":24443:24447   */\n      0x00\n        /* \"#utility.yul\":24481:24483   */\n      0x40\n        /* \"#utility.yul\":24470:24479   */\n      dup3\n        /* \"#utility.yul\":24466:24484   */\n      add\n        /* \"#utility.yul\":24458:24484   */\n      swap1\n      pop\n        /* \"#utility.yul\":24530:24539   */\n      dup2\n        /* \"#utility.yul\":24524:24528   */\n      dup2\n        /* \"#utility.yul\":24520:24540   */\n      sub\n        /* \"#utility.yul\":24516:24517   */\n      0x00\n        /* \"#utility.yul\":24505:24514   */\n      dup4\n        /* \"#utility.yul\":24501:24518   */\n      add\n        /* \"#utility.yul\":24494:24541   */\n      mstore\n        /* \"#utility.yul\":24558:24636   */\n      tag_882\n        /* \"#utility.yul\":24631:24635   */\n      dup2\n        /* \"#utility.yul\":24622:24628   */\n      dup6\n        /* \"#utility.yul\":24558:24636   */\n      tag_491\n      jump\t// in\n    tag_882:\n        /* \"#utility.yul\":24550:24636   */\n      swap1\n      pop\n        /* \"#utility.yul\":24646:24722   */\n      tag_883\n        /* \"#utility.yul\":24718:24720   */\n      0x20\n        /* \"#utility.yul\":24707:24716   */\n      dup4\n        /* \"#utility.yul\":24703:24721   */\n      add\n        /* \"#utility.yul\":24694:24700   */\n      dup5\n        /* \"#utility.yul\":24646:24722   */\n      tag_520\n      jump\t// in\n    tag_883:\n        /* \"#utility.yul\":24298:24729   */\n      swap4\n      swap3\n      pop\n      pop\n      pop\n      jump\t// out\n        /* \"#utility.yul\":24735:24897   */\n    tag_548:\n        /* \"#utility.yul\":24875:24889   */\n      0x4f6e6c7920617262697465720000000000000000000000000000000000000000\n        /* \"#utility.yul\":24871:24872   */\n      0x00\n        /* \"#utility.yul\":24863:24869   */\n      dup3\n        /* \"#utility.yul\":24859:24873   */\n      add\n        /* \"#utility.yul\":24852:24890   */\n      mstore\n        /* \"#utility.yul\":24735:24897   */\n      pop\n      jump\t// out\n        /* \"#utility.yul\":24903:25269   */\n    tag_549:\n        /* \"#utility.yul\":25045:25048   */\n      0x00\n        /* \"#utility.yul\":25066:25133   */\n      tag_886\n        /* \"#utility.yul\":25130:25132   */\n      0x0c\n        /* \"#utility.yul\":25125:25128   */\n      dup4\n        /* \"#utility.yul\":25066:25133   */\n      tag_488\n      jump\t// in\n    tag_886:\n        /* \"#utility.yul\":25059:25133   */\n      swap2\n      pop\n        /* \"#utility.yul\":25142:25235   */\n      tag_887\n        /* \"#utility.yul\":25231:25234   */\n      dup3\n        /* \"#utility.yul\":25142:25235   */\n      tag_548\n      jump\t// in\n    tag_887:\n        /* \"#utility.yul\":25260:25262   */\n      0x20\n        /* \"#utility.yul\":25255:25258   */\n      dup3\n        /* \"#utility.yul\":25251:25263   */\n      add\n        /* \"#utility.yul\":25244:25263   */\n      swap1\n      pop\n        /* \"#utility.yul\":24903:25269   */\n      swap2\n      swap1\n      pop\n      jump\t// out\n        /* \"#utility.yul\":25275:25694   */\n    tag_168:\n        /* \"#utility.yul\":25441:25445   */\n      0x00\n        /* \"#utility.yul\":25479:25481   */\n      0x20\n        /* \"#utility.yul\":25468:25477   */\n      dup3\n        /* \"#utility.yul\":25464:25482   */\n      add\n        /* \"#utility.yul\":25456:25482   */\n      swap1\n      pop\n        /* \"#utility.yul\":25528:25537   */\n      dup2\n        /* \"#utility.yul\":25522:25526   */\n      dup2\n        /* \"#utility.yul\":25518:25538   */\n      sub\n        /* \"#utility.yul\":25514:25515   */\n      0x00\n        /* \"#utility.yul\":25503:25512   */\n      dup4\n        /* \"#utility.yul\":25499:25516   */\n      add\n        /* \"#utility.yul\":25492:25539   */\n      mstore\n        /* \"#utility.yul\":25556:25687   */\n      tag_889\n        /* \"#utility.yul\":25682:25686   */\n      dup2\n        /* \"#utility.yul\":25556:25687   */\n      tag_549\n      jump\t// in\n    tag_889:\n        /* \"#utility.yul\":25548:25687   */\n      swap1\n      pop\n        /* \"#utility.yul\":25275:25694   */\n      swap2\n      swap1\n      pop\n      jump\t// out\n        /* \"#utility.yul\":25700:25872   */\n    tag_550:\n        /* \"#utility.yul\":25840:25864   */\n      0x41726269746572206e6f74207265676973746572656400000000000000000000\n        /* \"#utility.yul\":25836:25837   */\n      0x00\n        /* \"#utility.yul\":25828:25834   */\n      dup3\n        /* \"#utility.yul\":25824:25838   */\n      add\n        /* \"#utility.yul\":25817:25865   */\n      mstore\n        /* \"#utility.yul\":25700:25872   */\n      pop\n      jump\t// out\n        /* \"#utility.yul\":25878:26244   */\n    tag_551:\n        /* \"#utility.yul\":26020:26023   */\n      0x00\n        /* \"#utility.yul\":26041:26108   */\n      tag_892\n        /* \"#utility.yul\":26105:26107   */\n      0x16\n        /* \"#utility.yul\":26100:26103   */\n      dup4\n        /* \"#utility.yul\":26041:26108   */\n      tag_488\n      jump\t// in\n    tag_892:\n        /* \"#utility.yul\":26034:26108   */\n      swap2\n      pop\n        /* \"#utility.yul\":26117:26210   */\n      tag_893\n        /* \"#utility.yul\":26206:26209   */\n      dup3\n        /* \"#utility.yul\":26117:26210   */\n      tag_550\n      jump\t// in\n    tag_893:\n        /* \"#utility.yul\":26235:26237   */\n      0x20\n        /* \"#utility.yul\":26230:26233   */\n      dup3\n        /* \"#utility.yul\":26226:26238   */\n      add\n        /* \"#utility.yul\":26219:26238   */\n      swap1\n      pop\n        /* \"#utility.yul\":25878:26244   */\n      swap2\n      swap1\n      pop\n      jump\t// out\n        /* \"#utility.yul\":26250:26669   */\n    tag_176:\n        /* \"#utility.yul\":26416:26420   */\n      0x00\n        /* \"#utility.yul\":26454:26456   */\n      0x20\n        /* \"#utility.yul\":26443:26452   */\n      dup3\n        /* \"#utility.yul\":26439:26457   */\n      add\n        /* \"#utility.yul\":26431:26457   */\n      swap1\n      pop\n        /* \"#utility.yul\":26503:26512   */\n      dup2\n        /* \"#utility.yul\":26497:26501   */\n      dup2\n        /* \"#utility.yul\":26493:26513   */\n      sub\n        /* \"#utility.yul\":26489:26490   */\n      0x00\n        /* \"#utility.yul\":26478:26487   */\n      dup4\n        /* \"#utility.yul\":26474:26491   */\n      add\n        /* \"#utility.yul\":26467:26514   */\n      mstore\n        /* \"#utility.yul\":26531:26662   */\n      tag_895\n        /* \"#utility.yul\":26657:26661   */\n      dup2\n        /* \"#utility.yul\":26531:26662   */\n      tag_551\n      jump\t// in\n    tag_895:\n        /* \"#utility.yul\":26523:26662   */\n      swap1\n      pop\n        /* \"#utility.yul\":26250:26669   */\n      swap2\n      swap1\n      pop\n      jump\t// out\n        /* \"#utility.yul\":26675:26835   */\n    tag_552:\n        /* \"#utility.yul\":26815:26827   */\n      0x5265656e7472616e637900000000000000000000000000000000000000000000\n        /* \"#utility.yul\":26811:26812   */\n      0x00\n        /* \"#utility.yul\":26803:26809   */\n      dup3\n        /* \"#utility.yul\":26799:26813   */\n      add\n        /* \"#utility.yul\":26792:26828   */\n      mstore\n        /* \"#utility.yul\":26675:26835   */\n      pop\n      jump\t// out\n        /* \"#utility.yul\":26841:27207   */\n    tag_553:\n        /* \"#utility.yul\":26983:26986   */\n      0x00\n        /* \"#utility.yul\":27004:27071   */\n      tag_898\n        /* \"#utility.yul\":27068:27070   */\n      0x0a\n        /* \"#utility.yul\":27063:27066   */\n      dup4\n        /* \"#utility.yul\":27004:27071   */\n      tag_488\n      jump\t// in\n    tag_898:\n        /* \"#utility.yul\":26997:27071   */\n      swap2\n      pop\n        /* \"#utility.yul\":27080:27173   */\n      tag_899\n        /* \"#utility.yul\":27169:27172   */\n      dup3\n        /* \"#utility.yul\":27080:27173   */\n      tag_552\n      jump\t// in\n    tag_899:\n        /* \"#utility.yul\":27198:27200   */\n      0x20\n        /* \"#utility.yul\":27193:27196   */\n      dup3\n        /* \"#utility.yul\":27189:27201   */\n      add\n        /* \"#utility.yul\":27182:27201   */\n      swap1\n      pop\n        /* \"#utility.yul\":26841:27207   */\n      swap2\n      swap1\n      pop\n      jump\t// out\n        /* \"#utility.yul\":27213:27632   */\n    tag_180:\n        /* \"#utility.yul\":27379:27383   */\n      0x00\n        /* \"#utility.yul\":27417:27419   */\n      0x20\n        /* \"#utility.yul\":27406:27415   */\n      dup3\n        /* \"#utility.yul\":27402:27420   */\n      add\n        /* \"#utility.yul\":27394:27420   */\n      swap1\n      pop\n        /* \"#utility.yul\":27466:27475   */\n      dup2\n        /* \"#utility.yul\":27460:27464   */\n      dup2\n        /* \"#utility.yul\":27456:27476   */\n      sub\n        /* \"#utility.yul\":27452:27453   */\n      0x00\n        /* \"#utility.yul\":27441:27450   */\n      dup4\n        /* \"#utility.yul\":27437:27454   */\n      add\n        /* \"#utility.yul\":27430:27477   */\n      mstore\n        /* \"#utility.yul\":27494:27625   */\n      tag_901\n        /* \"#utility.yul\":27620:27624   */\n      dup2\n        /* \"#utility.yul\":27494:27625   */\n      tag_553\n      jump\t// in\n    tag_901:\n        /* \"#utility.yul\":27486:27625   */\n      swap1\n      pop\n        /* \"#utility.yul\":27213:27632   */\n      swap2\n      swap1\n      pop\n      jump\t// out\n        /* \"#utility.yul\":27638:27806   */\n    tag_554:\n        /* \"#utility.yul\":27778:27798   */\n      0x4a6f6220646f6573206e6f742065786973740000000000000000000000000000\n        /* \"#utility.yul\":27774:27775   */\n      0x00\n        /* \"#utility.yul\":27766:27772   */\n      dup3\n        /* \"#utility.yul\":27762:27776   */\n      add\n        /* \"#utility.yul\":27755:27799   */\n      mstore\n        /* \"#utility.yul\":27638:27806   */\n      pop\n      jump\t// out\n        /* \"#utility.yul\":27812:28178   */\n    tag_555:\n        /* \"#utility.yul\":27954:27957   */\n      0x00\n        /* \"#utility.yul\":27975:28042   */\n      tag_904\n        /* \"#utility.yul\":28039:28041   */\n      0x12\n        /* \"#utility.yul\":28034:28037   */\n      dup4\n        /* \"#utility.yul\":27975:28042   */\n      tag_488\n      jump\t// in\n    tag_904:\n        /* \"#utility.yul\":27968:28042   */\n      swap2\n      pop\n        /* \"#utility.yul\":28051:28144   */\n      tag_905\n        /* \"#utility.yul\":28140:28143   */\n      dup3\n        /* \"#utility.yul\":28051:28144   */\n      tag_554\n      jump\t// in\n    tag_905:\n        /* \"#utility.yul\":28169:28171   */\n      0x20\n        /* \"#utility.yul\":28164:28167   */\n      dup3\n        /* \"#utility.yul\":28160:28172   */\n      add\n        /* \"#utility.yul\":28153:28172   */\n      swap1\n      pop\n        /* \"#utility.yul\":27812:28178   */\n      swap2\n      swap1\n      pop\n      jump\t// out\n        /* \"#utility.yul\":28184:28603   */\n    tag_184:\n        /* \"#utility.yul\":28350:28354   */\n      0x00\n        /* \"#utility.yul\":28388:28390   */\n      0x20\n        /* \"#utility.yul\":28377:28386   */\n      dup3\n        /* \"#utility.yul\":28373:28391   */\n      add\n        /* \"#utility.yul\":28365:28391   */\n      swap1\n      pop\n        /* \"#utility.yul\":28437:28446   */\n      dup2\n        /* \"#utility.yul\":28431:28435   */\n      dup2\n        /* \"#utility.yul\":28427:28447   */\n      sub\n        /* \"#utility.yul\":28423:28424   */\n      0x00\n        /* \"#utility.yul\":28412:28421   */\n      dup4\n        /* \"#utility.yul\":28408:28425   */\n      add\n        /* \"#utility.yul\":28401:28448   */\n      mstore\n        /* \"#utility.yul\":28465:28596   */\n      tag_907\n        /* \"#utility.yul\":28591:28595   */\n      dup2\n        /* \"#utility.yul\":28465:28596   */\n      tag_555\n      jump\t// in\n    tag_907:\n        /* \"#utility.yul\":28457:28596   */\n      swap1\n      pop\n        /* \"#utility.yul\":28184:28603   */\n      swap2\n      swap1\n      pop\n      jump\t// out\n        /* \"#utility.yul\":28609:28775   */\n    tag_556:\n        /* \"#utility.yul\":28749:28767   */\n      0x4a6f62206e6f7420646973707574656400000000000000000000000000000000\n        /* \"#utility.yul\":28745:28746   */\n      0x00\n        /* \"#utility.yul\":28737:28743   */\n      dup3\n        /* \"#utility.yul\":28733:28747   */\n      add\n        /* \"#utility.yul\":28726:28768   */\n      mstore\n        /* \"#utility.yul\":28609:28775   */\n      pop\n      jump\t// out\n        /* \"#utility.yul\":28781:29147   */\n    tag_557:\n        /* \"#utility.yul\":28923:28926   */\n      0x00\n        /* \"#utility.yul\":28944:29011   */\n      tag_910\n        /* \"#utility.yul\":29008:29010   */\n      0x10\n        /* \"#utility.yul\":29003:29006   */\n      dup4\n        /* \"#utility.yul\":28944:29011   */\n      tag_488\n      jump\t// in\n    tag_910:\n        /* \"#utility.yul\":28937:29011   */\n      swap2\n      pop\n        /* \"#utility.yul\":29020:29113   */\n      tag_911\n        /* \"#utility.yul\":29109:29112   */\n      dup3\n        /* \"#utility.yul\":29020:29113   */\n      tag_556\n      jump\t// in\n    tag_911:\n        /* \"#utility.yul\":29138:29140   */\n      0x20\n        /* \"#utility.yul\":29133:29136   */\n      dup3\n        /* \"#utility.yul\":29129:29141   */\n      add\n        /* \"#utility.yul\":29122:29141   */\n      swap1\n      pop\n        /* \"#utility.yul\":28781:29147   */\n      swap2\n      swap1\n      pop\n      jump\t// out\n        /* \"#utility.yul\":29153:29572   */\n    tag_191:\n        /* \"#utility.yul\":29319:29323   */\n      0x00\n        /* \"#utility.yul\":29357:29359   */\n      0x20\n        /* \"#utility.yul\":29346:29355   */\n      dup3\n        /* \"#utility.yul\":29342:29360   */\n      add\n        /* \"#utility.yul\":29334:29360   */\n      swap1\n      pop\n        /* \"#utility.yul\":29406:29415   */\n      dup2\n        /* \"#utility.yul\":29400:29404   */\n      dup2\n        /* \"#utility.yul\":29396:29416   */\n      sub\n        /* \"#utility.yul\":29392:29393   */\n      0x00\n        /* \"#utility.yul\":29381:29390   */\n      dup4\n        /* \"#utility.yul\":29377:29394   */\n      add\n        /* \"#utility.yul\":29370:29417   */\n      mstore\n        /* \"#utility.yul\":29434:29565   */\n      tag_913\n        /* \"#utility.yul\":29560:29564   */\n      dup2\n        /* \"#utility.yul\":29434:29565   */\n      tag_557\n      jump\t// in\n    tag_913:\n        /* \"#utility.yul\":29426:29565   */\n      swap1\n      pop\n        /* \"#utility.yul\":29153:29572   */\n      swap2\n      swap1\n      pop\n      jump\t// out\n        /* \"#utility.yul\":29578:29744   */\n    tag_558:\n        /* \"#utility.yul\":29718:29736   */\n      0x457363726f77206e6f7420666f756e6400000000000000000000000000000000\n        /* \"#utility.yul\":29714:29715   */\n      0x00\n        /* \"#utility.yul\":29706:29712   */\n      dup3\n        /* \"#utility.yul\":29702:29716   */\n      add\n        /* \"#utility.yul\":29695:29737   */\n      mstore\n        /* \"#utility.yul\":29578:29744   */\n      pop\n      jump\t// out\n        /* \"#utility.yul\":29750:30116   */\n    tag_559:\n        /* \"#utility.yul\":29892:29895   */\n      0x00\n        /* \"#utility.yul\":29913:29980   */\n      tag_916\n        /* \"#utility.yul\":29977:29979   */\n      0x10\n        /* \"#utility.yul\":29972:29975   */\n      dup4\n        /* \"#utility.yul\":29913:29980   */\n      tag_488\n      jump\t// in\n    tag_916:\n        /* \"#utility.yul\":29906:29980   */\n      swap2\n      pop\n        /* \"#utility.yul\":29989:30082   */\n      tag_917\n        /* \"#utility.yul\":30078:30081   */\n      dup3\n        /* \"#utility.yul\":29989:30082   */\n      tag_558\n      jump\t// in\n    tag_917:\n        /* \"#utility.yul\":30107:30109   */\n      0x20\n        /* \"#utility.yul\":30102:30105   */\n      dup3\n        /* \"#utility.yul\":30098:30110   */\n      add\n        /* \"#utility.yul\":30091:30110   */\n      swap1\n      pop\n        /* \"#utility.yul\":29750:30116   */\n      swap2\n      swap1\n      pop\n      jump\t// out\n        /* \"#utility.yul\":30122:30541   */\n    tag_194:\n        /* \"#utility.yul\":30288:30292   */\n      0x00\n        /* \"#utility.yul\":30326:30328   */\n      0x20\n        /* \"#utility.yul\":30315:30324   */\n      dup3\n        /* \"#utility.yul\":30311:30329   */\n      add\n        /* \"#utility.yul\":30303:30329   */\n      swap1\n      pop\n        /* \"#utility.yul\":30375:30384   */\n      dup2\n        /* \"#utility.yul\":30369:30373   */\n      dup2\n        /* \"#utility.yul\":30365:30385   */\n      sub\n        /* \"#utility.yul\":30361:30362   */\n      0x00\n        /* \"#utility.yul\":30350:30359   */\n      dup4\n        /* \"#utility.yul\":30346:30363   */\n      add\n        /* \"#utility.yul\":30339:30386   */\n      mstore\n        /* \"#utility.yul\":30403:30534   */\n      tag_919\n        /* \"#utility.yul\":30529:30533   */\n      dup2\n        /* \"#utility.yul\":30403:30534   */\n      tag_559\n      jump\t// in\n    tag_919:\n        /* \"#utility.yul\":30395:30534   */\n      swap1\n      pop\n        /* \"#utility.yul\":30122:30541   */\n      swap2\n      swap1\n      pop\n      jump\t// out\n        /* \"#utility.yul\":30547:30694   */\n    tag_560:\n        /* \"#utility.yul\":30648:30659   */\n      0x00\n        /* \"#utility.yul\":30685:30688   */\n      dup2\n        /* \"#utility.yul\":30670:30688   */\n      swap1\n      pop\n        /* \"#utility.yul\":30547:30694   */\n      swap3\n      swap2\n      pop\n      pop\n      jump\t// out\n        /* \"#utility.yul\":30700:30814   */\n    tag_561:\n      pop\n      jump\t// out\n        /* \"#utility.yul\":30820:31218   */\n    tag_562:\n        /* \"#utility.yul\":30979:30982   */\n      0x00\n        /* \"#utility.yul\":31000:31083   */\n      tag_923\n        /* \"#utility.yul\":31081:31082   */\n      0x00\n        /* \"#utility.yul\":31076:31079   */\n      dup4\n        /* \"#utility.yul\":31000:31083   */\n      tag_560\n      jump\t// in\n    tag_923:\n        /* \"#utility.yul\":30993:31083   */\n      swap2\n      pop\n        /* \"#utility.yul\":31092:31185   */\n      tag_924\n        /* \"#utility.yul\":31181:31184   */\n      dup3\n        /* \"#utility.yul\":31092:31185   */\n      tag_561\n      jump\t// in\n    tag_924:\n        /* \"#utility.yul\":31210:31211   */\n      0x00\n        /* \"#utility.yul\":31205:31208   */\n      dup3\n        /* \"#utility.yul\":31201:31212   */\n      add\n        /* \"#utility.yul\":31194:31212   */\n      swap1\n      pop\n        /* \"#utility.yul\":30820:31218   */\n      swap2\n      swap1\n      pop\n      jump\t// out\n        /* \"#utility.yul\":31224:31603   */\n    tag_203:\n        /* \"#utility.yul\":31408:31411   */\n      0x00\n        /* \"#utility.yul\":31430:31577   */\n      tag_926\n        /* \"#utility.yul\":31573:31576   */\n      dup3\n        /* \"#utility.yul\":31430:31577   */\n      tag_562\n      jump\t// in\n    tag_926:\n        /* \"#utility.yul\":31423:31577   */\n      swap2\n      pop\n        /* \"#utility.yul\":31594:31597   */\n      dup2\n        /* \"#utility.yul\":31587:31597   */\n      swap1\n      pop\n        /* \"#utility.yul\":31224:31603   */\n      swap2\n      swap1\n      pop\n      jump\t// out\n        /* \"#utility.yul\":31609:31787   */\n    tag_563:\n        /* \"#utility.yul\":31749:31779   */\n      0x5061796d656e7420746f20667265656c616e636572206661696c656400000000\n        /* \"#utility.yul\":31745:31746   */\n      0x00\n        /* \"#utility.yul\":31737:31743   */\n      dup3\n        /* \"#utility.yul\":31733:31747   */\n      add\n        /* \"#utility.yul\":31726:31780   */\n      mstore\n        /* \"#utility.yul\":31609:31787   */\n      pop\n      jump\t// out\n        /* \"#utility.yul\":31793:32159   */\n    tag_564:\n        /* \"#utility.yul\":31935:31938   */\n      0x00\n        /* \"#utility.yul\":31956:32023   */\n      tag_929\n        /* \"#utility.yul\":32020:32022   */\n      0x1c\n        /* \"#utility.yul\":32015:32018   */\n      dup4\n        /* \"#utility.yul\":31956:32023   */\n      tag_488\n      jump\t// in\n    tag_929:\n        /* \"#utility.yul\":31949:32023   */\n      swap2\n      pop\n        /* \"#utility.yul\":32032:32125   */\n      tag_930\n        /* \"#utility.yul\":32121:32124   */\n      dup3\n        /* \"#utility.yul\":32032:32125   */\n      tag_563\n      jump\t// in\n    tag_930:\n        /* \"#utility.yul\":32150:32152   */\n      0x20\n        /* \"#utility.yul\":32145:32148   */\n      dup3\n        /* \"#utility.yul\":32141:32153   */\n      add\n        /* \"#utility.yul\":32134:32153   */\n      swap1\n      pop\n        /* \"#utility.yul\":31793:32159   */\n      swap2\n      swap1\n      pop\n      jump\t// out\n        /* \"#utility.yul\":32165:32584   */\n    tag_209:\n        /* \"#utility.yul\":32331:32335   */\n      0x00\n        /* \"#utility.yul\":32369:32371   */\n      0x20\n        /* \"#utility.yul\":32358:32367   */\n      dup3\n        /* \"#utility.yul\":32354:32372   */\n      add\n        /* \"#utility.yul\":32346:32372   */\n      swap1\n      pop\n        /* \"#utility.yul\":32418:32427   */\n      dup2\n        /* \"#utility.yul\":32412:32416   */\n      dup2\n        /* \"#utility.yul\":32408:32428   */\n      sub\n        /* \"#utility.yul\":32404:32405   */\n      0x00\n        /* \"#utility.yul\":32393:32402   */\n      dup4\n        /* \"#utility.yul\":32389:32406   */\n      add\n        /* \"#utility.yul\":32382:32429   */\n      mstore\n        /* \"#utility.yul\":32446:32577   */\n      tag_932\n        /* \"#utility.yul\":32572:32576   */\n      dup2\n        /* \"#utility.yul\":32446:32577   */\n      tag_564\n      jump\t// in\n    tag_932:\n        /* \"#utility.yul\":32438:32577   */\n      swap1\n      pop\n        /* \"#utility.yul\":32165:32584   */\n      swap2\n      swap1\n      pop\n      jump\t// out\n        /* \"#utility.yul\":32590:32910   */\n    tag_211:\n        /* \"#utility.yul\":32705:32709   */\n      0x00\n        /* \"#utility.yul\":32743:32745   */\n      0x40\n        /* \"#utility.yul\":32732:32741   */\n      dup3\n        /* \"#utility.yul\":32728:32746   */\n      add\n        /* \"#utility.yul\":32720:32746   */\n      swap1\n      pop\n        /* \"#utility.yul\":32756:32821   */\n      tag_934\n        /* \"#utility.yul\":32818:32819   */\n      0x00\n        /* \"#utility.yul\":32807:32816   */\n      dup4\n        /* \"#utility.yul\":32803:32820   */\n      add\n        /* \"#utility.yul\":32794:32800   */\n      dup6\n        /* \"#utility.yul\":32756:32821   */\n      tag_497\n      jump\t// in\n    tag_934:\n        /* \"#utility.yul\":32831:32903   */\n      tag_935\n        /* \"#utility.yul\":32899:32901   */\n      0x20\n        /* \"#utility.yul\":32888:32897   */\n      dup4\n        /* \"#utility.yul\":32884:32902   */\n      add\n        /* \"#utility.yul\":32875:32881   */\n      dup5\n        /* \"#utility.yul\":32831:32903   */\n      tag_483\n      jump\t// in\n    tag_935:\n        /* \"#utility.yul\":32590:32910   */\n      swap4\n      swap3\n      pop\n      pop\n      pop\n      jump\t// out\n        /* \"#utility.yul\":32916:33079   */\n    tag_565:\n        /* \"#utility.yul\":33056:33071   */\n      0x526566756e64206661696c656400000000000000000000000000000000000000\n        /* \"#utility.yul\":33052:33053   */\n      0x00\n        /* \"#utility.yul\":33044:33050   */\n      dup3\n        /* \"#utility.yul\":33040:33054   */\n      add\n        /* \"#utility.yul\":33033:33072   */\n      mstore\n        /* \"#utility.yul\":32916:33079   */\n      pop\n      jump\t// out\n        /* \"#utility.yul\":33085:33451   */\n    tag_566:\n        /* \"#utility.yul\":33227:33230   */\n      0x00\n        /* \"#utility.yul\":33248:33315   */\n      tag_938\n        /* \"#utility.yul\":33312:33314   */\n      0x0d\n        /* \"#utility.yul\":33307:33310   */\n      dup4\n        /* \"#utility.yul\":33248:33315   */\n      tag_488\n      jump\t// in\n    tag_938:\n        /* \"#utility.yul\":33241:33315   */\n      swap2\n      pop\n        /* \"#utility.yul\":33324:33417   */\n      tag_939\n        /* \"#utility.yul\":33413:33416   */\n      dup3\n        /* \"#utility.yul\":33324:33417   */\n      tag_565\n      jump\t// in\n    tag_939:\n        /* \"#utility.yul\":33442:33444   */\n      0x20\n        /* \"#utility.yul\":33437:33440   */\n      dup3\n        /* \"#utility.yul\":33433:33445   */\n      add\n        /* \"#utility.yul\":33426:33445   */\n      swap1\n      pop\n        /* \"#utility.yul\":33085:33451   */\n      swap2\n      swap1\n      pop\n      jump\t// out\n        /* \"#utility.yul\":33457:33876   */\n    tag_219:\n        /* \"#utility.yul\":33623:33627   */\n      0x00\n        /* \"#utility.yul\":33661:33663   */\n      0x20\n        /* \"#utility.yul\":33650:33659   */\n      dup3\n        /* \"#utility.yul\":33646:33664   */\n      add\n        /* \"#utility.yul\":33638:33664   */\n      swap1\n      pop\n        /* \"#utility.yul\":33710:33719   */\n      dup2\n        /* \"#utility.yul\":33704:33708   */\n      dup2\n        /* \"#utility.yul\":33700:33720   */\n      sub\n        /* \"#utility.yul\":33696:33697   */\n      0x00\n        /* \"#utility.yul\":33685:33694   */\n      dup4\n        /* \"#utility.yul\":33681:33698   */\n      add\n        /* \"#utility.yul\":33674:33721   */\n      mstore\n        /* \"#utility.yul\":33738:33869   */\n      tag_941\n        /* \"#utility.yul\":33864:33868   */\n      dup2\n        /* \"#utility.yul\":33738:33869   */\n      tag_566\n      jump\t// in\n    tag_941:\n        /* \"#utility.yul\":33730:33869   */\n      swap1\n      pop\n        /* \"#utility.yul\":33457:33876   */\n      swap2\n      swap1\n      pop\n      jump\t// out\n        /* \"#utility.yul\":33882:33967   */\n    tag_567:\n        /* \"#utility.yul\":33927:33934   */\n      0x00\n        /* \"#utility.yul\":33956:33961   */\n      dup2\n        /* \"#utility.yul\":33945:33961   */\n      swap1\n      pop\n        /* \"#utility.yul\":33882:33967   */\n      swap2\n      swap1\n      pop\n      jump\t// out\n        /* \"#utility.yul\":33973:34131   */\n    tag_568:\n        /* \"#utility.yul\":34031:34040   */\n      0x00\n        /* \"#utility.yul\":34064:34125   */\n      tag_944\n        /* \"#utility.yul\":34082:34124   */\n      tag_945\n        /* \"#utility.yul\":34091:34123   */\n      tag_946\n        /* \"#utility.yul\":34117:34122   */\n      dup5\n        /* \"#utility.yul\":34091:34123   */\n      tag_567\n      jump\t// in\n    tag_946:\n        /* \"#utility.yul\":34082:34124   */\n      tag_537\n      jump\t// in\n    tag_945:\n        /* \"#utility.yul\":34064:34125   */\n      tag_480\n      jump\t// in\n    tag_944:\n        /* \"#utility.yul\":34051:34125   */\n      swap1\n      pop\n        /* \"#utility.yul\":33973:34131   */\n      swap2\n      swap1\n      pop\n      jump\t// out\n        /* \"#utility.yul\":34137:34284   */\n    tag_569:\n        /* \"#utility.yul\":34232:34277   */\n      tag_948\n        /* \"#utility.yul\":34271:34276   */\n      dup2\n        /* \"#utility.yul\":34232:34277   */\n      tag_568\n      jump\t// in\n    tag_948:\n        /* \"#utility.yul\":34227:34230   */\n      dup3\n        /* \"#utility.yul\":34220:34278   */\n      mstore\n        /* \"#utility.yul\":34137:34284   */\n      pop\n      pop\n      jump\t// out\n        /* \"#utility.yul\":34290:34626   */\n    tag_224:\n        /* \"#utility.yul\":34413:34417   */\n      0x00\n        /* \"#utility.yul\":34451:34453   */\n      0x40\n        /* \"#utility.yul\":34440:34449   */\n      dup3\n        /* \"#utility.yul\":34436:34454   */\n      add\n        /* \"#utility.yul\":34428:34454   */\n      swap1\n      pop\n        /* \"#utility.yul\":34464:34529   */\n      tag_950\n        /* \"#utility.yul\":34526:34527   */\n      0x00\n        /* \"#utility.yul\":34515:34524   */\n      dup4\n        /* \"#utility.yul\":34511:34528   */\n      add\n        /* \"#utility.yul\":34502:34508   */\n      dup6\n        /* \"#utility.yul\":34464:34529   */\n      tag_497\n      jump\t// in\n    tag_950:\n        /* \"#utility.yul\":34539:34619   */\n      tag_951\n        /* \"#utility.yul\":34615:34617   */\n      0x20\n        /* \"#utility.yul\":34604:34613   */\n      dup4\n        /* \"#utility.yul\":34600:34618   */\n      add\n        /* \"#utility.yul\":34591:34597   */\n      dup5\n        /* \"#utility.yul\":34539:34619   */\n      tag_569\n      jump\t// in\n    tag_951:\n        /* \"#utility.yul\":34290:34626   */\n      swap4\n      swap3\n      pop\n      pop\n      pop\n      jump\t// out\n        /* \"#utility.yul\":34632:34796   */\n    tag_570:\n        /* \"#utility.yul\":34772:34788   */\n      0x4e6f742072656769737465726564000000000000000000000000000000000000\n        /* \"#utility.yul\":34768:34769   */\n      0x00\n        /* \"#utility.yul\":34760:34766   */\n      dup3\n        /* \"#utility.yul\":34756:34770   */\n      add\n        /* \"#utility.yul\":34749:34789   */\n      mstore\n        /* \"#utility.yul\":34632:34796   */\n      pop\n      jump\t// out\n        /* \"#utility.yul\":34802:35168   */\n    tag_571:\n        /* \"#utility.yul\":34944:34947   */\n      0x00\n        /* \"#utility.yul\":34965:35032   */\n      tag_954\n        /* \"#utility.yul\":35029:35031   */\n      0x0e\n        /* \"#utility.yul\":35024:35027   */\n      dup4\n        /* \"#utility.yul\":34965:35032   */\n      tag_488\n      jump\t// in\n    tag_954:\n        /* \"#utility.yul\":34958:35032   */\n      swap2\n      pop\n        /* \"#utility.yul\":35041:35134   */\n      tag_955\n        /* \"#utility.yul\":35130:35133   */\n      dup3\n        /* \"#utility.yul\":35041:35134   */\n      tag_570\n      jump\t// in\n    tag_955:\n        /* \"#utility.yul\":35159:35161   */\n      0x20\n        /* \"#utility.yul\":35154:35157   */\n      dup3\n        /* \"#utility.yul\":35150:35162   */\n      add\n        /* \"#utility.yul\":35143:35162   */\n      swap1\n      pop\n        /* \"#utility.yul\":34802:35168   */\n      swap2\n      swap1\n      pop\n      jump\t// out\n        /* \"#utility.yul\":35174:35593   */\n    tag_228:\n        /* \"#utility.yul\":35340:35344   */\n      0x00\n        /* \"#utility.yul\":35378:35380   */\n      0x20\n        /* \"#utility.yul\":35367:35376   */\n      dup3\n        /* \"#utility.yul\":35363:35381   */\n      add\n        /* \"#utility.yul\":35355:35381   */\n      swap1\n      pop\n        /* \"#utility.yul\":35427:35436   */\n      dup2\n        /* \"#utility.yul\":35421:35425   */\n      dup2\n        /* \"#utility.yul\":35417:35437   */\n      sub\n        /* \"#utility.yul\":35413:35414   */\n      0x00\n        /* \"#utility.yul\":35402:35411   */\n      dup4\n        /* \"#utility.yul\":35398:35415   */\n      add\n        /* \"#utility.yul\":35391:35438   */\n      mstore\n        /* \"#utility.yul\":35455:35586   */\n      tag_957\n        /* \"#utility.yul\":35581:35585   */\n      dup2\n        /* \"#utility.yul\":35455:35586   */\n      tag_571\n      jump\t// in\n    tag_957:\n        /* \"#utility.yul\":35447:35586   */\n      swap1\n      pop\n        /* \"#utility.yul\":35174:35593   */\n      swap2\n      swap1\n      pop\n      jump\t// out\n        /* \"#utility.yul\":35599:35760   */\n    tag_572:\n        /* \"#utility.yul\":35739:35752   */\n      0x4f6e6c7920636c69656e74000000000000000000000000000000000000000000\n        /* \"#utility.yul\":35735:35736   */\n      0x00\n        /* \"#utility.yul\":35727:35733   */\n      dup3\n        /* \"#utility.yul\":35723:35737   */\n      add\n        /* \"#utility.yul\":35716:35753   */\n      mstore\n        /* \"#utility.yul\":35599:35760   */\n      pop\n      jump\t// out\n        /* \"#utility.yul\":35766:36132   */\n    tag_573:\n        /* \"#utility.yul\":35908:35911   */\n      0x00\n        /* \"#utility.yul\":35929:35996   */\n      tag_960\n        /* \"#utility.yul\":35993:35995   */\n      0x0b\n        /* \"#utility.yul\":35988:35991   */\n      dup4\n        /* \"#utility.yul\":35929:35996   */\n      tag_488\n      jump\t// in\n    tag_960:\n        /* \"#utility.yul\":35922:35996   */\n      swap2\n      pop\n        /* \"#utility.yul\":36005:36098   */\n      tag_961\n        /* \"#utility.yul\":36094:36097   */\n      dup3\n        /* \"#utility.yul\":36005:36098   */\n      tag_572\n      jump\t// in\n    tag_961:\n        /* \"#utility.yul\":36123:36125   */\n      0x20\n        /* \"#utility.yul\":36118:36121   */\n      dup3\n        /* \"#utility.yul\":36114:36126   */\n      add\n        /* \"#utility.yul\":36107:36126   */\n      swap1\n      pop\n        /* \"#utility.yul\":35766:36132   */\n      swap2\n      swap1\n      pop\n      jump\t// out\n        /* \"#utility.yul\":36138:36557   */\n    tag_235:\n        /* \"#utility.yul\":36304:36308   */\n      0x00\n        /* \"#utility.yul\":36342:36344   */\n      0x20\n        /* \"#utility.yul\":36331:36340   */\n      dup3\n        /* \"#utility.yul\":36327:36345   */\n      add\n        /* \"#utility.yul\":36319:36345   */\n      swap1\n      pop\n        /* \"#utility.yul\":36391:36400   */\n      dup2\n        /* \"#utility.yul\":36385:36389   */\n      dup2\n        /* \"#utility.yul\":36381:36401   */\n      sub\n        /* \"#utility.yul\":36377:36378   */\n      0x00\n        /* \"#utility.yul\":36366:36375   */\n      dup4\n        /* \"#utility.yul\":36362:36379   */\n      add\n        /* \"#utility.yul\":36355:36402   */\n      mstore\n        /* \"#utility.yul\":36419:36550   */\n      tag_963\n        /* \"#utility.yul\":36545:36549   */\n      dup2\n        /* \"#utility.yul\":36419:36550   */\n      tag_573\n      jump\t// in\n    tag_963:\n        /* \"#utility.yul\":36411:36550   */\n      swap1\n      pop\n        /* \"#utility.yul\":36138:36557   */\n      swap2\n      swap1\n      pop\n      jump\t// out\n        /* \"#utility.yul\":36563:36725   */\n    tag_574:\n        /* \"#utility.yul\":36703:36717   */\n      0x4e6f7420796f7572206a6f620000000000000000000000000000000000000000\n        /* \"#utility.yul\":36699:36700   */\n      0x00\n        /* \"#utility.yul\":36691:36697   */\n      dup3\n        /* \"#utility.yul\":36687:36701   */\n      add\n        /* \"#utility.yul\":36680:36718   */\n      mstore\n        /* \"#utility.yul\":36563:36725   */\n      pop\n      jump\t// out\n        /* \"#utility.yul\":36731:37097   */\n    tag_575:\n        /* \"#utility.yul\":36873:36876   */\n      0x00\n        /* \"#utility.yul\":36894:36961   */\n      tag_966\n        /* \"#utility.yul\":36958:36960   */\n      0x0c\n        /* \"#utility.yul\":36953:36956   */\n      dup4\n        /* \"#utility.yul\":36894:36961   */\n      tag_488\n      jump\t// in\n    tag_966:\n        /* \"#utility.yul\":36887:36961   */\n      swap2\n      pop\n        /* \"#utility.yul\":36970:37063   */\n      tag_967\n        /* \"#utility.yul\":37059:37062   */\n      dup3\n        /* \"#utility.yul\":36970:37063   */\n      tag_574\n      jump\t// in\n    tag_967:\n        /* \"#utility.yul\":37088:37090   */\n      0x20\n        /* \"#utility.yul\":37083:37086   */\n      dup3\n        /* \"#utility.yul\":37079:37091   */\n      add\n        /* \"#utility.yul\":37072:37091   */\n      swap1\n      pop\n        /* \"#utility.yul\":36731:37097   */\n      swap2\n      swap1\n      pop\n      jump\t// out\n        /* \"#utility.yul\":37103:37522   */\n    tag_244:\n        /* \"#utility.yul\":37269:37273   */\n      0x00\n        /* \"#utility.yul\":37307:37309   */\n      0x20\n        /* \"#utility.yul\":37296:37305   */\n      dup3\n        /* \"#utility.yul\":37292:37310   */\n      add\n        /* \"#utility.yul\":37284:37310   */\n      swap1\n      pop\n        /* \"#utility.yul\":37356:37365   */\n      dup2\n        /* \"#utility.yul\":37350:37354   */\n      dup2\n        /* \"#utility.yul\":37346:37366   */\n      sub\n        /* \"#utility.yul\":37342:37343   */\n      0x00\n        /* \"#utility.yul\":37331:37340   */\n      dup4\n        /* \"#utility.yul\":37327:37344   */\n      add\n        /* \"#utility.yul\":37320:37367   */\n      mstore\n        /* \"#utility.yul\":37384:37515   */\n      tag_969\n        /* \"#utility.yul\":37510:37514   */\n      dup2\n        /* \"#utility.yul\":37384:37515   */\n      tag_575\n      jump\t// in\n    tag_969:\n        /* \"#utility.yul\":37376:37515   */\n      swap1\n      pop\n        /* \"#utility.yul\":37103:37522   */\n      swap2\n      swap1\n      pop\n      jump\t// out\n        /* \"#utility.yul\":37528:37695   */\n    tag_576:\n        /* \"#utility.yul\":37668:37687   */\n      0x4a6f62206e6f7420636f6d706c65746564000000000000000000000000000000\n        /* \"#utility.yul\":37664:37665   */\n      0x00\n        /* \"#utility.yul\":37656:37662   */\n      dup3\n        /* \"#utility.yul\":37652:37666   */\n      add\n        /* \"#utility.yul\":37645:37688   */\n      mstore\n        /* \"#utility.yul\":37528:37695   */\n      pop\n      jump\t// out\n        /* \"#utility.yul\":37701:38067   */\n    tag_577:\n        /* \"#utility.yul\":37843:37846   */\n      0x00\n        /* \"#utility.yul\":37864:37931   */\n      tag_972\n        /* \"#utility.yul\":37928:37930   */\n      0x11\n        /* \"#utility.yul\":37923:37926   */\n      dup4\n        /* \"#utility.yul\":37864:37931   */\n      tag_488\n      jump\t// in\n    tag_972:\n        /* \"#utility.yul\":37857:37931   */\n      swap2\n      pop\n        /* \"#utility.yul\":37940:38033   */\n      tag_973\n        /* \"#utility.yul\":38029:38032   */\n      dup3\n        /* \"#utility.yul\":37940:38033   */\n      tag_576\n      jump\t// in\n    tag_973:\n        /* \"#utility.yul\":38058:38060   */\n      0x20\n        /* \"#utility.yul\":38053:38056   */\n      dup3\n        /* \"#utility.yul\":38049:38061   */\n      add\n        /* \"#utility.yul\":38042:38061   */\n      swap1\n      pop\n        /* \"#utility.yul\":37701:38067   */\n      swap2\n      swap1\n      pop\n      jump\t// out\n        /* \"#utility.yul\":38073:38492   */\n    tag_251:\n        /* \"#utility.yul\":38239:38243   */\n      0x00\n        /* \"#utility.yul\":38277:38279   */\n      0x20\n        /* \"#utility.yul\":38266:38275   */\n      dup3\n        /* \"#utility.yul\":38262:38280   */\n      add\n        /* \"#utility.yul\":38254:38280   */\n      swap1\n      pop\n        /* \"#utility.yul\":38326:38335   */\n      dup2\n        /* \"#utility.yul\":38320:38324   */\n      dup2\n        /* \"#utility.yul\":38316:38336   */\n      sub\n        /* \"#utility.yul\":38312:38313   */\n      0x00\n        /* \"#utility.yul\":38301:38310   */\n      dup4\n        /* \"#utility.yul\":38297:38314   */\n      add\n        /* \"#utility.yul\":38290:38337   */\n      mstore\n        /* \"#utility.yul\":38354:38485   */\n      tag_975\n        /* \"#utility.yul\":38480:38484   */\n      dup2\n        /* \"#utility.yul\":38354:38485   */\n      tag_577\n      jump\t// in\n    tag_975:\n        /* \"#utility.yul\":38346:38485   */\n      swap1\n      pop\n        /* \"#utility.yul\":38073:38492   */\n      swap2\n      swap1\n      pop\n      jump\t// out\n        /* \"#utility.yul\":38498:38660   */\n    tag_578:\n        /* \"#utility.yul\":38638:38652   */\n      0x4a6f622064697370757465640000000000000000000000000000000000000000\n        /* \"#utility.yul\":38634:38635   */\n      0x00\n        /* \"#utility.yul\":38626:38632   */\n      dup3\n        /* \"#utility.yul\":38622:38636   */\n      add\n        /* \"#utility.yul\":38615:38653   */\n      mstore\n        /* \"#utility.yul\":38498:38660   */\n      pop\n      jump\t// out\n        /* \"#utility.yul\":38666:39032   */\n    tag_579:\n        /* \"#utility.yul\":38808:38811   */\n      0x00\n        /* \"#utility.yul\":38829:38896   */\n      tag_978\n        /* \"#utility.yul\":38893:38895   */\n      0x0c\n        /* \"#utility.yul\":38888:38891   */\n      dup4\n        /* \"#utility.yul\":38829:38896   */\n      tag_488\n      jump\t// in\n    tag_978:\n        /* \"#utility.yul\":38822:38896   */\n      swap2\n      pop\n        /* \"#utility.yul\":38905:38998   */\n      tag_979\n        /* \"#utility.yul\":38994:38997   */\n      dup3\n        /* \"#utility.yul\":38905:38998   */\n      tag_578\n      jump\t// in\n    tag_979:\n        /* \"#utility.yul\":39023:39025   */\n      0x20\n        /* \"#utility.yul\":39018:39021   */\n      dup3\n        /* \"#utility.yul\":39014:39026   */\n      add\n        /* \"#utility.yul\":39007:39026   */\n      swap1\n      pop\n        /* \"#utility.yul\":38666:39032   */\n      swap2\n      swap1\n      pop\n      jump\t// out\n        /* \"#utility.yul\":39038:39457   */\n    tag_254:\n        /* \"#utility.yul\":39204:39208   */\n      0x00\n        /* \"#utility.yul\":39242:39244   */\n      0x20\n        /* \"#utility.yul\":39231:39240   */\n      dup3\n        /* \"#utility.yul\":39227:39245   */\n      add\n        /* \"#utility.yul\":39219:39245   */\n      swap1\n      pop\n        /* \"#utility.yul\":39291:39300   */\n      dup2\n        /* \"#utility.yul\":39285:39289   */\n      dup2\n        /* \"#utility.yul\":39281:39301   */\n      sub\n        /* \"#utility.yul\":39277:39278   */\n      0x00\n        /* \"#utility.yul\":39266:39275   */\n      dup4\n        /* \"#utility.yul\":39262:39279   */\n      add\n        /* \"#utility.yul\":39255:39302   */\n      mstore\n        /* \"#utility.yul\":39319:39450   */\n      tag_981\n        /* \"#utility.yul\":39445:39449   */\n      dup2\n        /* \"#utility.yul\":39319:39450   */\n      tag_579\n      jump\t// in\n    tag_981:\n        /* \"#utility.yul\":39311:39450   */\n      swap1\n      pop\n        /* \"#utility.yul\":39038:39457   */\n      swap2\n      swap1\n      pop\n      jump\t// out\n        /* \"#utility.yul\":39463:39639   */\n    tag_580:\n        /* \"#utility.yul\":39603:39631   */\n      0x467265656c616e636572206e6f74206d61726b656420646f6e65000000000000\n        /* \"#utility.yul\":39599:39600   */\n      0x00\n        /* \"#utility.yul\":39591:39597   */\n      dup3\n        /* \"#utility.yul\":39587:39601   */\n      add\n        /* \"#utility.yul\":39580:39632   */\n      mstore\n        /* \"#utility.yul\":39463:39639   */\n      pop\n      jump\t// out\n        /* \"#utility.yul\":39645:40011   */\n    tag_581:\n        /* \"#utility.yul\":39787:39790   */\n      0x00\n        /* \"#utility.yul\":39808:39875   */\n      tag_984\n        /* \"#utility.yul\":39872:39874   */\n      0x1a\n        /* \"#utility.yul\":39867:39870   */\n      dup4\n        /* \"#utility.yul\":39808:39875   */\n      tag_488\n      jump\t// in\n    tag_984:\n        /* \"#utility.yul\":39801:39875   */\n      swap2\n      pop\n        /* \"#utility.yul\":39884:39977   */\n      tag_985\n        /* \"#utility.yul\":39973:39976   */\n      dup3\n        /* \"#utility.yul\":39884:39977   */\n      tag_580\n      jump\t// in\n    tag_985:\n        /* \"#utility.yul\":40002:40004   */\n      0x20\n        /* \"#utility.yul\":39997:40000   */\n      dup3\n        /* \"#utility.yul\":39993:40005   */\n      add\n        /* \"#utility.yul\":39986:40005   */\n      swap1\n      pop\n        /* \"#utility.yul\":39645:40011   */\n      swap2\n      swap1\n      pop\n      jump\t// out\n        /* \"#utility.yul\":40017:40436   */\n    tag_257:\n        /* \"#utility.yul\":40183:40187   */\n      0x00\n        /* \"#utility.yul\":40221:40223   */\n      0x20\n        /* \"#utility.yul\":40210:40219   */\n      dup3\n        /* \"#utility.yul\":40206:40224   */\n      add\n        /* \"#utility.yul\":40198:40224   */\n      swap1\n      pop\n        /* \"#utility.yul\":40270:40279   */\n      dup2\n        /* \"#utility.yul\":40264:40268   */\n      dup2\n        /* \"#utility.yul\":40260:40280   */\n      sub\n        /* \"#utility.yul\":40256:40257   */\n      0x00\n        /* \"#utility.yul\":40245:40254   */\n      dup4\n        /* \"#utility.yul\":40241:40258   */\n      add\n        /* \"#utility.yul\":40234:40281   */\n      mstore\n        /* \"#utility.yul\":40298:40429   */\n      tag_987\n        /* \"#utility.yul\":40424:40428   */\n      dup2\n        /* \"#utility.yul\":40298:40429   */\n      tag_581\n      jump\t// in\n    tag_987:\n        /* \"#utility.yul\":40290:40429   */\n      swap1\n      pop\n        /* \"#utility.yul\":40017:40436   */\n      swap2\n      swap1\n      pop\n      jump\t// out\n        /* \"#utility.yul\":40442:40633   */\n    tag_272:\n        /* \"#utility.yul\":40482:40485   */\n      0x00\n        /* \"#utility.yul\":40501:40521   */\n      tag_989\n        /* \"#utility.yul\":40519:40520   */\n      dup3\n        /* \"#utility.yul\":40501:40521   */\n      tag_480\n      jump\t// in\n    tag_989:\n        /* \"#utility.yul\":40496:40521   */\n      swap2\n      pop\n        /* \"#utility.yul\":40535:40555   */\n      tag_990\n        /* \"#utility.yul\":40553:40554   */\n      dup4\n        /* \"#utility.yul\":40535:40555   */\n      tag_480\n      jump\t// in\n    tag_990:\n        /* \"#utility.yul\":40530:40555   */\n      swap3\n      pop\n        /* \"#utility.yul\":40578:40579   */\n      dup3\n        /* \"#utility.yul\":40575:40576   */\n      dup3\n        /* \"#utility.yul\":40571:40580   */\n      add\n        /* \"#utility.yul\":40564:40580   */\n      swap1\n      pop\n        /* \"#utility.yul\":40599:40602   */\n      dup1\n        /* \"#utility.yul\":40596:40597   */\n      dup3\n        /* \"#utility.yul\":40593:40603   */\n      gt\n        /* \"#utility.yul\":40590:40626   */\n      iszero\n      tag_991\n      jumpi\n        /* \"#utility.yul\":40606:40624   */\n      tag_992\n      tag_526\n      jump\t// in\n    tag_992:\n        /* \"#utility.yul\":40590:40626   */\n    tag_991:\n        /* \"#utility.yul\":40442:40633   */\n      swap3\n      swap2\n      pop\n      pop\n      jump\t// out\n        /* \"#utility.yul\":40639:40971   */\n    tag_274:\n        /* \"#utility.yul\":40760:40764   */\n      0x00\n        /* \"#utility.yul\":40798:40800   */\n      0x40\n        /* \"#utility.yul\":40787:40796   */\n      dup3\n        /* \"#utility.yul\":40783:40801   */\n      add\n        /* \"#utility.yul\":40775:40801   */\n      swap1\n      pop\n        /* \"#utility.yul\":40811:40882   */\n      tag_994\n        /* \"#utility.yul\":40879:40880   */\n      0x00\n        /* \"#utility.yul\":40868:40877   */\n      dup4\n        /* \"#utility.yul\":40864:40881   */\n      add\n        /* \"#utility.yul\":40855:40861   */\n      dup6\n        /* \"#utility.yul\":40811:40882   */\n      tag_483\n      jump\t// in\n    tag_994:\n        /* \"#utility.yul\":40892:40964   */\n      tag_995\n        /* \"#utility.yul\":40960:40962   */\n      0x20\n        /* \"#utility.yul\":40949:40958   */\n      dup4\n        /* \"#utility.yul\":40945:40963   */\n      add\n        /* \"#utility.yul\":40936:40942   */\n      dup5\n        /* \"#utility.yul\":40892:40964   */\n      tag_483\n      jump\t// in\n    tag_995:\n        /* \"#utility.yul\":40639:40971   */\n      swap4\n      swap3\n      pop\n      pop\n      pop\n      jump\t// out\n        /* \"#utility.yul\":40977:41136   */\n    tag_582:\n        /* \"#utility.yul\":41117:41128   */\n      0x42616420696e6465780000000000000000000000000000000000000000000000\n        /* \"#utility.yul\":41113:41114   */\n      0x00\n        /* \"#utility.yul\":41105:41111   */\n      dup3\n        /* \"#utility.yul\":41101:41115   */\n      add\n        /* \"#utility.yul\":41094:41129   */\n      mstore\n        /* \"#utility.yul\":40977:41136   */\n      pop\n      jump\t// out\n        /* \"#utility.yul\":41142:41507   */\n    tag_583:\n        /* \"#utility.yul\":41284:41287   */\n      0x00\n        /* \"#utility.yul\":41305:41371   */\n      tag_998\n        /* \"#utility.yul\":41369:41370   */\n      0x09\n        /* \"#utility.yul\":41364:41367   */\n      dup4\n        /* \"#utility.yul\":41305:41371   */\n      tag_488\n      jump\t// in\n    tag_998:\n        /* \"#utility.yul\":41298:41371   */\n      swap2\n      pop\n        /* \"#utility.yul\":41380:41473   */\n      tag_999\n        /* \"#utility.yul\":41469:41472   */\n      dup3\n        /* \"#utility.yul\":41380:41473   */\n      tag_582\n      jump\t// in\n    tag_999:\n        /* \"#utility.yul\":41498:41500   */\n      0x20\n        /* \"#utility.yul\":41493:41496   */\n      dup3\n        /* \"#utility.yul\":41489:41501   */\n      add\n        /* \"#utility.yul\":41482:41501   */\n      swap1\n      pop\n        /* \"#utility.yul\":41142:41507   */\n      swap2\n      swap1\n      pop\n      jump\t// out\n        /* \"#utility.yul\":41513:41932   */\n    tag_280:\n        /* \"#utility.yul\":41679:41683   */\n      0x00\n        /* \"#utility.yul\":41717:41719   */\n      0x20\n        /* \"#utility.yul\":41706:41715   */\n      dup3\n        /* \"#utility.yul\":41702:41720   */\n      add\n        /* \"#utility.yul\":41694:41720   */\n      swap1\n      pop\n        /* \"#utility.yul\":41766:41775   */\n      dup2\n        /* \"#utility.yul\":41760:41764   */\n      dup2\n        /* \"#utility.yul\":41756:41776   */\n      sub\n        /* \"#utility.yul\":41752:41753   */\n      0x00\n        /* \"#utility.yul\":41741:41750   */\n      dup4\n        /* \"#utility.yul\":41737:41754   */\n      add\n        /* \"#utility.yul\":41730:41777   */\n      mstore\n        /* \"#utility.yul\":41794:41925   */\n      tag_1001\n        /* \"#utility.yul\":41920:41924   */\n      dup2\n        /* \"#utility.yul\":41794:41925   */\n      tag_583\n      jump\t// in\n    tag_1001:\n        /* \"#utility.yul\":41786:41925   */\n      swap1\n      pop\n        /* \"#utility.yul\":41513:41932   */\n      swap2\n      swap1\n      pop\n      jump\t// out\n        /* \"#utility.yul\":41938:42118   */\n    tag_283:\n        /* \"#utility.yul\":41986:42063   */\n      0x4e487b7100000000000000000000000000000000000000000000000000000000\n        /* \"#utility.yul\":41983:41984   */\n      0x00\n        /* \"#utility.yul\":41976:42064   */\n      mstore\n        /* \"#utility.yul\":42083:42087   */\n      0x32\n        /* \"#utility.yul\":42080:42081   */\n      0x04\n        /* \"#utility.yul\":42073:42088   */\n      mstore\n        /* \"#utility.yul\":42107:42111   */\n      0x24\n        /* \"#utility.yul\":42104:42105   */\n      0x00\n        /* \"#utility.yul\":42097:42112   */\n      revert\n        /* \"#utility.yul\":42124:42289   */\n    tag_584:\n        /* \"#utility.yul\":42264:42281   */\n      0x4f6e6c7920667265656c616e6365720000000000000000000000000000000000\n        /* \"#utility.yul\":42260:42261   */\n      0x00\n        /* \"#utility.yul\":42252:42258   */\n      dup3\n        /* \"#utility.yul\":42248:42262   */\n      add\n        /* \"#utility.yul\":42241:42282   */\n      mstore\n        /* \"#utility.yul\":42124:42289   */\n      pop\n      jump\t// out\n        /* \"#utility.yul\":42295:42661   */\n    tag_585:\n        /* \"#utility.yul\":42437:42440   */\n      0x00\n        /* \"#utility.yul\":42458:42525   */\n      tag_1005\n        /* \"#utility.yul\":42522:42524   */\n      0x0f\n        /* \"#utility.yul\":42517:42520   */\n      dup4\n        /* \"#utility.yul\":42458:42525   */\n      tag_488\n      jump\t// in\n    tag_1005:\n        /* \"#utility.yul\":42451:42525   */\n      swap2\n      pop\n        /* \"#utility.yul\":42534:42627   */\n      tag_1006\n        /* \"#utility.yul\":42623:42626   */\n      dup3\n        /* \"#utility.yul\":42534:42627   */\n      tag_584\n      jump\t// in\n    tag_1006:\n        /* \"#utility.yul\":42652:42654   */\n      0x20\n        /* \"#utility.yul\":42647:42650   */\n      dup3\n        /* \"#utility.yul\":42643:42655   */\n      add\n        /* \"#utility.yul\":42636:42655   */\n      swap1\n      pop\n        /* \"#utility.yul\":42295:42661   */\n      swap2\n      swap1\n      pop\n      jump\t// out\n        /* \"#utility.yul\":42667:43086   */\n    tag_294:\n        /* \"#utility.yul\":42833:42837   */\n      0x00\n        /* \"#utility.yul\":42871:42873   */\n      0x20\n        /* \"#utility.yul\":42860:42869   */\n      dup3\n        /* \"#utility.yul\":42856:42874   */\n      add\n        /* \"#utility.yul\":42848:42874   */\n      swap1\n      pop\n        /* \"#utility.yul\":42920:42929   */\n      dup2\n        /* \"#utility.yul\":42914:42918   */\n      dup2\n        /* \"#utility.yul\":42910:42930   */\n      sub\n        /* \"#utility.yul\":42906:42907   */\n      0x00\n        /* \"#utility.yul\":42895:42904   */\n      dup4\n        /* \"#utility.yul\":42891:42908   */\n      add\n        /* \"#utility.yul\":42884:42931   */\n      mstore\n        /* \"#utility.yul\":42948:43079   */\n      tag_1008\n        /* \"#utility.yul\":43074:43078   */\n      dup2\n        /* \"#utility.yul\":42948:43079   */\n      tag_585\n      jump\t// in\n    tag_1008:\n        /* \"#utility.yul\":42940:43079   */\n      swap1\n      pop\n        /* \"#utility.yul\":42667:43086   */\n      swap2\n      swap1\n      pop\n      jump\t// out\n        /* \"#utility.yul\":43092:43254   */\n    tag_586:\n        /* \"#utility.yul\":43232:43246   */\n      0x4a6f62206e6f74206f70656e0000000000000000000000000000000000000000\n        /* \"#utility.yul\":43228:43229   */\n      0x00\n        /* \"#utility.yul\":43220:43226   */\n      dup3\n        /* \"#utility.yul\":43216:43230   */\n      add\n        /* \"#utility.yul\":43209:43247   */\n      mstore\n        /* \"#utility.yul\":43092:43254   */\n      pop\n      jump\t// out\n        /* \"#utility.yul\":43260:43626   */\n    tag_587:\n        /* \"#utility.yul\":43402:43405   */\n      0x00\n        /* \"#utility.yul\":43423:43490   */\n      tag_1011\n        /* \"#utility.yul\":43487:43489   */\n      0x0c\n        /* \"#utility.yul\":43482:43485   */\n      dup4\n        /* \"#utility.yul\":43423:43490   */\n      tag_488\n      jump\t// in\n    tag_1011:\n        /* \"#utility.yul\":43416:43490   */\n      swap2\n      pop\n        /* \"#utility.yul\":43499:43592   */\n      tag_1012\n        /* \"#utility.yul\":43588:43591   */\n      dup3\n        /* \"#utility.yul\":43499:43592   */\n      tag_586\n      jump\t// in\n    tag_1012:\n        /* \"#utility.yul\":43617:43619   */\n      0x20\n        /* \"#utility.yul\":43612:43615   */\n      dup3\n        /* \"#utility.yul\":43608:43620   */\n      add\n        /* \"#utility.yul\":43601:43620   */\n      swap1\n      pop\n        /* \"#utility.yul\":43260:43626   */\n      swap2\n      swap1\n      pop\n      jump\t// out\n        /* \"#utility.yul\":43632:44051   */\n    tag_304:\n        /* \"#utility.yul\":43798:43802   */\n      0x00\n        /* \"#utility.yul\":43836:43838   */\n      0x20\n        /* \"#utility.yul\":43825:43834   */\n      dup3\n        /* \"#utility.yul\":43821:43839   */\n      add\n        /* \"#utility.yul\":43813:43839   */\n      swap1\n      pop\n        /* \"#utility.yul\":43885:43894   */\n      dup2\n        /* \"#utility.yul\":43879:43883   */\n      dup2\n        /* \"#utility.yul\":43875:43895   */\n      sub\n        /* \"#utility.yul\":43871:43872   */\n      0x00\n        /* \"#utility.yul\":43860:43869   */\n      dup4\n        /* \"#utility.yul\":43856:43873   */\n      add\n        /* \"#utility.yul\":43849:43896   */\n      mstore\n        /* \"#utility.yul\":43913:44044   */\n      tag_1014\n        /* \"#utility.yul\":44039:44043   */\n      dup2\n        /* \"#utility.yul\":43913:44044   */\n      tag_587\n      jump\t// in\n    tag_1014:\n        /* \"#utility.yul\":43905:44044   */\n      swap1\n      pop\n        /* \"#utility.yul\":43632:44051   */\n      swap2\n      swap1\n      pop\n      jump\t// out\n        /* \"#utility.yul\":44057:44222   */\n    tag_588:\n        /* \"#utility.yul\":44197:44214   */\n      0x426964206d757374206265203e20300000000000000000000000000000000000\n        /* \"#utility.yul\":44193:44194   */\n      0x00\n        /* \"#utility.yul\":44185:44191   */\n      dup3\n        /* \"#utility.yul\":44181:44195   */\n      add\n        /* \"#utility.yul\":44174:44215   */\n      mstore\n        /* \"#utility.yul\":44057:44222   */\n      pop\n      jump\t// out\n        /* \"#utility.yul\":44228:44594   */\n    tag_589:\n        /* \"#utility.yul\":44370:44373   */\n      0x00\n        /* \"#utility.yul\":44391:44458   */\n      tag_1017\n        /* \"#utility.yul\":44455:44457   */\n      0x0f\n        /* \"#utility.yul\":44450:44453   */\n      dup4\n        /* \"#utility.yul\":44391:44458   */\n      tag_488\n      jump\t// in\n    tag_1017:\n        /* \"#utility.yul\":44384:44458   */\n      swap2\n      pop\n        /* \"#utility.yul\":44467:44560   */\n      tag_1018\n        /* \"#utility.yul\":44556:44559   */\n      dup3\n        /* \"#utility.yul\":44467:44560   */\n      tag_588\n      jump\t// in\n    tag_1018:\n        /* \"#utility.yul\":44585:44587   */\n      0x20\n        /* \"#utility.yul\":44580:44583   */\n      dup3\n        /* \"#utility.yul\":44576:44588   */\n      add\n        /* \"#utility.yul\":44569:44588   */\n      swap1\n      pop\n        /* \"#utility.yul\":44228:44594   */\n      swap2\n      swap1\n      pop\n      jump\t// out\n        /* \"#utility.yul\":44600:45019   */\n    tag_307:\n        /* \"#utility.yul\":44766:44770   */\n      0x00\n        /* \"#utility.yul\":44804:44806   */\n      0x20\n        /* \"#utility.yul\":44793:44802   */\n      dup3\n        /* \"#utility.yul\":44789:44807   */\n      add\n        /* \"#utility.yul\":44781:44807   */\n      swap1\n      pop\n        /* \"#utility.yul\":44853:44862   */\n      dup2\n        /* \"#utility.yul\":44847:44851   */\n      dup2\n        /* \"#utility.yul\":44843:44863   */\n      sub\n        /* \"#utility.yul\":44839:44840   */\n      0x00\n        /* \"#utility.yul\":44828:44837   */\n      dup4\n        /* \"#utility.yul\":44824:44841   */\n      add\n        /* \"#utility.yul\":44817:44864   */\n      mstore\n        /* \"#utility.yul\":44881:45012   */\n      tag_1020\n        /* \"#utility.yul\":45007:45011   */\n      dup2\n        /* \"#utility.yul\":44881:45012   */\n      tag_589\n      jump\t// in\n    tag_1020:\n        /* \"#utility.yul\":44873:45012   */\n      swap1\n      pop\n        /* \"#utility.yul\":44600:45019   */\n      swap2\n      swap1\n      pop\n      jump\t// out\n        /* \"#utility.yul\":45025:45193   */\n    tag_590:\n        /* \"#utility.yul\":45165:45185   */\n      0x4269642065786365656473206275646765740000000000000000000000000000\n        /* \"#utility.yul\":45161:45162   */\n      0x00\n        /* \"#utility.yul\":45153:45159   */\n      dup3\n        /* \"#utility.yul\":45149:45163   */\n      add\n        /* \"#utility.yul\":45142:45186   */\n      mstore\n        /* \"#utility.yul\":45025:45193   */\n      pop\n      jump\t// out\n        /* \"#utility.yul\":45199:45565   */\n    tag_591:\n        /* \"#utility.yul\":45341:45344   */\n      0x00\n        /* \"#utility.yul\":45362:45429   */\n      tag_1023\n        /* \"#utility.yul\":45426:45428   */\n      0x12\n        /* \"#utility.yul\":45421:45424   */\n      dup4\n        /* \"#utility.yul\":45362:45429   */\n      tag_488\n      jump\t// in\n    tag_1023:\n        /* \"#utility.yul\":45355:45429   */\n      swap2\n      pop\n        /* \"#utility.yul\":45438:45531   */\n      tag_1024\n        /* \"#utility.yul\":45527:45530   */\n      dup3\n        /* \"#utility.yul\":45438:45531   */\n      tag_590\n      jump\t// in\n    tag_1024:\n        /* \"#utility.yul\":45556:45558   */\n      0x20\n        /* \"#utility.yul\":45551:45554   */\n      dup3\n        /* \"#utility.yul\":45547:45559   */\n      add\n        /* \"#utility.yul\":45540:45559   */\n      swap1\n      pop\n        /* \"#utility.yul\":45199:45565   */\n      swap2\n      swap1\n      pop\n      jump\t// out\n        /* \"#utility.yul\":45571:45990   */\n    tag_310:\n        /* \"#utility.yul\":45737:45741   */\n      0x00\n        /* \"#utility.yul\":45775:45777   */\n      0x20\n        /* \"#utility.yul\":45764:45773   */\n      dup3\n        /* \"#utility.yul\":45760:45778   */\n      add\n        /* \"#utility.yul\":45752:45778   */\n      swap1\n      pop\n        /* \"#utility.yul\":45824:45833   */\n      dup2\n        /* \"#utility.yul\":45818:45822   */\n      dup2\n        /* \"#utility.yul\":45814:45834   */\n      sub\n        /* \"#utility.yul\":45810:45811   */\n      0x00\n        /* \"#utility.yul\":45799:45808   */\n      dup4\n        /* \"#utility.yul\":45795:45812   */\n      add\n        /* \"#utility.yul\":45788:45835   */\n      mstore\n        /* \"#utility.yul\":45852:45983   */\n      tag_1026\n        /* \"#utility.yul\":45978:45982   */\n      dup2\n        /* \"#utility.yul\":45852:45983   */\n      tag_591\n      jump\t// in\n    tag_1026:\n        /* \"#utility.yul\":45844:45983   */\n      swap1\n      pop\n        /* \"#utility.yul\":45571:45990   */\n      swap2\n      swap1\n      pop\n      jump\t// out\n        /* \"#utility.yul\":45996:46164   */\n    tag_592:\n        /* \"#utility.yul\":46136:46156   */\n      0x52657075746174696f6e20746f6f206c6f770000000000000000000000000000\n        /* \"#utility.yul\":46132:46133   */\n      0x00\n        /* \"#utility.yul\":46124:46130   */\n      dup3\n        /* \"#utility.yul\":46120:46134   */\n      add\n        /* \"#utility.yul\":46113:46157   */\n      mstore\n        /* \"#utility.yul\":45996:46164   */\n      pop\n      jump\t// out\n        /* \"#utility.yul\":46170:46536   */\n    tag_593:\n        /* \"#utility.yul\":46312:46315   */\n      0x00\n        /* \"#utility.yul\":46333:46400   */\n      tag_1029\n        /* \"#utility.yul\":46397:46399   */\n      0x12\n        /* \"#utility.yul\":46392:46395   */\n      dup4\n        /* \"#utility.yul\":46333:46400   */\n      tag_488\n      jump\t// in\n    tag_1029:\n        /* \"#utility.yul\":46326:46400   */\n      swap2\n      pop\n        /* \"#utility.yul\":46409:46502   */\n      tag_1030\n        /* \"#utility.yul\":46498:46501   */\n      dup3\n        /* \"#utility.yul\":46409:46502   */\n      tag_592\n      jump\t// in\n    tag_1030:\n        /* \"#utility.yul\":46527:46529   */\n      0x20\n        /* \"#utility.yul\":46522:46525   */\n      dup3\n        /* \"#utility.yul\":46518:46530   */\n      add\n        /* \"#utility.yul\":46511:46530   */\n      swap1\n      pop\n        /* \"#utility.yul\":46170:46536   */\n      swap2\n      swap1\n      pop\n      jump\t// out\n        /* \"#utility.yul\":46542:46961   */\n    tag_313:\n        /* \"#utility.yul\":46708:46712   */\n      0x00\n        /* \"#utility.yul\":46746:46748   */\n      0x20\n        /* \"#utility.yul\":46735:46744   */\n      dup3\n        /* \"#utility.yul\":46731:46749   */\n      add\n        /* \"#utility.yul\":46723:46749   */\n      swap1\n      pop\n        /* \"#utility.yul\":46795:46804   */\n      dup2\n        /* \"#utility.yul\":46789:46793   */\n      dup2\n        /* \"#utility.yul\":46785:46805   */\n      sub\n        /* \"#utility.yul\":46781:46782   */\n      0x00\n        /* \"#utility.yul\":46770:46779   */\n      dup4\n        /* \"#utility.yul\":46766:46783   */\n      add\n        /* \"#utility.yul\":46759:46806   */\n      mstore\n        /* \"#utility.yul\":46823:46954   */\n      tag_1032\n        /* \"#utility.yul\":46949:46953   */\n      dup2\n        /* \"#utility.yul\":46823:46954   */\n      tag_593\n      jump\t// in\n    tag_1032:\n        /* \"#utility.yul\":46815:46954   */\n      swap1\n      pop\n        /* \"#utility.yul\":46542:46961   */\n      swap2\n      swap1\n      pop\n      jump\t// out\n        /* \"#utility.yul\":46967:47135   */\n    tag_594:\n        /* \"#utility.yul\":47107:47127   */\n      0x427564676574206d757374206265203e20300000000000000000000000000000\n        /* \"#utility.yul\":47103:47104   */\n      0x00\n        /* \"#utility.yul\":47095:47101   */\n      dup3\n        /* \"#utility.yul\":47091:47105   */\n      add\n        /* \"#utility.yul\":47084:47128   */\n      mstore\n        /* \"#utility.yul\":46967:47135   */\n      pop\n      jump\t// out\n        /* \"#utility.yul\":47141:47507   */\n    tag_595:\n        /* \"#utility.yul\":47283:47286   */\n      0x00\n        /* \"#utility.yul\":47304:47371   */\n      tag_1035\n        /* \"#utility.yul\":47368:47370   */\n      0x12\n        /* \"#utility.yul\":47363:47366   */\n      dup4\n        /* \"#utility.yul\":47304:47371   */\n      tag_488\n      jump\t// in\n    tag_1035:\n        /* \"#utility.yul\":47297:47371   */\n      swap2\n      pop\n        /* \"#utility.yul\":47380:47473   */\n      tag_1036\n        /* \"#utility.yul\":47469:47472   */\n      dup3\n        /* \"#utility.yul\":47380:47473   */\n      tag_594\n      jump\t// in\n    tag_1036:\n        /* \"#utility.yul\":47498:47500   */\n      0x20\n        /* \"#utility.yul\":47493:47496   */\n      dup3\n        /* \"#utility.yul\":47489:47501   */\n      add\n        /* \"#utility.yul\":47482:47501   */\n      swap1\n      pop\n        /* \"#utility.yul\":47141:47507   */\n      swap2\n      swap1\n      pop\n      jump\t// out\n        /* \"#utility.yul\":47513:47932   */\n    tag_328:\n        /* \"#utility.yul\":47679:47683   */\n      0x00\n        /* \"#utility.yul\":47717:47719   */\n      0x20\n        /* \"#utility.yul\":47706:47715   */\n      dup3\n        /* \"#utility.yul\":47702:47720   */\n      add\n        /* \"#utility.yul\":47694:47720   */\n      swap1\n      pop\n        /* \"#utility.yul\":47766:47775   */\n      dup2\n        /* \"#utility.yul\":47760:47764   */\n      dup2\n        /* \"#utility.yul\":47756:47776   */\n      sub\n        /* \"#utility.yul\":47752:47753   */\n      0x00\n        /* \"#utility.yul\":47741:47750   */\n      dup4\n        /* \"#utility.yul\":47737:47754   */\n      add\n        /* \"#utility.yul\":47730:47777   */\n      mstore\n        /* \"#utility.yul\":47794:47925   */\n      tag_1038\n        /* \"#utility.yul\":47920:47924   */\n      dup2\n        /* \"#utility.yul\":47794:47925   */\n      tag_595\n      jump\t// in\n    tag_1038:\n        /* \"#utility.yul\":47786:47925   */\n      swap1\n      pop\n        /* \"#utility.yul\":47513:47932   */\n      swap2\n      swap1\n      pop\n      jump\t// out\n        /* \"#utility.yul\":47938:48111   */\n    tag_596:\n        /* \"#utility.yul\":48078:48103   */\n      0x446561646c696e65206d75737420626520667574757265000000000000000000\n        /* \"#utility.yul\":48074:48075   */\n      0x00\n        /* \"#utility.yul\":48066:48072   */\n      dup3\n        /* \"#utility.yul\":48062:48076   */\n      add\n        /* \"#utility.yul\":48055:48104   */\n      mstore\n        /* \"#utility.yul\":47938:48111   */\n      pop\n      jump\t// out\n        /* \"#utility.yul\":48117:48483   */\n    tag_597:\n        /* \"#utility.yul\":48259:48262   */\n      0x00\n        /* \"#utility.yul\":48280:48347   */\n      tag_1041\n        /* \"#utility.yul\":48344:48346   */\n      0x17\n        /* \"#utility.yul\":48339:48342   */\n      dup4\n        /* \"#utility.yul\":48280:48347   */\n      tag_488\n      jump\t// in\n    tag_1041:\n        /* \"#utility.yul\":48273:48347   */\n      swap2\n      pop\n        /* \"#utility.yul\":48356:48449   */\n      tag_1042\n        /* \"#utility.yul\":48445:48448   */\n      dup3\n        /* \"#utility.yul\":48356:48449   */\n      tag_596\n      jump\t// in\n    tag_1042:\n        /* \"#utility.yul\":48474:48476   */\n      0x20\n        /* \"#utility.yul\":48469:48472   */\n      dup3\n        /* \"#utility.yul\":48465:48477   */\n      add\n        /* \"#utility.yul\":48458:48477   */\n      swap1\n      pop\n        /* \"#utility.yul\":48117:48483   */\n      swap2\n      swap1\n      pop\n      jump\t// out\n        /* \"#utility.yul\":48489:48908   */\n    tag_331:\n        /* \"#utility.yul\":48655:48659   */\n      0x00\n        /* \"#utility.yul\":48693:48695   */\n      0x20\n        /* \"#utility.yul\":48682:48691   */\n      dup3\n        /* \"#utility.yul\":48678:48696   */\n      add\n        /* \"#utility.yul\":48670:48696   */\n      swap1\n      pop\n        /* \"#utility.yul\":48742:48751   */\n      dup2\n        /* \"#utility.yul\":48736:48740   */\n      dup2\n        /* \"#utility.yul\":48732:48752   */\n      sub\n        /* \"#utility.yul\":48728:48729   */\n      0x00\n        /* \"#utility.yul\":48717:48726   */\n      dup4\n        /* \"#utility.yul\":48713:48730   */\n      add\n        /* \"#utility.yul\":48706:48753   */\n      mstore\n        /* \"#utility.yul\":48770:48901   */\n      tag_1044\n        /* \"#utility.yul\":48896:48900   */\n      dup2\n        /* \"#utility.yul\":48770:48901   */\n      tag_597\n      jump\t// in\n    tag_1044:\n        /* \"#utility.yul\":48762:48901   */\n      swap1\n      pop\n        /* \"#utility.yul\":48489:48908   */\n      swap2\n      swap1\n      pop\n      jump\t// out\n        /* \"#utility.yul\":48914:49337   */\n    tag_340:\n        /* \"#utility.yul\":49055:49059   */\n      0x00\n        /* \"#utility.yul\":49093:49095   */\n      0x40\n        /* \"#utility.yul\":49082:49091   */\n      dup3\n        /* \"#utility.yul\":49078:49096   */\n      add\n        /* \"#utility.yul\":49070:49096   */\n      swap1\n      pop\n        /* \"#utility.yul\":49142:49151   */\n      dup2\n        /* \"#utility.yul\":49136:49140   */\n      dup2\n        /* \"#utility.yul\":49132:49152   */\n      sub\n        /* \"#utility.yul\":49128:49129   */\n      0x00\n        /* \"#utility.yul\":49117:49126   */\n      dup4\n        /* \"#utility.yul\":49113:49130   */\n      add\n        /* \"#utility.yul\":49106:49153   */\n      mstore\n        /* \"#utility.yul\":49170:49248   */\n      tag_1046\n        /* \"#utility.yul\":49243:49247   */\n      dup2\n        /* \"#utility.yul\":49234:49240   */\n      dup6\n        /* \"#utility.yul\":49170:49248   */\n      tag_491\n      jump\t// in\n    tag_1046:\n        /* \"#utility.yul\":49162:49248   */\n      swap1\n      pop\n        /* \"#utility.yul\":49258:49330   */\n      tag_1047\n        /* \"#utility.yul\":49326:49328   */\n      0x20\n        /* \"#utility.yul\":49315:49324   */\n      dup4\n        /* \"#utility.yul\":49311:49329   */\n      add\n        /* \"#utility.yul\":49302:49308   */\n      dup5\n        /* \"#utility.yul\":49258:49330   */\n      tag_483\n      jump\t// in\n    tag_1047:\n        /* \"#utility.yul\":48914:49337   */\n      swap4\n      swap3\n      pop\n      pop\n      pop\n      jump\t// out\n        /* \"#utility.yul\":49343:49511   */\n    tag_598:\n        /* \"#utility.yul\":49483:49503   */\n      0x43616e6e6f742064697370757465206e6f770000000000000000000000000000\n        /* \"#utility.yul\":49479:49480   */\n      0x00\n        /* \"#utility.yul\":49471:49477   */\n      dup3\n        /* \"#utility.yul\":49467:49481   */\n      add\n        /* \"#utility.yul\":49460:49504   */\n      mstore\n        /* \"#utility.yul\":49343:49511   */\n      pop\n      jump\t// out\n        /* \"#utility.yul\":49517:49883   */\n    tag_599:\n        /* \"#utility.yul\":49659:49662   */\n      0x00\n        /* \"#utility.yul\":49680:49747   */\n      tag_1050\n        /* \"#utility.yul\":49744:49746   */\n      0x12\n        /* \"#utility.yul\":49739:49742   */\n      dup4\n        /* \"#utility.yul\":49680:49747   */\n      tag_488\n      jump\t// in\n    tag_1050:\n        /* \"#utility.yul\":49673:49747   */\n      swap2\n      pop\n        /* \"#utility.yul\":49756:49849   */\n      tag_1051\n        /* \"#utility.yul\":49845:49848   */\n      dup3\n        /* \"#utility.yul\":49756:49849   */\n      tag_598\n      jump\t// in\n    tag_1051:\n        /* \"#utility.yul\":49874:49876   */\n      0x20\n        /* \"#utility.yul\":49869:49872   */\n      dup3\n        /* \"#utility.yul\":49865:49877   */\n      add\n        /* \"#utility.yul\":49858:49877   */\n      swap1\n      pop\n        /* \"#utility.yul\":49517:49883   */\n      swap2\n      swap1\n      pop\n      jump\t// out\n        /* \"#utility.yul\":49889:50308   */\n    tag_367:\n        /* \"#utility.yul\":50055:50059   */\n      0x00\n        /* \"#utility.yul\":50093:50095   */\n      0x20\n        /* \"#utility.yul\":50082:50091   */\n      dup3\n        /* \"#utility.yul\":50078:50096   */\n      add\n        /* \"#utility.yul\":50070:50096   */\n      swap1\n      pop\n        /* \"#utility.yul\":50142:50151   */\n      dup2\n        /* \"#utility.yul\":50136:50140   */\n      dup2\n        /* \"#utility.yul\":50132:50152   */\n      sub\n        /* \"#utility.yul\":50128:50129   */\n      0x00\n        /* \"#utility.yul\":50117:50126   */\n      dup4\n        /* \"#utility.yul\":50113:50130   */\n      add\n        /* \"#utility.yul\":50106:50153   */\n      mstore\n        /* \"#utility.yul\":50170:50301   */\n      tag_1053\n        /* \"#utility.yul\":50296:50300   */\n      dup2\n        /* \"#utility.yul\":50170:50301   */\n      tag_599\n      jump\t// in\n    tag_1053:\n        /* \"#utility.yul\":50162:50301   */\n      swap1\n      pop\n        /* \"#utility.yul\":49889:50308   */\n      swap2\n      swap1\n      pop\n      jump\t// out\n        /* \"#utility.yul\":50314:50480   */\n    tag_600:\n        /* \"#utility.yul\":50454:50472   */\n      0x416c726561647920646973707574656400000000000000000000000000000000\n        /* \"#utility.yul\":50450:50451   */\n      0x00\n        /* \"#utility.yul\":50442:50448   */\n      dup3\n        /* \"#utility.yul\":50438:50452   */\n      add\n        /* \"#utility.yul\":50431:50473   */\n      mstore\n        /* \"#utility.yul\":50314:50480   */\n      pop\n      jump\t// out\n        /* \"#utility.yul\":50486:50852   */\n    tag_601:\n        /* \"#utility.yul\":50628:50631   */\n      0x00\n        /* \"#utility.yul\":50649:50716   */\n      tag_1056\n        /* \"#utility.yul\":50713:50715   */\n      0x10\n        /* \"#utility.yul\":50708:50711   */\n      dup4\n        /* \"#utility.yul\":50649:50716   */\n      tag_488\n      jump\t// in\n    tag_1056:\n        /* \"#utility.yul\":50642:50716   */\n      swap2\n      pop\n        /* \"#utility.yul\":50725:50818   */\n      tag_1057\n        /* \"#utility.yul\":50814:50817   */\n      dup3\n        /* \"#utility.yul\":50725:50818   */\n      tag_600\n      jump\t// in\n    tag_1057:\n        /* \"#utility.yul\":50843:50845   */\n      0x20\n        /* \"#utility.yul\":50838:50841   */\n      dup3\n        /* \"#utility.yul\":50834:50846   */\n      add\n        /* \"#utility.yul\":50827:50846   */\n      swap1\n      pop\n        /* \"#utility.yul\":50486:50852   */\n      swap2\n      swap1\n      pop\n      jump\t// out\n        /* \"#utility.yul\":50858:51277   */\n    tag_370:\n        /* \"#utility.yul\":51024:51028   */\n      0x00\n        /* \"#utility.yul\":51062:51064   */\n      0x20\n        /* \"#utility.yul\":51051:51060   */\n      dup3\n        /* \"#utility.yul\":51047:51065   */\n      add\n        /* \"#utility.yul\":51039:51065   */\n      swap1\n      pop\n        /* \"#utility.yul\":51111:51120   */\n      dup2\n        /* \"#utility.yul\":51105:51109   */\n      dup2\n        /* \"#utility.yul\":51101:51121   */\n      sub\n        /* \"#utility.yul\":51097:51098   */\n      0x00\n        /* \"#utility.yul\":51086:51095   */\n      dup4\n        /* \"#utility.yul\":51082:51099   */\n      add\n        /* \"#utility.yul\":51075:51122   */\n      mstore\n        /* \"#utility.yul\":51139:51270   */\n      tag_1059\n        /* \"#utility.yul\":51265:51269   */\n      dup2\n        /* \"#utility.yul\":51139:51270   */\n      tag_601\n      jump\t// in\n    tag_1059:\n        /* \"#utility.yul\":51131:51270   */\n      swap1\n      pop\n        /* \"#utility.yul\":50858:51277   */\n      swap2\n      swap1\n      pop\n      jump\t// out\n        /* \"#utility.yul\":51283:51452   */\n    tag_602:\n        /* \"#utility.yul\":51423:51444   */\n      0x416d6f756e742065786365656473206665657300000000000000000000000000\n        /* \"#utility.yul\":51419:51420   */\n      0x00\n        /* \"#utility.yul\":51411:51417   */\n      dup3\n        /* \"#utility.yul\":51407:51421   */\n      add\n        /* \"#utility.yul\":51400:51445   */\n      mstore\n        /* \"#utility.yul\":51283:51452   */\n      pop\n      jump\t// out\n        /* \"#utility.yul\":51458:51824   */\n    tag_603:\n        /* \"#utility.yul\":51600:51603   */\n      0x00\n        /* \"#utility.yul\":51621:51688   */\n      tag_1062\n        /* \"#utility.yul\":51685:51687   */\n      0x13\n        /* \"#utility.yul\":51680:51683   */\n      dup4\n        /* \"#utility.yul\":51621:51688   */\n      tag_488\n      jump\t// in\n    tag_1062:\n        /* \"#utility.yul\":51614:51688   */\n      swap2\n      pop\n        /* \"#utility.yul\":51697:51790   */\n      tag_1063\n        /* \"#utility.yul\":51786:51789   */\n      dup3\n        /* \"#utility.yul\":51697:51790   */\n      tag_602\n      jump\t// in\n    tag_1063:\n        /* \"#utility.yul\":51815:51817   */\n      0x20\n        /* \"#utility.yul\":51810:51813   */\n      dup3\n        /* \"#utility.yul\":51806:51818   */\n      add\n        /* \"#utility.yul\":51799:51818   */\n      swap1\n      pop\n        /* \"#utility.yul\":51458:51824   */\n      swap2\n      swap1\n      pop\n      jump\t// out\n        /* \"#utility.yul\":51830:52249   */\n    tag_395:\n        /* \"#utility.yul\":51996:52000   */\n      0x00\n        /* \"#utility.yul\":52034:52036   */\n      0x20\n        /* \"#utility.yul\":52023:52032   */\n      dup3\n        /* \"#utility.yul\":52019:52037   */\n      add\n        /* \"#utility.yul\":52011:52037   */\n      swap1\n      pop\n        /* \"#utility.yul\":52083:52092   */\n      dup2\n        /* \"#utility.yul\":52077:52081   */\n      dup2\n        /* \"#utility.yul\":52073:52093   */\n      sub\n        /* \"#utility.yul\":52069:52070   */\n      0x00\n        /* \"#utility.yul\":52058:52067   */\n      dup4\n        /* \"#utility.yul\":52054:52071   */\n      add\n        /* \"#utility.yul\":52047:52094   */\n      mstore\n        /* \"#utility.yul\":52111:52242   */\n      tag_1065\n        /* \"#utility.yul\":52237:52241   */\n      dup2\n        /* \"#utility.yul\":52111:52242   */\n      tag_603\n      jump\t// in\n    tag_1065:\n        /* \"#utility.yul\":52103:52242   */\n      swap1\n      pop\n        /* \"#utility.yul\":51830:52249   */\n      swap2\n      swap1\n      pop\n      jump\t// out\n        /* \"#utility.yul\":52255:52420   */\n    tag_604:\n        /* \"#utility.yul\":52395:52412   */\n      0x5769746864726177206661696c65640000000000000000000000000000000000\n        /* \"#utility.yul\":52391:52392   */\n      0x00\n        /* \"#utility.yul\":52383:52389   */\n      dup3\n        /* \"#utility.yul\":52379:52393   */\n      add\n        /* \"#utility.yul\":52372:52413   */\n      mstore\n        /* \"#utility.yul\":52255:52420   */\n      pop\n      jump\t// out\n        /* \"#utility.yul\":52426:52792   */\n    tag_605:\n        /* \"#utility.yul\":52568:52571   */\n      0x00\n        /* \"#utility.yul\":52589:52656   */\n      tag_1068\n        /* \"#utility.yul\":52653:52655   */\n      0x0f\n        /* \"#utility.yul\":52648:52651   */\n      dup4\n        /* \"#utility.yul\":52589:52656   */\n      tag_488\n      jump\t// in\n    tag_1068:\n        /* \"#utility.yul\":52582:52656   */\n      swap2\n      pop\n        /* \"#utility.yul\":52665:52758   */\n      tag_1069\n        /* \"#utility.yul\":52754:52757   */\n      dup3\n        /* \"#utility.yul\":52665:52758   */\n      tag_604\n      jump\t// in\n    tag_1069:\n        /* \"#utility.yul\":52783:52785   */\n      0x20\n        /* \"#utility.yul\":52778:52781   */\n      dup3\n        /* \"#utility.yul\":52774:52786   */\n      add\n        /* \"#utility.yul\":52767:52786   */\n      swap1\n      pop\n        /* \"#utility.yul\":52426:52792   */\n      swap2\n      swap1\n      pop\n      jump\t// out\n        /* \"#utility.yul\":52798:53217   */\n    tag_402:\n        /* \"#utility.yul\":52964:52968   */\n      0x00\n        /* \"#utility.yul\":53002:53004   */\n      0x20\n        /* \"#utility.yul\":52991:53000   */\n      dup3\n        /* \"#utility.yul\":52987:53005   */\n      add\n        /* \"#utility.yul\":52979:53005   */\n      swap1\n      pop\n        /* \"#utility.yul\":53051:53060   */\n      dup2\n        /* \"#utility.yul\":53045:53049   */\n      dup2\n        /* \"#utility.yul\":53041:53061   */\n      sub\n        /* \"#utility.yul\":53037:53038   */\n      0x00\n        /* \"#utility.yul\":53026:53035   */\n      dup4\n        /* \"#utility.yul\":53022:53039   */\n      add\n        /* \"#utility.yul\":53015:53062   */\n      mstore\n        /* \"#utility.yul\":53079:53210   */\n      tag_1071\n        /* \"#utility.yul\":53205:53209   */\n      dup2\n        /* \"#utility.yul\":53079:53210   */\n      tag_605\n      jump\t// in\n    tag_1071:\n        /* \"#utility.yul\":53071:53210   */\n      swap1\n      pop\n        /* \"#utility.yul\":52798:53217   */\n      swap2\n      swap1\n      pop\n      jump\t// out\n        /* \"#utility.yul\":53223:53392   */\n    tag_606:\n        /* \"#utility.yul\":53363:53384   */\n      0x4a6f62206e6f7420696e2070726f677265737300000000000000000000000000\n        /* \"#utility.yul\":53359:53360   */\n      0x00\n        /* \"#utility.yul\":53351:53357   */\n      dup3\n        /* \"#utility.yul\":53347:53361   */\n      add\n        /* \"#utility.yul\":53340:53385   */\n      mstore\n        /* \"#utility.yul\":53223:53392   */\n      pop\n      jump\t// out\n        /* \"#utility.yul\":53398:53764   */\n    tag_607:\n        /* \"#utility.yul\":53540:53543   */\n      0x00\n        /* \"#utility.yul\":53561:53628   */\n      tag_1074\n        /* \"#utility.yul\":53625:53627   */\n      0x13\n        /* \"#utility.yul\":53620:53623   */\n      dup4\n        /* \"#utility.yul\":53561:53628   */\n      tag_488\n      jump\t// in\n    tag_1074:\n        /* \"#utility.yul\":53554:53628   */\n      swap2\n      pop\n        /* \"#utility.yul\":53637:53730   */\n      tag_1075\n        /* \"#utility.yul\":53726:53729   */\n      dup3\n        /* \"#utility.yul\":53637:53730   */\n      tag_606\n      jump\t// in\n    tag_1075:\n        /* \"#utility.yul\":53755:53757   */\n      0x20\n        /* \"#utility.yul\":53750:53753   */\n      dup3\n        /* \"#utility.yul\":53746:53758   */\n      add\n        /* \"#utility.yul\":53739:53758   */\n      swap1\n      pop\n        /* \"#utility.yul\":53398:53764   */\n      swap2\n      swap1\n      pop\n      jump\t// out\n        /* \"#utility.yul\":53770:54189   */\n    tag_422:\n        /* \"#utility.yul\":53936:53940   */\n      0x00\n        /* \"#utility.yul\":53974:53976   */\n      0x20\n        /* \"#utility.yul\":53963:53972   */\n      dup3\n        /* \"#utility.yul\":53959:53977   */\n      add\n        /* \"#utility.yul\":53951:53977   */\n      swap1\n      pop\n        /* \"#utility.yul\":54023:54032   */\n      dup2\n        /* \"#utility.yul\":54017:54021   */\n      dup2\n        /* \"#utility.yul\":54013:54033   */\n      sub\n        /* \"#utility.yul\":54009:54010   */\n      0x00\n        /* \"#utility.yul\":53998:54007   */\n      dup4\n        /* \"#utility.yul\":53994:54011   */\n      add\n        /* \"#utility.yul\":53987:54034   */\n      mstore\n        /* \"#utility.yul\":54051:54182   */\n      tag_1077\n        /* \"#utility.yul\":54177:54181   */\n      dup2\n        /* \"#utility.yul\":54051:54182   */\n      tag_607\n      jump\t// in\n    tag_1077:\n        /* \"#utility.yul\":54043:54182   */\n      swap1\n      pop\n        /* \"#utility.yul\":53770:54189   */\n      swap2\n      swap1\n      pop\n      jump\t// out\n        /* \"#utility.yul\":54195:54354   */\n    tag_608:\n        /* \"#utility.yul\":54335:54346   */\n      0x4e6f742068697265640000000000000000000000000000000000000000000000\n        /* \"#utility.yul\":54331:54332   */\n      0x00\n        /* \"#utility.yul\":54323:54329   */\n      dup3\n        /* \"#utility.yul\":54319:54333   */\n      add\n        /* \"#utility.yul\":54312:54347   */\n      mstore\n        /* \"#utility.yul\":54195:54354   */\n      pop\n      jump\t// out\n        /* \"#utility.yul\":54360:54725   */\n    tag_609:\n        /* \"#utility.yul\":54502:54505   */\n      0x00\n        /* \"#utility.yul\":54523:54589   */\n      tag_1080\n        /* \"#utility.yul\":54587:54588   */\n      0x09\n        /* \"#utility.yul\":54582:54585   */\n      dup4\n        /* \"#utility.yul\":54523:54589   */\n      tag_488\n      jump\t// in\n    tag_1080:\n        /* \"#utility.yul\":54516:54589   */\n      swap2\n      pop\n        /* \"#utility.yul\":54598:54691   */\n      tag_1081\n        /* \"#utility.yul\":54687:54690   */\n      dup3\n        /* \"#utility.yul\":54598:54691   */\n      tag_608\n      jump\t// in\n    tag_1081:\n        /* \"#utility.yul\":54716:54718   */\n      0x20\n        /* \"#utility.yul\":54711:54714   */\n      dup3\n        /* \"#utility.yul\":54707:54719   */\n      add\n        /* \"#utility.yul\":54700:54719   */\n      swap1\n      pop\n        /* \"#utility.yul\":54360:54725   */\n      swap2\n      swap1\n      pop\n      jump\t// out\n        /* \"#utility.yul\":54731:55150   */\n    tag_425:\n        /* \"#utility.yul\":54897:54901   */\n      0x00\n        /* \"#utility.yul\":54935:54937   */\n      0x20\n        /* \"#utility.yul\":54924:54933   */\n      dup3\n        /* \"#utility.yul\":54920:54938   */\n      add\n        /* \"#utility.yul\":54912:54938   */\n      swap1\n      pop\n        /* \"#utility.yul\":54984:54993   */\n      dup2\n        /* \"#utility.yul\":54978:54982   */\n      dup2\n        /* \"#utility.yul\":54974:54994   */\n      sub\n        /* \"#utility.yul\":54970:54971   */\n      0x00\n        /* \"#utility.yul\":54959:54968   */\n      dup4\n        /* \"#utility.yul\":54955:54972   */\n      add\n        /* \"#utility.yul\":54948:54995   */\n      mstore\n        /* \"#utility.yul\":55012:55143   */\n      tag_1083\n        /* \"#utility.yul\":55138:55142   */\n      dup2\n        /* \"#utility.yul\":55012:55143   */\n      tag_609\n      jump\t// in\n    tag_1083:\n        /* \"#utility.yul\":55004:55143   */\n      swap1\n      pop\n        /* \"#utility.yul\":54731:55150   */\n      swap2\n      swap1\n      pop\n      jump\t// out\n        /* \"#utility.yul\":55156:55323   */\n    tag_610:\n        /* \"#utility.yul\":55296:55315   */\n      0x496e76616c69642062696420696e646578000000000000000000000000000000\n        /* \"#utility.yul\":55292:55293   */\n      0x00\n        /* \"#utility.yul\":55284:55290   */\n      dup3\n        /* \"#utility.yul\":55280:55294   */\n      add\n        /* \"#utility.yul\":55273:55316   */\n      mstore\n        /* \"#utility.yul\":55156:55323   */\n      pop\n      jump\t// out\n        /* \"#utility.yul\":55329:55695   */\n    tag_611:\n        /* \"#utility.yul\":55471:55474   */\n      0x00\n        /* \"#utility.yul\":55492:55559   */\n      tag_1086\n        /* \"#utility.yul\":55556:55558   */\n      0x11\n        /* \"#utility.yul\":55551:55554   */\n      dup4\n        /* \"#utility.yul\":55492:55559   */\n      tag_488\n      jump\t// in\n    tag_1086:\n        /* \"#utility.yul\":55485:55559   */\n      swap2\n      pop\n        /* \"#utility.yul\":55568:55661   */\n      tag_1087\n        /* \"#utility.yul\":55657:55660   */\n      dup3\n        /* \"#utility.yul\":55568:55661   */\n      tag_610\n      jump\t// in\n    tag_1087:\n        /* \"#utility.yul\":55686:55688   */\n      0x20\n        /* \"#utility.yul\":55681:55684   */\n      dup3\n        /* \"#utility.yul\":55677:55689   */\n      add\n        /* \"#utility.yul\":55670:55689   */\n      swap1\n      pop\n        /* \"#utility.yul\":55329:55695   */\n      swap2\n      swap1\n      pop\n      jump\t// out\n        /* \"#utility.yul\":55701:56120   */\n    tag_453:\n        /* \"#utility.yul\":55867:55871   */\n      0x00\n        /* \"#utility.yul\":55905:55907   */\n      0x20\n        /* \"#utility.yul\":55894:55903   */\n      dup3\n        /* \"#utility.yul\":55890:55908   */\n      add\n        /* \"#utility.yul\":55882:55908   */\n      swap1\n      pop\n        /* \"#utility.yul\":55954:55963   */\n      dup2\n        /* \"#utility.yul\":55948:55952   */\n      dup2\n        /* \"#utility.yul\":55944:55964   */\n      sub\n        /* \"#utility.yul\":55940:55941   */\n      0x00\n        /* \"#utility.yul\":55929:55938   */\n      dup4\n        /* \"#utility.yul\":55925:55942   */\n      add\n        /* \"#utility.yul\":55918:55965   */\n      mstore\n        /* \"#utility.yul\":55982:56113   */\n      tag_1089\n        /* \"#utility.yul\":56108:56112   */\n      dup2\n        /* \"#utility.yul\":55982:56113   */\n      tag_611\n      jump\t// in\n    tag_1089:\n        /* \"#utility.yul\":55974:56113   */\n      swap1\n      pop\n        /* \"#utility.yul\":55701:56120   */\n      swap2\n      swap1\n      pop\n      jump\t// out\n        /* \"#utility.yul\":56126:56289   */\n    tag_612:\n        /* \"#utility.yul\":56266:56281   */\n      0x426964206e6f7420666f756e6400000000000000000000000000000000000000\n        /* \"#utility.yul\":56262:56263   */\n      0x00\n        /* \"#utility.yul\":56254:56260   */\n      dup3\n        /* \"#utility.yul\":56250:56264   */\n      add\n        /* \"#utility.yul\":56243:56282   */\n      mstore\n        /* \"#utility.yul\":56126:56289   */\n      pop\n      jump\t// out\n        /* \"#utility.yul\":56295:56661   */\n    tag_613:\n        /* \"#utility.yul\":56437:56440   */\n      0x00\n        /* \"#utility.yul\":56458:56525   */\n      tag_1092\n        /* \"#utility.yul\":56522:56524   */\n      0x0d\n        /* \"#utility.yul\":56517:56520   */\n      dup4\n        /* \"#utility.yul\":56458:56525   */\n      tag_488\n      jump\t// in\n    tag_1092:\n        /* \"#utility.yul\":56451:56525   */\n      swap2\n      pop\n        /* \"#utility.yul\":56534:56627   */\n      tag_1093\n        /* \"#utility.yul\":56623:56626   */\n      dup3\n        /* \"#utility.yul\":56534:56627   */\n      tag_612\n      jump\t// in\n    tag_1093:\n        /* \"#utility.yul\":56652:56654   */\n      0x20\n        /* \"#utility.yul\":56647:56650   */\n      dup3\n        /* \"#utility.yul\":56643:56655   */\n      add\n        /* \"#utility.yul\":56636:56655   */\n      swap1\n      pop\n        /* \"#utility.yul\":56295:56661   */\n      swap2\n      swap1\n      pop\n      jump\t// out\n        /* \"#utility.yul\":56667:57086   */\n    tag_459:\n        /* \"#utility.yul\":56833:56837   */\n      0x00\n        /* \"#utility.yul\":56871:56873   */\n      0x20\n        /* \"#utility.yul\":56860:56869   */\n      dup3\n        /* \"#utility.yul\":56856:56874   */\n      add\n        /* \"#utility.yul\":56848:56874   */\n      swap1\n      pop\n        /* \"#utility.yul\":56920:56929   */\n      dup2\n        /* \"#utility.yul\":56914:56918   */\n      dup2\n        /* \"#utility.yul\":56910:56930   */\n      sub\n        /* \"#utility.yul\":56906:56907   */\n      0x00\n        /* \"#utility.yul\":56895:56904   */\n      dup4\n        /* \"#utility.yul\":56891:56908   */\n      add\n        /* \"#utility.yul\":56884:56931   */\n      mstore\n        /* \"#utility.yul\":56948:57079   */\n      tag_1095\n        /* \"#utility.yul\":57074:57078   */\n      dup2\n        /* \"#utility.yul\":56948:57079   */\n      tag_613\n      jump\t// in\n    tag_1095:\n        /* \"#utility.yul\":56940:57079   */\n      swap1\n      pop\n        /* \"#utility.yul\":56667:57086   */\n      swap2\n      swap1\n      pop\n      jump\t// out\n        /* \"#utility.yul\":57092:57262   */\n    tag_614:\n        /* \"#utility.yul\":57232:57254   */\n      0x4574686572206d757374206d6174636820626964000000000000000000000000\n        /* \"#utility.yul\":57228:57229   */\n      0x00\n        /* \"#utility.yul\":57220:57226   */\n      dup3\n        /* \"#utility.yul\":57216:57230   */\n      add\n        /* \"#utility.yul\":57209:57255   */\n      mstore\n        /* \"#utility.yul\":57092:57262   */\n      pop\n      jump\t// out\n        /* \"#utility.yul\":57268:57634   */\n    tag_615:\n        /* \"#utility.yul\":57410:57413   */\n      0x00\n        /* \"#utility.yul\":57431:57498   */\n      tag_1098\n        /* \"#utility.yul\":57495:57497   */\n      0x14\n        /* \"#utility.yul\":57490:57493   */\n      dup4\n        /* \"#utility.yul\":57431:57498   */\n      tag_488\n      jump\t// in\n    tag_1098:\n        /* \"#utility.yul\":57424:57498   */\n      swap2\n      pop\n        /* \"#utility.yul\":57507:57600   */\n      tag_1099\n        /* \"#utility.yul\":57596:57599   */\n      dup3\n        /* \"#utility.yul\":57507:57600   */\n      tag_614\n      jump\t// in\n    tag_1099:\n        /* \"#utility.yul\":57625:57627   */\n      0x20\n        /* \"#utility.yul\":57620:57623   */\n      dup3\n        /* \"#utility.yul\":57616:57628   */\n      add\n        /* \"#utility.yul\":57609:57628   */\n      swap1\n      pop\n        /* \"#utility.yul\":57268:57634   */\n      swap2\n      swap1\n      pop\n      jump\t// out\n        /* \"#utility.yul\":57640:58059   */\n    tag_462:\n        /* \"#utility.yul\":57806:57810   */\n      0x00\n        /* \"#utility.yul\":57844:57846   */\n      0x20\n        /* \"#utility.yul\":57833:57842   */\n      dup3\n        /* \"#utility.yul\":57829:57847   */\n      add\n        /* \"#utility.yul\":57821:57847   */\n      swap1\n      pop\n        /* \"#utility.yul\":57893:57902   */\n      dup2\n        /* \"#utility.yul\":57887:57891   */\n      dup2\n        /* \"#utility.yul\":57883:57903   */\n      sub\n        /* \"#utility.yul\":57879:57880   */\n      0x00\n        /* \"#utility.yul\":57868:57877   */\n      dup4\n        /* \"#utility.yul\":57864:57881   */\n      add\n        /* \"#utility.yul\":57857:57904   */\n      mstore\n        /* \"#utility.yul\":57921:58052   */\n      tag_1101\n        /* \"#utility.yul\":58047:58051   */\n      dup2\n        /* \"#utility.yul\":57921:58052   */\n      tag_615\n      jump\t// in\n    tag_1101:\n        /* \"#utility.yul\":57913:58052   */\n      swap1\n      pop\n        /* \"#utility.yul\":57640:58059   */\n      swap2\n      swap1\n      pop\n      jump\t// out\n        /* \"#utility.yul\":58065:58475   */\n    tag_471:\n        /* \"#utility.yul\":58105:58112   */\n      0x00\n        /* \"#utility.yul\":58128:58148   */\n      tag_1103\n        /* \"#utility.yul\":58146:58147   */\n      dup3\n        /* \"#utility.yul\":58128:58148   */\n      tag_480\n      jump\t// in\n    tag_1103:\n        /* \"#utility.yul\":58123:58148   */\n      swap2\n      pop\n        /* \"#utility.yul\":58162:58182   */\n      tag_1104\n        /* \"#utility.yul\":58180:58181   */\n      dup4\n        /* \"#utility.yul\":58162:58182   */\n      tag_480\n      jump\t// in\n    tag_1104:\n        /* \"#utility.yul\":58157:58182   */\n      swap3\n      pop\n        /* \"#utility.yul\":58217:58218   */\n      dup3\n        /* \"#utility.yul\":58214:58215   */\n      dup3\n        /* \"#utility.yul\":58210:58219   */\n      mul\n        /* \"#utility.yul\":58239:58269   */\n      tag_1105\n        /* \"#utility.yul\":58257:58268   */\n      dup2\n        /* \"#utility.yul\":58239:58269   */\n      tag_480\n      jump\t// in\n    tag_1105:\n        /* \"#utility.yul\":58228:58269   */\n      swap2\n      pop\n        /* \"#utility.yul\":58418:58419   */\n      dup3\n        /* \"#utility.yul\":58409:58416   */\n      dup3\n        /* \"#utility.yul\":58405:58420   */\n      div\n        /* \"#utility.yul\":58402:58403   */\n      dup5\n        /* \"#utility.yul\":58399:58421   */\n      eq\n        /* \"#utility.yul\":58379:58380   */\n      dup4\n        /* \"#utility.yul\":58372:58381   */\n      iszero\n        /* \"#utility.yul\":58352:58435   */\n      or\n        /* \"#utility.yul\":58329:58468   */\n      tag_1106\n      jumpi\n        /* \"#utility.yul\":58448:58466   */\n      tag_1107\n      tag_526\n      jump\t// in\n    tag_1107:\n        /* \"#utility.yul\":58329:58468   */\n    tag_1106:\n        /* \"#utility.yul\":58113:58475   */\n      pop\n        /* \"#utility.yul\":58065:58475   */\n      swap3\n      swap2\n      pop\n      pop\n      jump\t// out\n        /* \"#utility.yul\":58481:58661   */\n    tag_616:\n        /* \"#utility.yul\":58529:58606   */\n      0x4e487b7100000000000000000000000000000000000000000000000000000000\n        /* \"#utility.yul\":58526:58527   */\n      0x00\n        /* \"#utility.yul\":58519:58607   */\n      mstore\n        /* \"#utility.yul\":58626:58630   */\n      0x12\n        /* \"#utility.yul\":58623:58624   */\n      0x04\n        /* \"#utility.yul\":58616:58631   */\n      mstore\n        /* \"#utility.yul\":58650:58654   */\n      0x24\n        /* \"#utility.yul\":58647:58648   */\n      0x00\n        /* \"#utility.yul\":58640:58655   */\n      revert\n        /* \"#utility.yul\":58667:58852   */\n    tag_473:\n        /* \"#utility.yul\":58707:58708   */\n      0x00\n        /* \"#utility.yul\":58724:58744   */\n      tag_1110\n        /* \"#utility.yul\":58742:58743   */\n      dup3\n        /* \"#utility.yul\":58724:58744   */\n      tag_480\n      jump\t// in\n    tag_1110:\n        /* \"#utility.yul\":58719:58744   */\n      swap2\n      pop\n        /* \"#utility.yul\":58758:58778   */\n      tag_1111\n        /* \"#utility.yul\":58776:58777   */\n      dup4\n        /* \"#utility.yul\":58758:58778   */\n      tag_480\n      jump\t// in\n    tag_1111:\n        /* \"#utility.yul\":58753:58778   */\n      swap3\n      pop\n        /* \"#utility.yul\":58797:58798   */\n      dup3\n        /* \"#utility.yul\":58787:58822   */\n      tag_1112\n      jumpi\n        /* \"#utility.yul\":58802:58820   */\n      tag_1113\n      tag_616\n      jump\t// in\n    tag_1113:\n        /* \"#utility.yul\":58787:58822   */\n    tag_1112:\n        /* \"#utility.yul\":58844:58845   */\n      dup3\n        /* \"#utility.yul\":58841:58842   */\n      dup3\n        /* \"#utility.yul\":58837:58846   */\n      div\n        /* \"#utility.yul\":58832:58846   */\n      swap1\n      pop\n        /* \"#utility.yul\":58667:58852   */\n      swap3\n      swap2\n      pop\n      pop\n      jump\t// out\n\n    auxdata: 0xa264697066735822122009f3762be1cb9ca71a11370ccf89bb58b701ddb8cf1a65d74ffa0f85ca19e7ac64736f6c634300081e0033\n}\n",
				"bytecode": {
					"linkReferences": {},
					"object": "60a06040526001600655348015601457600080fd5b503373ffffffffffffffffffffffffffffffffffffffff1660808173ffffffffffffffffffffffffffffffffffffffff1681525050608051614ff46100796000396000818161071501528181610a100152818161267501526132b40152614ff46000f3fe6080604052600436106101095760003560e01c806371bf6bed11610095578063ad3b1b4711610064578063ad3b1b4714610388578063cac5c512146103b1578063d68ff191146103da578063f73b60a914610417578063fe25e00a1461043357610109565b806371bf6bed146102b8578063744d3411146102e1578063a5c1674e1461031e578063a87430ba1461034757610109565b80633d01e0fa116100dc5780633d01e0fa146101d357806350355d76146101fc578063582c7ffd146102275780635e62be25146102645780636e331b681461028d57610109565b8063180aedf31461010e578063289a74c914610156578063338e12eb1461018157806334b25ee2146101aa575b600080fd5b34801561011a57600080fd5b50610135600480360381019061013091906133ae565b61045e565b60405161014d9c9b9a9998979695949392919061354d565b60405180910390f35b34801561016257600080fd5b5061016b610642565b6040516101789190613615565b60405180910390f35b34801561018d57600080fd5b506101a860048036038101906101a3919061378a565b610657565b005b3480156101b657600080fd5b506101d160048036038101906101cc9190613812565b610a0e565b005b3480156101df57600080fd5b506101fa60048036038101906101f591906133ae565b6110fb565b005b34801561020857600080fd5b5061021161178f565b60405161021e9190613615565b60405180910390f35b34801561023357600080fd5b5061024e60048036038101906102499190613852565b611795565b60405161025b9190613914565b60405180910390f35b34801561027057600080fd5b5061028b6004803603810190610286919061392f565b6118c0565b005b34801561029957600080fd5b506102a2611d32565b6040516102af9190613615565b60405180910390f35b3480156102c457600080fd5b506102df60048036038101906102da9190613982565b611d38565b005b3480156102ed57600080fd5b50610308600480360381019061030391906133ae565b6121a1565b6040516103159190613615565b60405180910390f35b34801561032a57600080fd5b50610345600480360381019061034091906133ae565b6121c1565b005b34801561035357600080fd5b5061036e60048036038101906103699190613a4d565b61257b565b60405161037f959493929190613ae3565b60405180910390f35b34801561039457600080fd5b506103af60048036038101906103aa9190613b69565b612673565b005b3480156103bd57600080fd5b506103d860048036038101906103d391906133ae565b6129b9565b005b3480156103e657600080fd5b5061040160048036038101906103fc91906133ae565b612ce0565b60405161040e9190613615565b60405180910390f35b610431600480360381019061042c9190613852565b612cf8565b005b34801561043f57600080fd5b506104486132b2565b6040516104559190613ba9565b60405180910390f35b60026020528060005260406000206000915090508060000154908060010160009054906101000a900473ffffffffffffffffffffffffffffffffffffffff16908060020180546104ad90613bf3565b80601f01602080910402602001604051908101604052809291908181526020018280546104d990613bf3565b80156105265780601f106104fb57610100808354040283529160200191610526565b820191906000526020600020905b81548152906001019060200180831161050957829003601f168201915b50505050509080600301805461053b90613bf3565b80601f016020809104026020016040519081016040528092919081815260200182805461056790613bf3565b80156105b45780601f10610589576101008083540402835291602001916105b4565b820191906000526020600020905b81548152906001019060200180831161059757829003601f168201915b5050505050908060040154908060050154908060060160009054906101000a900460ff16908060060160019054906101000a900473ffffffffffffffffffffffffffffffffffffffff16908060070154908060080160009054906101000a900460ff16908060080160019054906101000a900460ff16908060080160029054906101000a900460ff1690508c565b6000600554476106529190613c53565b905090565b600160003373ffffffffffffffffffffffffffffffffffffffff1673ffffffffffffffffffffffffffffffffffffffff16815260200190815260200160002060030160149054906101000a900460ff16156106e7576040517f08c379a00000000000000000000000000000000000000000000000000000000081526004016106de90613cd3565b60405180910390fd5b600060028111156106fb576106fa6134bb565b5b81600281111561070e5761070d6134bb565b5b036107a6577f000000000000000000000000000000000000000000000000000000000000000073ffffffffffffffffffffffffffffffffffffffff163373ffffffffffffffffffffffffffffffffffffffff16146107a1576040517f08c379a000000000000000000000000000000000000000000000000000000000815260040161079890613d3f565b60405180910390fd5b61083c565b600160028111156107ba576107b96134bb565b5b8160028111156107cd576107cc6134bb565b5b14806107fc57506002808111156107e7576107e66134bb565b5b8160028111156107fa576107f96134bb565b5b145b61083b576040517f08c379a000000000000000000000000000000000000000000000000000000000815260040161083290613dab565b60405180910390fd5b5b6000600280811115610851576108506134bb565b5b826002811115610864576108636134bb565b5b0361086e57606490505b6040518060a00160405280848152602001836002811115610892576108916134bb565b5b81526020018281526020013373ffffffffffffffffffffffffffffffffffffffff16815260200160011515815250600160003373ffffffffffffffffffffffffffffffffffffffff1673ffffffffffffffffffffffffffffffffffffffff16815260200190815260200160002060008201518160000190816109149190613f77565b5060208201518160010160006101000a81548160ff021916908360028111156109405761093f6134bb565b5b02179055506040820151816002015560608201518160030160006101000a81548173ffffffffffffffffffffffffffffffffffffffff021916908373ffffffffffffffffffffffffffffffffffffffff16021790555060808201518160030160146101000a81548160ff0219169083151502179055509050503373ffffffffffffffffffffffffffffffffffffffff167fc2e5d5da58bd71d1a2d14cdef02a4256d971b728088f8190d067ccfbae3bd73e8484604051610a01929190614049565b60405180910390a2505050565b7f000000000000000000000000000000000000000000000000000000000000000073ffffffffffffffffffffffffffffffffffffffff163373ffffffffffffffffffffffffffffffffffffffff1614610a9c576040517f08c379a0000000000000000000000000000000000000000000000000000000008152600401610a93906140c5565b60405180910390fd5b600160003373ffffffffffffffffffffffffffffffffffffffff1673ffffffffffffffffffffffffffffffffffffffff16815260200190815260200160002060030160149054906101000a900460ff168015610b6b575060006002811115610b0757610b066134bb565b5b600160003373ffffffffffffffffffffffffffffffffffffffff1673ffffffffffffffffffffffffffffffffffffffff16815260200190815260200160002060010160009054906101000a900460ff166002811115610b6957610b686134bb565b5b145b610baa576040517f08c379a0000000000000000000000000000000000000000000000000000000008152600401610ba190614131565b60405180910390fd5b600160065414610bef576040517f08c379a0000000000000000000000000000000000000000000000000000000008152600401610be69061419d565b60405180910390fd5b600260068190555060006002600084815260200190815260200160002090506000816000015403610c55576040517f08c379a0000000000000000000000000000000000000000000000000000000008152600401610c4c90614209565b60405180910390fd5b60046005811115610c6957610c686134bb565b5b8160060160009054906101000a900460ff166005811115610c8d57610c8c6134bb565b5b14610ccd576040517f08c379a0000000000000000000000000000000000000000000000000000000008152600401610cc490614275565b60405180910390fd5b60008160070154905080600460008681526020019081526020016000205414610d2b576040517f08c379a0000000000000000000000000000000000000000000000000000000008152600401610d22906142e1565b60405180910390fd5b60008260010160009054906101000a900473ffffffffffffffffffffffffffffffffffffffff16905060008360060160019054906101000a900473ffffffffffffffffffffffffffffffffffffffff1690506000600160008373ffffffffffffffffffffffffffffffffffffffff1673ffffffffffffffffffffffffffffffffffffffff16815260200190815260200160002060030160009054906101000a900473ffffffffffffffffffffffffffffffffffffffff169050600060058660060160006101000a81548160ff02191690836005811115610e0e57610e0d6134bb565b5b02179055506000600460008a8152602001908152602001600020819055508460056000828254610e3e9190613c53565b925050819055508615610f5457610e54856132d6565b905060008186610e649190613c53565b905060008373ffffffffffffffffffffffffffffffffffffffff1682604051610e8c90614332565b60006040518083038185875af1925050503d8060008114610ec9576040519150601f19603f3d011682016040523d82523d6000602084013e610ece565b606091505b5050905080610f12576040517f08c379a0000000000000000000000000000000000000000000000000000000008152600401610f0990614393565b60405180910390fd5b897f5add0b1fc2a3dfd95be33d1d5feb6709087e50213b7a73c3c3b2c387001221e7600185604051610f459291906143b3565b60405180910390a250506110e9565b60008473ffffffffffffffffffffffffffffffffffffffff1686604051610f7a90614332565b60006040518083038185875af1925050503d8060008114610fb7576040519150601f19603f3d011682016040523d82523d6000602084013e610fbc565b606091505b5050905080611000576040517f08c379a0000000000000000000000000000000000000000000000000000000008152600401610ff790614428565b60405180910390fd5b6000600160008673ffffffffffffffffffffffffffffffffffffffff1673ffffffffffffffffffffffffffffffffffffffff1681526020019081526020016000206002015490506014811015611057576000611065565b6014816110649190613c53565b5b600160008773ffffffffffffffffffffffffffffffffffffffff1673ffffffffffffffffffffffffffffffffffffffff16815260200190815260200160002060020181905550897f5add0b1fc2a3dfd95be33d1d5feb6709087e50213b7a73c3c3b2c387001221e76000806040516110de929190614483565b60405180910390a250505b50505050505060016006819055505050565b600160003373ffffffffffffffffffffffffffffffffffffffff1673ffffffffffffffffffffffffffffffffffffffff16815260200190815260200160002060030160149054906101000a900460ff1661118a576040517f08c379a0000000000000000000000000000000000000000000000000000000008152600401611181906144f8565b60405180910390fd5b6001600281111561119e5761119d6134bb565b5b600160003373ffffffffffffffffffffffffffffffffffffffff1673ffffffffffffffffffffffffffffffffffffffff16815260200190815260200160002060010160009054906101000a900460ff166002811115611200576111ff6134bb565b5b14611240576040517f08c379a000000000000000000000000000000000000000000000000000000000815260040161123790614564565b60405180910390fd5b600160065414611285576040517f08c379a000000000000000000000000000000000000000000000000000000000815260040161127c9061419d565b60405180910390fd5b6002600681905550600060026000838152602001908152602001600020905060008160000154036112eb576040517f08c379a00000000000000000000000000000000000000000000000000000000081526004016112e290614209565b60405180910390fd5b3373ffffffffffffffffffffffffffffffffffffffff168160010160009054906101000a900473ffffffffffffffffffffffffffffffffffffffff1673ffffffffffffffffffffffffffffffffffffffff161461137d576040517f08c379a0000000000000000000000000000000000000000000000000000000008152600401611374906145d0565b60405180910390fd5b60026005811115611391576113906134bb565b5b8160060160009054906101000a900460ff1660058111156113b5576113b46134bb565b5b146113f5576040517f08c379a00000000000000000000000000000000000000000000000000000000081526004016113ec9061463c565b60405180910390fd5b8060080160029054906101000a900460ff1615611447576040517f08c379a000000000000000000000000000000000000000000000000000000000815260040161143e906146a8565b60405180910390fd5b8060080160009054906101000a900460ff16611498576040517f08c379a000000000000000000000000000000000000000000000000000000000815260040161148f90614714565b60405180910390fd5b600081600701549050806004600085815260200190815260200160002054146114f6576040517f08c379a00000000000000000000000000000000000000000000000000000000081526004016114ed906142e1565b60405180910390fd5b6000611501826132d6565b9050600081836115119190613c53565b905060018460080160016101000a81548160ff02191690831515021790555060038460060160006101000a81548160ff02191690836005811115611558576115576134bb565b5b02179055506000600460008781526020019081526020016000208190555082600560008282546115889190613c53565b925050819055506000600160008660060160019054906101000a900473ffffffffffffffffffffffffffffffffffffffff1673ffffffffffffffffffffffffffffffffffffffff1673ffffffffffffffffffffffffffffffffffffffff16815260200190815260200160002060030160009054906101000a900473ffffffffffffffffffffffffffffffffffffffff16905060008173ffffffffffffffffffffffffffffffffffffffff168360405161164090614332565b60006040518083038185875af1925050503d806000811461167d576040519150601f19603f3d011682016040523d82523d6000602084013e611682565b606091505b50509050806116c6576040517f08c379a00000000000000000000000000000000000000000000000000000000081526004016116bd90614393565b60405180910390fd5b600a600160008860060160019054906101000a900473ffffffffffffffffffffffffffffffffffffffff1673ffffffffffffffffffffffffffffffffffffffff1673ffffffffffffffffffffffffffffffffffffffff168152602001908152602001600020600201600082825461173d9190614734565b92505081905550867f4ecfa7abb1768ddb7f787b2da365d7269fc2d6b38c3bfcf05525b41bd5a35cb98486604051611776929190614768565b60405180910390a2505050505050600160068190555050565b60005481565b61179d613324565b600360008481526020019081526020016000208054905082106117f5576040517f08c379a00000000000000000000000000000000000000000000000000000000081526004016117ec906147dd565b60405180910390fd5b60036000848152602001908152602001600020828154811061181a576118196147fd565b5b90600052602060002090600402016040518060800160405290816000820160009054906101000a900473ffffffffffffffffffffffffffffffffffffffff1673ffffffffffffffffffffffffffffffffffffffff1673ffffffffffffffffffffffffffffffffffffffff16815260200160018201548152602001600282015481526020016003820160009054906101000a900460ff161515151581525050905092915050565b600160003373ffffffffffffffffffffffffffffffffffffffff1673ffffffffffffffffffffffffffffffffffffffff16815260200190815260200160002060030160149054906101000a900460ff1661194f576040517f08c379a0000000000000000000000000000000000000000000000000000000008152600401611946906144f8565b60405180910390fd5b600280811115611962576119616134bb565b5b600160003373ffffffffffffffffffffffffffffffffffffffff1673ffffffffffffffffffffffffffffffffffffffff16815260200190815260200160002060010160009054906101000a900460ff1660028111156119c4576119c36134bb565b5b14611a04576040517f08c379a00000000000000000000000000000000000000000000000000000000081526004016119fb90614878565b60405180910390fd5b60006002600085815260200190815260200160002090506000816000015403611a62576040517f08c379a0000000000000000000000000000000000000000000000000000000008152600401611a5990614209565b60405180910390fd5b60006005811115611a7657611a756134bb565b5b8160060160009054906101000a900460ff166005811115611a9a57611a996134bb565b5b14611ada576040517f08c379a0000000000000000000000000000000000000000000000000000000008152600401611ad1906148e4565b60405180910390fd5b60008311611b1d576040517f08c379a0000000000000000000000000000000000000000000000000000000008152600401611b1490614950565b60405180910390fd5b8060040154831115611b64576040517f08c379a0000000000000000000000000000000000000000000000000000000008152600401611b5b906149bc565b60405180910390fd5b6032600160003373ffffffffffffffffffffffffffffffffffffffff1673ffffffffffffffffffffffffffffffffffffffff168152602001908152602001600020600201541015611bea576040517f08c379a0000000000000000000000000000000000000000000000000000000008152600401611be190614a28565b60405180910390fd5b6003600085815260200190815260200160002060405180608001604052803373ffffffffffffffffffffffffffffffffffffffff16815260200185815260200184815260200160011515815250908060018154018082558091505060019003906000526020600020906004020160009091909190915060008201518160000160006101000a81548173ffffffffffffffffffffffffffffffffffffffff021916908373ffffffffffffffffffffffffffffffffffffffff160217905550602082015181600101556040820151816002015560608201518160030160006101000a81548160ff02191690831515021790555050503373ffffffffffffffffffffffffffffffffffffffff16847f0e54eff26401bf69b81b26f60bd85ef47f5d85275c1d268d84f68d6897431c4785604051611d249190613615565b60405180910390a350505050565b60055481565b600160003373ffffffffffffffffffffffffffffffffffffffff1673ffffffffffffffffffffffffffffffffffffffff16815260200190815260200160002060030160149054906101000a900460ff16611dc7576040517f08c379a0000000000000000000000000000000000000000000000000000000008152600401611dbe906144f8565b60405180910390fd5b60016002811115611ddb57611dda6134bb565b5b600160003373ffffffffffffffffffffffffffffffffffffffff1673ffffffffffffffffffffffffffffffffffffffff16815260200190815260200160002060010160009054906101000a900460ff166002811115611e3d57611e3c6134bb565b5b14611e7d576040517f08c379a0000000000000000000000000000000000000000000000000000000008152600401611e7490614564565b60405180910390fd5b60008211611ec0576040517f08c379a0000000000000000000000000000000000000000000000000000000008152600401611eb790614a94565b60405180910390fd5b428111611f02576040517f08c379a0000000000000000000000000000000000000000000000000000000008152600401611ef990614b00565b60405180910390fd5b6001600080828254611f149190614734565b925050819055506000805490506040518061018001604052808281526020013373ffffffffffffffffffffffffffffffffffffffff16815260200186815260200185815260200184815260200183815260200160006005811115611f7b57611f7a6134bb565b5b8152602001600073ffffffffffffffffffffffffffffffffffffffff1681526020016000815260200160001515815260200160001515815260200160001515815250600260008381526020019081526020016000206000820151816000015560208201518160010160006101000a81548173ffffffffffffffffffffffffffffffffffffffff021916908373ffffffffffffffffffffffffffffffffffffffff16021790555060408201518160020190816120369190613f77565b50606082015181600301908161204c9190613f77565b506080820151816004015560a0820151816005015560c08201518160060160006101000a81548160ff0219169083600581111561208c5761208b6134bb565b5b021790555060e08201518160060160016101000a81548173ffffffffffffffffffffffffffffffffffffffff021916908373ffffffffffffffffffffffffffffffffffffffff16021790555061010082015181600701556101208201518160080160006101000a81548160ff0219169083151502179055506101408201518160080160016101000a81548160ff0219169083151502179055506101608201518160080160026101000a81548160ff0219169083151502179055509050503373ffffffffffffffffffffffffffffffffffffffff16817fd347156c0e050f531434f3eac5fc2137040ab077ca656f465275ebe566aaf1158786604051612192929190614b20565b60405180910390a35050505050565b600060036000838152602001908152602001600020805490509050919050565b600160003373ffffffffffffffffffffffffffffffffffffffff1673ffffffffffffffffffffffffffffffffffffffff16815260200190815260200160002060030160149054906101000a900460ff16612250576040517f08c379a0000000000000000000000000000000000000000000000000000000008152600401612247906144f8565b60405180910390fd5b60016002811115612264576122636134bb565b5b600160003373ffffffffffffffffffffffffffffffffffffffff1673ffffffffffffffffffffffffffffffffffffffff16815260200190815260200160002060010160009054906101000a900460ff1660028111156122c6576122c56134bb565b5b14612306576040517f08c379a00000000000000000000000000000000000000000000000000000000081526004016122fd90614564565b60405180910390fd5b60006002600083815260200190815260200160002090506000816000015403612364576040517f08c379a000000000000000000000000000000000000000000000000000000000815260040161235b90614209565b60405180910390fd5b3373ffffffffffffffffffffffffffffffffffffffff168160010160009054906101000a900473ffffffffffffffffffffffffffffffffffffffff1673ffffffffffffffffffffffffffffffffffffffff16146123f6576040517f08c379a00000000000000000000000000000000000000000000000000000000081526004016123ed906145d0565b60405180910390fd5b6001600581111561240a576124096134bb565b5b8160060160009054906101000a900460ff16600581111561242e5761242d6134bb565b5b148061246f575060026005811115612449576124486134bb565b5b8160060160009054906101000a900460ff16600581111561246d5761246c6134bb565b5b145b6124ae576040517f08c379a00000000000000000000000000000000000000000000000000000000081526004016124a590614b9c565b60405180910390fd5b8060080160029054906101000a900460ff1615612500576040517f08c379a00000000000000000000000000000000000000000000000000000000081526004016124f790614c08565b60405180910390fd5b60018160080160026101000a81548160ff02191690831515021790555060048160060160006101000a81548160ff02191690836005811115612545576125446134bb565b5b0217905550817f04901f83201c8724eadf084436db8aa391820bae6d11f9f78a17edb6f2eef3cf60405160405180910390a25050565b600160205280600052604060002060009150905080600001805461259e90613bf3565b80601f01602080910402602001604051908101604052809291908181526020018280546125ca90613bf3565b80156126175780601f106125ec57610100808354040283529160200191612617565b820191906000526020600020905b8154815290600101906020018083116125fa57829003601f168201915b5050505050908060010160009054906101000a900460ff16908060020154908060030160009054906101000a900473ffffffffffffffffffffffffffffffffffffffff16908060030160149054906101000a900460ff16905085565b7f000000000000000000000000000000000000000000000000000000000000000073ffffffffffffffffffffffffffffffffffffffff163373ffffffffffffffffffffffffffffffffffffffff1614612701576040517f08c379a00000000000000000000000000000000000000000000000000000000081526004016126f8906140c5565b60405180910390fd5b600160003373ffffffffffffffffffffffffffffffffffffffff1673ffffffffffffffffffffffffffffffffffffffff16815260200190815260200160002060030160149054906101000a900460ff1680156127d057506000600281111561276c5761276b6134bb565b5b600160003373ffffffffffffffffffffffffffffffffffffffff1673ffffffffffffffffffffffffffffffffffffffff16815260200190815260200160002060010160009054906101000a900460ff1660028111156127ce576127cd6134bb565b5b145b61280f576040517f08c379a000000000000000000000000000000000000000000000000000000000815260040161280690614131565b60405180910390fd5b600160065414612854576040517f08c379a000000000000000000000000000000000000000000000000000000000815260040161284b9061419d565b60405180910390fd5b600260068190555060006005544761286c9190613c53565b9050808211156128b1576040517f08c379a00000000000000000000000000000000000000000000000000000000081526004016128a890614c74565b60405180910390fd5b60008373ffffffffffffffffffffffffffffffffffffffff16836040516128d790614332565b60006040518083038185875af1925050503d8060008114612914576040519150601f19603f3d011682016040523d82523d6000602084013e612919565b606091505b505090508061295d576040517f08c379a000000000000000000000000000000000000000000000000000000000815260040161295490614ce0565b60405180910390fd5b8373ffffffffffffffffffffffffffffffffffffffff167fc0819c13be868895eb93e40eaceb96de976442fa1d404e5c55f14bb65a8c489a846040516129a39190613615565b60405180910390a2505060016006819055505050565b600160003373ffffffffffffffffffffffffffffffffffffffff1673ffffffffffffffffffffffffffffffffffffffff16815260200190815260200160002060030160149054906101000a900460ff16612a48576040517f08c379a0000000000000000000000000000000000000000000000000000000008152600401612a3f906144f8565b60405180910390fd5b600280811115612a5b57612a5a6134bb565b5b600160003373ffffffffffffffffffffffffffffffffffffffff1673ffffffffffffffffffffffffffffffffffffffff16815260200190815260200160002060010160009054906101000a900460ff166002811115612abd57612abc6134bb565b5b14612afd576040517f08c379a0000000000000000000000000000000000000000000000000000000008152600401612af490614878565b60405180910390fd5b60006002600083815260200190815260200160002090506000816000015403612b5b576040517f08c379a0000000000000000000000000000000000000000000000000000000008152600401612b5290614209565b60405180910390fd5b60016005811115612b6f57612b6e6134bb565b5b8160060160009054906101000a900460ff166005811115612b9357612b926134bb565b5b14612bd3576040517f08c379a0000000000000000000000000000000000000000000000000000000008152600401612bca90614d4c565b60405180910390fd5b3373ffffffffffffffffffffffffffffffffffffffff168160060160019054906101000a900473ffffffffffffffffffffffffffffffffffffffff1673ffffffffffffffffffffffffffffffffffffffff1614612c65576040517f08c379a0000000000000000000000000000000000000000000000000000000008152600401612c5c90614db8565b60405180910390fd5b60018160080160006101000a81548160ff02191690831515021790555060028160060160006101000a81548160ff02191690836005811115612caa57612ca96134bb565b5b0217905550817f0466a00f04756a82a8ee2bda04f121772f1d4a5720bbf92edaa7846b48c889d460405160405180910390a25050565b60046020528060005260406000206000915090505481565b600160003373ffffffffffffffffffffffffffffffffffffffff1673ffffffffffffffffffffffffffffffffffffffff16815260200190815260200160002060030160149054906101000a900460ff16612d87576040517f08c379a0000000000000000000000000000000000000000000000000000000008152600401612d7e906144f8565b60405180910390fd5b60016002811115612d9b57612d9a6134bb565b5b600160003373ffffffffffffffffffffffffffffffffffffffff1673ffffffffffffffffffffffffffffffffffffffff16815260200190815260200160002060010160009054906101000a900460ff166002811115612dfd57612dfc6134bb565b5b14612e3d576040517f08c379a0000000000000000000000000000000000000000000000000000000008152600401612e3490614564565b60405180910390fd5b600160065414612e82576040517f08c379a0000000000000000000000000000000000000000000000000000000008152600401612e799061419d565b60405180910390fd5b600260068190555060006002600084815260200190815260200160002090506000816000015403612ee8576040517f08c379a0000000000000000000000000000000000000000000000000000000008152600401612edf90614209565b60405180910390fd5b3373ffffffffffffffffffffffffffffffffffffffff168160010160009054906101000a900473ffffffffffffffffffffffffffffffffffffffff1673ffffffffffffffffffffffffffffffffffffffff1614612f7a576040517f08c379a0000000000000000000000000000000000000000000000000000000008152600401612f71906145d0565b60405180910390fd5b60006005811115612f8e57612f8d6134bb565b5b8160060160009054906101000a900460ff166005811115612fb257612fb16134bb565b5b14612ff2576040517f08c379a0000000000000000000000000000000000000000000000000000000008152600401612fe9906148e4565b60405180910390fd5b6003600084815260200190815260200160002080549050821061304a576040517f08c379a000000000000000000000000000000000000000000000000000000000815260040161304190614e24565b60405180910390fd5b6000600360008581526020019081526020016000208381548110613071576130706147fd565b5b90600052602060002090600402016040518060800160405290816000820160009054906101000a900473ffffffffffffffffffffffffffffffffffffffff1673ffffffffffffffffffffffffffffffffffffffff1673ffffffffffffffffffffffffffffffffffffffff16815260200160018201548152602001600282015481526020016003820160009054906101000a900460ff16151515158152505090508060600151613155576040517f08c379a000000000000000000000000000000000000000000000000000000000815260040161314c90614e90565b60405180910390fd5b8060200151341461319b576040517f08c379a000000000000000000000000000000000000000000000000000000000815260040161319290614efc565b60405180910390fd5b34600460008681526020019081526020016000208190555034600560008282546131c59190614734565b9250508190555080600001518260060160016101000a81548173ffffffffffffffffffffffffffffffffffffffff021916908373ffffffffffffffffffffffffffffffffffffffff1602179055508060200151826007018190555060018260060160006101000a81548160ff02191690836005811115613248576132476134bb565b5b0217905550806000015173ffffffffffffffffffffffffffffffffffffffff16847f56df0a8471265defbc5fc12acd0d3697af77b77a7c9ba0137e81a1ce6d44bf52836020015160405161329c9190613615565b60405180910390a3505060016006819055505050565b7f000000000000000000000000000000000000000000000000000000000000000081565b600060646132e3836132ff565b836132ee9190614f1c565b6132f89190614f8d565b9050919050565b6000670de0b6b3a7640000821061331757600161331a565b60025b60ff169050919050565b6040518060800160405280600073ffffffffffffffffffffffffffffffffffffffff16815260200160008152602001600081526020016000151581525090565b6000604051905090565b600080fd5b600080fd5b6000819050919050565b61338b81613378565b811461339657600080fd5b50565b6000813590506133a881613382565b92915050565b6000602082840312156133c4576133c361336e565b5b60006133d284828501613399565b91505092915050565b6133e481613378565b82525050565b600073ffffffffffffffffffffffffffffffffffffffff82169050919050565b6000613415826133ea565b9050919050565b6134258161340a565b82525050565b600081519050919050565b600082825260208201905092915050565b60005b8381101561346557808201518184015260208101905061344a565b60008484015250505050565b6000601f19601f8301169050919050565b600061348d8261342b565b6134978185613436565b93506134a7818560208601613447565b6134b081613471565b840191505092915050565b7f4e487b7100000000000000000000000000000000000000000000000000000000600052602160045260246000fd5b600681106134fb576134fa6134bb565b5b50565b600081905061350c826134ea565b919050565b600061351c826134fe565b9050919050565b61352c81613511565b82525050565b60008115159050919050565b61354781613532565b82525050565b600061018082019050613563600083018f6133db565b613570602083018e61341c565b8181036040830152613582818d613482565b90508181036060830152613596818c613482565b90506135a5608083018b6133db565b6135b260a083018a6133db565b6135bf60c0830189613523565b6135cc60e083018861341c565b6135da6101008301876133db565b6135e861012083018661353e565b6135f661014083018561353e565b61360461016083018461353e565b9d9c50505050505050505050505050565b600060208201905061362a60008301846133db565b92915050565b600080fd5b600080fd5b7f4e487b7100000000000000000000000000000000000000000000000000000000600052604160045260246000fd5b61367282613471565b810181811067ffffffffffffffff821117156136915761369061363a565b5b80604052505050565b60006136a4613364565b90506136b08282613669565b919050565b600067ffffffffffffffff8211156136d0576136cf61363a565b5b6136d982613471565b9050602081019050919050565b82818337600083830152505050565b6000613708613703846136b5565b61369a565b90508281526020810184848401111561372457613723613635565b5b61372f8482856136e6565b509392505050565b600082601f83011261374c5761374b613630565b5b813561375c8482602086016136f5565b91505092915050565b6003811061377257600080fd5b50565b60008135905061378481613765565b92915050565b600080604083850312156137a1576137a061336e565b5b600083013567ffffffffffffffff8111156137bf576137be613373565b5b6137cb85828601613737565b92505060206137dc85828601613775565b9150509250929050565b6137ef81613532565b81146137fa57600080fd5b50565b60008135905061380c816137e6565b92915050565b600080604083850312156138295761382861336e565b5b600061383785828601613399565b9250506020613848858286016137fd565b9150509250929050565b600080604083850312156138695761386861336e565b5b600061387785828601613399565b925050602061388885828601613399565b9150509250929050565b61389b8161340a565b82525050565b6138aa81613378565b82525050565b6138b981613532565b82525050565b6080820160008201516138d56000850182613892565b5060208201516138e860208501826138a1565b5060408201516138fb60408501826138a1565b50606082015161390e60608501826138b0565b50505050565b600060808201905061392960008301846138bf565b92915050565b6000806000606084860312156139485761394761336e565b5b600061395686828701613399565b935050602061396786828701613399565b925050604061397886828701613399565b9150509250925092565b6000806000806080858703121561399c5761399b61336e565b5b600085013567ffffffffffffffff8111156139ba576139b9613373565b5b6139c687828801613737565b945050602085013567ffffffffffffffff8111156139e7576139e6613373565b5b6139f387828801613737565b9350506040613a0487828801613399565b9250506060613a1587828801613399565b91505092959194509250565b613a2a8161340a565b8114613a3557600080fd5b50565b600081359050613a4781613a21565b92915050565b600060208284031215613a6357613a6261336e565b5b6000613a7184828501613a38565b91505092915050565b60038110613a8b57613a8a6134bb565b5b50565b6000819050613a9c82613a7a565b919050565b6000613aac82613a8e565b9050919050565b613abc81613aa1565b82525050565b6000613acd826133ea565b9050919050565b613add81613ac2565b82525050565b600060a0820190508181036000830152613afd8188613482565b9050613b0c6020830187613ab3565b613b1960408301866133db565b613b266060830185613ad4565b613b33608083018461353e565b9695505050505050565b613b4681613ac2565b8114613b5157600080fd5b50565b600081359050613b6381613b3d565b92915050565b60008060408385031215613b8057613b7f61336e565b5b6000613b8e85828601613b54565b9250506020613b9f85828601613399565b9150509250929050565b6000602082019050613bbe600083018461341c565b92915050565b7f4e487b7100000000000000000000000000000000000000000000000000000000600052602260045260246000fd5b60006002820490506001821680613c0b57607f821691505b602082108103613c1e57613c1d613bc4565b5b50919050565b7f4e487b7100000000000000000000000000000000000000000000000000000000600052601160045260246000fd5b6000613c5e82613378565b9150613c6983613378565b9250828203905081811115613c8157613c80613c24565b5b92915050565b7f5573657220616c72656164792072656769737465726564000000000000000000600082015250565b6000613cbd601783613436565b9150613cc882613c87565b602082019050919050565b60006020820190508181036000830152613cec81613cb0565b9050919050565b7f4f6e6c79206465706c6f7965722063616e206265204172626974657200000000600082015250565b6000613d29601c83613436565b9150613d3482613cf3565b602082019050919050565b60006020820190508181036000830152613d5881613d1c565b9050919050565b7f496e76616c696420726f6c650000000000000000000000000000000000000000600082015250565b6000613d95600c83613436565b9150613da082613d5f565b602082019050919050565b60006020820190508181036000830152613dc481613d88565b9050919050565b60008190508160005260206000209050919050565b60006020601f8301049050919050565b600082821b905092915050565b600060088302613e2d7fffffffffffffffffffffffffffffffffffffffffffffffffffffffffffffffff82613df0565b613e378683613df0565b95508019841693508086168417925050509392505050565b6000819050919050565b6000613e74613e6f613e6a84613378565b613e4f565b613378565b9050919050565b6000819050919050565b613e8e83613e59565b613ea2613e9a82613e7b565b848454613dfd565b825550505050565b600090565b613eb7613eaa565b613ec2818484613e85565b505050565b5b81811015613ee657613edb600082613eaf565b600181019050613ec8565b5050565b601f821115613f2b57613efc81613dcb565b613f0584613de0565b81016020851015613f14578190505b613f28613f2085613de0565b830182613ec7565b50505b505050565b600082821c905092915050565b6000613f4e60001984600802613f30565b1980831691505092915050565b6000613f678383613f3d565b9150826002028217905092915050565b613f808261342b565b67ffffffffffffffff811115613f9957613f9861363a565b5b613fa38254613bf3565b613fae828285613eea565b600060209050601f831160018114613fe15760008415613fcf578287015190505b613fd98582613f5b565b865550614041565b601f198416613fef86613dcb565b60005b8281101561401757848901518255600182019150602085019450602081019050613ff2565b868310156140345784890151614030601f891682613f3d565b8355505b6001600288020188555050505b505050505050565b600060408201905081810360008301526140638185613482565b90506140726020830184613ab3565b9392505050565b7f4f6e6c7920617262697465720000000000000000000000000000000000000000600082015250565b60006140af600c83613436565b91506140ba82614079565b602082019050919050565b600060208201905081810360008301526140de816140a2565b9050919050565b7f41726269746572206e6f74207265676973746572656400000000000000000000600082015250565b600061411b601683613436565b9150614126826140e5565b602082019050919050565b6000602082019050818103600083015261414a8161410e565b9050919050565b7f5265656e7472616e637900000000000000000000000000000000000000000000600082015250565b6000614187600a83613436565b915061419282614151565b602082019050919050565b600060208201905081810360008301526141b68161417a565b9050919050565b7f4a6f6220646f6573206e6f742065786973740000000000000000000000000000600082015250565b60006141f3601283613436565b91506141fe826141bd565b602082019050919050565b60006020820190508181036000830152614222816141e6565b9050919050565b7f4a6f62206e6f7420646973707574656400000000000000000000000000000000600082015250565b600061425f601083613436565b915061426a82614229565b602082019050919050565b6000602082019050818103600083015261428e81614252565b9050919050565b7f457363726f77206e6f7420666f756e6400000000000000000000000000000000600082015250565b60006142cb601083613436565b91506142d682614295565b602082019050919050565b600060208201905081810360008301526142fa816142be565b9050919050565b600081905092915050565b50565b600061431c600083614301565b91506143278261430c565b600082019050919050565b600061433d8261430f565b9150819050919050565b7f5061796d656e7420746f20667265656c616e636572206661696c656400000000600082015250565b600061437d601c83613436565b915061438882614347565b602082019050919050565b600060208201905081810360008301526143ac81614370565b9050919050565b60006040820190506143c8600083018561353e565b6143d560208301846133db565b9392505050565b7f526566756e64206661696c656400000000000000000000000000000000000000600082015250565b6000614412600d83613436565b915061441d826143dc565b602082019050919050565b6000602082019050818103600083015261444181614405565b9050919050565b6000819050919050565b600061446d61446861446384614448565b613e4f565b613378565b9050919050565b61447d81614452565b82525050565b6000604082019050614498600083018561353e565b6144a56020830184614474565b9392505050565b7f4e6f742072656769737465726564000000000000000000000000000000000000600082015250565b60006144e2600e83613436565b91506144ed826144ac565b602082019050919050565b60006020820190508181036000830152614511816144d5565b9050919050565b7f4f6e6c7920636c69656e74000000000000000000000000000000000000000000600082015250565b600061454e600b83613436565b915061455982614518565b602082019050919050565b6000602082019050818103600083015261457d81614541565b9050919050565b7f4e6f7420796f7572206a6f620000000000000000000000000000000000000000600082015250565b60006145ba600c83613436565b91506145c582614584565b602082019050919050565b600060208201905081810360008301526145e9816145ad565b9050919050565b7f4a6f62206e6f7420636f6d706c65746564000000000000000000000000000000600082015250565b6000614626601183613436565b9150614631826145f0565b602082019050919050565b6000602082019050818103600083015261465581614619565b9050919050565b7f4a6f622064697370757465640000000000000000000000000000000000000000600082015250565b6000614692600c83613436565b915061469d8261465c565b602082019050919050565b600060208201905081810360008301526146c181614685565b9050919050565b7f467265656c616e636572206e6f74206d61726b656420646f6e65000000000000600082015250565b60006146fe601a83613436565b9150614709826146c8565b602082019050919050565b6000602082019050818103600083015261472d816146f1565b9050919050565b600061473f82613378565b915061474a83613378565b925082820190508082111561476257614761613c24565b5b92915050565b600060408201905061477d60008301856133db565b61478a60208301846133db565b9392505050565b7f42616420696e6465780000000000000000000000000000000000000000000000600082015250565b60006147c7600983613436565b91506147d282614791565b602082019050919050565b600060208201905081810360008301526147f6816147ba565b9050919050565b7f4e487b7100000000000000000000000000000000000000000000000000000000600052603260045260246000fd5b7f4f6e6c7920667265656c616e6365720000000000000000000000000000000000600082015250565b6000614862600f83613436565b915061486d8261482c565b602082019050919050565b6000602082019050818103600083015261489181614855565b9050919050565b7f4a6f62206e6f74206f70656e0000000000000000000000000000000000000000600082015250565b60006148ce600c83613436565b91506148d982614898565b602082019050919050565b600060208201905081810360008301526148fd816148c1565b9050919050565b7f426964206d757374206265203e20300000000000000000000000000000000000600082015250565b600061493a600f83613436565b915061494582614904565b602082019050919050565b600060208201905081810360008301526149698161492d565b9050919050565b7f4269642065786365656473206275646765740000000000000000000000000000600082015250565b60006149a6601283613436565b91506149b182614970565b602082019050919050565b600060208201905081810360008301526149d581614999565b9050919050565b7f52657075746174696f6e20746f6f206c6f770000000000000000000000000000600082015250565b6000614a12601283613436565b9150614a1d826149dc565b602082019050919050565b60006020820190508181036000830152614a4181614a05565b9050919050565b7f427564676574206d757374206265203e20300000000000000000000000000000600082015250565b6000614a7e601283613436565b9150614a8982614a48565b602082019050919050565b60006020820190508181036000830152614aad81614a71565b9050919050565b7f446561646c696e65206d75737420626520667574757265000000000000000000600082015250565b6000614aea601783613436565b9150614af582614ab4565b602082019050919050565b60006020820190508181036000830152614b1981614add565b9050919050565b60006040820190508181036000830152614b3a8185613482565b9050614b4960208301846133db565b9392505050565b7f43616e6e6f742064697370757465206e6f770000000000000000000000000000600082015250565b6000614b86601283613436565b9150614b9182614b50565b602082019050919050565b60006020820190508181036000830152614bb581614b79565b9050919050565b7f416c726561647920646973707574656400000000000000000000000000000000600082015250565b6000614bf2601083613436565b9150614bfd82614bbc565b602082019050919050565b60006020820190508181036000830152614c2181614be5565b9050919050565b7f416d6f756e742065786365656473206665657300000000000000000000000000600082015250565b6000614c5e601383613436565b9150614c6982614c28565b602082019050919050565b60006020820190508181036000830152614c8d81614c51565b9050919050565b7f5769746864726177206661696c65640000000000000000000000000000000000600082015250565b6000614cca600f83613436565b9150614cd582614c94565b602082019050919050565b60006020820190508181036000830152614cf981614cbd565b9050919050565b7f4a6f62206e6f7420696e2070726f677265737300000000000000000000000000600082015250565b6000614d36601383613436565b9150614d4182614d00565b602082019050919050565b60006020820190508181036000830152614d6581614d29565b9050919050565b7f4e6f742068697265640000000000000000000000000000000000000000000000600082015250565b6000614da2600983613436565b9150614dad82614d6c565b602082019050919050565b60006020820190508181036000830152614dd181614d95565b9050919050565b7f496e76616c69642062696420696e646578000000000000000000000000000000600082015250565b6000614e0e601183613436565b9150614e1982614dd8565b602082019050919050565b60006020820190508181036000830152614e3d81614e01565b9050919050565b7f426964206e6f7420666f756e6400000000000000000000000000000000000000600082015250565b6000614e7a600d83613436565b9150614e8582614e44565b602082019050919050565b60006020820190508181036000830152614ea981614e6d565b9050919050565b7f4574686572206d757374206d6174636820626964000000000000000000000000600082015250565b6000614ee6601483613436565b9150614ef182614eb0565b602082019050919050565b60006020820190508181036000830152614f1581614ed9565b9050919050565b6000614f2782613378565b9150614f3283613378565b9250828202614f4081613378565b91508282048414831517614f5757614f56613c24565b5b5092915050565b7f4e487b7100000000000000000000000000000000000000000000000000000000600052601260045260246000fd5b6000614f9882613378565b9150614fa383613378565b925082614fb357614fb2614f5e565b5b82820490509291505056fea264697066735822122009f3762be1cb9ca71a11370ccf89bb58b701ddb8cf1a65d74ffa0f85ca19e7ac64736f6c634300081e0033",
					"opcodes": "PUSH1 0xA0 PUSH1 0x40 MSTORE PUSH1 0x1 PUSH1 0x6 SSTORE CALLVALUE DUP1 ISZERO PUSH1 0x14 JUMPI PUSH1 0x0 DUP1 REVERT JUMPDEST POP CALLER PUSH20 0xFFFFFFFFFFFFFFFFFFFFFFFFFFFFFFFFFFFFFFFF AND PUSH1 0x80 DUP2 PUSH20 0xFFFFFFFFFFFFFFFFFFFFFFFFFFFFFFFFFFFFFFFF AND DUP2 MSTORE POP POP PUSH1 0x80 MLOAD PUSH2 0x4FF4 PUSH2 0x79 PUSH1 0x0 CODECOPY PUSH1 0x0 DUP2 DUP2 PUSH2 0x715 ADD MSTORE DUP2 DUP2 PUSH2 0xA10 ADD MSTORE DUP2 DUP2 PUSH2 0x2675 ADD MSTORE PUSH2 0x32B4 ADD MSTORE PUSH2 0x4FF4 PUSH1 0x0 RETURN INVALID PUSH1 0x80 PUSH1 0x40 MSTORE PUSH1 0x4 CALLDATASIZE LT PUSH2 0x109 JUMPI PUSH1 0x0 CALLDATALOAD PUSH1 0xE0 SHR DUP1 PUSH4 0x71BF6BED GT PUSH2 0x95 JUMPI DUP1 PUSH4 0xAD3B1B47 GT PUSH2 0x64 JUMPI DUP1 PUSH4 0xAD3B1B47 EQ PUSH2 0x388 JUMPI DUP1 PUSH4 0xCAC5C512 EQ PUSH2 0x3B1 JUMPI DUP1 PUSH4 0xD68FF191 EQ PUSH2 0x3DA JUMPI DUP1 PUSH4 0xF73B60A9 EQ PUSH2 0x417 JUMPI DUP1 PUSH4 0xFE25E00A EQ PUSH2 0x433 JUMPI PUSH2 0x109 JUMP JUMPDEST DUP1 PUSH4 0x71BF6BED EQ PUSH2 0x2B8 JUMPI DUP1 PUSH4 0x744D3411 EQ PUSH2 0x2E1 JUMPI DUP1 PUSH4 0xA5C1674E EQ PUSH2 0x31E JUMPI DUP1 PUSH4 0xA87430BA EQ PUSH2 0x347 JUMPI PUSH2 0x109 JUMP JUMPDEST DUP1 PUSH4 0x3D01E0FA GT PUSH2 0xDC JUMPI DUP1 PUSH4 0x3D01E0FA EQ PUSH2 0x1D3 JUMPI DUP1 PUSH4 0x50355D76 EQ PUSH2 0x1FC JUMPI DUP1 PUSH4 0x582C7FFD EQ PUSH2 0x227 JUMPI DUP1 PUSH4 0x5E62BE25 EQ PUSH2 0x264 JUMPI DUP1 PUSH4 0x6E331B68 EQ PUSH2 0x28D JUMPI PUSH2 0x109 JUMP JUMPDEST DUP1 PUSH4 0x180AEDF3 EQ PUSH2 0x10E JUMPI DUP1 PUSH4 0x289A74C9 EQ PUSH2 0x156 JUMPI DUP1 PUSH4 0x338E12EB EQ PUSH2 0x181 JUMPI DUP1 PUSH4 0x34B25EE2 EQ PUSH2 0x1AA JUMPI JUMPDEST PUSH1 0x0 DUP1 REVERT JUMPDEST CALLVALUE DUP1 ISZERO PUSH2 0x11A JUMPI PUSH1 0x0 DUP1 REVERT JUMPDEST POP PUSH2 0x135 PUSH1 0x4 DUP1 CALLDATASIZE SUB DUP2 ADD SWAP1 PUSH2 0x130 SWAP2 SWAP1 PUSH2 0x33AE JUMP JUMPDEST PUSH2 0x45E JUMP JUMPDEST PUSH1 0x40 MLOAD PUSH2 0x14D SWAP13 SWAP12 SWAP11 SWAP10 SWAP9 SWAP8 SWAP7 SWAP6 SWAP5 SWAP4 SWAP3 SWAP2 SWAP1 PUSH2 0x354D JUMP JUMPDEST PUSH1 0x40 MLOAD DUP1 SWAP2 SUB SWAP1 RETURN JUMPDEST CALLVALUE DUP1 ISZERO PUSH2 0x162 JUMPI PUSH1 0x0 DUP1 REVERT JUMPDEST POP PUSH2 0x16B PUSH2 0x642 JUMP JUMPDEST PUSH1 0x40 MLOAD PUSH2 0x178 SWAP2 SWAP1 PUSH2 0x3615 JUMP JUMPDEST PUSH1 0x40 MLOAD DUP1 SWAP2 SUB SWAP1 RETURN JUMPDEST CALLVALUE DUP1 ISZERO PUSH2 0x18D JUMPI PUSH1 0x0 DUP1 REVERT JUMPDEST POP PUSH2 0x1A8 PUSH1 0x4 DUP1 CALLDATASIZE SUB DUP2 ADD SWAP1 PUSH2 0x1A3 SWAP2 SWAP1 PUSH2 0x378A JUMP JUMPDEST PUSH2 0x657 JUMP JUMPDEST STOP JUMPDEST CALLVALUE DUP1 ISZERO PUSH2 0x1B6 JUMPI PUSH1 0x0 DUP1 REVERT JUMPDEST POP PUSH2 0x1D1 PUSH1 0x4 DUP1 CALLDATASIZE SUB DUP2 ADD SWAP1 PUSH2 0x1CC SWAP2 SWAP1 PUSH2 0x3812 JUMP JUMPDEST PUSH2 0xA0E JUMP JUMPDEST STOP JUMPDEST CALLVALUE DUP1 ISZERO PUSH2 0x1DF JUMPI PUSH1 0x0 DUP1 REVERT JUMPDEST POP PUSH2 0x1FA PUSH1 0x4 DUP1 CALLDATASIZE SUB DUP2 ADD SWAP1 PUSH2 0x1F5 SWAP2 SWAP1 PUSH2 0x33AE JUMP JUMPDEST PUSH2 0x10FB JUMP JUMPDEST STOP JUMPDEST CALLVALUE DUP1 ISZERO PUSH2 0x208 JUMPI PUSH1 0x0 DUP1 REVERT JUMPDEST POP PUSH2 0x211 PUSH2 0x178F JUMP JUMPDEST PUSH1 0x40 MLOAD PUSH2 0x21E SWAP2 SWAP1 PUSH2 0x3615 JUMP JUMPDEST PUSH1 0x40 MLOAD DUP1 SWAP2 SUB SWAP1 RETURN JUMPDEST CALLVALUE DUP1 ISZERO PUSH2 0x233 JUMPI PUSH1 0x0 DUP1 REVERT JUMPDEST POP PUSH2 0x24E PUSH1 0x4 DUP1 CALLDATASIZE SUB DUP2 ADD SWAP1 PUSH2 0x249 SWAP2 SWAP1 PUSH2 0x3852 JUMP JUMPDEST PUSH2 0x1795 JUMP JUMPDEST PUSH1 0x40 MLOAD PUSH2 0x25B SWAP2 SWAP1 PUSH2 0x3914 JUMP JUMPDEST PUSH1 0x40 MLOAD DUP1 SWAP2 SUB SWAP1 RETURN JUMPDEST CALLVALUE DUP1 ISZERO PUSH2 0x270 JUMPI PUSH1 0x0 DUP1 REVERT JUMPDEST POP PUSH2 0x28B PUSH1 0x4 DUP1 CALLDATASIZE SUB DUP2 ADD SWAP1 PUSH2 0x286 SWAP2 SWAP1 PUSH2 0x392F JUMP JUMPDEST PUSH2 0x18C0 JUMP JUMPDEST STOP JUMPDEST CALLVALUE DUP1 ISZERO PUSH2 0x299 JUMPI PUSH1 0x0 DUP1 REVERT JUMPDEST POP PUSH2 0x2A2 PUSH2 0x1D32 JUMP JUMPDEST PUSH1 0x40 MLOAD PUSH2 0x2AF SWAP2 SWAP1 PUSH2 0x3615 JUMP JUMPDEST PUSH1 0x40 MLOAD DUP1 SWAP2 SUB SWAP1 RETURN JUMPDEST CALLVALUE DUP1 ISZERO PUSH2 0x2C4 JUMPI PUSH1 0x0 DUP1 REVERT JUMPDEST POP PUSH2 0x2DF PUSH1 0x4 DUP1 CALLDATASIZE SUB DUP2 ADD SWAP1 PUSH2 0x2DA SWAP2 SWAP1 PUSH2 0x3982 JUMP JUMPDEST PUSH2 0x1D38 JUMP JUMPDEST STOP JUMPDEST CALLVALUE DUP1 ISZERO PUSH2 0x2ED JUMPI PUSH1 0x0 DUP1 REVERT JUMPDEST POP PUSH2 0x308 PUSH1 0x4 DUP1 CALLDATASIZE SUB DUP2 ADD SWAP1 PUSH2 0x303 SWAP2 SWAP1 PUSH2 0x33AE JUMP JUMPDEST PUSH2 0x21A1 JUMP JUMPDEST PUSH1 0x40 MLOAD PUSH2 0x315 SWAP2 SWAP1 PUSH2 0x3615 JUMP JUMPDEST PUSH1 0x40 MLOAD DUP1 SWAP2 SUB SWAP1 RETURN JUMPDEST CALLVALUE DUP1 ISZERO PUSH2 0x32A JUMPI PUSH1 0x0 DUP1 REVERT JUMPDEST POP PUSH2 0x345 PUSH1 0x4 DUP1 CALLDATASIZE SUB DUP2 ADD SWAP1 PUSH2 0x340 SWAP2 SWAP1 PUSH2 0x33AE JUMP JUMPDEST PUSH2 0x21C1 JUMP JUMPDEST STOP JUMPDEST CALLVALUE DUP1 ISZERO PUSH2 0x353 JUMPI PUSH1 0x0 DUP1 REVERT JUMPDEST POP PUSH2 0x36E PUSH1 0x4 DUP1 CALLDATASIZE SUB DUP2 ADD SWAP1 PUSH2 0x369 SWAP2 SWAP1 PUSH2 0x3A4D JUMP JUMPDEST PUSH2 0x257B JUMP JUMPDEST PUSH1 0x40 MLOAD PUSH2 0x37F SWAP6 SWAP5 SWAP4 SWAP3 SWAP2 SWAP1 PUSH2 0x3AE3 JUMP JUMPDEST PUSH1 0x40 MLOAD DUP1 SWAP2 SUB SWAP1 RETURN JUMPDEST CALLVALUE DUP1 ISZERO PUSH2 0x394 JUMPI PUSH1 0x0 DUP1 REVERT JUMPDEST POP PUSH2 0x3AF PUSH1 0x4 DUP1 CALLDATASIZE SUB DUP2 ADD SWAP1 PUSH2 0x3AA SWAP2 SWAP1 PUSH2 0x3B69 JUMP JUMPDEST PUSH2 0x2673 JUMP JUMPDEST STOP JUMPDEST CALLVALUE DUP1 ISZERO PUSH2 0x3BD JUMPI PUSH1 0x0 DUP1 REVERT JUMPDEST POP PUSH2 0x3D8 PUSH1 0x4 DUP1 CALLDATASIZE SUB DUP2 ADD SWAP1 PUSH2 0x3D3 SWAP2 SWAP1 PUSH2 0x33AE JUMP JUMPDEST PUSH2 0x29B9 JUMP JUMPDEST STOP JUMPDEST CALLVALUE DUP1 ISZERO PUSH2 0x3E6 JUMPI PUSH1 0x0 DUP1 REVERT JUMPDEST POP PUSH2 0x401 PUSH1 0x4 DUP1 CALLDATASIZE SUB DUP2 ADD SWAP1 PUSH2 0x3FC SWAP2 SWAP1 PUSH2 0x33AE JUMP JUMPDEST PUSH2 0x2CE0 JUMP JUMPDEST PUSH1 0x40 MLOAD PUSH2 0x40E SWAP2 SWAP1 PUSH2 0x3615 JUMP JUMPDEST PUSH1 0x40 MLOAD DUP1 SWAP2 SUB SWAP1 RETURN JUMPDEST PUSH2 0x431 PUSH1 0x4 DUP1 CALLDATASIZE SUB DUP2 ADD SWAP1 PUSH2 0x42C SWAP2 SWAP1 PUSH2 0x3852 JUMP JUMPDEST PUSH2 0x2CF8 JUMP JUMPDEST STOP JUMPDEST CALLVALUE DUP1 ISZERO PUSH2 0x43F JUMPI PUSH1 0x0 DUP1 REVERT JUMPDEST POP PUSH2 0x448 PUSH2 0x32B2 JUMP JUMPDEST PUSH1 0x40 MLOAD PUSH2 0x455 SWAP2 SWAP1 PUSH2 0x3BA9 JUMP JUMPDEST PUSH1 0x40 MLOAD DUP1 SWAP2 SUB SWAP1 RETURN JUMPDEST PUSH1 0x2 PUSH1 0x20 MSTORE DUP1 PUSH1 0x0 MSTORE PUSH1 0x40 PUSH1 0x0 KECCAK256 PUSH1 0x0 SWAP2 POP SWAP1 POP DUP1 PUSH1 0x0 ADD SLOAD SWAP1 DUP1 PUSH1 0x1 ADD PUSH1 0x0 SWAP1 SLOAD SWAP1 PUSH2 0x100 EXP SWAP1 DIV PUSH20 0xFFFFFFFFFFFFFFFFFFFFFFFFFFFFFFFFFFFFFFFF AND SWAP1 DUP1 PUSH1 0x2 ADD DUP1 SLOAD PUSH2 0x4AD SWAP1 PUSH2 0x3BF3 JUMP JUMPDEST DUP1 PUSH1 0x1F ADD PUSH1 0x20 DUP1 SWAP2 DIV MUL PUSH1 0x20 ADD PUSH1 0x40 MLOAD SWAP1 DUP2 ADD PUSH1 0x40 MSTORE DUP1 SWAP3 SWAP2 SWAP1 DUP2 DUP2 MSTORE PUSH1 0x20 ADD DUP3 DUP1 SLOAD PUSH2 0x4D9 SWAP1 PUSH2 0x3BF3 JUMP JUMPDEST DUP1 ISZERO PUSH2 0x526 JUMPI DUP1 PUSH1 0x1F LT PUSH2 0x4FB JUMPI PUSH2 0x100 DUP1 DUP4 SLOAD DIV MUL DUP4 MSTORE SWAP2 PUSH1 0x20 ADD SWAP2 PUSH2 0x526 JUMP JUMPDEST DUP3 ADD SWAP2 SWAP1 PUSH1 0x0 MSTORE PUSH1 0x20 PUSH1 0x0 KECCAK256 SWAP1 JUMPDEST DUP2 SLOAD DUP2 MSTORE SWAP1 PUSH1 0x1 ADD SWAP1 PUSH1 0x20 ADD DUP1 DUP4 GT PUSH2 0x509 JUMPI DUP3 SWAP1 SUB PUSH1 0x1F AND DUP3 ADD SWAP2 JUMPDEST POP POP POP POP POP SWAP1 DUP1 PUSH1 0x3 ADD DUP1 SLOAD PUSH2 0x53B SWAP1 PUSH2 0x3BF3 JUMP JUMPDEST DUP1 PUSH1 0x1F ADD PUSH1 0x20 DUP1 SWAP2 DIV MUL PUSH1 0x20 ADD PUSH1 0x40 MLOAD SWAP1 DUP2 ADD PUSH1 0x40 MSTORE DUP1 SWAP3 SWAP2 SWAP1 DUP2 DUP2 MSTORE PUSH1 0x20 ADD DUP3 DUP1 SLOAD PUSH2 0x567 SWAP1 PUSH2 0x3BF3 JUMP JUMPDEST DUP1 ISZERO PUSH2 0x5B4 JUMPI DUP1 PUSH1 0x1F LT PUSH2 0x589 JUMPI PUSH2 0x100 DUP1 DUP4 SLOAD DIV MUL DUP4 MSTORE SWAP2 PUSH1 0x20 ADD SWAP2 PUSH2 0x5B4 JUMP JUMPDEST DUP3 ADD SWAP2 SWAP1 PUSH1 0x0 MSTORE PUSH1 0x20 PUSH1 0x0 KECCAK256 SWAP1 JUMPDEST DUP2 SLOAD DUP2 MSTORE SWAP1 PUSH1 0x1 ADD SWAP1 PUSH1 0x20 ADD DUP1 DUP4 GT PUSH2 0x597 JUMPI DUP3 SWAP1 SUB PUSH1 0x1F AND DUP3 ADD SWAP2 JUMPDEST POP POP POP POP POP SWAP1 DUP1 PUSH1 0x4 ADD SLOAD SWAP1 DUP1 PUSH1 0x5 ADD SLOAD SWAP1 DUP1 PUSH1 0x6 ADD PUSH1 0x0 SWAP1 SLOAD SWAP1 PUSH2 0x100 EXP SWAP1 DIV PUSH1 0xFF AND SWAP1 DUP1 PUSH1 0x6 ADD PUSH1 0x1 SWAP1 SLOAD SWAP1 PUSH2 0x100 EXP SWAP1 DIV PUSH20 0xFFFFFFFFFFFFFFFFFFFFFFFFFFFFFFFFFFFFFFFF AND SWAP1 DUP1 PUSH1 0x7 ADD SLOAD SWAP1 DUP1 PUSH1 0x8 ADD PUSH1 0x0 SWAP1 SLOAD SWAP1 PUSH2 0x100 EXP SWAP1 DIV PUSH1 0xFF AND SWAP1 DUP1 PUSH1 0x8 ADD PUSH1 0x1 SWAP1 SLOAD SWAP1 PUSH2 0x100 EXP SWAP1 DIV PUSH1 0xFF AND SWAP1 DUP1 PUSH1 0x8 ADD PUSH1 0x2 SWAP1 SLOAD SWAP1 PUSH2 0x100 EXP SWAP1 DIV PUSH1 0xFF AND SWAP1 POP DUP13 JUMP JUMPDEST PUSH1 0x0 PUSH1 0x5 SLOAD SELFBALANCE PUSH2 0x652 SWAP2 SWAP1 PUSH2 0x3C53 JUMP JUMPDEST SWAP1 POP SWAP1 JUMP JUMPDEST PUSH1 0x1 PUSH1 0x0 CALLER PUSH20 0xFFFFFFFFFFFFFFFFFFFFFFFFFFFFFFFFFFFFFFFF AND PUSH20 0xFFFFFFFFFFFFFFFFFFFFFFFFFFFFFFFFFFFFFFFF AND DUP2 MSTORE PUSH1 0x20 ADD SWAP1 DUP2 MSTORE PUSH1 0x20 ADD PUSH1 0x0 KECCAK256 PUSH1 0x3 ADD PUSH1 0x14 SWAP1 SLOAD SWAP1 PUSH2 0x100 EXP SWAP1 DIV PUSH1 0xFF AND ISZERO PUSH2 0x6E7 JUMPI PUSH1 0x40 MLOAD PUSH32 0x8C379A000000000000000000000000000000000000000000000000000000000 DUP2 MSTORE PUSH1 0x4 ADD PUSH2 0x6DE SWAP1 PUSH2 0x3CD3 JUMP JUMPDEST PUSH1 0x40 MLOAD DUP1 SWAP2 SUB SWAP1 REVERT JUMPDEST PUSH1 0x0 PUSH1 0x2 DUP2 GT ISZERO PUSH2 0x6FB JUMPI PUSH2 0x6FA PUSH2 0x34BB JUMP JUMPDEST JUMPDEST DUP2 PUSH1 0x2 DUP2 GT ISZERO PUSH2 0x70E JUMPI PUSH2 0x70D PUSH2 0x34BB JUMP JUMPDEST JUMPDEST SUB PUSH2 0x7A6 JUMPI PUSH32 0x0 PUSH20 0xFFFFFFFFFFFFFFFFFFFFFFFFFFFFFFFFFFFFFFFF AND CALLER PUSH20 0xFFFFFFFFFFFFFFFFFFFFFFFFFFFFFFFFFFFFFFFF AND EQ PUSH2 0x7A1 JUMPI PUSH1 0x40 MLOAD PUSH32 0x8C379A000000000000000000000000000000000000000000000000000000000 DUP2 MSTORE PUSH1 0x4 ADD PUSH2 0x798 SWAP1 PUSH2 0x3D3F JUMP JUMPDEST PUSH1 0x40 MLOAD DUP1 SWAP2 SUB SWAP1 REVERT JUMPDEST PUSH2 0x83C JUMP JUMPDEST PUSH1 0x1 PUSH1 0x2 DUP2 GT ISZERO PUSH2 0x7BA JUMPI PUSH2 0x7B9 PUSH2 0x34BB JUMP JUMPDEST JUMPDEST DUP2 PUSH1 0x2 DUP2 GT ISZERO PUSH2 0x7CD JUMPI PUSH2 0x7CC PUSH2 0x34BB JUMP JUMPDEST JUMPDEST EQ DUP1 PUSH2 0x7FC JUMPI POP PUSH1 0x2 DUP1 DUP2 GT ISZERO PUSH2 0x7E7 JUMPI PUSH2 0x7E6 PUSH2 0x34BB JUMP JUMPDEST JUMPDEST DUP2 PUSH1 0x2 DUP2 GT ISZERO PUSH2 0x7FA JUMPI PUSH2 0x7F9 PUSH2 0x34BB JUMP JUMPDEST JUMPDEST EQ JUMPDEST PUSH2 0x83B JUMPI PUSH1 0x40 MLOAD PUSH32 0x8C379A000000000000000000000000000000000000000000000000000000000 DUP2 MSTORE PUSH1 0x4 ADD PUSH2 0x832 SWAP1 PUSH2 0x3DAB JUMP JUMPDEST PUSH1 0x40 MLOAD DUP1 SWAP2 SUB SWAP1 REVERT JUMPDEST JUMPDEST PUSH1 0x0 PUSH1 0x2 DUP1 DUP2 GT ISZERO PUSH2 0x851 JUMPI PUSH2 0x850 PUSH2 0x34BB JUMP JUMPDEST JUMPDEST DUP3 PUSH1 0x2 DUP2 GT ISZERO PUSH2 0x864 JUMPI PUSH2 0x863 PUSH2 0x34BB JUMP JUMPDEST JUMPDEST SUB PUSH2 0x86E JUMPI PUSH1 0x64 SWAP1 POP JUMPDEST PUSH1 0x40 MLOAD DUP1 PUSH1 0xA0 ADD PUSH1 0x40 MSTORE DUP1 DUP5 DUP2 MSTORE PUSH1 0x20 ADD DUP4 PUSH1 0x2 DUP2 GT ISZERO PUSH2 0x892 JUMPI PUSH2 0x891 PUSH2 0x34BB JUMP JUMPDEST JUMPDEST DUP2 MSTORE PUSH1 0x20 ADD DUP3 DUP2 MSTORE PUSH1 0x20 ADD CALLER PUSH20 0xFFFFFFFFFFFFFFFFFFFFFFFFFFFFFFFFFFFFFFFF AND DUP2 MSTORE PUSH1 0x20 ADD PUSH1 0x1 ISZERO ISZERO DUP2 MSTORE POP PUSH1 0x1 PUSH1 0x0 CALLER PUSH20 0xFFFFFFFFFFFFFFFFFFFFFFFFFFFFFFFFFFFFFFFF AND PUSH20 0xFFFFFFFFFFFFFFFFFFFFFFFFFFFFFFFFFFFFFFFF AND DUP2 MSTORE PUSH1 0x20 ADD SWAP1 DUP2 MSTORE PUSH1 0x20 ADD PUSH1 0x0 KECCAK256 PUSH1 0x0 DUP3 ADD MLOAD DUP2 PUSH1 0x0 ADD SWAP1 DUP2 PUSH2 0x914 SWAP2 SWAP1 PUSH2 0x3F77 JUMP JUMPDEST POP PUSH1 0x20 DUP3 ADD MLOAD DUP2 PUSH1 0x1 ADD PUSH1 0x0 PUSH2 0x100 EXP DUP2 SLOAD DUP2 PUSH1 0xFF MUL NOT AND SWAP1 DUP4 PUSH1 0x2 DUP2 GT ISZERO PUSH2 0x940 JUMPI PUSH2 0x93F PUSH2 0x34BB JUMP JUMPDEST JUMPDEST MUL OR SWAP1 SSTORE POP PUSH1 0x40 DUP3 ADD MLOAD DUP2 PUSH1 0x2 ADD SSTORE PUSH1 0x60 DUP3 ADD MLOAD DUP2 PUSH1 0x3 ADD PUSH1 0x0 PUSH2 0x100 EXP DUP2 SLOAD DUP2 PUSH20 0xFFFFFFFFFFFFFFFFFFFFFFFFFFFFFFFFFFFFFFFF MUL NOT AND SWAP1 DUP4 PUSH20 0xFFFFFFFFFFFFFFFFFFFFFFFFFFFFFFFFFFFFFFFF AND MUL OR SWAP1 SSTORE POP PUSH1 0x80 DUP3 ADD MLOAD DUP2 PUSH1 0x3 ADD PUSH1 0x14 PUSH2 0x100 EXP DUP2 SLOAD DUP2 PUSH1 0xFF MUL NOT AND SWAP1 DUP4 ISZERO ISZERO MUL OR SWAP1 SSTORE POP SWAP1 POP POP CALLER PUSH20 0xFFFFFFFFFFFFFFFFFFFFFFFFFFFFFFFFFFFFFFFF AND PUSH32 0xC2E5D5DA58BD71D1A2D14CDEF02A4256D971B728088F8190D067CCFBAE3BD73E DUP5 DUP5 PUSH1 0x40 MLOAD PUSH2 0xA01 SWAP3 SWAP2 SWAP1 PUSH2 0x4049 JUMP JUMPDEST PUSH1 0x40 MLOAD DUP1 SWAP2 SUB SWAP1 LOG2 POP POP POP JUMP JUMPDEST PUSH32 0x0 PUSH20 0xFFFFFFFFFFFFFFFFFFFFFFFFFFFFFFFFFFFFFFFF AND CALLER PUSH20 0xFFFFFFFFFFFFFFFFFFFFFFFFFFFFFFFFFFFFFFFF AND EQ PUSH2 0xA9C JUMPI PUSH1 0x40 MLOAD PUSH32 0x8C379A000000000000000000000000000000000000000000000000000000000 DUP2 MSTORE PUSH1 0x4 ADD PUSH2 0xA93 SWAP1 PUSH2 0x40C5 JUMP JUMPDEST PUSH1 0x40 MLOAD DUP1 SWAP2 SUB SWAP1 REVERT JUMPDEST PUSH1 0x1 PUSH1 0x0 CALLER PUSH20 0xFFFFFFFFFFFFFFFFFFFFFFFFFFFFFFFFFFFFFFFF AND PUSH20 0xFFFFFFFFFFFFFFFFFFFFFFFFFFFFFFFFFFFFFFFF AND DUP2 MSTORE PUSH1 0x20 ADD SWAP1 DUP2 MSTORE PUSH1 0x20 ADD PUSH1 0x0 KECCAK256 PUSH1 0x3 ADD PUSH1 0x14 SWAP1 SLOAD SWAP1 PUSH2 0x100 EXP SWAP1 DIV PUSH1 0xFF AND DUP1 ISZERO PUSH2 0xB6B JUMPI POP PUSH1 0x0 PUSH1 0x2 DUP2 GT ISZERO PUSH2 0xB07 JUMPI PUSH2 0xB06 PUSH2 0x34BB JUMP JUMPDEST JUMPDEST PUSH1 0x1 PUSH1 0x0 CALLER PUSH20 0xFFFFFFFFFFFFFFFFFFFFFFFFFFFFFFFFFFFFFFFF AND PUSH20 0xFFFFFFFFFFFFFFFFFFFFFFFFFFFFFFFFFFFFFFFF AND DUP2 MSTORE PUSH1 0x20 ADD SWAP1 DUP2 MSTORE PUSH1 0x20 ADD PUSH1 0x0 KECCAK256 PUSH1 0x1 ADD PUSH1 0x0 SWAP1 SLOAD SWAP1 PUSH2 0x100 EXP SWAP1 DIV PUSH1 0xFF AND PUSH1 0x2 DUP2 GT ISZERO PUSH2 0xB69 JUMPI PUSH2 0xB68 PUSH2 0x34BB JUMP JUMPDEST JUMPDEST EQ JUMPDEST PUSH2 0xBAA JUMPI PUSH1 0x40 MLOAD PUSH32 0x8C379A000000000000000000000000000000000000000000000000000000000 DUP2 MSTORE PUSH1 0x4 ADD PUSH2 0xBA1 SWAP1 PUSH2 0x4131 JUMP JUMPDEST PUSH1 0x40 MLOAD DUP1 SWAP2 SUB SWAP1 REVERT JUMPDEST PUSH1 0x1 PUSH1 0x6 SLOAD EQ PUSH2 0xBEF JUMPI PUSH1 0x40 MLOAD PUSH32 0x8C379A000000000000000000000000000000000000000000000000000000000 DUP2 MSTORE PUSH1 0x4 ADD PUSH2 0xBE6 SWAP1 PUSH2 0x419D JUMP JUMPDEST PUSH1 0x40 MLOAD DUP1 SWAP2 SUB SWAP1 REVERT JUMPDEST PUSH1 0x2 PUSH1 0x6 DUP2 SWAP1 SSTORE POP PUSH1 0x0 PUSH1 0x2 PUSH1 0x0 DUP5 DUP2 MSTORE PUSH1 0x20 ADD SWAP1 DUP2 MSTORE PUSH1 0x20 ADD PUSH1 0x0 KECCAK256 SWAP1 POP PUSH1 0x0 DUP2 PUSH1 0x0 ADD SLOAD SUB PUSH2 0xC55 JUMPI PUSH1 0x40 MLOAD PUSH32 0x8C379A000000000000000000000000000000000000000000000000000000000 DUP2 MSTORE PUSH1 0x4 ADD PUSH2 0xC4C SWAP1 PUSH2 0x4209 JUMP JUMPDEST PUSH1 0x40 MLOAD DUP1 SWAP2 SUB SWAP1 REVERT JUMPDEST PUSH1 0x4 PUSH1 0x5 DUP2 GT ISZERO PUSH2 0xC69 JUMPI PUSH2 0xC68 PUSH2 0x34BB JUMP JUMPDEST JUMPDEST DUP2 PUSH1 0x6 ADD PUSH1 0x0 SWAP1 SLOAD SWAP1 PUSH2 0x100 EXP SWAP1 DIV PUSH1 0xFF AND PUSH1 0x5 DUP2 GT ISZERO PUSH2 0xC8D JUMPI PUSH2 0xC8C PUSH2 0x34BB JUMP JUMPDEST JUMPDEST EQ PUSH2 0xCCD JUMPI PUSH1 0x40 MLOAD PUSH32 0x8C379A000000000000000000000000000000000000000000000000000000000 DUP2 MSTORE PUSH1 0x4 ADD PUSH2 0xCC4 SWAP1 PUSH2 0x4275 JUMP JUMPDEST PUSH1 0x40 MLOAD DUP1 SWAP2 SUB SWAP1 REVERT JUMPDEST PUSH1 0x0 DUP2 PUSH1 0x7 ADD SLOAD SWAP1 POP DUP1 PUSH1 0x4 PUSH1 0x0 DUP7 DUP2 MSTORE PUSH1 0x20 ADD SWAP1 DUP2 MSTORE PUSH1 0x20 ADD PUSH1 0x0 KECCAK256 SLOAD EQ PUSH2 0xD2B JUMPI PUSH1 0x40 MLOAD PUSH32 0x8C379A000000000000000000000000000000000000000000000000000000000 DUP2 MSTORE PUSH1 0x4 ADD PUSH2 0xD22 SWAP1 PUSH2 0x42E1 JUMP JUMPDEST PUSH1 0x40 MLOAD DUP1 SWAP2 SUB SWAP1 REVERT JUMPDEST PUSH1 0x0 DUP3 PUSH1 0x1 ADD PUSH1 0x0 SWAP1 SLOAD SWAP1 PUSH2 0x100 EXP SWAP1 DIV PUSH20 0xFFFFFFFFFFFFFFFFFFFFFFFFFFFFFFFFFFFFFFFF AND SWAP1 POP PUSH1 0x0 DUP4 PUSH1 0x6 ADD PUSH1 0x1 SWAP1 SLOAD SWAP1 PUSH2 0x100 EXP SWAP1 DIV PUSH20 0xFFFFFFFFFFFFFFFFFFFFFFFFFFFFFFFFFFFFFFFF AND SWAP1 POP PUSH1 0x0 PUSH1 0x1 PUSH1 0x0 DUP4 PUSH20 0xFFFFFFFFFFFFFFFFFFFFFFFFFFFFFFFFFFFFFFFF AND PUSH20 0xFFFFFFFFFFFFFFFFFFFFFFFFFFFFFFFFFFFFFFFF AND DUP2 MSTORE PUSH1 0x20 ADD SWAP1 DUP2 MSTORE PUSH1 0x20 ADD PUSH1 0x0 KECCAK256 PUSH1 0x3 ADD PUSH1 0x0 SWAP1 SLOAD SWAP1 PUSH2 0x100 EXP SWAP1 DIV PUSH20 0xFFFFFFFFFFFFFFFFFFFFFFFFFFFFFFFFFFFFFFFF AND SWAP1 POP PUSH1 0x0 PUSH1 0x5 DUP7 PUSH1 0x6 ADD PUSH1 0x0 PUSH2 0x100 EXP DUP2 SLOAD DUP2 PUSH1 0xFF MUL NOT AND SWAP1 DUP4 PUSH1 0x5 DUP2 GT ISZERO PUSH2 0xE0E JUMPI PUSH2 0xE0D PUSH2 0x34BB JUMP JUMPDEST JUMPDEST MUL OR SWAP1 SSTORE POP PUSH1 0x0 PUSH1 0x4 PUSH1 0x0 DUP11 DUP2 MSTORE PUSH1 0x20 ADD SWAP1 DUP2 MSTORE PUSH1 0x20 ADD PUSH1 0x0 KECCAK256 DUP2 SWAP1 SSTORE POP DUP5 PUSH1 0x5 PUSH1 0x0 DUP3 DUP3 SLOAD PUSH2 0xE3E SWAP2 SWAP1 PUSH2 0x3C53 JUMP JUMPDEST SWAP3 POP POP DUP2 SWAP1 SSTORE POP DUP7 ISZERO PUSH2 0xF54 JUMPI PUSH2 0xE54 DUP6 PUSH2 0x32D6 JUMP JUMPDEST SWAP1 POP PUSH1 0x0 DUP2 DUP7 PUSH2 0xE64 SWAP2 SWAP1 PUSH2 0x3C53 JUMP JUMPDEST SWAP1 POP PUSH1 0x0 DUP4 PUSH20 0xFFFFFFFFFFFFFFFFFFFFFFFFFFFFFFFFFFFFFFFF AND DUP3 PUSH1 0x40 MLOAD PUSH2 0xE8C SWAP1 PUSH2 0x4332 JUMP JUMPDEST PUSH1 0x0 PUSH1 0x40 MLOAD DUP1 DUP4 SUB DUP2 DUP6 DUP8 GAS CALL SWAP3 POP POP POP RETURNDATASIZE DUP1 PUSH1 0x0 DUP2 EQ PUSH2 0xEC9 JUMPI PUSH1 0x40 MLOAD SWAP2 POP PUSH1 0x1F NOT PUSH1 0x3F RETURNDATASIZE ADD AND DUP3 ADD PUSH1 0x40 MSTORE RETURNDATASIZE DUP3 MSTORE RETURNDATASIZE PUSH1 0x0 PUSH1 0x20 DUP5 ADD RETURNDATACOPY PUSH2 0xECE JUMP JUMPDEST PUSH1 0x60 SWAP2 POP JUMPDEST POP POP SWAP1 POP DUP1 PUSH2 0xF12 JUMPI PUSH1 0x40 MLOAD PUSH32 0x8C379A000000000000000000000000000000000000000000000000000000000 DUP2 MSTORE PUSH1 0x4 ADD PUSH2 0xF09 SWAP1 PUSH2 0x4393 JUMP JUMPDEST PUSH1 0x40 MLOAD DUP1 SWAP2 SUB SWAP1 REVERT JUMPDEST DUP10 PUSH32 0x5ADD0B1FC2A3DFD95BE33D1D5FEB6709087E50213B7A73C3C3B2C387001221E7 PUSH1 0x1 DUP6 PUSH1 0x40 MLOAD PUSH2 0xF45 SWAP3 SWAP2 SWAP1 PUSH2 0x43B3 JUMP JUMPDEST PUSH1 0x40 MLOAD DUP1 SWAP2 SUB SWAP1 LOG2 POP POP PUSH2 0x10E9 JUMP JUMPDEST PUSH1 0x0 DUP5 PUSH20 0xFFFFFFFFFFFFFFFFFFFFFFFFFFFFFFFFFFFFFFFF AND DUP7 PUSH1 0x40 MLOAD PUSH2 0xF7A SWAP1 PUSH2 0x4332 JUMP JUMPDEST PUSH1 0x0 PUSH1 0x40 MLOAD DUP1 DUP4 SUB DUP2 DUP6 DUP8 GAS CALL SWAP3 POP POP POP RETURNDATASIZE DUP1 PUSH1 0x0 DUP2 EQ PUSH2 0xFB7 JUMPI PUSH1 0x40 MLOAD SWAP2 POP PUSH1 0x1F NOT PUSH1 0x3F RETURNDATASIZE ADD AND DUP3 ADD PUSH1 0x40 MSTORE RETURNDATASIZE DUP3 MSTORE RETURNDATASIZE PUSH1 0x0 PUSH1 0x20 DUP5 ADD RETURNDATACOPY PUSH2 0xFBC JUMP JUMPDEST PUSH1 0x60 SWAP2 POP JUMPDEST POP POP SWAP1 POP DUP1 PUSH2 0x1000 JUMPI PUSH1 0x40 MLOAD PUSH32 0x8C379A000000000000000000000000000000000000000000000000000000000 DUP2 MSTORE PUSH1 0x4 ADD PUSH2 0xFF7 SWAP1 PUSH2 0x4428 JUMP JUMPDEST PUSH1 0x40 MLOAD DUP1 SWAP2 SUB SWAP1 REVERT JUMPDEST PUSH1 0x0 PUSH1 0x1 PUSH1 0x0 DUP7 PUSH20 0xFFFFFFFFFFFFFFFFFFFFFFFFFFFFFFFFFFFFFFFF AND PUSH20 0xFFFFFFFFFFFFFFFFFFFFFFFFFFFFFFFFFFFFFFFF AND DUP2 MSTORE PUSH1 0x20 ADD SWAP1 DUP2 MSTORE PUSH1 0x20 ADD PUSH1 0x0 KECCAK256 PUSH1 0x2 ADD SLOAD SWAP1 POP PUSH1 0x14 DUP2 LT ISZERO PUSH2 0x1057 JUMPI PUSH1 0x0 PUSH2 0x1065 JUMP JUMPDEST PUSH1 0x14 DUP2 PUSH2 0x1064 SWAP2 SWAP1 PUSH2 0x3C53 JUMP JUMPDEST JUMPDEST PUSH1 0x1 PUSH1 0x0 DUP8 PUSH20 0xFFFFFFFFFFFFFFFFFFFFFFFFFFFFFFFFFFFFFFFF AND PUSH20 0xFFFFFFFFFFFFFFFFFFFFFFFFFFFFFFFFFFFFFFFF AND DUP2 MSTORE PUSH1 0x20 ADD SWAP1 DUP2 MSTORE PUSH1 0x20 ADD PUSH1 0x0 KECCAK256 PUSH1 0x2 ADD DUP2 SWAP1 SSTORE POP DUP10 PUSH32 0x5ADD0B1FC2A3DFD95BE33D1D5FEB6709087E50213B7A73C3C3B2C387001221E7 PUSH1 0x0 DUP1 PUSH1 0x40 MLOAD PUSH2 0x10DE SWAP3 SWAP2 SWAP1 PUSH2 0x4483 JUMP JUMPDEST PUSH1 0x40 MLOAD DUP1 SWAP2 SUB SWAP1 LOG2 POP POP JUMPDEST POP POP POP POP POP POP PUSH1 0x1 PUSH1 0x6 DUP2 SWAP1 SSTORE POP POP POP JUMP JUMPDEST PUSH1 0x1 PUSH1 0x0 CALLER PUSH20 0xFFFFFFFFFFFFFFFFFFFFFFFFFFFFFFFFFFFFFFFF AND PUSH20 0xFFFFFFFFFFFFFFFFFFFFFFFFFFFFFFFFFFFFFFFF AND DUP2 MSTORE PUSH1 0x20 ADD SWAP1 DUP2 MSTORE PUSH1 0x20 ADD PUSH1 0x0 KECCAK256 PUSH1 0x3 ADD PUSH1 0x14 SWAP1 SLOAD SWAP1 PUSH2 0x100 EXP SWAP1 DIV PUSH1 0xFF AND PUSH2 0x118A JUMPI PUSH1 0x40 MLOAD PUSH32 0x8C379A000000000000000000000000000000000000000000000000000000000 DUP2 MSTORE PUSH1 0x4 ADD PUSH2 0x1181 SWAP1 PUSH2 0x44F8 JUMP JUMPDEST PUSH1 0x40 MLOAD DUP1 SWAP2 SUB SWAP1 REVERT JUMPDEST PUSH1 0x1 PUSH1 0x2 DUP2 GT ISZERO PUSH2 0x119E JUMPI PUSH2 0x119D PUSH2 0x34BB JUMP JUMPDEST JUMPDEST PUSH1 0x1 PUSH1 0x0 CALLER PUSH20 0xFFFFFFFFFFFFFFFFFFFFFFFFFFFFFFFFFFFFFFFF AND PUSH20 0xFFFFFFFFFFFFFFFFFFFFFFFFFFFFFFFFFFFFFFFF AND DUP2 MSTORE PUSH1 0x20 ADD SWAP1 DUP2 MSTORE PUSH1 0x20 ADD PUSH1 0x0 KECCAK256 PUSH1 0x1 ADD PUSH1 0x0 SWAP1 SLOAD SWAP1 PUSH2 0x100 EXP SWAP1 DIV PUSH1 0xFF AND PUSH1 0x2 DUP2 GT ISZERO PUSH2 0x1200 JUMPI PUSH2 0x11FF PUSH2 0x34BB JUMP JUMPDEST JUMPDEST EQ PUSH2 0x1240 JUMPI PUSH1 0x40 MLOAD PUSH32 0x8C379A000000000000000000000000000000000000000000000000000000000 DUP2 MSTORE PUSH1 0x4 ADD PUSH2 0x1237 SWAP1 PUSH2 0x4564 JUMP JUMPDEST PUSH1 0x40 MLOAD DUP1 SWAP2 SUB SWAP1 REVERT JUMPDEST PUSH1 0x1 PUSH1 0x6 SLOAD EQ PUSH2 0x1285 JUMPI PUSH1 0x40 MLOAD PUSH32 0x8C379A000000000000000000000000000000000000000000000000000000000 DUP2 MSTORE PUSH1 0x4 ADD PUSH2 0x127C SWAP1 PUSH2 0x419D JUMP JUMPDEST PUSH1 0x40 MLOAD DUP1 SWAP2 SUB SWAP1 REVERT JUMPDEST PUSH1 0x2 PUSH1 0x6 DUP2 SWAP1 SSTORE POP PUSH1 0x0 PUSH1 0x2 PUSH1 0x0 DUP4 DUP2 MSTORE PUSH1 0x20 ADD SWAP1 DUP2 MSTORE PUSH1 0x20 ADD PUSH1 0x0 KECCAK256 SWAP1 POP PUSH1 0x0 DUP2 PUSH1 0x0 ADD SLOAD SUB PUSH2 0x12EB JUMPI PUSH1 0x40 MLOAD PUSH32 0x8C379A000000000000000000000000000000000000000000000000000000000 DUP2 MSTORE PUSH1 0x4 ADD PUSH2 0x12E2 SWAP1 PUSH2 0x4209 JUMP JUMPDEST PUSH1 0x40 MLOAD DUP1 SWAP2 SUB SWAP1 REVERT JUMPDEST CALLER PUSH20 0xFFFFFFFFFFFFFFFFFFFFFFFFFFFFFFFFFFFFFFFF AND DUP2 PUSH1 0x1 ADD PUSH1 0x0 SWAP1 SLOAD SWAP1 PUSH2 0x100 EXP SWAP1 DIV PUSH20 0xFFFFFFFFFFFFFFFFFFFFFFFFFFFFFFFFFFFFFFFF AND PUSH20 0xFFFFFFFFFFFFFFFFFFFFFFFFFFFFFFFFFFFFFFFF AND EQ PUSH2 0x137D JUMPI PUSH1 0x40 MLOAD PUSH32 0x8C379A000000000000000000000000000000000000000000000000000000000 DUP2 MSTORE PUSH1 0x4 ADD PUSH2 0x1374 SWAP1 PUSH2 0x45D0 JUMP JUMPDEST PUSH1 0x40 MLOAD DUP1 SWAP2 SUB SWAP1 REVERT JUMPDEST PUSH1 0x2 PUSH1 0x5 DUP2 GT ISZERO PUSH2 0x1391 JUMPI PUSH2 0x1390 PUSH2 0x34BB JUMP JUMPDEST JUMPDEST DUP2 PUSH1 0x6 ADD PUSH1 0x0 SWAP1 SLOAD SWAP1 PUSH2 0x100 EXP SWAP1 DIV PUSH1 0xFF AND PUSH1 0x5 DUP2 GT ISZERO PUSH2 0x13B5 JUMPI PUSH2 0x13B4 PUSH2 0x34BB JUMP JUMPDEST JUMPDEST EQ PUSH2 0x13F5 JUMPI PUSH1 0x40 MLOAD PUSH32 0x8C379A000000000000000000000000000000000000000000000000000000000 DUP2 MSTORE PUSH1 0x4 ADD PUSH2 0x13EC SWAP1 PUSH2 0x463C JUMP JUMPDEST PUSH1 0x40 MLOAD DUP1 SWAP2 SUB SWAP1 REVERT JUMPDEST DUP1 PUSH1 0x8 ADD PUSH1 0x2 SWAP1 SLOAD SWAP1 PUSH2 0x100 EXP SWAP1 DIV PUSH1 0xFF AND ISZERO PUSH2 0x1447 JUMPI PUSH1 0x40 MLOAD PUSH32 0x8C379A000000000000000000000000000000000000000000000000000000000 DUP2 MSTORE PUSH1 0x4 ADD PUSH2 0x143E SWAP1 PUSH2 0x46A8 JUMP JUMPDEST PUSH1 0x40 MLOAD DUP1 SWAP2 SUB SWAP1 REVERT JUMPDEST DUP1 PUSH1 0x8 ADD PUSH1 0x0 SWAP1 SLOAD SWAP1 PUSH2 0x100 EXP SWAP1 DIV PUSH1 0xFF AND PUSH2 0x1498 JUMPI PUSH1 0x40 MLOAD PUSH32 0x8C379A000000000000000000000000000000000000000000000000000000000 DUP2 MSTORE PUSH1 0x4 ADD PUSH2 0x148F SWAP1 PUSH2 0x4714 JUMP JUMPDEST PUSH1 0x40 MLOAD DUP1 SWAP2 SUB SWAP1 REVERT JUMPDEST PUSH1 0x0 DUP2 PUSH1 0x7 ADD SLOAD SWAP1 POP DUP1 PUSH1 0x4 PUSH1 0x0 DUP6 DUP2 MSTORE PUSH1 0x20 ADD SWAP1 DUP2 MSTORE PUSH1 0x20 ADD PUSH1 0x0 KECCAK256 SLOAD EQ PUSH2 0x14F6 JUMPI PUSH1 0x40 MLOAD PUSH32 0x8C379A000000000000000000000000000000000000000000000000000000000 DUP2 MSTORE PUSH1 0x4 ADD PUSH2 0x14ED SWAP1 PUSH2 0x42E1 JUMP JUMPDEST PUSH1 0x40 MLOAD DUP1 SWAP2 SUB SWAP1 REVERT JUMPDEST PUSH1 0x0 PUSH2 0x1501 DUP3 PUSH2 0x32D6 JUMP JUMPDEST SWAP1 POP PUSH1 0x0 DUP2 DUP4 PUSH2 0x1511 SWAP2 SWAP1 PUSH2 0x3C53 JUMP JUMPDEST SWAP1 POP PUSH1 0x1 DUP5 PUSH1 0x8 ADD PUSH1 0x1 PUSH2 0x100 EXP DUP2 SLOAD DUP2 PUSH1 0xFF MUL NOT AND SWAP1 DUP4 ISZERO ISZERO MUL OR SWAP1 SSTORE POP PUSH1 0x3 DUP5 PUSH1 0x6 ADD PUSH1 0x0 PUSH2 0x100 EXP DUP2 SLOAD DUP2 PUSH1 0xFF MUL NOT AND SWAP1 DUP4 PUSH1 0x5 DUP2 GT ISZERO PUSH2 0x1558 JUMPI PUSH2 0x1557 PUSH2 0x34BB JUMP JUMPDEST JUMPDEST MUL OR SWAP1 SSTORE POP PUSH1 0x0 PUSH1 0x4 PUSH1 0x0 DUP8 DUP2 MSTORE PUSH1 0x20 ADD SWAP1 DUP2 MSTORE PUSH1 0x20 ADD PUSH1 0x0 KECCAK256 DUP2 SWAP1 SSTORE POP DUP3 PUSH1 0x5 PUSH1 0x0 DUP3 DUP3 SLOAD PUSH2 0x1588 SWAP2 SWAP1 PUSH2 0x3C53 JUMP JUMPDEST SWAP3 POP POP DUP2 SWAP1 SSTORE POP PUSH1 0x0 PUSH1 0x1 PUSH1 0x0 DUP7 PUSH1 0x6 ADD PUSH1 0x1 SWAP1 SLOAD SWAP1 PUSH2 0x100 EXP SWAP1 DIV PUSH20 0xFFFFFFFFFFFFFFFFFFFFFFFFFFFFFFFFFFFFFFFF AND PUSH20 0xFFFFFFFFFFFFFFFFFFFFFFFFFFFFFFFFFFFFFFFF AND PUSH20 0xFFFFFFFFFFFFFFFFFFFFFFFFFFFFFFFFFFFFFFFF AND DUP2 MSTORE PUSH1 0x20 ADD SWAP1 DUP2 MSTORE PUSH1 0x20 ADD PUSH1 0x0 KECCAK256 PUSH1 0x3 ADD PUSH1 0x0 SWAP1 SLOAD SWAP1 PUSH2 0x100 EXP SWAP1 DIV PUSH20 0xFFFFFFFFFFFFFFFFFFFFFFFFFFFFFFFFFFFFFFFF AND SWAP1 POP PUSH1 0x0 DUP2 PUSH20 0xFFFFFFFFFFFFFFFFFFFFFFFFFFFFFFFFFFFFFFFF AND DUP4 PUSH1 0x40 MLOAD PUSH2 0x1640 SWAP1 PUSH2 0x4332 JUMP JUMPDEST PUSH1 0x0 PUSH1 0x40 MLOAD DUP1 DUP4 SUB DUP2 DUP6 DUP8 GAS CALL SWAP3 POP POP POP RETURNDATASIZE DUP1 PUSH1 0x0 DUP2 EQ PUSH2 0x167D JUMPI PUSH1 0x40 MLOAD SWAP2 POP PUSH1 0x1F NOT PUSH1 0x3F RETURNDATASIZE ADD AND DUP3 ADD PUSH1 0x40 MSTORE RETURNDATASIZE DUP3 MSTORE RETURNDATASIZE PUSH1 0x0 PUSH1 0x20 DUP5 ADD RETURNDATACOPY PUSH2 0x1682 JUMP JUMPDEST PUSH1 0x60 SWAP2 POP JUMPDEST POP POP SWAP1 POP DUP1 PUSH2 0x16C6 JUMPI PUSH1 0x40 MLOAD PUSH32 0x8C379A000000000000000000000000000000000000000000000000000000000 DUP2 MSTORE PUSH1 0x4 ADD PUSH2 0x16BD SWAP1 PUSH2 0x4393 JUMP JUMPDEST PUSH1 0x40 MLOAD DUP1 SWAP2 SUB SWAP1 REVERT JUMPDEST PUSH1 0xA PUSH1 0x1 PUSH1 0x0 DUP9 PUSH1 0x6 ADD PUSH1 0x1 SWAP1 SLOAD SWAP1 PUSH2 0x100 EXP SWAP1 DIV PUSH20 0xFFFFFFFFFFFFFFFFFFFFFFFFFFFFFFFFFFFFFFFF AND PUSH20 0xFFFFFFFFFFFFFFFFFFFFFFFFFFFFFFFFFFFFFFFF AND PUSH20 0xFFFFFFFFFFFFFFFFFFFFFFFFFFFFFFFFFFFFFFFF AND DUP2 MSTORE PUSH1 0x20 ADD SWAP1 DUP2 MSTORE PUSH1 0x20 ADD PUSH1 0x0 KECCAK256 PUSH1 0x2 ADD PUSH1 0x0 DUP3 DUP3 SLOAD PUSH2 0x173D SWAP2 SWAP1 PUSH2 0x4734 JUMP JUMPDEST SWAP3 POP POP DUP2 SWAP1 SSTORE POP DUP7 PUSH32 0x4ECFA7ABB1768DDB7F787B2DA365D7269FC2D6B38C3BFCF05525B41BD5A35CB9 DUP5 DUP7 PUSH1 0x40 MLOAD PUSH2 0x1776 SWAP3 SWAP2 SWAP1 PUSH2 0x4768 JUMP JUMPDEST PUSH1 0x40 MLOAD DUP1 SWAP2 SUB SWAP1 LOG2 POP POP POP POP POP POP PUSH1 0x1 PUSH1 0x6 DUP2 SWAP1 SSTORE POP POP JUMP JUMPDEST PUSH1 0x0 SLOAD DUP2 JUMP JUMPDEST PUSH2 0x179D PUSH2 0x3324 JUMP JUMPDEST PUSH1 0x3 PUSH1 0x0 DUP5 DUP2 MSTORE PUSH1 0x20 ADD SWAP1 DUP2 MSTORE PUSH1 0x20 ADD PUSH1 0x0 KECCAK256 DUP1 SLOAD SWAP1 POP DUP3 LT PUSH2 0x17F5 JUMPI PUSH1 0x40 MLOAD PUSH32 0x8C379A000000000000000000000000000000000000000000000000000000000 DUP2 MSTORE PUSH1 0x4 ADD PUSH2 0x17EC SWAP1 PUSH2 0x47DD JUMP JUMPDEST PUSH1 0x40 MLOAD DUP1 SWAP2 SUB SWAP1 REVERT JUMPDEST PUSH1 0x3 PUSH1 0x0 DUP5 DUP2 MSTORE PUSH1 0x20 ADD SWAP1 DUP2 MSTORE PUSH1 0x20 ADD PUSH1 0x0 KECCAK256 DUP3 DUP2 SLOAD DUP2 LT PUSH2 0x181A JUMPI PUSH2 0x1819 PUSH2 0x47FD JUMP JUMPDEST JUMPDEST SWAP1 PUSH1 0x0 MSTORE PUSH1 0x20 PUSH1 0x0 KECCAK256 SWAP1 PUSH1 0x4 MUL ADD PUSH1 0x40 MLOAD DUP1 PUSH1 0x80 ADD PUSH1 0x40 MSTORE SWAP1 DUP2 PUSH1 0x0 DUP3 ADD PUSH1 0x0 SWAP1 SLOAD SWAP1 PUSH2 0x100 EXP SWAP1 DIV PUSH20 0xFFFFFFFFFFFFFFFFFFFFFFFFFFFFFFFFFFFFFFFF AND PUSH20 0xFFFFFFFFFFFFFFFFFFFFFFFFFFFFFFFFFFFFFFFF AND PUSH20 0xFFFFFFFFFFFFFFFFFFFFFFFFFFFFFFFFFFFFFFFF AND DUP2 MSTORE PUSH1 0x20 ADD PUSH1 0x1 DUP3 ADD SLOAD DUP2 MSTORE PUSH1 0x20 ADD PUSH1 0x2 DUP3 ADD SLOAD DUP2 MSTORE PUSH1 0x20 ADD PUSH1 0x3 DUP3 ADD PUSH1 0x0 SWAP1 SLOAD SWAP1 PUSH2 0x100 EXP SWAP1 DIV PUSH1 0xFF AND ISZERO ISZERO ISZERO ISZERO DUP2 MSTORE POP POP SWAP1 POP SWAP3 SWAP2 POP POP JUMP JUMPDEST PUSH1 0x1 PUSH1 0x0 CALLER PUSH20 0xFFFFFFFFFFFFFFFFFFFFFFFFFFFFFFFFFFFFFFFF AND PUSH20 0xFFFFFFFFFFFFFFFFFFFFFFFFFFFFFFFFFFFFFFFF AND DUP2 MSTORE PUSH1 0x20 ADD SWAP1 DUP2 MSTORE PUSH1 0x20 ADD PUSH1 0x0 KECCAK256 PUSH1 0x3 ADD PUSH1 0x14 SWAP1 SLOAD SWAP1 PUSH2 0x100 EXP SWAP1 DIV PUSH1 0xFF AND PUSH2 0x194F JUMPI PUSH1 0x40 MLOAD PUSH32 0x8C379A000000000000000000000000000000000000000000000000000000000 DUP2 MSTORE PUSH1 0x4 ADD PUSH2 0x1946 SWAP1 PUSH2 0x44F8 JUMP JUMPDEST PUSH1 0x40 MLOAD DUP1 SWAP2 SUB SWAP1 REVERT JUMPDEST PUSH1 0x2 DUP1 DUP2 GT ISZERO PUSH2 0x1962 JUMPI PUSH2 0x1961 PUSH2 0x34BB JUMP JUMPDEST JUMPDEST PUSH1 0x1 PUSH1 0x0 CALLER PUSH20 0xFFFFFFFFFFFFFFFFFFFFFFFFFFFFFFFFFFFFFFFF AND PUSH20 0xFFFFFFFFFFFFFFFFFFFFFFFFFFFFFFFFFFFFFFFF AND DUP2 MSTORE PUSH1 0x20 ADD SWAP1 DUP2 MSTORE PUSH1 0x20 ADD PUSH1 0x0 KECCAK256 PUSH1 0x1 ADD PUSH1 0x0 SWAP1 SLOAD SWAP1 PUSH2 0x100 EXP SWAP1 DIV PUSH1 0xFF AND PUSH1 0x2 DUP2 GT ISZERO PUSH2 0x19C4 JUMPI PUSH2 0x19C3 PUSH2 0x34BB JUMP JUMPDEST JUMPDEST EQ PUSH2 0x1A04 JUMPI PUSH1 0x40 MLOAD PUSH32 0x8C379A000000000000000000000000000000000000000000000000000000000 DUP2 MSTORE PUSH1 0x4 ADD PUSH2 0x19FB SWAP1 PUSH2 0x4878 JUMP JUMPDEST PUSH1 0x40 MLOAD DUP1 SWAP2 SUB SWAP1 REVERT JUMPDEST PUSH1 0x0 PUSH1 0x2 PUSH1 0x0 DUP6 DUP2 MSTORE PUSH1 0x20 ADD SWAP1 DUP2 MSTORE PUSH1 0x20 ADD PUSH1 0x0 KECCAK256 SWAP1 POP PUSH1 0x0 DUP2 PUSH1 0x0 ADD SLOAD SUB PUSH2 0x1A62 JUMPI PUSH1 0x40 MLOAD PUSH32 0x8C379A000000000000000000000000000000000000000000000000000000000 DUP2 MSTORE PUSH1 0x4 ADD PUSH2 0x1A59 SWAP1 PUSH2 0x4209 JUMP JUMPDEST PUSH1 0x40 MLOAD DUP1 SWAP2 SUB SWAP1 REVERT JUMPDEST PUSH1 0x0 PUSH1 0x5 DUP2 GT ISZERO PUSH2 0x1A76 JUMPI PUSH2 0x1A75 PUSH2 0x34BB JUMP JUMPDEST JUMPDEST DUP2 PUSH1 0x6 ADD PUSH1 0x0 SWAP1 SLOAD SWAP1 PUSH2 0x100 EXP SWAP1 DIV PUSH1 0xFF AND PUSH1 0x5 DUP2 GT ISZERO PUSH2 0x1A9A JUMPI PUSH2 0x1A99 PUSH2 0x34BB JUMP JUMPDEST JUMPDEST EQ PUSH2 0x1ADA JUMPI PUSH1 0x40 MLOAD PUSH32 0x8C379A000000000000000000000000000000000000000000000000000000000 DUP2 MSTORE PUSH1 0x4 ADD PUSH2 0x1AD1 SWAP1 PUSH2 0x48E4 JUMP JUMPDEST PUSH1 0x40 MLOAD DUP1 SWAP2 SUB SWAP1 REVERT JUMPDEST PUSH1 0x0 DUP4 GT PUSH2 0x1B1D JUMPI PUSH1 0x40 MLOAD PUSH32 0x8C379A000000000000000000000000000000000000000000000000000000000 DUP2 MSTORE PUSH1 0x4 ADD PUSH2 0x1B14 SWAP1 PUSH2 0x4950 JUMP JUMPDEST PUSH1 0x40 MLOAD DUP1 SWAP2 SUB SWAP1 REVERT JUMPDEST DUP1 PUSH1 0x4 ADD SLOAD DUP4 GT ISZERO PUSH2 0x1B64 JUMPI PUSH1 0x40 MLOAD PUSH32 0x8C379A000000000000000000000000000000000000000000000000000000000 DUP2 MSTORE PUSH1 0x4 ADD PUSH2 0x1B5B SWAP1 PUSH2 0x49BC JUMP JUMPDEST PUSH1 0x40 MLOAD DUP1 SWAP2 SUB SWAP1 REVERT JUMPDEST PUSH1 0x32 PUSH1 0x1 PUSH1 0x0 CALLER PUSH20 0xFFFFFFFFFFFFFFFFFFFFFFFFFFFFFFFFFFFFFFFF AND PUSH20 0xFFFFFFFFFFFFFFFFFFFFFFFFFFFFFFFFFFFFFFFF AND DUP2 MSTORE PUSH1 0x20 ADD SWAP1 DUP2 MSTORE PUSH1 0x20 ADD PUSH1 0x0 KECCAK256 PUSH1 0x2 ADD SLOAD LT ISZERO PUSH2 0x1BEA JUMPI PUSH1 0x40 MLOAD PUSH32 0x8C379A000000000000000000000000000000000000000000000000000000000 DUP2 MSTORE PUSH1 0x4 ADD PUSH2 0x1BE1 SWAP1 PUSH2 0x4A28 JUMP JUMPDEST PUSH1 0x40 MLOAD DUP1 SWAP2 SUB SWAP1 REVERT JUMPDEST PUSH1 0x3 PUSH1 0x0 DUP6 DUP2 MSTORE PUSH1 0x20 ADD SWAP1 DUP2 MSTORE PUSH1 0x20 ADD PUSH1 0x0 KECCAK256 PUSH1 0x40 MLOAD DUP1 PUSH1 0x80 ADD PUSH1 0x40 MSTORE DUP1 CALLER PUSH20 0xFFFFFFFFFFFFFFFFFFFFFFFFFFFFFFFFFFFFFFFF AND DUP2 MSTORE PUSH1 0x20 ADD DUP6 DUP2 MSTORE PUSH1 0x20 ADD DUP5 DUP2 MSTORE PUSH1 0x20 ADD PUSH1 0x1 ISZERO ISZERO DUP2 MSTORE POP SWAP1 DUP1 PUSH1 0x1 DUP2 SLOAD ADD DUP1 DUP3 SSTORE DUP1 SWAP2 POP POP PUSH1 0x1 SWAP1 SUB SWAP1 PUSH1 0x0 MSTORE PUSH1 0x20 PUSH1 0x0 KECCAK256 SWAP1 PUSH1 0x4 MUL ADD PUSH1 0x0 SWAP1 SWAP2 SWAP1 SWAP2 SWAP1 SWAP2 POP PUSH1 0x0 DUP3 ADD MLOAD DUP2 PUSH1 0x0 ADD PUSH1 0x0 PUSH2 0x100 EXP DUP2 SLOAD DUP2 PUSH20 0xFFFFFFFFFFFFFFFFFFFFFFFFFFFFFFFFFFFFFFFF MUL NOT AND SWAP1 DUP4 PUSH20 0xFFFFFFFFFFFFFFFFFFFFFFFFFFFFFFFFFFFFFFFF AND MUL OR SWAP1 SSTORE POP PUSH1 0x20 DUP3 ADD MLOAD DUP2 PUSH1 0x1 ADD SSTORE PUSH1 0x40 DUP3 ADD MLOAD DUP2 PUSH1 0x2 ADD SSTORE PUSH1 0x60 DUP3 ADD MLOAD DUP2 PUSH1 0x3 ADD PUSH1 0x0 PUSH2 0x100 EXP DUP2 SLOAD DUP2 PUSH1 0xFF MUL NOT AND SWAP1 DUP4 ISZERO ISZERO MUL OR SWAP1 SSTORE POP POP POP CALLER PUSH20 0xFFFFFFFFFFFFFFFFFFFFFFFFFFFFFFFFFFFFFFFF AND DUP5 PUSH32 0xE54EFF26401BF69B81B26F60BD85EF47F5D85275C1D268D84F68D6897431C47 DUP6 PUSH1 0x40 MLOAD PUSH2 0x1D24 SWAP2 SWAP1 PUSH2 0x3615 JUMP JUMPDEST PUSH1 0x40 MLOAD DUP1 SWAP2 SUB SWAP1 LOG3 POP POP POP POP JUMP JUMPDEST PUSH1 0x5 SLOAD DUP2 JUMP JUMPDEST PUSH1 0x1 PUSH1 0x0 CALLER PUSH20 0xFFFFFFFFFFFFFFFFFFFFFFFFFFFFFFFFFFFFFFFF AND PUSH20 0xFFFFFFFFFFFFFFFFFFFFFFFFFFFFFFFFFFFFFFFF AND DUP2 MSTORE PUSH1 0x20 ADD SWAP1 DUP2 MSTORE PUSH1 0x20 ADD PUSH1 0x0 KECCAK256 PUSH1 0x3 ADD PUSH1 0x14 SWAP1 SLOAD SWAP1 PUSH2 0x100 EXP SWAP1 DIV PUSH1 0xFF AND PUSH2 0x1DC7 JUMPI PUSH1 0x40 MLOAD PUSH32 0x8C379A000000000000000000000000000000000000000000000000000000000 DUP2 MSTORE PUSH1 0x4 ADD PUSH2 0x1DBE SWAP1 PUSH2 0x44F8 JUMP JUMPDEST PUSH1 0x40 MLOAD DUP1 SWAP2 SUB SWAP1 REVERT JUMPDEST PUSH1 0x1 PUSH1 0x2 DUP2 GT ISZERO PUSH2 0x1DDB JUMPI PUSH2 0x1DDA PUSH2 0x34BB JUMP JUMPDEST JUMPDEST PUSH1 0x1 PUSH1 0x0 CALLER PUSH20 0xFFFFFFFFFFFFFFFFFFFFFFFFFFFFFFFFFFFFFFFF AND PUSH20 0xFFFFFFFFFFFFFFFFFFFFFFFFFFFFFFFFFFFFFFFF AND DUP2 MSTORE PUSH1 0x20 ADD SWAP1 DUP2 MSTORE PUSH1 0x20 ADD PUSH1 0x0 KECCAK256 PUSH1 0x1 ADD PUSH1 0x0 SWAP1 SLOAD SWAP1 PUSH2 0x100 EXP SWAP1 DIV PUSH1 0xFF AND PUSH1 0x2 DUP2 GT ISZERO PUSH2 0x1E3D JUMPI PUSH2 0x1E3C PUSH2 0x34BB JUMP JUMPDEST JUMPDEST EQ PUSH2 0x1E7D JUMPI PUSH1 0x40 MLOAD PUSH32 0x8C379A000000000000000000000000000000000000000000000000000000000 DUP2 MSTORE PUSH1 0x4 ADD PUSH2 0x1E74 SWAP1 PUSH2 0x4564 JUMP JUMPDEST PUSH1 0x40 MLOAD DUP1 SWAP2 SUB SWAP1 REVERT JUMPDEST PUSH1 0x0 DUP3 GT PUSH2 0x1EC0 JUMPI PUSH1 0x40 MLOAD PUSH32 0x8C379A000000000000000000000000000000000000000000000000000000000 DUP2 MSTORE PUSH1 0x4 ADD PUSH2 0x1EB7 SWAP1 PUSH2 0x4A94 JUMP JUMPDEST PUSH1 0x40 MLOAD DUP1 SWAP2 SUB SWAP1 REVERT JUMPDEST TIMESTAMP DUP2 GT PUSH2 0x1F02 JUMPI PUSH1 0x40 MLOAD PUSH32 0x8C379A000000000000000000000000000000000000000000000000000000000 DUP2 MSTORE PUSH1 0x4 ADD PUSH2 0x1EF9 SWAP1 PUSH2 0x4B00 JUMP JUMPDEST PUSH1 0x40 MLOAD DUP1 SWAP2 SUB SWAP1 REVERT JUMPDEST PUSH1 0x1 PUSH1 0x0 DUP1 DUP3 DUP3 SLOAD PUSH2 0x1F14 SWAP2 SWAP1 PUSH2 0x4734 JUMP JUMPDEST SWAP3 POP POP DUP2 SWAP1 SSTORE POP PUSH1 0x0 DUP1 SLOAD SWAP1 POP PUSH1 0x40 MLOAD DUP1 PUSH2 0x180 ADD PUSH1 0x40 MSTORE DUP1 DUP3 DUP2 MSTORE PUSH1 0x20 ADD CALLER PUSH20 0xFFFFFFFFFFFFFFFFFFFFFFFFFFFFFFFFFFFFFFFF AND DUP2 MSTORE PUSH1 0x20 ADD DUP7 DUP2 MSTORE PUSH1 0x20 ADD DUP6 DUP2 MSTORE PUSH1 0x20 ADD DUP5 DUP2 MSTORE PUSH1 0x20 ADD DUP4 DUP2 MSTORE PUSH1 0x20 ADD PUSH1 0x0 PUSH1 0x5 DUP2 GT ISZERO PUSH2 0x1F7B JUMPI PUSH2 0x1F7A PUSH2 0x34BB JUMP JUMPDEST JUMPDEST DUP2 MSTORE PUSH1 0x20 ADD PUSH1 0x0 PUSH20 0xFFFFFFFFFFFFFFFFFFFFFFFFFFFFFFFFFFFFFFFF AND DUP2 MSTORE PUSH1 0x20 ADD PUSH1 0x0 DUP2 MSTORE PUSH1 0x20 ADD PUSH1 0x0 ISZERO ISZERO DUP2 MSTORE PUSH1 0x20 ADD PUSH1 0x0 ISZERO ISZERO DUP2 MSTORE PUSH1 0x20 ADD PUSH1 0x0 ISZERO ISZERO DUP2 MSTORE POP PUSH1 0x2 PUSH1 0x0 DUP4 DUP2 MSTORE PUSH1 0x20 ADD SWAP1 DUP2 MSTORE PUSH1 0x20 ADD PUSH1 0x0 KECCAK256 PUSH1 0x0 DUP3 ADD MLOAD DUP2 PUSH1 0x0 ADD SSTORE PUSH1 0x20 DUP3 ADD MLOAD DUP2 PUSH1 0x1 ADD PUSH1 0x0 PUSH2 0x100 EXP DUP2 SLOAD DUP2 PUSH20 0xFFFFFFFFFFFFFFFFFFFFFFFFFFFFFFFFFFFFFFFF MUL NOT AND SWAP1 DUP4 PUSH20 0xFFFFFFFFFFFFFFFFFFFFFFFFFFFFFFFFFFFFFFFF AND MUL OR SWAP1 SSTORE POP PUSH1 0x40 DUP3 ADD MLOAD DUP2 PUSH1 0x2 ADD SWAP1 DUP2 PUSH2 0x2036 SWAP2 SWAP1 PUSH2 0x3F77 JUMP JUMPDEST POP PUSH1 0x60 DUP3 ADD MLOAD DUP2 PUSH1 0x3 ADD SWAP1 DUP2 PUSH2 0x204C SWAP2 SWAP1 PUSH2 0x3F77 JUMP JUMPDEST POP PUSH1 0x80 DUP3 ADD MLOAD DUP2 PUSH1 0x4 ADD SSTORE PUSH1 0xA0 DUP3 ADD MLOAD DUP2 PUSH1 0x5 ADD SSTORE PUSH1 0xC0 DUP3 ADD MLOAD DUP2 PUSH1 0x6 ADD PUSH1 0x0 PUSH2 0x100 EXP DUP2 SLOAD DUP2 PUSH1 0xFF MUL NOT AND SWAP1 DUP4 PUSH1 0x5 DUP2 GT ISZERO PUSH2 0x208C JUMPI PUSH2 0x208B PUSH2 0x34BB JUMP JUMPDEST JUMPDEST MUL OR SWAP1 SSTORE POP PUSH1 0xE0 DUP3 ADD MLOAD DUP2 PUSH1 0x6 ADD PUSH1 0x1 PUSH2 0x100 EXP DUP2 SLOAD DUP2 PUSH20 0xFFFFFFFFFFFFFFFFFFFFFFFFFFFFFFFFFFFFFFFF MUL NOT AND SWAP1 DUP4 PUSH20 0xFFFFFFFFFFFFFFFFFFFFFFFFFFFFFFFFFFFFFFFF AND MUL OR SWAP1 SSTORE POP PUSH2 0x100 DUP3 ADD MLOAD DUP2 PUSH1 0x7 ADD SSTORE PUSH2 0x120 DUP3 ADD MLOAD DUP2 PUSH1 0x8 ADD PUSH1 0x0 PUSH2 0x100 EXP DUP2 SLOAD DUP2 PUSH1 0xFF MUL NOT AND SWAP1 DUP4 ISZERO ISZERO MUL OR SWAP1 SSTORE POP PUSH2 0x140 DUP3 ADD MLOAD DUP2 PUSH1 0x8 ADD PUSH1 0x1 PUSH2 0x100 EXP DUP2 SLOAD DUP2 PUSH1 0xFF MUL NOT AND SWAP1 DUP4 ISZERO ISZERO MUL OR SWAP1 SSTORE POP PUSH2 0x160 DUP3 ADD MLOAD DUP2 PUSH1 0x8 ADD PUSH1 0x2 PUSH2 0x100 EXP DUP2 SLOAD DUP2 PUSH1 0xFF MUL NOT AND SWAP1 DUP4 ISZERO ISZERO MUL OR SWAP1 SSTORE POP SWAP1 POP POP CALLER PUSH20 0xFFFFFFFFFFFFFFFFFFFFFFFFFFFFFFFFFFFFFFFF AND DUP2 PUSH32 0xD347156C0E050F531434F3EAC5FC2137040AB077CA656F465275EBE566AAF115 DUP8 DUP7 PUSH1 0x40 MLOAD PUSH2 0x2192 SWAP3 SWAP2 SWAP1 PUSH2 0x4B20 JUMP JUMPDEST PUSH1 0x40 MLOAD DUP1 SWAP2 SUB SWAP1 LOG3 POP POP POP POP POP JUMP JUMPDEST PUSH1 0x0 PUSH1 0x3 PUSH1 0x0 DUP4 DUP2 MSTORE PUSH1 0x20 ADD SWAP1 DUP2 MSTORE PUSH1 0x20 ADD PUSH1 0x0 KECCAK256 DUP1 SLOAD SWAP1 POP SWAP1 POP SWAP2 SWAP1 POP JUMP JUMPDEST PUSH1 0x1 PUSH1 0x0 CALLER PUSH20 0xFFFFFFFFFFFFFFFFFFFFFFFFFFFFFFFFFFFFFFFF AND PUSH20 0xFFFFFFFFFFFFFFFFFFFFFFFFFFFFFFFFFFFFFFFF AND DUP2 MSTORE PUSH1 0x20 ADD SWAP1 DUP2 MSTORE PUSH1 0x20 ADD PUSH1 0x0 KECCAK256 PUSH1 0x3 ADD PUSH1 0x14 SWAP1 SLOAD SWAP1 PUSH2 0x100 EXP SWAP1 DIV PUSH1 0xFF AND PUSH2 0x2250 JUMPI PUSH1 0x40 MLOAD PUSH32 0x8C379A000000000000000000000000000000000000000000000000000000000 DUP2 MSTORE PUSH1 0x4 ADD PUSH2 0x2247 SWAP1 PUSH2 0x44F8 JUMP JUMPDEST PUSH1 0x40 MLOAD DUP1 SWAP2 SUB SWAP1 REVERT JUMPDEST PUSH1 0x1 PUSH1 0x2 DUP2 GT ISZERO PUSH2 0x2264 JUMPI PUSH2 0x2263 PUSH2 0x34BB JUMP JUMPDEST JUMPDEST PUSH1 0x1 PUSH1 0x0 CALLER PUSH20 0xFFFFFFFFFFFFFFFFFFFFFFFFFFFFFFFFFFFFFFFF AND PUSH20 0xFFFFFFFFFFFFFFFFFFFFFFFFFFFFFFFFFFFFFFFF AND DUP2 MSTORE PUSH1 0x20 ADD SWAP1 DUP2 MSTORE PUSH1 0x20 ADD PUSH1 0x0 KECCAK256 PUSH1 0x1 ADD PUSH1 0x0 SWAP1 SLOAD SWAP1 PUSH2 0x100 EXP SWAP1 DIV PUSH1 0xFF AND PUSH1 0x2 DUP2 GT ISZERO PUSH2 0x22C6 JUMPI PUSH2 0x22C5 PUSH2 0x34BB JUMP JUMPDEST JUMPDEST EQ PUSH2 0x2306 JUMPI PUSH1 0x40 MLOAD PUSH32 0x8C379A000000000000000000000000000000000000000000000000000000000 DUP2 MSTORE PUSH1 0x4 ADD PUSH2 0x22FD SWAP1 PUSH2 0x4564 JUMP JUMPDEST PUSH1 0x40 MLOAD DUP1 SWAP2 SUB SWAP1 REVERT JUMPDEST PUSH1 0x0 PUSH1 0x2 PUSH1 0x0 DUP4 DUP2 MSTORE PUSH1 0x20 ADD SWAP1 DUP2 MSTORE PUSH1 0x20 ADD PUSH1 0x0 KECCAK256 SWAP1 POP PUSH1 0x0 DUP2 PUSH1 0x0 ADD SLOAD SUB PUSH2 0x2364 JUMPI PUSH1 0x40 MLOAD PUSH32 0x8C379A000000000000000000000000000000000000000000000000000000000 DUP2 MSTORE PUSH1 0x4 ADD PUSH2 0x235B SWAP1 PUSH2 0x4209 JUMP JUMPDEST PUSH1 0x40 MLOAD DUP1 SWAP2 SUB SWAP1 REVERT JUMPDEST CALLER PUSH20 0xFFFFFFFFFFFFFFFFFFFFFFFFFFFFFFFFFFFFFFFF AND DUP2 PUSH1 0x1 ADD PUSH1 0x0 SWAP1 SLOAD SWAP1 PUSH2 0x100 EXP SWAP1 DIV PUSH20 0xFFFFFFFFFFFFFFFFFFFFFFFFFFFFFFFFFFFFFFFF AND PUSH20 0xFFFFFFFFFFFFFFFFFFFFFFFFFFFFFFFFFFFFFFFF AND EQ PUSH2 0x23F6 JUMPI PUSH1 0x40 MLOAD PUSH32 0x8C379A000000000000000000000000000000000000000000000000000000000 DUP2 MSTORE PUSH1 0x4 ADD PUSH2 0x23ED SWAP1 PUSH2 0x45D0 JUMP JUMPDEST PUSH1 0x40 MLOAD DUP1 SWAP2 SUB SWAP1 REVERT JUMPDEST PUSH1 0x1 PUSH1 0x5 DUP2 GT ISZERO PUSH2 0x240A JUMPI PUSH2 0x2409 PUSH2 0x34BB JUMP JUMPDEST JUMPDEST DUP2 PUSH1 0x6 ADD PUSH1 0x0 SWAP1 SLOAD SWAP1 PUSH2 0x100 EXP SWAP1 DIV PUSH1 0xFF AND PUSH1 0x5 DUP2 GT ISZERO PUSH2 0x242E JUMPI PUSH2 0x242D PUSH2 0x34BB JUMP JUMPDEST JUMPDEST EQ DUP1 PUSH2 0x246F JUMPI POP PUSH1 0x2 PUSH1 0x5 DUP2 GT ISZERO PUSH2 0x2449 JUMPI PUSH2 0x2448 PUSH2 0x34BB JUMP JUMPDEST JUMPDEST DUP2 PUSH1 0x6 ADD PUSH1 0x0 SWAP1 SLOAD SWAP1 PUSH2 0x100 EXP SWAP1 DIV PUSH1 0xFF AND PUSH1 0x5 DUP2 GT ISZERO PUSH2 0x246D JUMPI PUSH2 0x246C PUSH2 0x34BB JUMP JUMPDEST JUMPDEST EQ JUMPDEST PUSH2 0x24AE JUMPI PUSH1 0x40 MLOAD PUSH32 0x8C379A000000000000000000000000000000000000000000000000000000000 DUP2 MSTORE PUSH1 0x4 ADD PUSH2 0x24A5 SWAP1 PUSH2 0x4B9C JUMP JUMPDEST PUSH1 0x40 MLOAD DUP1 SWAP2 SUB SWAP1 REVERT JUMPDEST DUP1 PUSH1 0x8 ADD PUSH1 0x2 SWAP1 SLOAD SWAP1 PUSH2 0x100 EXP SWAP1 DIV PUSH1 0xFF AND ISZERO PUSH2 0x2500 JUMPI PUSH1 0x40 MLOAD PUSH32 0x8C379A000000000000000000000000000000000000000000000000000000000 DUP2 MSTORE PUSH1 0x4 ADD PUSH2 0x24F7 SWAP1 PUSH2 0x4C08 JUMP JUMPDEST PUSH1 0x40 MLOAD DUP1 SWAP2 SUB SWAP1 REVERT JUMPDEST PUSH1 0x1 DUP2 PUSH1 0x8 ADD PUSH1 0x2 PUSH2 0x100 EXP DUP2 SLOAD DUP2 PUSH1 0xFF MUL NOT AND SWAP1 DUP4 ISZERO ISZERO MUL OR SWAP1 SSTORE POP PUSH1 0x4 DUP2 PUSH1 0x6 ADD PUSH1 0x0 PUSH2 0x100 EXP DUP2 SLOAD DUP2 PUSH1 0xFF MUL NOT AND SWAP1 DUP4 PUSH1 0x5 DUP2 GT ISZERO PUSH2 0x2545 JUMPI PUSH2 0x2544 PUSH2 0x34BB JUMP JUMPDEST JUMPDEST MUL OR SWAP1 SSTORE POP DUP2 PUSH32 0x4901F83201C8724EADF084436DB8AA391820BAE6D11F9F78A17EDB6F2EEF3CF PUSH1 0x40 MLOAD PUSH1 0x40 MLOAD DUP1 SWAP2 SUB SWAP1 LOG2 POP POP JUMP JUMPDEST PUSH1 0x1 PUSH1 0x20 MSTORE DUP1 PUSH1 0x0 MSTORE PUSH1 0x40 PUSH1 0x0 KECCAK256 PUSH1 0x0 SWAP2 POP SWAP1 POP DUP1 PUSH1 0x0 ADD DUP1 SLOAD PUSH2 0x259E SWAP1 PUSH2 0x3BF3 JUMP JUMPDEST DUP1 PUSH1 0x1F ADD PUSH1 0x20 DUP1 SWAP2 DIV MUL PUSH1 0x20 ADD PUSH1 0x40 MLOAD SWAP1 DUP2 ADD PUSH1 0x40 MSTORE DUP1 SWAP3 SWAP2 SWAP1 DUP2 DUP2 MSTORE PUSH1 0x20 ADD DUP3 DUP1 SLOAD PUSH2 0x25CA SWAP1 PUSH2 0x3BF3 JUMP JUMPDEST DUP1 ISZERO PUSH2 0x2617 JUMPI DUP1 PUSH1 0x1F LT PUSH2 0x25EC JUMPI PUSH2 0x100 DUP1 DUP4 SLOAD DIV MUL DUP4 MSTORE SWAP2 PUSH1 0x20 ADD SWAP2 PUSH2 0x2617 JUMP JUMPDEST DUP3 ADD SWAP2 SWAP1 PUSH1 0x0 MSTORE PUSH1 0x20 PUSH1 0x0 KECCAK256 SWAP1 JUMPDEST DUP2 SLOAD DUP2 MSTORE SWAP1 PUSH1 0x1 ADD SWAP1 PUSH1 0x20 ADD DUP1 DUP4 GT PUSH2 0x25FA JUMPI DUP3 SWAP1 SUB PUSH1 0x1F AND DUP3 ADD SWAP2 JUMPDEST POP POP POP POP POP SWAP1 DUP1 PUSH1 0x1 ADD PUSH1 0x0 SWAP1 SLOAD SWAP1 PUSH2 0x100 EXP SWAP1 DIV PUSH1 0xFF AND SWAP1 DUP1 PUSH1 0x2 ADD SLOAD SWAP1 DUP1 PUSH1 0x3 ADD PUSH1 0x0 SWAP1 SLOAD SWAP1 PUSH2 0x100 EXP SWAP1 DIV PUSH20 0xFFFFFFFFFFFFFFFFFFFFFFFFFFFFFFFFFFFFFFFF AND SWAP1 DUP1 PUSH1 0x3 ADD PUSH1 0x14 SWAP1 SLOAD SWAP1 PUSH2 0x100 EXP SWAP1 DIV PUSH1 0xFF AND SWAP1 POP DUP6 JUMP JUMPDEST PUSH32 0x0 PUSH20 0xFFFFFFFFFFFFFFFFFFFFFFFFFFFFFFFFFFFFFFFF AND CALLER PUSH20 0xFFFFFFFFFFFFFFFFFFFFFFFFFFFFFFFFFFFFFFFF AND EQ PUSH2 0x2701 JUMPI PUSH1 0x40 MLOAD PUSH32 0x8C379A000000000000000000000000000000000000000000000000000000000 DUP2 MSTORE PUSH1 0x4 ADD PUSH2 0x26F8 SWAP1 PUSH2 0x40C5 JUMP JUMPDEST PUSH1 0x40 MLOAD DUP1 SWAP2 SUB SWAP1 REVERT JUMPDEST PUSH1 0x1 PUSH1 0x0 CALLER PUSH20 0xFFFFFFFFFFFFFFFFFFFFFFFFFFFFFFFFFFFFFFFF AND PUSH20 0xFFFFFFFFFFFFFFFFFFFFFFFFFFFFFFFFFFFFFFFF AND DUP2 MSTORE PUSH1 0x20 ADD SWAP1 DUP2 MSTORE PUSH1 0x20 ADD PUSH1 0x0 KECCAK256 PUSH1 0x3 ADD PUSH1 0x14 SWAP1 SLOAD SWAP1 PUSH2 0x100 EXP SWAP1 DIV PUSH1 0xFF AND DUP1 ISZERO PUSH2 0x27D0 JUMPI POP PUSH1 0x0 PUSH1 0x2 DUP2 GT ISZERO PUSH2 0x276C JUMPI PUSH2 0x276B PUSH2 0x34BB JUMP JUMPDEST JUMPDEST PUSH1 0x1 PUSH1 0x0 CALLER PUSH20 0xFFFFFFFFFFFFFFFFFFFFFFFFFFFFFFFFFFFFFFFF AND PUSH20 0xFFFFFFFFFFFFFFFFFFFFFFFFFFFFFFFFFFFFFFFF AND DUP2 MSTORE PUSH1 0x20 ADD SWAP1 DUP2 MSTORE PUSH1 0x20 ADD PUSH1 0x0 KECCAK256 PUSH1 0x1 ADD PUSH1 0x0 SWAP1 SLOAD SWAP1 PUSH2 0x100 EXP SWAP1 DIV PUSH1 0xFF AND PUSH1 0x2 DUP2 GT ISZERO PUSH2 0x27CE JUMPI PUSH2 0x27CD PUSH2 0x34BB JUMP JUMPDEST JUMPDEST EQ JUMPDEST PUSH2 0x280F JUMPI PUSH1 0x40 MLOAD PUSH32 0x8C379A000000000000000000000000000000000000000000000000000000000 DUP2 MSTORE PUSH1 0x4 ADD PUSH2 0x2806 SWAP1 PUSH2 0x4131 JUMP JUMPDEST PUSH1 0x40 MLOAD DUP1 SWAP2 SUB SWAP1 REVERT JUMPDEST PUSH1 0x1 PUSH1 0x6 SLOAD EQ PUSH2 0x2854 JUMPI PUSH1 0x40 MLOAD PUSH32 0x8C379A000000000000000000000000000000000000000000000000000000000 DUP2 MSTORE PUSH1 0x4 ADD PUSH2 0x284B SWAP1 PUSH2 0x419D JUMP JUMPDEST PUSH1 0x40 MLOAD DUP1 SWAP2 SUB SWAP1 REVERT JUMPDEST PUSH1 0x2 PUSH1 0x6 DUP2 SWAP1 SSTORE POP PUSH1 0x0 PUSH1 0x5 SLOAD SELFBALANCE PUSH2 0x286C SWAP2 SWAP1 PUSH2 0x3C53 JUMP JUMPDEST SWAP1 POP DUP1 DUP3 GT ISZERO PUSH2 0x28B1 JUMPI PUSH1 0x40 MLOAD PUSH32 0x8C379A000000000000000000000000000000000000000000000000000000000 DUP2 MSTORE PUSH1 0x4 ADD PUSH2 0x28A8 SWAP1 PUSH2 0x4C74 JUMP JUMPDEST PUSH1 0x40 MLOAD DUP1 SWAP2 SUB SWAP1 REVERT JUMPDEST PUSH1 0x0 DUP4 PUSH20 0xFFFFFFFFFFFFFFFFFFFFFFFFFFFFFFFFFFFFFFFF AND DUP4 PUSH1 0x40 MLOAD PUSH2 0x28D7 SWAP1 PUSH2 0x4332 JUMP JUMPDEST PUSH1 0x0 PUSH1 0x40 MLOAD DUP1 DUP4 SUB DUP2 DUP6 DUP8 GAS CALL SWAP3 POP POP POP RETURNDATASIZE DUP1 PUSH1 0x0 DUP2 EQ PUSH2 0x2914 JUMPI PUSH1 0x40 MLOAD SWAP2 POP PUSH1 0x1F NOT PUSH1 0x3F RETURNDATASIZE ADD AND DUP3 ADD PUSH1 0x40 MSTORE RETURNDATASIZE DUP3 MSTORE RETURNDATASIZE PUSH1 0x0 PUSH1 0x20 DUP5 ADD RETURNDATACOPY PUSH2 0x2919 JUMP JUMPDEST PUSH1 0x60 SWAP2 POP JUMPDEST POP POP SWAP1 POP DUP1 PUSH2 0x295D JUMPI PUSH1 0x40 MLOAD PUSH32 0x8C379A000000000000000000000000000000000000000000000000000000000 DUP2 MSTORE PUSH1 0x4 ADD PUSH2 0x2954 SWAP1 PUSH2 0x4CE0 JUMP JUMPDEST PUSH1 0x40 MLOAD DUP1 SWAP2 SUB SWAP1 REVERT JUMPDEST DUP4 PUSH20 0xFFFFFFFFFFFFFFFFFFFFFFFFFFFFFFFFFFFFFFFF AND PUSH32 0xC0819C13BE868895EB93E40EACEB96DE976442FA1D404E5C55F14BB65A8C489A DUP5 PUSH1 0x40 MLOAD PUSH2 0x29A3 SWAP2 SWAP1 PUSH2 0x3615 JUMP JUMPDEST PUSH1 0x40 MLOAD DUP1 SWAP2 SUB SWAP1 LOG2 POP POP PUSH1 0x1 PUSH1 0x6 DUP2 SWAP1 SSTORE POP POP POP JUMP JUMPDEST PUSH1 0x1 PUSH1 0x0 CALLER PUSH20 0xFFFFFFFFFFFFFFFFFFFFFFFFFFFFFFFFFFFFFFFF AND PUSH20 0xFFFFFFFFFFFFFFFFFFFFFFFFFFFFFFFFFFFFFFFF AND DUP2 MSTORE PUSH1 0x20 ADD SWAP1 DUP2 MSTORE PUSH1 0x20 ADD PUSH1 0x0 KECCAK256 PUSH1 0x3 ADD PUSH1 0x14 SWAP1 SLOAD SWAP1 PUSH2 0x100 EXP SWAP1 DIV PUSH1 0xFF AND PUSH2 0x2A48 JUMPI PUSH1 0x40 MLOAD PUSH32 0x8C379A000000000000000000000000000000000000000000000000000000000 DUP2 MSTORE PUSH1 0x4 ADD PUSH2 0x2A3F SWAP1 PUSH2 0x44F8 JUMP JUMPDEST PUSH1 0x40 MLOAD DUP1 SWAP2 SUB SWAP1 REVERT JUMPDEST PUSH1 0x2 DUP1 DUP2 GT ISZERO PUSH2 0x2A5B JUMPI PUSH2 0x2A5A PUSH2 0x34BB JUMP JUMPDEST JUMPDEST PUSH1 0x1 PUSH1 0x0 CALLER PUSH20 0xFFFFFFFFFFFFFFFFFFFFFFFFFFFFFFFFFFFFFFFF AND PUSH20 0xFFFFFFFFFFFFFFFFFFFFFFFFFFFFFFFFFFFFFFFF AND DUP2 MSTORE PUSH1 0x20 ADD SWAP1 DUP2 MSTORE PUSH1 0x20 ADD PUSH1 0x0 KECCAK256 PUSH1 0x1 ADD PUSH1 0x0 SWAP1 SLOAD SWAP1 PUSH2 0x100 EXP SWAP1 DIV PUSH1 0xFF AND PUSH1 0x2 DUP2 GT ISZERO PUSH2 0x2ABD JUMPI PUSH2 0x2ABC PUSH2 0x34BB JUMP JUMPDEST JUMPDEST EQ PUSH2 0x2AFD JUMPI PUSH1 0x40 MLOAD PUSH32 0x8C379A000000000000000000000000000000000000000000000000000000000 DUP2 MSTORE PUSH1 0x4 ADD PUSH2 0x2AF4 SWAP1 PUSH2 0x4878 JUMP JUMPDEST PUSH1 0x40 MLOAD DUP1 SWAP2 SUB SWAP1 REVERT JUMPDEST PUSH1 0x0 PUSH1 0x2 PUSH1 0x0 DUP4 DUP2 MSTORE PUSH1 0x20 ADD SWAP1 DUP2 MSTORE PUSH1 0x20 ADD PUSH1 0x0 KECCAK256 SWAP1 POP PUSH1 0x0 DUP2 PUSH1 0x0 ADD SLOAD SUB PUSH2 0x2B5B JUMPI PUSH1 0x40 MLOAD PUSH32 0x8C379A000000000000000000000000000000000000000000000000000000000 DUP2 MSTORE PUSH1 0x4 ADD PUSH2 0x2B52 SWAP1 PUSH2 0x4209 JUMP JUMPDEST PUSH1 0x40 MLOAD DUP1 SWAP2 SUB SWAP1 REVERT JUMPDEST PUSH1 0x1 PUSH1 0x5 DUP2 GT ISZERO PUSH2 0x2B6F JUMPI PUSH2 0x2B6E PUSH2 0x34BB JUMP JUMPDEST JUMPDEST DUP2 PUSH1 0x6 ADD PUSH1 0x0 SWAP1 SLOAD SWAP1 PUSH2 0x100 EXP SWAP1 DIV PUSH1 0xFF AND PUSH1 0x5 DUP2 GT ISZERO PUSH2 0x2B93 JUMPI PUSH2 0x2B92 PUSH2 0x34BB JUMP JUMPDEST JUMPDEST EQ PUSH2 0x2BD3 JUMPI PUSH1 0x40 MLOAD PUSH32 0x8C379A000000000000000000000000000000000000000000000000000000000 DUP2 MSTORE PUSH1 0x4 ADD PUSH2 0x2BCA SWAP1 PUSH2 0x4D4C JUMP JUMPDEST PUSH1 0x40 MLOAD DUP1 SWAP2 SUB SWAP1 REVERT JUMPDEST CALLER PUSH20 0xFFFFFFFFFFFFFFFFFFFFFFFFFFFFFFFFFFFFFFFF AND DUP2 PUSH1 0x6 ADD PUSH1 0x1 SWAP1 SLOAD SWAP1 PUSH2 0x100 EXP SWAP1 DIV PUSH20 0xFFFFFFFFFFFFFFFFFFFFFFFFFFFFFFFFFFFFFFFF AND PUSH20 0xFFFFFFFFFFFFFFFFFFFFFFFFFFFFFFFFFFFFFFFF AND EQ PUSH2 0x2C65 JUMPI PUSH1 0x40 MLOAD PUSH32 0x8C379A000000000000000000000000000000000000000000000000000000000 DUP2 MSTORE PUSH1 0x4 ADD PUSH2 0x2C5C SWAP1 PUSH2 0x4DB8 JUMP JUMPDEST PUSH1 0x40 MLOAD DUP1 SWAP2 SUB SWAP1 REVERT JUMPDEST PUSH1 0x1 DUP2 PUSH1 0x8 ADD PUSH1 0x0 PUSH2 0x100 EXP DUP2 SLOAD DUP2 PUSH1 0xFF MUL NOT AND SWAP1 DUP4 ISZERO ISZERO MUL OR SWAP1 SSTORE POP PUSH1 0x2 DUP2 PUSH1 0x6 ADD PUSH1 0x0 PUSH2 0x100 EXP DUP2 SLOAD DUP2 PUSH1 0xFF MUL NOT AND SWAP1 DUP4 PUSH1 0x5 DUP2 GT ISZERO PUSH2 0x2CAA JUMPI PUSH2 0x2CA9 PUSH2 0x34BB JUMP JUMPDEST JUMPDEST MUL OR SWAP1 SSTORE POP DUP2 PUSH32 0x466A00F04756A82A8EE2BDA04F121772F1D4A5720BBF92EDAA7846B48C889D4 PUSH1 0x40 MLOAD PUSH1 0x40 MLOAD DUP1 SWAP2 SUB SWAP1 LOG2 POP POP JUMP JUMPDEST PUSH1 0x4 PUSH1 0x20 MSTORE DUP1 PUSH1 0x0 MSTORE PUSH1 0x40 PUSH1 0x0 KECCAK256 PUSH1 0x0 SWAP2 POP SWAP1 POP SLOAD DUP2 JUMP JUMPDEST PUSH1 0x1 PUSH1 0x0 CALLER PUSH20 0xFFFFFFFFFFFFFFFFFFFFFFFFFFFFFFFFFFFFFFFF AND PUSH20 0xFFFFFFFFFFFFFFFFFFFFFFFFFFFFFFFFFFFFFFFF AND DUP2 MSTORE PUSH1 0x20 ADD SWAP1 DUP2 MSTORE PUSH1 0x20 ADD PUSH1 0x0 KECCAK256 PUSH1 0x3 ADD PUSH1 0x14 SWAP1 SLOAD SWAP1 PUSH2 0x100 EXP SWAP1 DIV PUSH1 0xFF AND PUSH2 0x2D87 JUMPI PUSH1 0x40 MLOAD PUSH32 0x8C379A000000000000000000000000000000000000000000000000000000000 DUP2 MSTORE PUSH1 0x4 ADD PUSH2 0x2D7E SWAP1 PUSH2 0x44F8 JUMP JUMPDEST PUSH1 0x40 MLOAD DUP1 SWAP2 SUB SWAP1 REVERT JUMPDEST PUSH1 0x1 PUSH1 0x2 DUP2 GT ISZERO PUSH2 0x2D9B JUMPI PUSH2 0x2D9A PUSH2 0x34BB JUMP JUMPDEST JUMPDEST PUSH1 0x1 PUSH1 0x0 CALLER PUSH20 0xFFFFFFFFFFFFFFFFFFFFFFFFFFFFFFFFFFFFFFFF AND PUSH20 0xFFFFFFFFFFFFFFFFFFFFFFFFFFFFFFFFFFFFFFFF AND DUP2 MSTORE PUSH1 0x20 ADD SWAP1 DUP2 MSTORE PUSH1 0x20 ADD PUSH1 0x0 KECCAK256 PUSH1 0x1 ADD PUSH1 0x0 SWAP1 SLOAD SWAP1 PUSH2 0x100 EXP SWAP1 DIV PUSH1 0xFF AND PUSH1 0x2 DUP2 GT ISZERO PUSH2 0x2DFD JUMPI PUSH2 0x2DFC PUSH2 0x34BB JUMP JUMPDEST JUMPDEST EQ PUSH2 0x2E3D JUMPI PUSH1 0x40 MLOAD PUSH32 0x8C379A000000000000000000000000000000000000000000000000000000000 DUP2 MSTORE PUSH1 0x4 ADD PUSH2 0x2E34 SWAP1 PUSH2 0x4564 JUMP JUMPDEST PUSH1 0x40 MLOAD DUP1 SWAP2 SUB SWAP1 REVERT JUMPDEST PUSH1 0x1 PUSH1 0x6 SLOAD EQ PUSH2 0x2E82 JUMPI PUSH1 0x40 MLOAD PUSH32 0x8C379A000000000000000000000000000000000000000000000000000000000 DUP2 MSTORE PUSH1 0x4 ADD PUSH2 0x2E79 SWAP1 PUSH2 0x419D JUMP JUMPDEST PUSH1 0x40 MLOAD DUP1 SWAP2 SUB SWAP1 REVERT JUMPDEST PUSH1 0x2 PUSH1 0x6 DUP2 SWAP1 SSTORE POP PUSH1 0x0 PUSH1 0x2 PUSH1 0x0 DUP5 DUP2 MSTORE PUSH1 0x20 ADD SWAP1 DUP2 MSTORE PUSH1 0x20 ADD PUSH1 0x0 KECCAK256 SWAP1 POP PUSH1 0x0 DUP2 PUSH1 0x0 ADD SLOAD SUB PUSH2 0x2EE8 JUMPI PUSH1 0x40 MLOAD PUSH32 0x8C379A000000000000000000000000000000000000000000000000000000000 DUP2 MSTORE PUSH1 0x4 ADD PUSH2 0x2EDF SWAP1 PUSH2 0x4209 JUMP JUMPDEST PUSH1 0x40 MLOAD DUP1 SWAP2 SUB SWAP1 REVERT JUMPDEST CALLER PUSH20 0xFFFFFFFFFFFFFFFFFFFFFFFFFFFFFFFFFFFFFFFF AND DUP2 PUSH1 0x1 ADD PUSH1 0x0 SWAP1 SLOAD SWAP1 PUSH2 0x100 EXP SWAP1 DIV PUSH20 0xFFFFFFFFFFFFFFFFFFFFFFFFFFFFFFFFFFFFFFFF AND PUSH20 0xFFFFFFFFFFFFFFFFFFFFFFFFFFFFFFFFFFFFFFFF AND EQ PUSH2 0x2F7A JUMPI PUSH1 0x40 MLOAD PUSH32 0x8C379A000000000000000000000000000000000000000000000000000000000 DUP2 MSTORE PUSH1 0x4 ADD PUSH2 0x2F71 SWAP1 PUSH2 0x45D0 JUMP JUMPDEST PUSH1 0x40 MLOAD DUP1 SWAP2 SUB SWAP1 REVERT JUMPDEST PUSH1 0x0 PUSH1 0x5 DUP2 GT ISZERO PUSH2 0x2F8E JUMPI PUSH2 0x2F8D PUSH2 0x34BB JUMP JUMPDEST JUMPDEST DUP2 PUSH1 0x6 ADD PUSH1 0x0 SWAP1 SLOAD SWAP1 PUSH2 0x100 EXP SWAP1 DIV PUSH1 0xFF AND PUSH1 0x5 DUP2 GT ISZERO PUSH2 0x2FB2 JUMPI PUSH2 0x2FB1 PUSH2 0x34BB JUMP JUMPDEST JUMPDEST EQ PUSH2 0x2FF2 JUMPI PUSH1 0x40 MLOAD PUSH32 0x8C379A000000000000000000000000000000000000000000000000000000000 DUP2 MSTORE PUSH1 0x4 ADD PUSH2 0x2FE9 SWAP1 PUSH2 0x48E4 JUMP JUMPDEST PUSH1 0x40 MLOAD DUP1 SWAP2 SUB SWAP1 REVERT JUMPDEST PUSH1 0x3 PUSH1 0x0 DUP5 DUP2 MSTORE PUSH1 0x20 ADD SWAP1 DUP2 MSTORE PUSH1 0x20 ADD PUSH1 0x0 KECCAK256 DUP1 SLOAD SWAP1 POP DUP3 LT PUSH2 0x304A JUMPI PUSH1 0x40 MLOAD PUSH32 0x8C379A000000000000000000000000000000000000000000000000000000000 DUP2 MSTORE PUSH1 0x4 ADD PUSH2 0x3041 SWAP1 PUSH2 0x4E24 JUMP JUMPDEST PUSH1 0x40 MLOAD DUP1 SWAP2 SUB SWAP1 REVERT JUMPDEST PUSH1 0x0 PUSH1 0x3 PUSH1 0x0 DUP6 DUP2 MSTORE PUSH1 0x20 ADD SWAP1 DUP2 MSTORE PUSH1 0x20 ADD PUSH1 0x0 KECCAK256 DUP4 DUP2 SLOAD DUP2 LT PUSH2 0x3071 JUMPI PUSH2 0x3070 PUSH2 0x47FD JUMP JUMPDEST JUMPDEST SWAP1 PUSH1 0x0 MSTORE PUSH1 0x20 PUSH1 0x0 KECCAK256 SWAP1 PUSH1 0x4 MUL ADD PUSH1 0x40 MLOAD DUP1 PUSH1 0x80 ADD PUSH1 0x40 MSTORE SWAP1 DUP2 PUSH1 0x0 DUP3 ADD PUSH1 0x0 SWAP1 SLOAD SWAP1 PUSH2 0x100 EXP SWAP1 DIV PUSH20 0xFFFFFFFFFFFFFFFFFFFFFFFFFFFFFFFFFFFFFFFF AND PUSH20 0xFFFFFFFFFFFFFFFFFFFFFFFFFFFFFFFFFFFFFFFF AND PUSH20 0xFFFFFFFFFFFFFFFFFFFFFFFFFFFFFFFFFFFFFFFF AND DUP2 MSTORE PUSH1 0x20 ADD PUSH1 0x1 DUP3 ADD SLOAD DUP2 MSTORE PUSH1 0x20 ADD PUSH1 0x2 DUP3 ADD SLOAD DUP2 MSTORE PUSH1 0x20 ADD PUSH1 0x3 DUP3 ADD PUSH1 0x0 SWAP1 SLOAD SWAP1 PUSH2 0x100 EXP SWAP1 DIV PUSH1 0xFF AND ISZERO ISZERO ISZERO ISZERO DUP2 MSTORE POP POP SWAP1 POP DUP1 PUSH1 0x60 ADD MLOAD PUSH2 0x3155 JUMPI PUSH1 0x40 MLOAD PUSH32 0x8C379A000000000000000000000000000000000000000000000000000000000 DUP2 MSTORE PUSH1 0x4 ADD PUSH2 0x314C SWAP1 PUSH2 0x4E90 JUMP JUMPDEST PUSH1 0x40 MLOAD DUP1 SWAP2 SUB SWAP1 REVERT JUMPDEST DUP1 PUSH1 0x20 ADD MLOAD CALLVALUE EQ PUSH2 0x319B JUMPI PUSH1 0x40 MLOAD PUSH32 0x8C379A000000000000000000000000000000000000000000000000000000000 DUP2 MSTORE PUSH1 0x4 ADD PUSH2 0x3192 SWAP1 PUSH2 0x4EFC JUMP JUMPDEST PUSH1 0x40 MLOAD DUP1 SWAP2 SUB SWAP1 REVERT JUMPDEST CALLVALUE PUSH1 0x4 PUSH1 0x0 DUP7 DUP2 MSTORE PUSH1 0x20 ADD SWAP1 DUP2 MSTORE PUSH1 0x20 ADD PUSH1 0x0 KECCAK256 DUP2 SWAP1 SSTORE POP CALLVALUE PUSH1 0x5 PUSH1 0x0 DUP3 DUP3 SLOAD PUSH2 0x31C5 SWAP2 SWAP1 PUSH2 0x4734 JUMP JUMPDEST SWAP3 POP POP DUP2 SWAP1 SSTORE POP DUP1 PUSH1 0x0 ADD MLOAD DUP3 PUSH1 0x6 ADD PUSH1 0x1 PUSH2 0x100 EXP DUP2 SLOAD DUP2 PUSH20 0xFFFFFFFFFFFFFFFFFFFFFFFFFFFFFFFFFFFFFFFF MUL NOT AND SWAP1 DUP4 PUSH20 0xFFFFFFFFFFFFFFFFFFFFFFFFFFFFFFFFFFFFFFFF AND MUL OR SWAP1 SSTORE POP DUP1 PUSH1 0x20 ADD MLOAD DUP3 PUSH1 0x7 ADD DUP2 SWAP1 SSTORE POP PUSH1 0x1 DUP3 PUSH1 0x6 ADD PUSH1 0x0 PUSH2 0x100 EXP DUP2 SLOAD DUP2 PUSH1 0xFF MUL NOT AND SWAP1 DUP4 PUSH1 0x5 DUP2 GT ISZERO PUSH2 0x3248 JUMPI PUSH2 0x3247 PUSH2 0x34BB JUMP JUMPDEST JUMPDEST MUL OR SWAP1 SSTORE POP DUP1 PUSH1 0x0 ADD MLOAD PUSH20 0xFFFFFFFFFFFFFFFFFFFFFFFFFFFFFFFFFFFFFFFF AND DUP5 PUSH32 0x56DF0A8471265DEFBC5FC12ACD0D3697AF77B77A7C9BA0137E81A1CE6D44BF52 DUP4 PUSH1 0x20 ADD MLOAD PUSH1 0x40 MLOAD PUSH2 0x329C SWAP2 SWAP1 PUSH2 0x3615 JUMP JUMPDEST PUSH1 0x40 MLOAD DUP1 SWAP2 SUB SWAP1 LOG3 POP POP PUSH1 0x1 PUSH1 0x6 DUP2 SWAP1 SSTORE POP POP POP JUMP JUMPDEST PUSH32 0x0 DUP2 JUMP JUMPDEST PUSH1 0x0 PUSH1 0x64 PUSH2 0x32E3 DUP4 PUSH2 0x32FF JUMP JUMPDEST DUP4 PUSH2 0x32EE SWAP2 SWAP1 PUSH2 0x4F1C JUMP JUMPDEST PUSH2 0x32F8 SWAP2 SWAP1 PUSH2 0x4F8D JUMP JUMPDEST SWAP1 POP SWAP2 SWAP1 POP JUMP JUMPDEST PUSH1 0x0 PUSH8 0xDE0B6B3A7640000 DUP3 LT PUSH2 0x3317 JUMPI PUSH1 0x1 PUSH2 0x331A JUMP JUMPDEST PUSH1 0x2 JUMPDEST PUSH1 0xFF AND SWAP1 POP SWAP2 SWAP1 POP JUMP JUMPDEST PUSH1 0x40 MLOAD DUP1 PUSH1 0x80 ADD PUSH1 0x40 MSTORE DUP1 PUSH1 0x0 PUSH20 0xFFFFFFFFFFFFFFFFFFFFFFFFFFFFFFFFFFFFFFFF AND DUP2 MSTORE PUSH1 0x20 ADD PUSH1 0x0 DUP2 MSTORE PUSH1 0x20 ADD PUSH1 0x0 DUP2 MSTORE PUSH1 0x20 ADD PUSH1 0x0 ISZERO ISZERO DUP2 MSTORE POP SWAP1 JUMP JUMPDEST PUSH1 0x0 PUSH1 0x40 MLOAD SWAP1 POP SWAP1 JUMP JUMPDEST PUSH1 0x0 DUP1 REVERT JUMPDEST PUSH1 0x0 DUP1 REVERT JUMPDEST PUSH1 0x0 DUP2 SWAP1 POP SWAP2 SWAP1 POP JUMP JUMPDEST PUSH2 0x338B DUP2 PUSH2 0x3378 JUMP JUMPDEST DUP2 EQ PUSH2 0x3396 JUMPI PUSH1 0x0 DUP1 REVERT JUMPDEST POP JUMP JUMPDEST PUSH1 0x0 DUP2 CALLDATALOAD SWAP1 POP PUSH2 0x33A8 DUP2 PUSH2 0x3382 JUMP JUMPDEST SWAP3 SWAP2 POP POP JUMP JUMPDEST PUSH1 0x0 PUSH1 0x20 DUP3 DUP5 SUB SLT ISZERO PUSH2 0x33C4 JUMPI PUSH2 0x33C3 PUSH2 0x336E JUMP JUMPDEST JUMPDEST PUSH1 0x0 PUSH2 0x33D2 DUP5 DUP3 DUP6 ADD PUSH2 0x3399 JUMP JUMPDEST SWAP2 POP POP SWAP3 SWAP2 POP POP JUMP JUMPDEST PUSH2 0x33E4 DUP2 PUSH2 0x3378 JUMP JUMPDEST DUP3 MSTORE POP POP JUMP JUMPDEST PUSH1 0x0 PUSH20 0xFFFFFFFFFFFFFFFFFFFFFFFFFFFFFFFFFFFFFFFF DUP3 AND SWAP1 POP SWAP2 SWAP1 POP JUMP JUMPDEST PUSH1 0x0 PUSH2 0x3415 DUP3 PUSH2 0x33EA JUMP JUMPDEST SWAP1 POP SWAP2 SWAP1 POP JUMP JUMPDEST PUSH2 0x3425 DUP2 PUSH2 0x340A JUMP JUMPDEST DUP3 MSTORE POP POP JUMP JUMPDEST PUSH1 0x0 DUP2 MLOAD SWAP1 POP SWAP2 SWAP1 POP JUMP JUMPDEST PUSH1 0x0 DUP3 DUP3 MSTORE PUSH1 0x20 DUP3 ADD SWAP1 POP SWAP3 SWAP2 POP POP JUMP JUMPDEST PUSH1 0x0 JUMPDEST DUP4 DUP2 LT ISZERO PUSH2 0x3465 JUMPI DUP1 DUP3 ADD MLOAD DUP2 DUP5 ADD MSTORE PUSH1 0x20 DUP2 ADD SWAP1 POP PUSH2 0x344A JUMP JUMPDEST PUSH1 0x0 DUP5 DUP5 ADD MSTORE POP POP POP POP JUMP JUMPDEST PUSH1 0x0 PUSH1 0x1F NOT PUSH1 0x1F DUP4 ADD AND SWAP1 POP SWAP2 SWAP1 POP JUMP JUMPDEST PUSH1 0x0 PUSH2 0x348D DUP3 PUSH2 0x342B JUMP JUMPDEST PUSH2 0x3497 DUP2 DUP6 PUSH2 0x3436 JUMP JUMPDEST SWAP4 POP PUSH2 0x34A7 DUP2 DUP6 PUSH1 0x20 DUP7 ADD PUSH2 0x3447 JUMP JUMPDEST PUSH2 0x34B0 DUP2 PUSH2 0x3471 JUMP JUMPDEST DUP5 ADD SWAP2 POP POP SWAP3 SWAP2 POP POP JUMP JUMPDEST PUSH32 0x4E487B7100000000000000000000000000000000000000000000000000000000 PUSH1 0x0 MSTORE PUSH1 0x21 PUSH1 0x4 MSTORE PUSH1 0x24 PUSH1 0x0 REVERT JUMPDEST PUSH1 0x6 DUP2 LT PUSH2 0x34FB JUMPI PUSH2 0x34FA PUSH2 0x34BB JUMP JUMPDEST JUMPDEST POP JUMP JUMPDEST PUSH1 0x0 DUP2 SWAP1 POP PUSH2 0x350C DUP3 PUSH2 0x34EA JUMP JUMPDEST SWAP2 SWAP1 POP JUMP JUMPDEST PUSH1 0x0 PUSH2 0x351C DUP3 PUSH2 0x34FE JUMP JUMPDEST SWAP1 POP SWAP2 SWAP1 POP JUMP JUMPDEST PUSH2 0x352C DUP2 PUSH2 0x3511 JUMP JUMPDEST DUP3 MSTORE POP POP JUMP JUMPDEST PUSH1 0x0 DUP2 ISZERO ISZERO SWAP1 POP SWAP2 SWAP1 POP JUMP JUMPDEST PUSH2 0x3547 DUP2 PUSH2 0x3532 JUMP JUMPDEST DUP3 MSTORE POP POP JUMP JUMPDEST PUSH1 0x0 PUSH2 0x180 DUP3 ADD SWAP1 POP PUSH2 0x3563 PUSH1 0x0 DUP4 ADD DUP16 PUSH2 0x33DB JUMP JUMPDEST PUSH2 0x3570 PUSH1 0x20 DUP4 ADD DUP15 PUSH2 0x341C JUMP JUMPDEST DUP2 DUP2 SUB PUSH1 0x40 DUP4 ADD MSTORE PUSH2 0x3582 DUP2 DUP14 PUSH2 0x3482 JUMP JUMPDEST SWAP1 POP DUP2 DUP2 SUB PUSH1 0x60 DUP4 ADD MSTORE PUSH2 0x3596 DUP2 DUP13 PUSH2 0x3482 JUMP JUMPDEST SWAP1 POP PUSH2 0x35A5 PUSH1 0x80 DUP4 ADD DUP12 PUSH2 0x33DB JUMP JUMPDEST PUSH2 0x35B2 PUSH1 0xA0 DUP4 ADD DUP11 PUSH2 0x33DB JUMP JUMPDEST PUSH2 0x35BF PUSH1 0xC0 DUP4 ADD DUP10 PUSH2 0x3523 JUMP JUMPDEST PUSH2 0x35CC PUSH1 0xE0 DUP4 ADD DUP9 PUSH2 0x341C JUMP JUMPDEST PUSH2 0x35DA PUSH2 0x100 DUP4 ADD DUP8 PUSH2 0x33DB JUMP JUMPDEST PUSH2 0x35E8 PUSH2 0x120 DUP4 ADD DUP7 PUSH2 0x353E JUMP JUMPDEST PUSH2 0x35F6 PUSH2 0x140 DUP4 ADD DUP6 PUSH2 0x353E JUMP JUMPDEST PUSH2 0x3604 PUSH2 0x160 DUP4 ADD DUP5 PUSH2 0x353E JUMP JUMPDEST SWAP14 SWAP13 POP POP POP POP POP POP POP POP POP POP POP POP POP JUMP JUMPDEST PUSH1 0x0 PUSH1 0x20 DUP3 ADD SWAP1 POP PUSH2 0x362A PUSH1 0x0 DUP4 ADD DUP5 PUSH2 0x33DB JUMP JUMPDEST SWAP3 SWAP2 POP POP JUMP JUMPDEST PUSH1 0x0 DUP1 REVERT JUMPDEST PUSH1 0x0 DUP1 REVERT JUMPDEST PUSH32 0x4E487B7100000000000000000000000000000000000000000000000000000000 PUSH1 0x0 MSTORE PUSH1 0x41 PUSH1 0x4 MSTORE PUSH1 0x24 PUSH1 0x0 REVERT JUMPDEST PUSH2 0x3672 DUP3 PUSH2 0x3471 JUMP JUMPDEST DUP2 ADD DUP2 DUP2 LT PUSH8 0xFFFFFFFFFFFFFFFF DUP3 GT OR ISZERO PUSH2 0x3691 JUMPI PUSH2 0x3690 PUSH2 0x363A JUMP JUMPDEST JUMPDEST DUP1 PUSH1 0x40 MSTORE POP POP POP JUMP JUMPDEST PUSH1 0x0 PUSH2 0x36A4 PUSH2 0x3364 JUMP JUMPDEST SWAP1 POP PUSH2 0x36B0 DUP3 DUP3 PUSH2 0x3669 JUMP JUMPDEST SWAP2 SWAP1 POP JUMP JUMPDEST PUSH1 0x0 PUSH8 0xFFFFFFFFFFFFFFFF DUP3 GT ISZERO PUSH2 0x36D0 JUMPI PUSH2 0x36CF PUSH2 0x363A JUMP JUMPDEST JUMPDEST PUSH2 0x36D9 DUP3 PUSH2 0x3471 JUMP JUMPDEST SWAP1 POP PUSH1 0x20 DUP2 ADD SWAP1 POP SWAP2 SWAP1 POP JUMP JUMPDEST DUP3 DUP2 DUP4 CALLDATACOPY PUSH1 0x0 DUP4 DUP4 ADD MSTORE POP POP POP JUMP JUMPDEST PUSH1 0x0 PUSH2 0x3708 PUSH2 0x3703 DUP5 PUSH2 0x36B5 JUMP JUMPDEST PUSH2 0x369A JUMP JUMPDEST SWAP1 POP DUP3 DUP2 MSTORE PUSH1 0x20 DUP2 ADD DUP5 DUP5 DUP5 ADD GT ISZERO PUSH2 0x3724 JUMPI PUSH2 0x3723 PUSH2 0x3635 JUMP JUMPDEST JUMPDEST PUSH2 0x372F DUP5 DUP3 DUP6 PUSH2 0x36E6 JUMP JUMPDEST POP SWAP4 SWAP3 POP POP POP JUMP JUMPDEST PUSH1 0x0 DUP3 PUSH1 0x1F DUP4 ADD SLT PUSH2 0x374C JUMPI PUSH2 0x374B PUSH2 0x3630 JUMP JUMPDEST JUMPDEST DUP2 CALLDATALOAD PUSH2 0x375C DUP5 DUP3 PUSH1 0x20 DUP7 ADD PUSH2 0x36F5 JUMP JUMPDEST SWAP2 POP POP SWAP3 SWAP2 POP POP JUMP JUMPDEST PUSH1 0x3 DUP2 LT PUSH2 0x3772 JUMPI PUSH1 0x0 DUP1 REVERT JUMPDEST POP JUMP JUMPDEST PUSH1 0x0 DUP2 CALLDATALOAD SWAP1 POP PUSH2 0x3784 DUP2 PUSH2 0x3765 JUMP JUMPDEST SWAP3 SWAP2 POP POP JUMP JUMPDEST PUSH1 0x0 DUP1 PUSH1 0x40 DUP4 DUP6 SUB SLT ISZERO PUSH2 0x37A1 JUMPI PUSH2 0x37A0 PUSH2 0x336E JUMP JUMPDEST JUMPDEST PUSH1 0x0 DUP4 ADD CALLDATALOAD PUSH8 0xFFFFFFFFFFFFFFFF DUP2 GT ISZERO PUSH2 0x37BF JUMPI PUSH2 0x37BE PUSH2 0x3373 JUMP JUMPDEST JUMPDEST PUSH2 0x37CB DUP6 DUP3 DUP7 ADD PUSH2 0x3737 JUMP JUMPDEST SWAP3 POP POP PUSH1 0x20 PUSH2 0x37DC DUP6 DUP3 DUP7 ADD PUSH2 0x3775 JUMP JUMPDEST SWAP2 POP POP SWAP3 POP SWAP3 SWAP1 POP JUMP JUMPDEST PUSH2 0x37EF DUP2 PUSH2 0x3532 JUMP JUMPDEST DUP2 EQ PUSH2 0x37FA JUMPI PUSH1 0x0 DUP1 REVERT JUMPDEST POP JUMP JUMPDEST PUSH1 0x0 DUP2 CALLDATALOAD SWAP1 POP PUSH2 0x380C DUP2 PUSH2 0x37E6 JUMP JUMPDEST SWAP3 SWAP2 POP POP JUMP JUMPDEST PUSH1 0x0 DUP1 PUSH1 0x40 DUP4 DUP6 SUB SLT ISZERO PUSH2 0x3829 JUMPI PUSH2 0x3828 PUSH2 0x336E JUMP JUMPDEST JUMPDEST PUSH1 0x0 PUSH2 0x3837 DUP6 DUP3 DUP7 ADD PUSH2 0x3399 JUMP JUMPDEST SWAP3 POP POP PUSH1 0x20 PUSH2 0x3848 DUP6 DUP3 DUP7 ADD PUSH2 0x37FD JUMP JUMPDEST SWAP2 POP POP SWAP3 POP SWAP3 SWAP1 POP JUMP JUMPDEST PUSH1 0x0 DUP1 PUSH1 0x40 DUP4 DUP6 SUB SLT ISZERO PUSH2 0x3869 JUMPI PUSH2 0x3868 PUSH2 0x336E JUMP JUMPDEST JUMPDEST PUSH1 0x0 PUSH2 0x3877 DUP6 DUP3 DUP7 ADD PUSH2 0x3399 JUMP JUMPDEST SWAP3 POP POP PUSH1 0x20 PUSH2 0x3888 DUP6 DUP3 DUP7 ADD PUSH2 0x3399 JUMP JUMPDEST SWAP2 POP POP SWAP3 POP SWAP3 SWAP1 POP JUMP JUMPDEST PUSH2 0x389B DUP2 PUSH2 0x340A JUMP JUMPDEST DUP3 MSTORE POP POP JUMP JUMPDEST PUSH2 0x38AA DUP2 PUSH2 0x3378 JUMP JUMPDEST DUP3 MSTORE POP POP JUMP JUMPDEST PUSH2 0x38B9 DUP2 PUSH2 0x3532 JUMP JUMPDEST DUP3 MSTORE POP POP JUMP JUMPDEST PUSH1 0x80 DUP3 ADD PUSH1 0x0 DUP3 ADD MLOAD PUSH2 0x38D5 PUSH1 0x0 DUP6 ADD DUP3 PUSH2 0x3892 JUMP JUMPDEST POP PUSH1 0x20 DUP3 ADD MLOAD PUSH2 0x38E8 PUSH1 0x20 DUP6 ADD DUP3 PUSH2 0x38A1 JUMP JUMPDEST POP PUSH1 0x40 DUP3 ADD MLOAD PUSH2 0x38FB PUSH1 0x40 DUP6 ADD DUP3 PUSH2 0x38A1 JUMP JUMPDEST POP PUSH1 0x60 DUP3 ADD MLOAD PUSH2 0x390E PUSH1 0x60 DUP6 ADD DUP3 PUSH2 0x38B0 JUMP JUMPDEST POP POP POP POP JUMP JUMPDEST PUSH1 0x0 PUSH1 0x80 DUP3 ADD SWAP1 POP PUSH2 0x3929 PUSH1 0x0 DUP4 ADD DUP5 PUSH2 0x38BF JUMP JUMPDEST SWAP3 SWAP2 POP POP JUMP JUMPDEST PUSH1 0x0 DUP1 PUSH1 0x0 PUSH1 0x60 DUP5 DUP7 SUB SLT ISZERO PUSH2 0x3948 JUMPI PUSH2 0x3947 PUSH2 0x336E JUMP JUMPDEST JUMPDEST PUSH1 0x0 PUSH2 0x3956 DUP7 DUP3 DUP8 ADD PUSH2 0x3399 JUMP JUMPDEST SWAP4 POP POP PUSH1 0x20 PUSH2 0x3967 DUP7 DUP3 DUP8 ADD PUSH2 0x3399 JUMP JUMPDEST SWAP3 POP POP PUSH1 0x40 PUSH2 0x3978 DUP7 DUP3 DUP8 ADD PUSH2 0x3399 JUMP JUMPDEST SWAP2 POP POP SWAP3 POP SWAP3 POP SWAP3 JUMP JUMPDEST PUSH1 0x0 DUP1 PUSH1 0x0 DUP1 PUSH1 0x80 DUP6 DUP8 SUB SLT ISZERO PUSH2 0x399C JUMPI PUSH2 0x399B PUSH2 0x336E JUMP JUMPDEST JUMPDEST PUSH1 0x0 DUP6 ADD CALLDATALOAD PUSH8 0xFFFFFFFFFFFFFFFF DUP2 GT ISZERO PUSH2 0x39BA JUMPI PUSH2 0x39B9 PUSH2 0x3373 JUMP JUMPDEST JUMPDEST PUSH2 0x39C6 DUP8 DUP3 DUP9 ADD PUSH2 0x3737 JUMP JUMPDEST SWAP5 POP POP PUSH1 0x20 DUP6 ADD CALLDATALOAD PUSH8 0xFFFFFFFFFFFFFFFF DUP2 GT ISZERO PUSH2 0x39E7 JUMPI PUSH2 0x39E6 PUSH2 0x3373 JUMP JUMPDEST JUMPDEST PUSH2 0x39F3 DUP8 DUP3 DUP9 ADD PUSH2 0x3737 JUMP JUMPDEST SWAP4 POP POP PUSH1 0x40 PUSH2 0x3A04 DUP8 DUP3 DUP9 ADD PUSH2 0x3399 JUMP JUMPDEST SWAP3 POP POP PUSH1 0x60 PUSH2 0x3A15 DUP8 DUP3 DUP9 ADD PUSH2 0x3399 JUMP JUMPDEST SWAP2 POP POP SWAP3 SWAP6 SWAP2 SWAP5 POP SWAP3 POP JUMP JUMPDEST PUSH2 0x3A2A DUP2 PUSH2 0x340A JUMP JUMPDEST DUP2 EQ PUSH2 0x3A35 JUMPI PUSH1 0x0 DUP1 REVERT JUMPDEST POP JUMP JUMPDEST PUSH1 0x0 DUP2 CALLDATALOAD SWAP1 POP PUSH2 0x3A47 DUP2 PUSH2 0x3A21 JUMP JUMPDEST SWAP3 SWAP2 POP POP JUMP JUMPDEST PUSH1 0x0 PUSH1 0x20 DUP3 DUP5 SUB SLT ISZERO PUSH2 0x3A63 JUMPI PUSH2 0x3A62 PUSH2 0x336E JUMP JUMPDEST JUMPDEST PUSH1 0x0 PUSH2 0x3A71 DUP5 DUP3 DUP6 ADD PUSH2 0x3A38 JUMP JUMPDEST SWAP2 POP POP SWAP3 SWAP2 POP POP JUMP JUMPDEST PUSH1 0x3 DUP2 LT PUSH2 0x3A8B JUMPI PUSH2 0x3A8A PUSH2 0x34BB JUMP JUMPDEST JUMPDEST POP JUMP JUMPDEST PUSH1 0x0 DUP2 SWAP1 POP PUSH2 0x3A9C DUP3 PUSH2 0x3A7A JUMP JUMPDEST SWAP2 SWAP1 POP JUMP JUMPDEST PUSH1 0x0 PUSH2 0x3AAC DUP3 PUSH2 0x3A8E JUMP JUMPDEST SWAP1 POP SWAP2 SWAP1 POP JUMP JUMPDEST PUSH2 0x3ABC DUP2 PUSH2 0x3AA1 JUMP JUMPDEST DUP3 MSTORE POP POP JUMP JUMPDEST PUSH1 0x0 PUSH2 0x3ACD DUP3 PUSH2 0x33EA JUMP JUMPDEST SWAP1 POP SWAP2 SWAP1 POP JUMP JUMPDEST PUSH2 0x3ADD DUP2 PUSH2 0x3AC2 JUMP JUMPDEST DUP3 MSTORE POP POP JUMP JUMPDEST PUSH1 0x0 PUSH1 0xA0 DUP3 ADD SWAP1 POP DUP2 DUP2 SUB PUSH1 0x0 DUP4 ADD MSTORE PUSH2 0x3AFD DUP2 DUP9 PUSH2 0x3482 JUMP JUMPDEST SWAP1 POP PUSH2 0x3B0C PUSH1 0x20 DUP4 ADD DUP8 PUSH2 0x3AB3 JUMP JUMPDEST PUSH2 0x3B19 PUSH1 0x40 DUP4 ADD DUP7 PUSH2 0x33DB JUMP JUMPDEST PUSH2 0x3B26 PUSH1 0x60 DUP4 ADD DUP6 PUSH2 0x3AD4 JUMP JUMPDEST PUSH2 0x3B33 PUSH1 0x80 DUP4 ADD DUP5 PUSH2 0x353E JUMP JUMPDEST SWAP7 SWAP6 POP POP POP POP POP POP JUMP JUMPDEST PUSH2 0x3B46 DUP2 PUSH2 0x3AC2 JUMP JUMPDEST DUP2 EQ PUSH2 0x3B51 JUMPI PUSH1 0x0 DUP1 REVERT JUMPDEST POP JUMP JUMPDEST PUSH1 0x0 DUP2 CALLDATALOAD SWAP1 POP PUSH2 0x3B63 DUP2 PUSH2 0x3B3D JUMP JUMPDEST SWAP3 SWAP2 POP POP JUMP JUMPDEST PUSH1 0x0 DUP1 PUSH1 0x40 DUP4 DUP6 SUB SLT ISZERO PUSH2 0x3B80 JUMPI PUSH2 0x3B7F PUSH2 0x336E JUMP JUMPDEST JUMPDEST PUSH1 0x0 PUSH2 0x3B8E DUP6 DUP3 DUP7 ADD PUSH2 0x3B54 JUMP JUMPDEST SWAP3 POP POP PUSH1 0x20 PUSH2 0x3B9F DUP6 DUP3 DUP7 ADD PUSH2 0x3399 JUMP JUMPDEST SWAP2 POP POP SWAP3 POP SWAP3 SWAP1 POP JUMP JUMPDEST PUSH1 0x0 PUSH1 0x20 DUP3 ADD SWAP1 POP PUSH2 0x3BBE PUSH1 0x0 DUP4 ADD DUP5 PUSH2 0x341C JUMP JUMPDEST SWAP3 SWAP2 POP POP JUMP JUMPDEST PUSH32 0x4E487B7100000000000000000000000000000000000000000000000000000000 PUSH1 0x0 MSTORE PUSH1 0x22 PUSH1 0x4 MSTORE PUSH1 0x24 PUSH1 0x0 REVERT JUMPDEST PUSH1 0x0 PUSH1 0x2 DUP3 DIV SWAP1 POP PUSH1 0x1 DUP3 AND DUP1 PUSH2 0x3C0B JUMPI PUSH1 0x7F DUP3 AND SWAP2 POP JUMPDEST PUSH1 0x20 DUP3 LT DUP2 SUB PUSH2 0x3C1E JUMPI PUSH2 0x3C1D PUSH2 0x3BC4 JUMP JUMPDEST JUMPDEST POP SWAP2 SWAP1 POP JUMP JUMPDEST PUSH32 0x4E487B7100000000000000000000000000000000000000000000000000000000 PUSH1 0x0 MSTORE PUSH1 0x11 PUSH1 0x4 MSTORE PUSH1 0x24 PUSH1 0x0 REVERT JUMPDEST PUSH1 0x0 PUSH2 0x3C5E DUP3 PUSH2 0x3378 JUMP JUMPDEST SWAP2 POP PUSH2 0x3C69 DUP4 PUSH2 0x3378 JUMP JUMPDEST SWAP3 POP DUP3 DUP3 SUB SWAP1 POP DUP2 DUP2 GT ISZERO PUSH2 0x3C81 JUMPI PUSH2 0x3C80 PUSH2 0x3C24 JUMP JUMPDEST JUMPDEST SWAP3 SWAP2 POP POP JUMP JUMPDEST PUSH32 0x5573657220616C72656164792072656769737465726564000000000000000000 PUSH1 0x0 DUP3 ADD MSTORE POP JUMP JUMPDEST PUSH1 0x0 PUSH2 0x3CBD PUSH1 0x17 DUP4 PUSH2 0x3436 JUMP JUMPDEST SWAP2 POP PUSH2 0x3CC8 DUP3 PUSH2 0x3C87 JUMP JUMPDEST PUSH1 0x20 DUP3 ADD SWAP1 POP SWAP2 SWAP1 POP JUMP JUMPDEST PUSH1 0x0 PUSH1 0x20 DUP3 ADD SWAP1 POP DUP2 DUP2 SUB PUSH1 0x0 DUP4 ADD MSTORE PUSH2 0x3CEC DUP2 PUSH2 0x3CB0 JUMP JUMPDEST SWAP1 POP SWAP2 SWAP1 POP JUMP JUMPDEST PUSH32 0x4F6E6C79206465706C6F7965722063616E206265204172626974657200000000 PUSH1 0x0 DUP3 ADD MSTORE POP JUMP JUMPDEST PUSH1 0x0 PUSH2 0x3D29 PUSH1 0x1C DUP4 PUSH2 0x3436 JUMP JUMPDEST SWAP2 POP PUSH2 0x3D34 DUP3 PUSH2 0x3CF3 JUMP JUMPDEST PUSH1 0x20 DUP3 ADD SWAP1 POP SWAP2 SWAP1 POP JUMP JUMPDEST PUSH1 0x0 PUSH1 0x20 DUP3 ADD SWAP1 POP DUP2 DUP2 SUB PUSH1 0x0 DUP4 ADD MSTORE PUSH2 0x3D58 DUP2 PUSH2 0x3D1C JUMP JUMPDEST SWAP1 POP SWAP2 SWAP1 POP JUMP JUMPDEST PUSH32 0x496E76616C696420726F6C650000000000000000000000000000000000000000 PUSH1 0x0 DUP3 ADD MSTORE POP JUMP JUMPDEST PUSH1 0x0 PUSH2 0x3D95 PUSH1 0xC DUP4 PUSH2 0x3436 JUMP JUMPDEST SWAP2 POP PUSH2 0x3DA0 DUP3 PUSH2 0x3D5F JUMP JUMPDEST PUSH1 0x20 DUP3 ADD SWAP1 POP SWAP2 SWAP1 POP JUMP JUMPDEST PUSH1 0x0 PUSH1 0x20 DUP3 ADD SWAP1 POP DUP2 DUP2 SUB PUSH1 0x0 DUP4 ADD MSTORE PUSH2 0x3DC4 DUP2 PUSH2 0x3D88 JUMP JUMPDEST SWAP1 POP SWAP2 SWAP1 POP JUMP JUMPDEST PUSH1 0x0 DUP2 SWAP1 POP DUP2 PUSH1 0x0 MSTORE PUSH1 0x20 PUSH1 0x0 KECCAK256 SWAP1 POP SWAP2 SWAP1 POP JUMP JUMPDEST PUSH1 0x0 PUSH1 0x20 PUSH1 0x1F DUP4 ADD DIV SWAP1 POP SWAP2 SWAP1 POP JUMP JUMPDEST PUSH1 0x0 DUP3 DUP3 SHL SWAP1 POP SWAP3 SWAP2 POP POP JUMP JUMPDEST PUSH1 0x0 PUSH1 0x8 DUP4 MUL PUSH2 0x3E2D PUSH32 0xFFFFFFFFFFFFFFFFFFFFFFFFFFFFFFFFFFFFFFFFFFFFFFFFFFFFFFFFFFFFFFFF DUP3 PUSH2 0x3DF0 JUMP JUMPDEST PUSH2 0x3E37 DUP7 DUP4 PUSH2 0x3DF0 JUMP JUMPDEST SWAP6 POP DUP1 NOT DUP5 AND SWAP4 POP DUP1 DUP7 AND DUP5 OR SWAP3 POP POP POP SWAP4 SWAP3 POP POP POP JUMP JUMPDEST PUSH1 0x0 DUP2 SWAP1 POP SWAP2 SWAP1 POP JUMP JUMPDEST PUSH1 0x0 PUSH2 0x3E74 PUSH2 0x3E6F PUSH2 0x3E6A DUP5 PUSH2 0x3378 JUMP JUMPDEST PUSH2 0x3E4F JUMP JUMPDEST PUSH2 0x3378 JUMP JUMPDEST SWAP1 POP SWAP2 SWAP1 POP JUMP JUMPDEST PUSH1 0x0 DUP2 SWAP1 POP SWAP2 SWAP1 POP JUMP JUMPDEST PUSH2 0x3E8E DUP4 PUSH2 0x3E59 JUMP JUMPDEST PUSH2 0x3EA2 PUSH2 0x3E9A DUP3 PUSH2 0x3E7B JUMP JUMPDEST DUP5 DUP5 SLOAD PUSH2 0x3DFD JUMP JUMPDEST DUP3 SSTORE POP POP POP POP JUMP JUMPDEST PUSH1 0x0 SWAP1 JUMP JUMPDEST PUSH2 0x3EB7 PUSH2 0x3EAA JUMP JUMPDEST PUSH2 0x3EC2 DUP2 DUP5 DUP5 PUSH2 0x3E85 JUMP JUMPDEST POP POP POP JUMP JUMPDEST JUMPDEST DUP2 DUP2 LT ISZERO PUSH2 0x3EE6 JUMPI PUSH2 0x3EDB PUSH1 0x0 DUP3 PUSH2 0x3EAF JUMP JUMPDEST PUSH1 0x1 DUP2 ADD SWAP1 POP PUSH2 0x3EC8 JUMP JUMPDEST POP POP JUMP JUMPDEST PUSH1 0x1F DUP3 GT ISZERO PUSH2 0x3F2B JUMPI PUSH2 0x3EFC DUP2 PUSH2 0x3DCB JUMP JUMPDEST PUSH2 0x3F05 DUP5 PUSH2 0x3DE0 JUMP JUMPDEST DUP2 ADD PUSH1 0x20 DUP6 LT ISZERO PUSH2 0x3F14 JUMPI DUP2 SWAP1 POP JUMPDEST PUSH2 0x3F28 PUSH2 0x3F20 DUP6 PUSH2 0x3DE0 JUMP JUMPDEST DUP4 ADD DUP3 PUSH2 0x3EC7 JUMP JUMPDEST POP POP JUMPDEST POP POP POP JUMP JUMPDEST PUSH1 0x0 DUP3 DUP3 SHR SWAP1 POP SWAP3 SWAP2 POP POP JUMP JUMPDEST PUSH1 0x0 PUSH2 0x3F4E PUSH1 0x0 NOT DUP5 PUSH1 0x8 MUL PUSH2 0x3F30 JUMP JUMPDEST NOT DUP1 DUP4 AND SWAP2 POP POP SWAP3 SWAP2 POP POP JUMP JUMPDEST PUSH1 0x0 PUSH2 0x3F67 DUP4 DUP4 PUSH2 0x3F3D JUMP JUMPDEST SWAP2 POP DUP3 PUSH1 0x2 MUL DUP3 OR SWAP1 POP SWAP3 SWAP2 POP POP JUMP JUMPDEST PUSH2 0x3F80 DUP3 PUSH2 0x342B JUMP JUMPDEST PUSH8 0xFFFFFFFFFFFFFFFF DUP2 GT ISZERO PUSH2 0x3F99 JUMPI PUSH2 0x3F98 PUSH2 0x363A JUMP JUMPDEST JUMPDEST PUSH2 0x3FA3 DUP3 SLOAD PUSH2 0x3BF3 JUMP JUMPDEST PUSH2 0x3FAE DUP3 DUP3 DUP6 PUSH2 0x3EEA JUMP JUMPDEST PUSH1 0x0 PUSH1 0x20 SWAP1 POP PUSH1 0x1F DUP4 GT PUSH1 0x1 DUP2 EQ PUSH2 0x3FE1 JUMPI PUSH1 0x0 DUP5 ISZERO PUSH2 0x3FCF JUMPI DUP3 DUP8 ADD MLOAD SWAP1 POP JUMPDEST PUSH2 0x3FD9 DUP6 DUP3 PUSH2 0x3F5B JUMP JUMPDEST DUP7 SSTORE POP PUSH2 0x4041 JUMP JUMPDEST PUSH1 0x1F NOT DUP5 AND PUSH2 0x3FEF DUP7 PUSH2 0x3DCB JUMP JUMPDEST PUSH1 0x0 JUMPDEST DUP3 DUP2 LT ISZERO PUSH2 0x4017 JUMPI DUP5 DUP10 ADD MLOAD DUP3 SSTORE PUSH1 0x1 DUP3 ADD SWAP2 POP PUSH1 0x20 DUP6 ADD SWAP5 POP PUSH1 0x20 DUP2 ADD SWAP1 POP PUSH2 0x3FF2 JUMP JUMPDEST DUP7 DUP4 LT ISZERO PUSH2 0x4034 JUMPI DUP5 DUP10 ADD MLOAD PUSH2 0x4030 PUSH1 0x1F DUP10 AND DUP3 PUSH2 0x3F3D JUMP JUMPDEST DUP4 SSTORE POP JUMPDEST PUSH1 0x1 PUSH1 0x2 DUP9 MUL ADD DUP9 SSTORE POP POP POP JUMPDEST POP POP POP POP POP POP JUMP JUMPDEST PUSH1 0x0 PUSH1 0x40 DUP3 ADD SWAP1 POP DUP2 DUP2 SUB PUSH1 0x0 DUP4 ADD MSTORE PUSH2 0x4063 DUP2 DUP6 PUSH2 0x3482 JUMP JUMPDEST SWAP1 POP PUSH2 0x4072 PUSH1 0x20 DUP4 ADD DUP5 PUSH2 0x3AB3 JUMP JUMPDEST SWAP4 SWAP3 POP POP POP JUMP JUMPDEST PUSH32 0x4F6E6C7920617262697465720000000000000000000000000000000000000000 PUSH1 0x0 DUP3 ADD MSTORE POP JUMP JUMPDEST PUSH1 0x0 PUSH2 0x40AF PUSH1 0xC DUP4 PUSH2 0x3436 JUMP JUMPDEST SWAP2 POP PUSH2 0x40BA DUP3 PUSH2 0x4079 JUMP JUMPDEST PUSH1 0x20 DUP3 ADD SWAP1 POP SWAP2 SWAP1 POP JUMP JUMPDEST PUSH1 0x0 PUSH1 0x20 DUP3 ADD SWAP1 POP DUP2 DUP2 SUB PUSH1 0x0 DUP4 ADD MSTORE PUSH2 0x40DE DUP2 PUSH2 0x40A2 JUMP JUMPDEST SWAP1 POP SWAP2 SWAP1 POP JUMP JUMPDEST PUSH32 0x41726269746572206E6F74207265676973746572656400000000000000000000 PUSH1 0x0 DUP3 ADD MSTORE POP JUMP JUMPDEST PUSH1 0x0 PUSH2 0x411B PUSH1 0x16 DUP4 PUSH2 0x3436 JUMP JUMPDEST SWAP2 POP PUSH2 0x4126 DUP3 PUSH2 0x40E5 JUMP JUMPDEST PUSH1 0x20 DUP3 ADD SWAP1 POP SWAP2 SWAP1 POP JUMP JUMPDEST PUSH1 0x0 PUSH1 0x20 DUP3 ADD SWAP1 POP DUP2 DUP2 SUB PUSH1 0x0 DUP4 ADD MSTORE PUSH2 0x414A DUP2 PUSH2 0x410E JUMP JUMPDEST SWAP1 POP SWAP2 SWAP1 POP JUMP JUMPDEST PUSH32 0x5265656E7472616E637900000000000000000000000000000000000000000000 PUSH1 0x0 DUP3 ADD MSTORE POP JUMP JUMPDEST PUSH1 0x0 PUSH2 0x4187 PUSH1 0xA DUP4 PUSH2 0x3436 JUMP JUMPDEST SWAP2 POP PUSH2 0x4192 DUP3 PUSH2 0x4151 JUMP JUMPDEST PUSH1 0x20 DUP3 ADD SWAP1 POP SWAP2 SWAP1 POP JUMP JUMPDEST PUSH1 0x0 PUSH1 0x20 DUP3 ADD SWAP1 POP DUP2 DUP2 SUB PUSH1 0x0 DUP4 ADD MSTORE PUSH2 0x41B6 DUP2 PUSH2 0x417A JUMP JUMPDEST SWAP1 POP SWAP2 SWAP1 POP JUMP JUMPDEST PUSH32 0x4A6F6220646F6573206E6F742065786973740000000000000000000000000000 PUSH1 0x0 DUP3 ADD MSTORE POP JUMP JUMPDEST PUSH1 0x0 PUSH2 0x41F3 PUSH1 0x12 DUP4 PUSH2 0x3436 JUMP JUMPDEST SWAP2 POP PUSH2 0x41FE DUP3 PUSH2 0x41BD JUMP JUMPDEST PUSH1 0x20 DUP3 ADD SWAP1 POP SWAP2 SWAP1 POP JUMP JUMPDEST PUSH1 0x0 PUSH1 0x20 DUP3 ADD SWAP1 POP DUP2 DUP2 SUB PUSH1 0x0 DUP4 ADD MSTORE PUSH2 0x4222 DUP2 PUSH2 0x41E6 JUMP JUMPDEST SWAP1 POP SWAP2 SWAP1 POP JUMP JUMPDEST PUSH32 0x4A6F62206E6F7420646973707574656400000000000000000000000000000000 PUSH1 0x0 DUP3 ADD MSTORE POP JUMP JUMPDEST PUSH1 0x0 PUSH2 0x425F PUSH1 0x10 DUP4 PUSH2 0x3436 JUMP JUMPDEST SWAP2 POP PUSH2 0x426A DUP3 PUSH2 0x4229 JUMP JUMPDEST PUSH1 0x20 DUP3 ADD SWAP1 POP SWAP2 SWAP1 POP JUMP JUMPDEST PUSH1 0x0 PUSH1 0x20 DUP3 ADD SWAP1 POP DUP2 DUP2 SUB PUSH1 0x0 DUP4 ADD MSTORE PUSH2 0x428E DUP2 PUSH2 0x4252 JUMP JUMPDEST SWAP1 POP SWAP2 SWAP1 POP JUMP JUMPDEST PUSH32 0x457363726F77206E6F7420666F756E6400000000000000000000000000000000 PUSH1 0x0 DUP3 ADD MSTORE POP JUMP JUMPDEST PUSH1 0x0 PUSH2 0x42CB PUSH1 0x10 DUP4 PUSH2 0x3436 JUMP JUMPDEST SWAP2 POP PUSH2 0x42D6 DUP3 PUSH2 0x4295 JUMP JUMPDEST PUSH1 0x20 DUP3 ADD SWAP1 POP SWAP2 SWAP1 POP JUMP JUMPDEST PUSH1 0x0 PUSH1 0x20 DUP3 ADD SWAP1 POP DUP2 DUP2 SUB PUSH1 0x0 DUP4 ADD MSTORE PUSH2 0x42FA DUP2 PUSH2 0x42BE JUMP JUMPDEST SWAP1 POP SWAP2 SWAP1 POP JUMP JUMPDEST PUSH1 0x0 DUP2 SWAP1 POP SWAP3 SWAP2 POP POP JUMP JUMPDEST POP JUMP JUMPDEST PUSH1 0x0 PUSH2 0x431C PUSH1 0x0 DUP4 PUSH2 0x4301 JUMP JUMPDEST SWAP2 POP PUSH2 0x4327 DUP3 PUSH2 0x430C JUMP JUMPDEST PUSH1 0x0 DUP3 ADD SWAP1 POP SWAP2 SWAP1 POP JUMP JUMPDEST PUSH1 0x0 PUSH2 0x433D DUP3 PUSH2 0x430F JUMP JUMPDEST SWAP2 POP DUP2 SWAP1 POP SWAP2 SWAP1 POP JUMP JUMPDEST PUSH32 0x5061796D656E7420746F20667265656C616E636572206661696C656400000000 PUSH1 0x0 DUP3 ADD MSTORE POP JUMP JUMPDEST PUSH1 0x0 PUSH2 0x437D PUSH1 0x1C DUP4 PUSH2 0x3436 JUMP JUMPDEST SWAP2 POP PUSH2 0x4388 DUP3 PUSH2 0x4347 JUMP JUMPDEST PUSH1 0x20 DUP3 ADD SWAP1 POP SWAP2 SWAP1 POP JUMP JUMPDEST PUSH1 0x0 PUSH1 0x20 DUP3 ADD SWAP1 POP DUP2 DUP2 SUB PUSH1 0x0 DUP4 ADD MSTORE PUSH2 0x43AC DUP2 PUSH2 0x4370 JUMP JUMPDEST SWAP1 POP SWAP2 SWAP1 POP JUMP JUMPDEST PUSH1 0x0 PUSH1 0x40 DUP3 ADD SWAP1 POP PUSH2 0x43C8 PUSH1 0x0 DUP4 ADD DUP6 PUSH2 0x353E JUMP JUMPDEST PUSH2 0x43D5 PUSH1 0x20 DUP4 ADD DUP5 PUSH2 0x33DB JUMP JUMPDEST SWAP4 SWAP3 POP POP POP JUMP JUMPDEST PUSH32 0x526566756E64206661696C656400000000000000000000000000000000000000 PUSH1 0x0 DUP3 ADD MSTORE POP JUMP JUMPDEST PUSH1 0x0 PUSH2 0x4412 PUSH1 0xD DUP4 PUSH2 0x3436 JUMP JUMPDEST SWAP2 POP PUSH2 0x441D DUP3 PUSH2 0x43DC JUMP JUMPDEST PUSH1 0x20 DUP3 ADD SWAP1 POP SWAP2 SWAP1 POP JUMP JUMPDEST PUSH1 0x0 PUSH1 0x20 DUP3 ADD SWAP1 POP DUP2 DUP2 SUB PUSH1 0x0 DUP4 ADD MSTORE PUSH2 0x4441 DUP2 PUSH2 0x4405 JUMP JUMPDEST SWAP1 POP SWAP2 SWAP1 POP JUMP JUMPDEST PUSH1 0x0 DUP2 SWAP1 POP SWAP2 SWAP1 POP JUMP JUMPDEST PUSH1 0x0 PUSH2 0x446D PUSH2 0x4468 PUSH2 0x4463 DUP5 PUSH2 0x4448 JUMP JUMPDEST PUSH2 0x3E4F JUMP JUMPDEST PUSH2 0x3378 JUMP JUMPDEST SWAP1 POP SWAP2 SWAP1 POP JUMP JUMPDEST PUSH2 0x447D DUP2 PUSH2 0x4452 JUMP JUMPDEST DUP3 MSTORE POP POP JUMP JUMPDEST PUSH1 0x0 PUSH1 0x40 DUP3 ADD SWAP1 POP PUSH2 0x4498 PUSH1 0x0 DUP4 ADD DUP6 PUSH2 0x353E JUMP JUMPDEST PUSH2 0x44A5 PUSH1 0x20 DUP4 ADD DUP5 PUSH2 0x4474 JUMP JUMPDEST SWAP4 SWAP3 POP POP POP JUMP JUMPDEST PUSH32 0x4E6F742072656769737465726564000000000000000000000000000000000000 PUSH1 0x0 DUP3 ADD MSTORE POP JUMP JUMPDEST PUSH1 0x0 PUSH2 0x44E2 PUSH1 0xE DUP4 PUSH2 0x3436 JUMP JUMPDEST SWAP2 POP PUSH2 0x44ED DUP3 PUSH2 0x44AC JUMP JUMPDEST PUSH1 0x20 DUP3 ADD SWAP1 POP SWAP2 SWAP1 POP JUMP JUMPDEST PUSH1 0x0 PUSH1 0x20 DUP3 ADD SWAP1 POP DUP2 DUP2 SUB PUSH1 0x0 DUP4 ADD MSTORE PUSH2 0x4511 DUP2 PUSH2 0x44D5 JUMP JUMPDEST SWAP1 POP SWAP2 SWAP1 POP JUMP JUMPDEST PUSH32 0x4F6E6C7920636C69656E74000000000000000000000000000000000000000000 PUSH1 0x0 DUP3 ADD MSTORE POP JUMP JUMPDEST PUSH1 0x0 PUSH2 0x454E PUSH1 0xB DUP4 PUSH2 0x3436 JUMP JUMPDEST SWAP2 POP PUSH2 0x4559 DUP3 PUSH2 0x4518 JUMP JUMPDEST PUSH1 0x20 DUP3 ADD SWAP1 POP SWAP2 SWAP1 POP JUMP JUMPDEST PUSH1 0x0 PUSH1 0x20 DUP3 ADD SWAP1 POP DUP2 DUP2 SUB PUSH1 0x0 DUP4 ADD MSTORE PUSH2 0x457D DUP2 PUSH2 0x4541 JUMP JUMPDEST SWAP1 POP SWAP2 SWAP1 POP JUMP JUMPDEST PUSH32 0x4E6F7420796F7572206A6F620000000000000000000000000000000000000000 PUSH1 0x0 DUP3 ADD MSTORE POP JUMP JUMPDEST PUSH1 0x0 PUSH2 0x45BA PUSH1 0xC DUP4 PUSH2 0x3436 JUMP JUMPDEST SWAP2 POP PUSH2 0x45C5 DUP3 PUSH2 0x4584 JUMP JUMPDEST PUSH1 0x20 DUP3 ADD SWAP1 POP SWAP2 SWAP1 POP JUMP JUMPDEST PUSH1 0x0 PUSH1 0x20 DUP3 ADD SWAP1 POP DUP2 DUP2 SUB PUSH1 0x0 DUP4 ADD MSTORE PUSH2 0x45E9 DUP2 PUSH2 0x45AD JUMP JUMPDEST SWAP1 POP SWAP2 SWAP1 POP JUMP JUMPDEST PUSH32 0x4A6F62206E6F7420636F6D706C65746564000000000000000000000000000000 PUSH1 0x0 DUP3 ADD MSTORE POP JUMP JUMPDEST PUSH1 0x0 PUSH2 0x4626 PUSH1 0x11 DUP4 PUSH2 0x3436 JUMP JUMPDEST SWAP2 POP PUSH2 0x4631 DUP3 PUSH2 0x45F0 JUMP JUMPDEST PUSH1 0x20 DUP3 ADD SWAP1 POP SWAP2 SWAP1 POP JUMP JUMPDEST PUSH1 0x0 PUSH1 0x20 DUP3 ADD SWAP1 POP DUP2 DUP2 SUB PUSH1 0x0 DUP4 ADD MSTORE PUSH2 0x4655 DUP2 PUSH2 0x4619 JUMP JUMPDEST SWAP1 POP SWAP2 SWAP1 POP JUMP JUMPDEST PUSH32 0x4A6F622064697370757465640000000000000000000000000000000000000000 PUSH1 0x0 DUP3 ADD MSTORE POP JUMP JUMPDEST PUSH1 0x0 PUSH2 0x4692 PUSH1 0xC DUP4 PUSH2 0x3436 JUMP JUMPDEST SWAP2 POP PUSH2 0x469D DUP3 PUSH2 0x465C JUMP JUMPDEST PUSH1 0x20 DUP3 ADD SWAP1 POP SWAP2 SWAP1 POP JUMP JUMPDEST PUSH1 0x0 PUSH1 0x20 DUP3 ADD SWAP1 POP DUP2 DUP2 SUB PUSH1 0x0 DUP4 ADD MSTORE PUSH2 0x46C1 DUP2 PUSH2 0x4685 JUMP JUMPDEST SWAP1 POP SWAP2 SWAP1 POP JUMP JUMPDEST PUSH32 0x467265656C616E636572206E6F74206D61726B656420646F6E65000000000000 PUSH1 0x0 DUP3 ADD MSTORE POP JUMP JUMPDEST PUSH1 0x0 PUSH2 0x46FE PUSH1 0x1A DUP4 PUSH2 0x3436 JUMP JUMPDEST SWAP2 POP PUSH2 0x4709 DUP3 PUSH2 0x46C8 JUMP JUMPDEST PUSH1 0x20 DUP3 ADD SWAP1 POP SWAP2 SWAP1 POP JUMP JUMPDEST PUSH1 0x0 PUSH1 0x20 DUP3 ADD SWAP1 POP DUP2 DUP2 SUB PUSH1 0x0 DUP4 ADD MSTORE PUSH2 0x472D DUP2 PUSH2 0x46F1 JUMP JUMPDEST SWAP1 POP SWAP2 SWAP1 POP JUMP JUMPDEST PUSH1 0x0 PUSH2 0x473F DUP3 PUSH2 0x3378 JUMP JUMPDEST SWAP2 POP PUSH2 0x474A DUP4 PUSH2 0x3378 JUMP JUMPDEST SWAP3 POP DUP3 DUP3 ADD SWAP1 POP DUP1 DUP3 GT ISZERO PUSH2 0x4762 JUMPI PUSH2 0x4761 PUSH2 0x3C24 JUMP JUMPDEST JUMPDEST SWAP3 SWAP2 POP POP JUMP JUMPDEST PUSH1 0x0 PUSH1 0x40 DUP3 ADD SWAP1 POP PUSH2 0x477D PUSH1 0x0 DUP4 ADD DUP6 PUSH2 0x33DB JUMP JUMPDEST PUSH2 0x478A PUSH1 0x20 DUP4 ADD DUP5 PUSH2 0x33DB JUMP JUMPDEST SWAP4 SWAP3 POP POP POP JUMP JUMPDEST PUSH32 0x42616420696E6465780000000000000000000000000000000000000000000000 PUSH1 0x0 DUP3 ADD MSTORE POP JUMP JUMPDEST PUSH1 0x0 PUSH2 0x47C7 PUSH1 0x9 DUP4 PUSH2 0x3436 JUMP JUMPDEST SWAP2 POP PUSH2 0x47D2 DUP3 PUSH2 0x4791 JUMP JUMPDEST PUSH1 0x20 DUP3 ADD SWAP1 POP SWAP2 SWAP1 POP JUMP JUMPDEST PUSH1 0x0 PUSH1 0x20 DUP3 ADD SWAP1 POP DUP2 DUP2 SUB PUSH1 0x0 DUP4 ADD MSTORE PUSH2 0x47F6 DUP2 PUSH2 0x47BA JUMP JUMPDEST SWAP1 POP SWAP2 SWAP1 POP JUMP JUMPDEST PUSH32 0x4E487B7100000000000000000000000000000000000000000000000000000000 PUSH1 0x0 MSTORE PUSH1 0x32 PUSH1 0x4 MSTORE PUSH1 0x24 PUSH1 0x0 REVERT JUMPDEST PUSH32 0x4F6E6C7920667265656C616E6365720000000000000000000000000000000000 PUSH1 0x0 DUP3 ADD MSTORE POP JUMP JUMPDEST PUSH1 0x0 PUSH2 0x4862 PUSH1 0xF DUP4 PUSH2 0x3436 JUMP JUMPDEST SWAP2 POP PUSH2 0x486D DUP3 PUSH2 0x482C JUMP JUMPDEST PUSH1 0x20 DUP3 ADD SWAP1 POP SWAP2 SWAP1 POP JUMP JUMPDEST PUSH1 0x0 PUSH1 0x20 DUP3 ADD SWAP1 POP DUP2 DUP2 SUB PUSH1 0x0 DUP4 ADD MSTORE PUSH2 0x4891 DUP2 PUSH2 0x4855 JUMP JUMPDEST SWAP1 POP SWAP2 SWAP1 POP JUMP JUMPDEST PUSH32 0x4A6F62206E6F74206F70656E0000000000000000000000000000000000000000 PUSH1 0x0 DUP3 ADD MSTORE POP JUMP JUMPDEST PUSH1 0x0 PUSH2 0x48CE PUSH1 0xC DUP4 PUSH2 0x3436 JUMP JUMPDEST SWAP2 POP PUSH2 0x48D9 DUP3 PUSH2 0x4898 JUMP JUMPDEST PUSH1 0x20 DUP3 ADD SWAP1 POP SWAP2 SWAP1 POP JUMP JUMPDEST PUSH1 0x0 PUSH1 0x20 DUP3 ADD SWAP1 POP DUP2 DUP2 SUB PUSH1 0x0 DUP4 ADD MSTORE PUSH2 0x48FD DUP2 PUSH2 0x48C1 JUMP JUMPDEST SWAP1 POP SWAP2 SWAP1 POP JUMP JUMPDEST PUSH32 0x426964206D757374206265203E20300000000000000000000000000000000000 PUSH1 0x0 DUP3 ADD MSTORE POP JUMP JUMPDEST PUSH1 0x0 PUSH2 0x493A PUSH1 0xF DUP4 PUSH2 0x3436 JUMP JUMPDEST SWAP2 POP PUSH2 0x4945 DUP3 PUSH2 0x4904 JUMP JUMPDEST PUSH1 0x20 DUP3 ADD SWAP1 POP SWAP2 SWAP1 POP JUMP JUMPDEST PUSH1 0x0 PUSH1 0x20 DUP3 ADD SWAP1 POP DUP2 DUP2 SUB PUSH1 0x0 DUP4 ADD MSTORE PUSH2 0x4969 DUP2 PUSH2 0x492D JUMP JUMPDEST SWAP1 POP SWAP2 SWAP1 POP JUMP JUMPDEST PUSH32 0x4269642065786365656473206275646765740000000000000000000000000000 PUSH1 0x0 DUP3 ADD MSTORE POP JUMP JUMPDEST PUSH1 0x0 PUSH2 0x49A6 PUSH1 0x12 DUP4 PUSH2 0x3436 JUMP JUMPDEST SWAP2 POP PUSH2 0x49B1 DUP3 PUSH2 0x4970 JUMP JUMPDEST PUSH1 0x20 DUP3 ADD SWAP1 POP SWAP2 SWAP1 POP JUMP JUMPDEST PUSH1 0x0 PUSH1 0x20 DUP3 ADD SWAP1 POP DUP2 DUP2 SUB PUSH1 0x0 DUP4 ADD MSTORE PUSH2 0x49D5 DUP2 PUSH2 0x4999 JUMP JUMPDEST SWAP1 POP SWAP2 SWAP1 POP JUMP JUMPDEST PUSH32 0x52657075746174696F6E20746F6F206C6F770000000000000000000000000000 PUSH1 0x0 DUP3 ADD MSTORE POP JUMP JUMPDEST PUSH1 0x0 PUSH2 0x4A12 PUSH1 0x12 DUP4 PUSH2 0x3436 JUMP JUMPDEST SWAP2 POP PUSH2 0x4A1D DUP3 PUSH2 0x49DC JUMP JUMPDEST PUSH1 0x20 DUP3 ADD SWAP1 POP SWAP2 SWAP1 POP JUMP JUMPDEST PUSH1 0x0 PUSH1 0x20 DUP3 ADD SWAP1 POP DUP2 DUP2 SUB PUSH1 0x0 DUP4 ADD MSTORE PUSH2 0x4A41 DUP2 PUSH2 0x4A05 JUMP JUMPDEST SWAP1 POP SWAP2 SWAP1 POP JUMP JUMPDEST PUSH32 0x427564676574206D757374206265203E20300000000000000000000000000000 PUSH1 0x0 DUP3 ADD MSTORE POP JUMP JUMPDEST PUSH1 0x0 PUSH2 0x4A7E PUSH1 0x12 DUP4 PUSH2 0x3436 JUMP JUMPDEST SWAP2 POP PUSH2 0x4A89 DUP3 PUSH2 0x4A48 JUMP JUMPDEST PUSH1 0x20 DUP3 ADD SWAP1 POP SWAP2 SWAP1 POP JUMP JUMPDEST PUSH1 0x0 PUSH1 0x20 DUP3 ADD SWAP1 POP DUP2 DUP2 SUB PUSH1 0x0 DUP4 ADD MSTORE PUSH2 0x4AAD DUP2 PUSH2 0x4A71 JUMP JUMPDEST SWAP1 POP SWAP2 SWAP1 POP JUMP JUMPDEST PUSH32 0x446561646C696E65206D75737420626520667574757265000000000000000000 PUSH1 0x0 DUP3 ADD MSTORE POP JUMP JUMPDEST PUSH1 0x0 PUSH2 0x4AEA PUSH1 0x17 DUP4 PUSH2 0x3436 JUMP JUMPDEST SWAP2 POP PUSH2 0x4AF5 DUP3 PUSH2 0x4AB4 JUMP JUMPDEST PUSH1 0x20 DUP3 ADD SWAP1 POP SWAP2 SWAP1 POP JUMP JUMPDEST PUSH1 0x0 PUSH1 0x20 DUP3 ADD SWAP1 POP DUP2 DUP2 SUB PUSH1 0x0 DUP4 ADD MSTORE PUSH2 0x4B19 DUP2 PUSH2 0x4ADD JUMP JUMPDEST SWAP1 POP SWAP2 SWAP1 POP JUMP JUMPDEST PUSH1 0x0 PUSH1 0x40 DUP3 ADD SWAP1 POP DUP2 DUP2 SUB PUSH1 0x0 DUP4 ADD MSTORE PUSH2 0x4B3A DUP2 DUP6 PUSH2 0x3482 JUMP JUMPDEST SWAP1 POP PUSH2 0x4B49 PUSH1 0x20 DUP4 ADD DUP5 PUSH2 0x33DB JUMP JUMPDEST SWAP4 SWAP3 POP POP POP JUMP JUMPDEST PUSH32 0x43616E6E6F742064697370757465206E6F770000000000000000000000000000 PUSH1 0x0 DUP3 ADD MSTORE POP JUMP JUMPDEST PUSH1 0x0 PUSH2 0x4B86 PUSH1 0x12 DUP4 PUSH2 0x3436 JUMP JUMPDEST SWAP2 POP PUSH2 0x4B91 DUP3 PUSH2 0x4B50 JUMP JUMPDEST PUSH1 0x20 DUP3 ADD SWAP1 POP SWAP2 SWAP1 POP JUMP JUMPDEST PUSH1 0x0 PUSH1 0x20 DUP3 ADD SWAP1 POP DUP2 DUP2 SUB PUSH1 0x0 DUP4 ADD MSTORE PUSH2 0x4BB5 DUP2 PUSH2 0x4B79 JUMP JUMPDEST SWAP1 POP SWAP2 SWAP1 POP JUMP JUMPDEST PUSH32 0x416C726561647920646973707574656400000000000000000000000000000000 PUSH1 0x0 DUP3 ADD MSTORE POP JUMP JUMPDEST PUSH1 0x0 PUSH2 0x4BF2 PUSH1 0x10 DUP4 PUSH2 0x3436 JUMP JUMPDEST SWAP2 POP PUSH2 0x4BFD DUP3 PUSH2 0x4BBC JUMP JUMPDEST PUSH1 0x20 DUP3 ADD SWAP1 POP SWAP2 SWAP1 POP JUMP JUMPDEST PUSH1 0x0 PUSH1 0x20 DUP3 ADD SWAP1 POP DUP2 DUP2 SUB PUSH1 0x0 DUP4 ADD MSTORE PUSH2 0x4C21 DUP2 PUSH2 0x4BE5 JUMP JUMPDEST SWAP1 POP SWAP2 SWAP1 POP JUMP JUMPDEST PUSH32 0x416D6F756E742065786365656473206665657300000000000000000000000000 PUSH1 0x0 DUP3 ADD MSTORE POP JUMP JUMPDEST PUSH1 0x0 PUSH2 0x4C5E PUSH1 0x13 DUP4 PUSH2 0x3436 JUMP JUMPDEST SWAP2 POP PUSH2 0x4C69 DUP3 PUSH2 0x4C28 JUMP JUMPDEST PUSH1 0x20 DUP3 ADD SWAP1 POP SWAP2 SWAP1 POP JUMP JUMPDEST PUSH1 0x0 PUSH1 0x20 DUP3 ADD SWAP1 POP DUP2 DUP2 SUB PUSH1 0x0 DUP4 ADD MSTORE PUSH2 0x4C8D DUP2 PUSH2 0x4C51 JUMP JUMPDEST SWAP1 POP SWAP2 SWAP1 POP JUMP JUMPDEST PUSH32 0x5769746864726177206661696C65640000000000000000000000000000000000 PUSH1 0x0 DUP3 ADD MSTORE POP JUMP JUMPDEST PUSH1 0x0 PUSH2 0x4CCA PUSH1 0xF DUP4 PUSH2 0x3436 JUMP JUMPDEST SWAP2 POP PUSH2 0x4CD5 DUP3 PUSH2 0x4C94 JUMP JUMPDEST PUSH1 0x20 DUP3 ADD SWAP1 POP SWAP2 SWAP1 POP JUMP JUMPDEST PUSH1 0x0 PUSH1 0x20 DUP3 ADD SWAP1 POP DUP2 DUP2 SUB PUSH1 0x0 DUP4 ADD MSTORE PUSH2 0x4CF9 DUP2 PUSH2 0x4CBD JUMP JUMPDEST SWAP1 POP SWAP2 SWAP1 POP JUMP JUMPDEST PUSH32 0x4A6F62206E6F7420696E2070726F677265737300000000000000000000000000 PUSH1 0x0 DUP3 ADD MSTORE POP JUMP JUMPDEST PUSH1 0x0 PUSH2 0x4D36 PUSH1 0x13 DUP4 PUSH2 0x3436 JUMP JUMPDEST SWAP2 POP PUSH2 0x4D41 DUP3 PUSH2 0x4D00 JUMP JUMPDEST PUSH1 0x20 DUP3 ADD SWAP1 POP SWAP2 SWAP1 POP JUMP JUMPDEST PUSH1 0x0 PUSH1 0x20 DUP3 ADD SWAP1 POP DUP2 DUP2 SUB PUSH1 0x0 DUP4 ADD MSTORE PUSH2 0x4D65 DUP2 PUSH2 0x4D29 JUMP JUMPDEST SWAP1 POP SWAP2 SWAP1 POP JUMP JUMPDEST PUSH32 0x4E6F742068697265640000000000000000000000000000000000000000000000 PUSH1 0x0 DUP3 ADD MSTORE POP JUMP JUMPDEST PUSH1 0x0 PUSH2 0x4DA2 PUSH1 0x9 DUP4 PUSH2 0x3436 JUMP JUMPDEST SWAP2 POP PUSH2 0x4DAD DUP3 PUSH2 0x4D6C JUMP JUMPDEST PUSH1 0x20 DUP3 ADD SWAP1 POP SWAP2 SWAP1 POP JUMP JUMPDEST PUSH1 0x0 PUSH1 0x20 DUP3 ADD SWAP1 POP DUP2 DUP2 SUB PUSH1 0x0 DUP4 ADD MSTORE PUSH2 0x4DD1 DUP2 PUSH2 0x4D95 JUMP JUMPDEST SWAP1 POP SWAP2 SWAP1 POP JUMP JUMPDEST PUSH32 0x496E76616C69642062696420696E646578000000000000000000000000000000 PUSH1 0x0 DUP3 ADD MSTORE POP JUMP JUMPDEST PUSH1 0x0 PUSH2 0x4E0E PUSH1 0x11 DUP4 PUSH2 0x3436 JUMP JUMPDEST SWAP2 POP PUSH2 0x4E19 DUP3 PUSH2 0x4DD8 JUMP JUMPDEST PUSH1 0x20 DUP3 ADD SWAP1 POP SWAP2 SWAP1 POP JUMP JUMPDEST PUSH1 0x0 PUSH1 0x20 DUP3 ADD SWAP1 POP DUP2 DUP2 SUB PUSH1 0x0 DUP4 ADD MSTORE PUSH2 0x4E3D DUP2 PUSH2 0x4E01 JUMP JUMPDEST SWAP1 POP SWAP2 SWAP1 POP JUMP JUMPDEST PUSH32 0x426964206E6F7420666F756E6400000000000000000000000000000000000000 PUSH1 0x0 DUP3 ADD MSTORE POP JUMP JUMPDEST PUSH1 0x0 PUSH2 0x4E7A PUSH1 0xD DUP4 PUSH2 0x3436 JUMP JUMPDEST SWAP2 POP PUSH2 0x4E85 DUP3 PUSH2 0x4E44 JUMP JUMPDEST PUSH1 0x20 DUP3 ADD SWAP1 POP SWAP2 SWAP1 POP JUMP JUMPDEST PUSH1 0x0 PUSH1 0x20 DUP3 ADD SWAP1 POP DUP2 DUP2 SUB PUSH1 0x0 DUP4 ADD MSTORE PUSH2 0x4EA9 DUP2 PUSH2 0x4E6D JUMP JUMPDEST SWAP1 POP SWAP2 SWAP1 POP JUMP JUMPDEST PUSH32 0x4574686572206D757374206D6174636820626964000000000000000000000000 PUSH1 0x0 DUP3 ADD MSTORE POP JUMP JUMPDEST PUSH1 0x0 PUSH2 0x4EE6 PUSH1 0x14 DUP4 PUSH2 0x3436 JUMP JUMPDEST SWAP2 POP PUSH2 0x4EF1 DUP3 PUSH2 0x4EB0 JUMP JUMPDEST PUSH1 0x20 DUP3 ADD SWAP1 POP SWAP2 SWAP1 POP JUMP JUMPDEST PUSH1 0x0 PUSH1 0x20 DUP3 ADD SWAP1 POP DUP2 DUP2 SUB PUSH1 0x0 DUP4 ADD MSTORE PUSH2 0x4F15 DUP2 PUSH2 0x4ED9 JUMP JUMPDEST SWAP1 POP SWAP2 SWAP1 POP JUMP JUMPDEST PUSH1 0x0 PUSH2 0x4F27 DUP3 PUSH2 0x3378 JUMP JUMPDEST SWAP2 POP PUSH2 0x4F32 DUP4 PUSH2 0x3378 JUMP JUMPDEST SWAP3 POP DUP3 DUP3 MUL PUSH2 0x4F40 DUP2 PUSH2 0x3378 JUMP JUMPDEST SWAP2 POP DUP3 DUP3 DIV DUP5 EQ DUP4 ISZERO OR PUSH2 0x4F57 JUMPI PUSH2 0x4F56 PUSH2 0x3C24 JUMP JUMPDEST JUMPDEST POP SWAP3 SWAP2 POP POP JUMP JUMPDEST PUSH32 0x4E487B7100000000000000000000000000000000000000000000000000000000 PUSH1 0x0 MSTORE PUSH1 0x12 PUSH1 0x4 MSTORE PUSH1 0x24 PUSH1 0x0 REVERT JUMPDEST PUSH1 0x0 PUSH2 0x4F98 DUP3 PUSH2 0x3378 JUMP JUMPDEST SWAP2 POP PUSH2 0x4FA3 DUP4 PUSH2 0x3378 JUMP JUMPDEST SWAP3 POP DUP3 PUSH2 0x4FB3 JUMPI PUSH2 0x4FB2 PUSH2 0x4F5E JUMP JUMPDEST JUMPDEST DUP3 DUP3 DIV SWAP1 POP SWAP3 SWAP2 POP POP JUMP INVALID LOG2 PUSH5 0x6970667358 0x22 SLT KECCAK256 MULMOD RETURN PUSH23 0x2BE1CB9CA71A11370CCF89BB58B701DDB8CF1A65D74FFA 0xF DUP6 0xCA NOT SWAPN 0xAC PUSH5 0x736F6C6343 STOP ADDMOD 0x1E STOP CALLER "
				},
				"gasEstimates": {
					"creation": {
						"codeDepositCost": "4093600",
						"executionCost": "infinite",
						"totalCost": "infinite"
					},
					"external": {
						"approveWork(uint256)": "infinite",
						"arbiter()": "infinite",
						"availableFees()": "infinite",
						"escrow(uint256)": "infinite",
						"getBid(uint256,uint256)": "infinite",
						"getBidCount(uint256)": "infinite",
						"hireFreelancer(uint256,uint256)": "infinite",
						"jobCounter()": "2474",
						"jobs(uint256)": "infinite",
						"markCompleted(uint256)": "61438",
						"placeBid(uint256,uint256,uint256)": "infinite",
						"postJob(string,string,uint256,uint256)": "infinite",
						"raiseDispute(uint256)": "65895",
						"registerUser(string,uint8)": "infinite",
						"resolveDispute(uint256,bool)": "infinite",
						"totalEscrowLocked()": "2540",
						"users(address)": "infinite",
						"withdrawFees(address,uint256)": "infinite"
					},
					"internal": {
						"_calculateFee(uint256)": "infinite",
						"_feePercent(uint256)": "68"
					}
				},
				"methodIdentifiers": {
					"approveWork(uint256)": "3d01e0fa",
					"arbiter()": "fe25e00a",
					"availableFees()": "289a74c9",
					"escrow(uint256)": "d68ff191",
					"getBid(uint256,uint256)": "582c7ffd",
					"getBidCount(uint256)": "744d3411",
					"hireFreelancer(uint256,uint256)": "f73b60a9",
					"jobCounter()": "50355d76",
					"jobs(uint256)": "180aedf3",
					"markCompleted(uint256)": "cac5c512",
					"placeBid(uint256,uint256,uint256)": "5e62be25",
					"postJob(string,string,uint256,uint256)": "71bf6bed",
					"raiseDispute(uint256)": "a5c1674e",
					"registerUser(string,uint8)": "338e12eb",
					"resolveDispute(uint256,bool)": "34b25ee2",
					"totalEscrowLocked()": "6e331b68",
					"users(address)": "a87430ba",
					"withdrawFees(address,uint256)": "ad3b1b47"
				}
			},
			"storageLayout": {
				"storage": [
					{
						"astId": 63,
						"contract": "FreelanceMarketplace.sol:FreelanceMarketplace",
						"label": "jobCounter",
						"offset": 0,
						"slot": "0",
						"type": "t_uint256"
					},
					{
						"astId": 68,
						"contract": "FreelanceMarketplace.sol:FreelanceMarketplace",
						"label": "users",
						"offset": 0,
						"slot": "1",
						"type": "t_mapping(t_address,t_struct(User)24_storage)"
					},
					{
						"astId": 73,
						"contract": "FreelanceMarketplace.sol:FreelanceMarketplace",
						"label": "jobs",
						"offset": 0,
						"slot": "2",
						"type": "t_mapping(t_uint256,t_struct(Job)50_storage)"
					},
					{
						"astId": 79,
						"contract": "FreelanceMarketplace.sol:FreelanceMarketplace",
						"label": "jobBids",
						"offset": 0,
						"slot": "3",
						"type": "t_mapping(t_uint256,t_array(t_struct(Bid)59_storage)dyn_storage)"
					},
					{
						"astId": 83,
						"contract": "FreelanceMarketplace.sol:FreelanceMarketplace",
						"label": "escrow",
						"offset": 0,
						"slot": "4",
						"type": "t_mapping(t_uint256,t_uint256)"
					},
					{
						"astId": 85,
						"contract": "FreelanceMarketplace.sol:FreelanceMarketplace",
						"label": "totalEscrowLocked",
						"offset": 0,
						"slot": "5",
						"type": "t_uint256"
					},
					{
						"astId": 88,
						"contract": "FreelanceMarketplace.sol:FreelanceMarketplace",
						"label": "_locked",
						"offset": 0,
						"slot": "6",
						"type": "t_uint256"
					}
				],
				"types": {
					"t_address": {
						"encoding": "inplace",
						"label": "address",
						"numberOfBytes": "20"
					},
					"t_address_payable": {
						"encoding": "inplace",
						"label": "address payable",
						"numberOfBytes": "20"
					},
					"t_array(t_struct(Bid)59_storage)dyn_storage": {
						"base": "t_struct(Bid)59_storage",
						"encoding": "dynamic_array",
						"label": "struct FreelanceMarketplace.Bid[]",
						"numberOfBytes": "32"
					},
					"t_bool": {
						"encoding": "inplace",
						"label": "bool",
						"numberOfBytes": "1"
					},
					"t_enum(JobStatus)12": {
						"encoding": "inplace",
						"label": "enum FreelanceMarketplace.JobStatus",
						"numberOfBytes": "1"
					},
					"t_enum(Role)5": {
						"encoding": "inplace",
						"label": "enum FreelanceMarketplace.Role",
						"numberOfBytes": "1"
					},
					"t_mapping(t_address,t_struct(User)24_storage)": {
						"encoding": "mapping",
						"key": "t_address",
						"label": "mapping(address => struct FreelanceMarketplace.User)",
						"numberOfBytes": "32",
						"value": "t_struct(User)24_storage"
					},
					"t_mapping(t_uint256,t_array(t_struct(Bid)59_storage)dyn_storage)": {
						"encoding": "mapping",
						"key": "t_uint256",
						"label": "mapping(uint256 => struct FreelanceMarketplace.Bid[])",
						"numberOfBytes": "32",
						"value": "t_array(t_struct(Bid)59_storage)dyn_storage"
					},
					"t_mapping(t_uint256,t_struct(Job)50_storage)": {
						"encoding": "mapping",
						"key": "t_uint256",
						"label": "mapping(uint256 => struct FreelanceMarketplace.Job)",
						"numberOfBytes": "32",
						"value": "t_struct(Job)50_storage"
					},
					"t_mapping(t_uint256,t_uint256)": {
						"encoding": "mapping",
						"key": "t_uint256",
						"label": "mapping(uint256 => uint256)",
						"numberOfBytes": "32",
						"value": "t_uint256"
					},
					"t_string_storage": {
						"encoding": "bytes",
						"label": "string",
						"numberOfBytes": "32"
					},
					"t_struct(Bid)59_storage": {
						"encoding": "inplace",
						"label": "struct FreelanceMarketplace.Bid",
						"members": [
							{
								"astId": 52,
								"contract": "FreelanceMarketplace.sol:FreelanceMarketplace",
								"label": "freelancer",
								"offset": 0,
								"slot": "0",
								"type": "t_address"
							},
							{
								"astId": 54,
								"contract": "FreelanceMarketplace.sol:FreelanceMarketplace",
								"label": "amount",
								"offset": 0,
								"slot": "1",
								"type": "t_uint256"
							},
							{
								"astId": 56,
								"contract": "FreelanceMarketplace.sol:FreelanceMarketplace",
								"label": "proposedTime",
								"offset": 0,
								"slot": "2",
								"type": "t_uint256"
							},
							{
								"astId": 58,
								"contract": "FreelanceMarketplace.sol:FreelanceMarketplace",
								"label": "exists",
								"offset": 0,
								"slot": "3",
								"type": "t_bool"
							}
						],
						"numberOfBytes": "128"
					},
					"t_struct(Job)50_storage": {
						"encoding": "inplace",
						"label": "struct FreelanceMarketplace.Job",
						"members": [
							{
								"astId": 26,
								"contract": "FreelanceMarketplace.sol:FreelanceMarketplace",
								"label": "id",
								"offset": 0,
								"slot": "0",
								"type": "t_uint256"
							},
							{
								"astId": 28,
								"contract": "FreelanceMarketplace.sol:FreelanceMarketplace",
								"label": "client",
								"offset": 0,
								"slot": "1",
								"type": "t_address"
							},
							{
								"astId": 30,
								"contract": "FreelanceMarketplace.sol:FreelanceMarketplace",
								"label": "title",
								"offset": 0,
								"slot": "2",
								"type": "t_string_storage"
							},
							{
								"astId": 32,
								"contract": "FreelanceMarketplace.sol:FreelanceMarketplace",
								"label": "category",
								"offset": 0,
								"slot": "3",
								"type": "t_string_storage"
							},
							{
								"astId": 34,
								"contract": "FreelanceMarketplace.sol:FreelanceMarketplace",
								"label": "budget",
								"offset": 0,
								"slot": "4",
								"type": "t_uint256"
							},
							{
								"astId": 36,
								"contract": "FreelanceMarketplace.sol:FreelanceMarketplace",
								"label": "deadline",
								"offset": 0,
								"slot": "5",
								"type": "t_uint256"
							},
							{
								"astId": 39,
								"contract": "FreelanceMarketplace.sol:FreelanceMarketplace",
								"label": "status",
								"offset": 0,
								"slot": "6",
								"type": "t_enum(JobStatus)12"
							},
							{
								"astId": 41,
								"contract": "FreelanceMarketplace.sol:FreelanceMarketplace",
								"label": "hiredFreelancer",
								"offset": 1,
								"slot": "6",
								"type": "t_address"
							},
							{
								"astId": 43,
								"contract": "FreelanceMarketplace.sol:FreelanceMarketplace",
								"label": "acceptedBidAmount",
								"offset": 0,
								"slot": "7",
								"type": "t_uint256"
							},
							{
								"astId": 45,
								"contract": "FreelanceMarketplace.sol:FreelanceMarketplace",
								"label": "freelancerMarkedDone",
								"offset": 0,
								"slot": "8",
								"type": "t_bool"
							},
							{
								"astId": 47,
								"contract": "FreelanceMarketplace.sol:FreelanceMarketplace",
								"label": "clientApproved",
								"offset": 1,
								"slot": "8",
								"type": "t_bool"
							},
							{
								"astId": 49,
								"contract": "FreelanceMarketplace.sol:FreelanceMarketplace",
								"label": "disputed",
								"offset": 2,
								"slot": "8",
								"type": "t_bool"
							}
						],
						"numberOfBytes": "288"
					},
					"t_struct(User)24_storage": {
						"encoding": "inplace",
						"label": "struct FreelanceMarketplace.User",
						"members": [
							{
								"astId": 14,
								"contract": "FreelanceMarketplace.sol:FreelanceMarketplace",
								"label": "name",
								"offset": 0,
								"slot": "0",
								"type": "t_string_storage"
							},
							{
								"astId": 17,
								"contract": "FreelanceMarketplace.sol:FreelanceMarketplace",
								"label": "role",
								"offset": 0,
								"slot": "1",
								"type": "t_enum(Role)5"
							},
							{
								"astId": 19,
								"contract": "FreelanceMarketplace.sol:FreelanceMarketplace",
								"label": "reputation",
								"offset": 0,
								"slot": "2",
								"type": "t_uint256"
							},
							{
								"astId": 21,
								"contract": "FreelanceMarketplace.sol:FreelanceMarketplace",
								"label": "wallet",
								"offset": 0,
								"slot": "3",
								"type": "t_address_payable"
							},
							{
								"astId": 23,
								"contract": "FreelanceMarketplace.sol:FreelanceMarketplace",
								"label": "registered",
								"offset": 20,
								"slot": "3",
								"type": "t_bool"
							}
						],
						"numberOfBytes": "128"
					},
					"t_uint256": {
						"encoding": "inplace",
						"label": "uint256",
						"numberOfBytes": "32"
					}
				}
			},
			"userdoc": {
				"kind": "user",
				"methods": {},
				"version": 1
			}
		}
	}
}